S0140000446173416C74696D657465722E7372656351
S1130000F025002019010000150100001501000071
S113001000000000000000000000000000000000DC
S113002000000000000000000000000015010000B6
S11300300000000000000000150100001501000090
S11300401501000015010000150100009D0F0000BE
S11300501501000015010000150100001501000044
S11300601501000015010000150100001501000034
S11300701501000015010000150100001501000024
S11300801501000015010000150100003D100000DD
S1130090A510000000000000000000001501000091
S11300A015010000150100001501000015010000F4
S11300B00000000010B5064C2378002B07D1054B37
S11300C0002B02D0044800E000BF0123237010BDC0
S11300D0400400200000000028350000084B10B543
S11300E0002B03D00749084800E000BF0748036815
S11300F0002B00D110BD064B002BFBD09847F9E72D
S113010000000000440400202835000028350000C9
S113011000000000FEE700002148224970B5884233
S113012002D00023204C03E0204B214A002106E0AA
S1130130CA18A242F8D2C55804331560F8E79342AE
S113014001D202C3FBE7FF2102240325194B1A4AFB
S11301508B430C2693600822184B19495C62CB78B8
S1130160AB432343CB70CB78B3431343CB703021E1
S1130170144B987B8843103908439873997BB14397
S11301801143997380219A7BAA4322439A730E4A9E
S113019053680B4353600D4B98470D4B9847FEE74C
S11301A0283500000000002038040020400400200E
S11301B0F00500200000000000ED00E0FC700041AC
S11301C00050004100480041004000414D31000012
S11301D0710A0000014A024B1A60704740420F0046
S11301E0000000208023F7B5174FDB0201920600C0
S11301F0164C009101207B610B21A047144D310C5A
S11302002870C9B20120A047310A2870C9B2012060
S1130210A047F1B228700120A047FF2128700120D7
S1130220A047009B019E2870F3180093009B9E42F8
S113023005D029780120A04730700136F6E78023E5
S1130240DB02BB61F7BDC0460044004191180000C9
S1130250600400208023F7B5164FDB020600164C1D
S1130260019101207B610B21A047144D310C2870B2
S1130270C9B20120A047310A2870C9B20120A047A1
S1130280F1B228700120A047FF2128700120A04767
S1130290019E2870731CFF33019329780120A04725
S11302A0019B307001369E42F7D18023DB02BB6193
S11302B0F7BDC046004400419118000060040020CE
S11302C08022284B1202F0B55A610023264D87B0D4
S11302D000936B782878AA781B0203431204190050
S11302E013000B43A9796F79EC790902394324048B
S11302F0080021002C7AEA786F7A014324060C4323
S113030012061A4320002B793900184EB047EB7AB5
S1130310A97A1B020B431A002B7B154E1B041343B3
S11303206A7BAD7B12061A4339002B00200003922E
S1130330B047039A04902B0039002000B047039A79
S113034005902B0020003900B0478022054B120293
S11303509A61049B059A1B0415021D43284307B0A8
S1130360F0BDC0460044004150330000CD0C0000F5
S1130370390D0000F0B50A248DB0038804AA9380D7
S11303804388A418D3808388951D1381C38801945E
S11303902380038907AA13800E230700418904A838
S11303A01B18198016883A6936021888961BF217AA
S11303B02A4C0392F317320080B20021A047FA239B
S11303C0DB00C9182B8879619BB20293019B320030
S11303D018880021F31780B2A0474B06C4091C43B8
S11303E00023CD1102990A0412196B410892099352
S11303F004AB9C8818893200039B184D80B20021FD
S1130400A8470B06050A1D430023A4B20E12E203FB
S1130410521973410A920B930A9A0B9B089C099DEB
S11304200E4EF8680021B0470023CE17F602F20AF8
S113043080185941CE02420D32434B15121BAB4179
S11304400021DC176404600C12184B4111005B049A
S1130450CA0B1A43FA610DB0F0BDC0464D19000035
S11304600A22C36970B55A430E4C8261A24201D973
S11304700D4B15E0A31A9B0A4B2B01D90B4B0FE034
S11304800B4D99009E0201339B00EB186918A41BC5
S11304900969A41A1A69521A130063439B0A5B1868
S11304A0036270BDCC990100208DFFFF8E040F0004
S11304B050330000F0B5A22787B0029096202B4C51
S11304C08000A04796208000A0478022284C294B1A
S11304D012025A6163782078A2781B020343120443
S11304E0190013000B43A17966790902314308000E
S11304F0E179E27809040143207A667A120600065B
S113050008431A430097237931001B4D0390A847F1
S1130510E37A2000A17A247B1B020B4324041A00F3
S11305202300447B857B134324061C4322002B00B9
S113053004943100114C0398A0472B000590049AB1
S1130540039831000D4CA04780220A4B12029A6195
S1130550059B1D02029B28431880BB1CDFB2029B33
S113056002330293AE2FA9D107B0F0BD3D0F0000B6
S11305705033000000440041CD0C0000390D000050
S1130580F7B580261E231A491A4D36026E61009370
S11305904B780A781B0213438A780400120418006B
S11305A01300CA78034312064F1D1A4348790B7986
S11305B0897909020143B87800040143F8780006F8
S11305C0084339790C4FB847AE61C8200B4B9847A4
S11305D020000B4B9847FA231B012362094BA361AC
S11305E0094BE360094B2361FA23DB006361F7BD28
S11305F05033000000440041CD0C00006D0F00009A
S1130600B504000010270000FEC94100E4FA7F0091
S1130610F0B5BF4B85B09847BE4B9847BE4B984743
S1130620BE4B9847BE4B9847BE4B98474022C121CA
S1130630BD4B89001A605858BC4A012402405A50E4
S1130640BB4B1025190054310A781800A2430A70D4
S1130650802252039A600F22333001781E009143A6
S113066021430170C17CC3362143C1741900B131E7
S113067008781F00104028430870307888372043DA
S11306803070087810402843087030782043307068
S1130690307DA04330758020000403973860F860F3
S11306A008783E00904320430870C22084469C444E
S11306B060466746007820433870087890432043AA
S11306C0087018003978D630214339700178022730
S11306D0A143017080210398C90301601800F160EF
S11306E0313001783F3E11400D4305701D00433504
S11306F02978BC4621432970A97D0535A143697435
S113070080218904996059610178914321430170E2
S1130710417C113021430170817DA1438175802189
S11307204904996059612978A143297080214900BD
S113073099603178A1433170802189009960190052
S11307404B310878A043087008783843087080203B
S11307500001586077481E37007810403843754FC1
S11307603870087820272043087018003430017846
S11307701140394301703178674621433170664630
S113078001789143314301702978963021432970CF
S113079001781E00A143017080210398C900016003
S11307A0180098300160A8785136A043A870996069
S11307B09961297AA143297280214902996031788B
S11307C0A14331708021890299601900533108785E
S11307D0A04308700878384308701F008020393718
S11307E00003586003973878202710403843039F4C
S11307F038700878202720430870180038300178B2
S113080011403943017031782143317066460178D3
S1130810914331430170297A14302143297281793B
S1130820A14381718021C902996099610178A14332
S113083001708021490199608178A14381708021F0
S1130840C901996019004D310878A04308700878EF
S11308503043087080211800890159604F300178B5
S1130860A1430170802109029960996119005531F1
S11308700878A043087080208003986040200870A6
S11308804878A04348708020C003986018003B302B
S113089005789543354305704D7825434D708D7823
S11308A0A5438D708D7835438D7080252D045D6052
S11308B000250378204E1A403A4302708B780422B4
S11308C023438B7000200321B0472B002A0028000B
S11308D01A4F019500950321B847200004220321F3
S11308E0B0472B002A002000019500950321B8474A
S11308F0082204210320B04721002A000320104BC2
S1130900104CA047104B9847104B984705B0F0BDCA
S1130910D5010000C90D0000510E00001D0F00009C
S1130920E90B0000BD10000000E100E0FFFF00FF44
S1130930004400413544004185170000E9170000D8
S1130940E4F200004D180000ED0F00005510000007
S1130950F0B50600C820C5B040003C4FB8473C4C39
S1130960A047050001970394039B9847394B401B0C
S113097098424FD8384F3B7E5B07F5D5374C032060
S1130980A0470294011E4829EED10320344CA0470D
S11309903B7E5B07FCD50320029B98474C28E3D1A0
S11309A0002528002F4B9847002804D02900303117
S11309B0C9B20320A0470135EDB20B2DF1D10421BA
S11309C00320A0473B7E5B07FCD5029B032098478E
S11309D03300002588368C331B68326803209B1A49
S11309E01B0ADBB219000293A047376804A9380038
S11309F01D4B9847002604ABF15C0320A0478023DD
S1130A0001365B009E42F6D1FF180135029BEDB220
S1130A10AB42EBD29620019B40009847134C5020E8
S1130A20A0479620019B40009847FA20A0479620B3
S1130A30019B400098475020A0479620019B40000E
S1130A409847FA204000A04745B0F0BD8D0D000046
S1130A50B90F00000F27000000140042C118000065
S1130A60A9180000AD0B0000550200006D0F000036
S1130A70F0B5324C324BA544984700246B4601A88C
S1130A801C70304B9847304B9847C8236A465B002C
S1130A90D45480239B0122932C4B2D4F23936846DF
S1130AA02C4BD45598472C4CA0470500A0472B4B02
S1130AB0401B984206D86846294B98476846294BFC
S1130AC09847F3E76846284B802698477603002426
S1130AD0264D2B78002B06D06846214B9847684654
S1130AE0204B98472C70224B1A78002AF0D01C70A7
S1130AF06846204B98476B46DB5D002BE8D000220C
S1130B006946134B1C4DCA54EE61229B239A9342AF
S1130B1003D80133FF332293D9E7184C5020A04760
S1130B20EE615020A047EE615020A047EE615020B6
S1130B30A047EE615020A047C9E7C04654FDFFFF1F
S1130B401106000081050000810B0000FF5F00001A
S1130B509102000051090000B90F0000B70B00001A
S1130B60DD1300001D110000ED12000063040020DD
S1130B706104002049130000004400416D0F00008F
S1130B8070B5084C80252300ED0094331D60064E9B
S1130B900F210020B04798340C210020B047256075
S1130BA070BDC046004400419118000013B50321F4
S1130BB00023484301AC013023706370A370FF30FD
S1130BC02200074B98476078A37800021B0418435F
S1130BD023781843034BC018431E9841C0B216BD76
S1130BE0E5010000010000FF802110B5104A490210
S1130BF0136A10480B431362E0230F490F4ADB00CA
S1130C008B8050800E4A1268500118400D4B5401DD
S1130C101A68D30E2343DAB2030013430B8502236D
S1130C204B700B704B7E5BB2002BFBDB10BDC046E0
S1130C30000400401E40000000400042000C004040
S1130C4024608000206080000222054B1A73013A60
S1130C50197E1142FCD0024B588B80B27047C046BB
S1130C600040004237B50125020CD4B20090000EBA
S1130C7001914208E3011149D2185218284205D0C3
S1130C800F21147821401024214303E00F2411780C
S1130C90A143294311700121094AC3189B181A78EA
S1130CA00A431A706B461A791F231340C02252015B
S1130CB01343044A1361044B98473EBD304400413A
S1130CC04044004100400042490C0000010C130C58
S1130CD0F0B5CDB2D9B201231E00120E9340000E1E
S1130CE086401A0008233000114EC90187B08F19BD
S1130CF0104E0CACED01AE19247801960C4EB4469E
S1130D00AC446646306066B2002E05DA094EB4463D
S1130D108C446646326000E03A60019E013B640008
S1130D20DBB23060E4B2002BE8D107B0F0BDC046BE
S1130D301444004118440041F0B5012585B00391E5
S1130D401100060C0193F3B22E00090E140C02904C
S1130D5000928D40020E082100209640E2B20A4C17
S1130D60DB01D2011B1912195E61146A40002C4088
S1130D70671EBC4101390443C9B2E0B29E61002937
S1130D80F2D105B0F0BDC04600440041F8B580235F
S1130D908027060000250A4C5B03E361BF03B542CC
S1130DA006D0E7617A20074B01359847ADB2F6E7E4
S1130DB080239B03636180235B03E361F8BDC0462A
S1130DC0004400413D0F0000C223022010B5164923
S1130DD0164ADB008B60536803435360144B1A6854
S1130DE0920E3F2A00D1203A124B13481B689B05F0
S1130DF09B0D834200D1114B114888841020CC688C
S1130E000442FCD092021343074A93621023CA6837
S1130E101A42FCD00B4A044B9A8480220A4B52009B
S1130E209A600A4A5A6010BD000800400040004120
S1130E302460800028608000FF030000FF010000A0
S1130E4022050000A2050000000C0040000701007C
S1130E501D4A1E4B9A820222D9681142FCD081227B
S1130E601B4B52009A601B4A5A605A7852B2002AAD
S1130E70FBDB194A164B5A800422184B1A809A7AC3
S1130E801649D209FBD1A0200A88C00002430A8077
S1130E909A7AD209FCD11249104A9182997A0F4A5E
S1130EA0C909FBD151880F48014351808021022098
S1130EB0D1711188014311809A7AD209FCD10A4B6D
S1130EC008321A607047C0460E0600000008004051
S1130ED0000C004002002300044200000014004003
S1130EE0E60300001040000000E100E00F2318407A
S1130EF0084B12021A40F82309025B0119408023AF
S1130F0010B55B02044C194302430843A2606060BD
S1130F1010BDC04600FFFF00000C0040044B054A12
S1130F201A6030225A60044B2B3A1A607047C0464C
S1130F300400002080BB000010E000E070B58024B5
S1130F400021084B084A5B686402013808D3002B6F
S1130F50FBD0054E5360916035682542FCD0F4E720
S1130F6070BDC0460400002010E000E070B580248D
S1130F700021084B084A1B686402013808D3002B7F
S1130F80FBD0054E5360916035682542FCD0F4E7F0
S1130F9070BDC0460400002010E000E0FA21044ABD
S1130FA0890013685B181360FF22024B1A727047A2
S1130FB05C0400200014004030B5EFF3108172B6D9
S1130FC0084A094D108A2B68147A80B2E40904D0C7
S1130FD0138AFA22286892008018C01881F31088B6
S1130FE030BDC046001400405C04002080210D4A3E
S1130FF00D4B49015A800D4A136A0B4313620C4B83
S11310000C4A02211A8041221A75403A5A73FF325F
S11310105A811A880A431A808022074B12031A60E5
S11310207047C0461C420000000C00400004004011
S1131030003000420409000000E100E0FF22034BFD
S11310409A73034BFE3A1A707047C0460030004250
S11310506304002080210D4A0D4B89015A800D4AFA
S1131060136A0B4313620C4B0C4A02211A80202290
S11310701A751F3A5A73FF325A811A880A431A8022
S11310808022074B52031A607047C0461C4200007E
S1131090000C00400004004000340042040D000035
S11310A000E100E0FF22034B9A73034BFE3A1A70EF
S11310B07047C0460034004261040020F8B5C027E0
S11310C0104D3A00104E28000021B0470F4C3A0052
S11310D000212000B04720210D4B5A690A435A6170
S11310E0DA6910390A43DA610A4B0E391A888A43DD
S11310F01A801A8801390A431A80074A5D639C637F
S11311001A80F8BD300500209531000070040020DD
S11311100004004000480041020F0000F0B50378CD
S113112085B00400002B78D13D4D406CA8470022C7
S11311303C4B3D4EB0470600A06D0F00A8473A4D0A
S11311400022384BA847394D02000B00300039000B
S1131150A847374B984723004833019360641888A5
S1131160344DA8470022304E2E4BB0472300703335
S1131170060018880F00A8472B4D0022294BA847CA
S11311802A4D02000B0030003900A8472A4B98472B
S1131190019B2A4D1880206BA847234E0022214B27
S11311A0B04702900391606AA84700221D4BB047E4
S11311B01E4E02000B0002980399B0471E4B98473D
S11311C02063A06BA8470022164B174EB0470600B9
S11311D0A0690F00A847144D0022124BA847134DD5
S11311E002000B0030003900A847134B9847144DF8
S11311F0A063A847E36BC01AFA23DB0098420CD91A
S1131200236B019AE362A36B6363636C236423001F
S113121012884A331A80A847E06305B0F0BDC0467F
S1131220512F00000000E03F55220000E1190000AA
S1131230F92F00005D2E0000A5190000E12E00002A
S1131240B90F0000F7B5C8267600855D00924B19EA
S1131250FE2B03DC002389B2471935E000235C1917
S1131260DEB2FE2C08DC009A0419D65C9234FF34FA
S1131270013326709BB2F2E7C823002504005B000B
S1131280C554194B9234C318FF34019323001F78BB
S1131290BC4662469F1EFF3F3A70019A1D7001339F
S11312A09342F4D1C82533006D008B4208D2009AD2
S11312B0D75C0133DBB227709F1B47550134F4E739
S11312C00122094BC2540DE05C1CA4B28B4209D824
S11312D0009AD25CFB189233FF331A702B19835592
S11312E02300F1E7F7BDC046910200001FB5462375
S11312F06A466946137043785370C36B93701A0A35
S1131300CA701A0C1B0E4B71C36A0A711A0A8B71CC
S1131310CA711A0C1B0E4B72436B0A721A0A8B7237
S1131320CA721A0C1B0E4B7303000A734A331B88D0
S11313306A468B731B0ACB731021024B984705B086
S113134000BDC046451200007FB541236A461370B4
S1131350A82369469B00C35853701A0A8A701A0C52
S11313601B0E0B71436ACA701A0A4B718A711A0CEC
S11313701B0E0B720300CA7168331B886A464B72DA
S11313801B0A8B7203006C331B88CB721B0A0B7312
S1131390030070331B884B731B0A8B730300743375
S11313A01B88CB731B0A0B74030078331B884B74A4
S11313B01B0A8B7403007C331B88CB741B0A0B75CC
S11313C0030080331B884B751B0A8B751721024B56
S11313D0984707B000BDC04645120000F0B5D24B97
S11313E087B004009847A823D04D9B00E0506B7849
S11313F02978A8781B020B4300041A000300E8783C
S113140013430006CA4E29791843B047A5239B000D
S1131410E052AB796979E8791B020B4300041A00A6
S11314200300287A13430006697A1843B047C14B76
S1131430A97AE052EB7A287B1B020B4300041A00C2
S11314400300687B13430006A97B1843B047A62317
S11314509B00E0522B7CE97B687C1B020B4300045D
S11314601A000300A87C13430006E97C1843B04724
S1131470B14B297DE0526B7DA87D1B020B43000418
S11314801A000300E87D13430006297E1843B04781
S1131490A7239B00E052AB7E697EE87E1B020B43D0
S11314A000041A000300287F13430006697F1843D1
S11314B0B047230080331880A04B2600C018A04BEF
S11314C09847A04AA04FA14BB847A14B9847802703
S11314D05022E36C0836F06723659E4B3F025F6140
S11314E02E000092EA7FA87F1202024311002B0013
S11314F01E36B278233312040A43F17818780906A9
S1131500114332799D7804925A782D0412020243D1
S1131510039111002A00DD781B790A432D06154337
S11315200593039A0599049B28008B4EB047FA2033
S1131530884B40009F61894B9847894B9847854B5E
S113154060615F614223039A00932800049B05991C
S1131550B04780227F4BD2009F61824B824F1A603A
S113156082210020B847FF210020B84723006833B8
S113157018800500FF2100200393B847039B000255
S113158005431D80FF2126000020B8476C363080BB
S11315900500FF210020B847000205433580FF21E4
S11315A00020B8476B46250004901B8A70352B80B9
S11315B0FF210020B8478022049B000203432B80B4
S11315C06A4BD2001A60039B023D0020185E002380
S11315D0F25E02216B5E2100121100116A311B11AF
S11315E0039508802A80F380554B9847FE23564D77
S11315F000229B05A847564B9847039BE0640020B4
S1131600185E4F4B9847FE2300229B05A847504B7A
S1131610984760650623F05E494B9847FE230022F5
S11316209B05A8474A4B984780224A4BD200A065A5
S113163082215A610020B847FF210020B8472300C7
S1131640743318800500FF2100200393B847039BDF
S1131650000205431D80FF210020B847FF21B0810F
S113166005000020B84700020543B581FF21002092
S1131670B8476B46250004901B8A7C352B80FF21DC
S11316800020B8478022049F0002324B0743D20057
S11316902F809A61039B0020185E0C23F25E0021C8
S11316A06B5E21001211001176311B110880F2814A
S11316B06B80234B9847FE23234F00229B05B8479A
S11316C0234B9847E0650E23F05E1D4B9847FE239D
S11316D000229B05B8471E4B984720660223E85E0C
S11316E0174B9847FE2300229B05B847184B984791
S11316F06066C820194B80009847194B9847251DF0
S113170020611B4B2800984728001A4B98471A4B16
S1131710606A9847194A1A4B0B4DA8470C4B9847D7
S1131720A06207B0F0BDC046B90F000094340000B9
S1131730650C0000960200009A020000C4F0FFFF4E
S11317405D2E0000D200DE0255220000098A8FBF00
S1131750F92F000000440041CD0C00003D0F0000B3
S1131760C1020000944400419118000098440041D3
S11317707503000061040000E12E00003FA9F6E9B2
S113178078CCA03F70B504000123A61CB3400D48DB
S11317900D00016A0B430362002D03D007212800CA
S11317A0094B9847F0228020290212011140C00100
S11317B00143200014303F22030013401943034B1C
S11317C0598070BD00040040ED0E0000000C004084
S11317D0044B8002C0180123036002681A42FCD142
S11317E07047C04600080042F7B50400009308ABF8
S11317F01B780E00019309AB1F78124B1500984714
S1131800114BA402E41880239B026360C023C0210F
S11318102D049B022B400E25360589033140009E82
S11318201D43731E9E41019B72070D432A43591E9B
S11318308B4116001B071E4327732660E3695B0771
S1131840FCD4F7BDD117000000080042F8B507002A
S11318501E000C4B0D00140098470B4BB802C01827
S11318600423C0220360C023290592031140074AC0
S1131870B6B29B02240486811143436023400B4388
S11318800360F8BDD11700000008004206000040C4
S1131890044B8002C0188162037E5B07FCD5806A1A
S11318A0C0B2704700080042044B8002C01889B2DD
S11318B00185037EDB07FCD57047C0460008004263
S11318C0024B8002C018008DC0B27047000800426D
S11318D08446101C62468C46191C634600E0C046D0
S11318E01FB500F04DFC002801D40021C8421FBDE3
S11318F010B500F0A1FB4042013010BD10B500F05E
S11319003FFC002801DB002010BD012010BDC046B3
S113191010B500F035FC002801DD002010BD0120C9
S113192010BDC04610B500F0C7FB002801DC002044
S113193010BD012010BDC04610B500F0BDFB00284D
S113194001DA002010BD012010BDC046F0B54F469D
S11319504646C0B41604360C9946330005042C0CD4
S1131960070C150C63437E436F4365431C0CAD1990
S113197064199C46A64203D980235B0298464744D7
S11319806346250CEF191D044B464A4343432D0C73
S1131990240464199918C91920000CBC904699466E
S11319A0F0BDC04670B500220C4B04000D00FFF7DB
S11319B0C3FF002804D12000290001F019FA70BDEA
S11319C0064B00222000290000F0BEFE01F010FAB0
S11319D080231B069C466044F1E7C0460000E041BA
S11319E0F8B556465F464D464446F0B40F00FD0F29
S11319F0AA4609037C002E005F00450F490A7F0DAB
S1131A002943C5001803BC46400A570F640DDB0F79
S1131A103843D2009A4500D1AAE06646A61B002EA0
S1131A2000DCFFE06346002B39D10300134300D0F0
S1131A30D9E06B0709D00F232B40042B05D02B1DB5
S1131A40AB42AD416D4249191D000B0200D482E046
S1131A50CA4B01349C4200D1FEE00A005646C84BF2
S1131A60ED081A405007640552020543120B640D39
S1131A70002112030B0D1B056405120B1A436308A6
S1131A80C04CF60714401C43640064083443280027
S1131A9021003CBC90469946A246AB46F8BDB74BE4
S1131AA09C42C6D080231B041843382E00DDEBE093
S1131AB01F2E00DD1EE120239B1B9C46030067466E
S1131AC0BB40984613004746F3403B436746BA4041
S1131AD0571EBA4113430200F240EB1A9D42B6412D
S1131AE01D008A1A7642911B0B0231D54A02560A0E
S1131AF0002E00D1B4E0300001F00AFB0300083BE3
S1131B001F2B00DDB5E020222900D21AD1409E40CF
S1131B100A009D4032439C4200DDB1E01C1B631C63
S1131B201F2B00DDD5E0202114002800C91A8C40A9
S1131B30D8408D400443DA40681E85411100254396
S1131B40002476E74146314300D134E23100454672
S1131B506B0700D06FE756464807ED08C9080543F0
S1131B60864B9C4235D00A036405120B640D7FE753
S1131B706346E31A9B46002B00DC8BE06746002F8C
S1131B803CD07E4FBC4200D153E780273F0438430A
S1131B905B46382B00DCF7E00243501E82410020F4
S1131BA0D2B253194218AB4289411D0049428918E7
S1131BB00B02CDD5714B01349C4200D13DE1012093
S1131BC06F4A6B080A4028401843D507054351085B
S1131BD02FE72B000B4300D1CBE180231B030B43E6
S1131BE01A03120B44E7013E002E6DD1AE1AB54222
S1131BF09B41091A5B42C91A350075E70700174370
S1131C0000D116E701235B429C46E3445B46002B6C
S1131C1000D0E0E0AA18AA429B4109185B42591877
S1131C201500C5E7002E75D1661C7605760D012ECC
S1131C3000DCF3E0AE1AB0464545BF410E1A7F42C0
S1131C40F61B370200D48FE0551BAA42B641411A55
S1131C5076428E1B9A464BE756460022002507E73C
S1131C60280001F055FA20300300083B1F2B00DC4C
S1131C7049E72A002838824000259C4200DC4DE7D1
S1131C803F49E41A1140D4E60243501E8241D3B2C4
S1131C90002222E7002B00D0F3E0631C9C465B0586
S1131CA05B0D012B00DC9FE0344B9C4500D1C3E06D
S1131CB0AA180918AA42804140424118CD07520887
S1131CC0154349086446B4E62C4B9C4200D0ECE62C
S1131CD0AFE611001F3CE1400C00202B00D17FE057
S1131CE04021CB1A9A4015436A1E95410021254391
S1131CF000242DE733000700203BDF403B00202E6B
S1131D0070D04027BE1BB0400243501E8241134393
S1131D100022E2E6002C4FD0184CA44500D1ABE0E1
S1131D208024240476422143382E00DDDFE01F2E78
S1131D3000DD43E12027BC1BA1460C004F46BC40FC
S1131D40A0462C004746F4403C434F46BD406F1E1E
S1131D50BD41F1402C43151BAA429241411A524203
S1131D60891A64469A46BFE641464546314300D047
S1131D70BEE6002600240025F2E6C046FF07000068
S1131D80FFFF7FFFFFFF0F801F2B59DC2027FF1A67
S1131D90BC46070063469F405B46B9461700DF40D8
S1131DA0B8464F4643461F4363469A40531E9A41E2
S1131DB05B463A43D840F4E60C002C435CD0F6432F
S1131DC0002E55D1551BAA42A441411A6442091B55
S1131DD09A46644688E6964FBC4200D0D8E628E688
S1131DE0002280E700208FE70B002B43002C00D05B
S1131DF0C2E0002B00D101E10300134300D118E637
S1131E00AB18AB42B6410918764271180A0200D4E5
S1131E1009E1884A1D00114064460AE6002C5BD1A2
S1131E200E002E4300D08AE00100114300D1C2E02D
S1131E30010015009A46FCE56446002100258FE662
S1131E4020235B429C46DC4463460700DF405B463C
S1131E50BC46202B00D1ACE040235F46DB1B9840FE
S1131E600243501E8241634613431A00002098E641
S1131E706F4CA44500D057E70100150064469A460C
S1131E80D7E5002C39D10C002C436ED0DB43002B5A
S1131E901AD0674CA44568D0382B00DDA4E01F2B72
S1131EA000DDAEE020240F00E41AA740B9462F005D
S1131EB0DF40B846A3464F46444627435C46A54008
S1131EC06C1EA541D9403D43AD1895429B4109186C
S1131ED05B42591864466BE60C002C4315D1010093
S1131EE011437BD0010015009A46514CA1E50D43E6
S1131EF0691E8D410021ECB22DE74D4CA44534D030
S1131F00802424045B422143C6E7040014434ED0DA
S1131F10ED084C072C438025C9082D03294208D01D
S1131F20C6082E4205D1D208410711430C009A4637
S1131F303100620FC900E50011433D4C79E506000C
S1131F40164300D175E5AE1AB0464545BF410E1A99
S1131F507F42F61B370200D4F4E5551BAA42B64172
S1131F60411A7642891B9A4663E5010015006446CE
S1131F705FE5002200257BE5002B3BD003001343E3
S1131F8015D0ED084B072B438025C9082D032942A2
S1131F9007D0C4082C4204D141070B002100D20809
S1131FA01343C9005A0F1143DD00214C41E5204C75
S1131FB03FE5002054E700260025D1E534000F005A
S1131FC0203CE7403C00202E2BD04027BE1BB140D4
S1131FD00D43691E8D4100212C43BCE6802100265F
S1131FE00903134C0025BBE50D43691E8D410021F7
S1131FF0EDB269E7010015000D4C1AE5010015006A
S113200017E51C000F00203CE7403C00202B0CD0BF
S11320104027FB1A99400D43691E8D410021254339
S113202052E70021D4E71D0092E50021F3E7C04602
S1132030FF070000FFFF7FFFF0B55F4656464D46A1
S11320404446F0B41F035C00DB0F9A46194B0E03A1
S11320504D00C90F8046360B6D0D8B4691463F0BE4
S1132060640D9D4219D0134B9C421BD00123A54201
S113207006D018003CBC90469946A246AB46F0BD3B
S1132080BE42F6D1C845F4D1D34510D0002DF0D1CD
S1132090304303005A1E9341EBE73100012301430F
S11320A0E7D1E0E73A430123002AE2D1DEE7002347
S11320B0DFE7C046FF070000F0B55F4644465646DA
S11320C04D46F0B41F033C0B2C4F0E034D00A346AA
S11320D05C008446360B6D0DC90F9046640DDB0F12
S11320E0BD422BD0254FBC422ED0002D0ED1304303
S11320F00700814678427841002C17D15F463A4365
S113210014D14B460020002B0AD006E0002C02D14B
S11321105846024301D099421AD001234842184339
S11321203CBC90469946A246AB46F0BD0028F2D08E
S113213058425841012240421043F1E73700074317
S1132140D0D002204042EBE75F461743CDD0F8E7FA
S1132150A542E2DC05DB5E45DFD808D000205E4501
S1132160DED248424841012340421843D8E7C445DF
S1132170D3D80020C445F4D3D2E7C046FF070000FB
S1132180F0B55F464D4644465646F0B41C03240B56
S1132190A4462F4C0F034D005E00C90F80463F0B31
S11321A06D0D8B469146760DDB0FA54220D0284C51
S11321B0A64222D0002D12D1384344424441002E7D
S11321C020D0002C0DD05C42634101245B421C43AF
S11321D020003CBC90469946A246AB46F0BD002E7A
S11321E017D05B4519D05B465C4201231C43EFE7E3
S11321F0390002240143EBD1D9E76146022411439B
S1132200E6D1D7E761460A43DBD100240028DFD0BA
S1132210E9E761460A43E4D1E5E7B54203DD01227B
S11322205C421443D4E7B542CDDB6745DBD809D023
S113223000246745CCD259464C42614101244942AD
S11322400C43C5E7C845CED80024C845F3D3BFE73F
S1132250FF070000F0B55F4656464D464446F0B4CD
S11322600D0399464E002B0B87B00700924680461B
S11322709B46760DCC0F002E69D06D4B9E4235D017
S11322805B468022DD001204430F13432B439B461D
S1132290C3009846674B00279C460023664401937D
S11322A04A4615035000D20F53462D0B400D91465C
S11322B000D176E05E4A90426CD080225B0F12041B
S11322C013435C4AED0094461D4353460022DB0051
S11322D0604449463618701C6140029017430F2F22
S11322E000D9AFE05448BF00C759BF465B461F43FF
S11322F000D088E000239B469846023308270193C8
S1132300CEE74946022A6AD0032A00D109E2012A0B
S113231000D0BBE111400022002300259046CCB23E
S113232000212D030A0D12052D0B1543434A1B05ED
S113233015401D436D00E4076D0825434046290000
S113234007B03CBC90469946A246AB46F0BD034359
S113235052D05B46002B00D18AE1584600F0D8FEEB
S113236003000B3B1C2B00DD7BE11D22D31A3A003A
S113237001005D46DA4008398D4013008F402B433D
S11323809B46B8462E4B00279C4600236044464299
S1132390019385E752462A432CD1002500230222CB
S11323A097E752462A4321D0002D00D154E128005A
S11323B000F0AEFE03000B3B1C2B00DD46E11D21AB
S11323C0CB1A51460200D9405346083A95409340EF
S11323D00D431B4A944660444042002279E701249D
S11323E000220C40124B0025904699E7002500235B
S11323F001226EE703226CE700239B4698460133D3
S1132400042701934CE703230C27019348E7002397
S11324108025984600242D03054B81E75D464346FD
S1132420019A6FE75D4643462100019A6AE7C04678
S1132430FF07000001FCFFFFBC340000FFFF0F801A
S1132440F30300004246120C91461A0C944642468D
S113245017044A461B041B0C5A43604690464A46DE
S113246042431000039262461C003F0C7A437C43B3
S113247042440192220C9246019A5244904506D954
S11324808246802040028046C24450460390100C8D
S1132490049048462404240C1204121905922A0CB0
S11324A02D042D0C68432C00824648467C4350433F
S11324B08146200C8046574357444744BA4503D9C4
S11324C0802040028046C144380C3F04B84648444A
S11324D02404240C01900498A044404404905846D9
S11324E0000C814658460404200C824607004846E6
S11324F05F434C46434360466043644683465046CC
S11325004443380C8446E4186444A34203D980232A
S11325105B029C46E34448463F04230C3F0C2404DE
S1132520E419574668436F4384464D465046554325
S11325304243380C814662444A445B44944503D97F
S1132540802040028446654403983F0483460498EF
S11325503F0C8446E344C345804140428246100414
S113256084460198674484466744A344BC46A34513
S1132570A4419946D44464428742BF41D445804132
S1132580E144A04699459B417F424042C8440743E9
S1132590120CBA18A045A4415F423B006442234395
S11325A0D71843467D19DB0D6D021D435B465A0265
S11325B0059B1A43531E9A415B46DB0D1A4343465F
S11325C05B021343EA0107D501225C08134023434D
S11325D0EA07029E13436D08574AB218002A4BDDDE
S11325E0580709D00F201840042805D0181D984218
S11325F09B415B42ED180300E80104D54F4A1540A6
S11326008022D200B2184E48824200DDE7E601245F
S1132610DB08680718436D02530580462D0B5B0DDC
S11326200C407DE6802259461203114208D015421F
S113263006D115432D0398462D0B4C46414B6FE6AE
S11326405D4615432D032D0B3E4B69E603005546AD
S1132650283B9D400023BCE6504600F059FD203045
S1132660A8E60300283B9F400023BB46984689E622
S113267000F04EFD203073E60124A61A382E07DD43
S113268000220C4000230025904649E6029EA3E761
S11326901F2E20DC20222C001800921BF0409440B6
S11326A093400443581E83411C43F540630709D0FB
S11326B00F232340042B05D023001C1D9C42924170
S11326C05242AD182B021FD5012400220C400123D5
S11326D00025904624E61F202C004042821AD44054
S11326E0202E1CD04022961BB5402B43581E8341FC
S11326F00720234318400025002809D00F22002575
S11327001A401C00042AD8D1230068076D022D0B3F
S11327100124DB08034398460C40002300E600250F
S1132720E3E780220124120315432D0398462D0B61
S11327300C40044BF4E5C046FF030000FFFFFFFE1E
S1132740FE070000FF070000F0B557464E46454619
S1132750E0B40E001100F20F9246C500420F1803B8
S113276037037400400A4E0F7F0A3043CF4E17439D
S11327705A00640D520DDB0FC900B24200D1E5E0EE
S113278001267340A61AB446534500D1AFE0002E8B
S113279000DC0DE1002A3AD103000B4300D0E4E051
S11327A06B0709D00F232B40042B05D02B1DAB4204
S11327B0AD416D427F191D003B0200D488E0BB4B44
S11327C001349C4200D110E13A00B94B51461A4001
S11327D001235007ED08520264050543120B640DF2
S11327E00B400021280012030D0D120B64052D056A
S11327F015436208AF4CDB072C40144364006408A3
S11328001C4321001CBC90469946A246F0BDA74B30
S11328109C42C5D080231B0418436346382B00DD3B
S1132820FDE01F2B00DD30E1624620239B1A0200ED
S11328309A40664690460A009940F24046464B1E2E
S113284099413243114363460200DA40691A8D42CA
S11328509B410D00BA1A5B42D71A3B0235D57A0266
S1132860530A98464346002B00D1C4E0404600F08A
S11328704FFC0300083B1F2B00DDC5E0202229008C
S1132880D21A4746D1409F400A009D403A439C4299
S113289000DDC0E01C1B631C1F2B00DDE4E02021D5
S11328A014002800C91AD8408C408D400443DA40F3
S11328B0681E854117002543002471E7424663469C
S11328C01A4300D14CE2674645466B0700D069E7DE
S11328D0012351467807ED08FA080B400543734974
S11328E08C4238D012036405120B640D79E7002E74
S11328F000DC9AE0002A47D06C4A944200D14FE7AA
S11329008022120410436246382A00DC08E10143A5
S1132910481E81410022C9B24919D219A942BF41B6
S11329200D007F42BF183A0200D442E15F4A0134ED
S1132930944200D14EE101205D4A69083A402840A2
S11329400843D507054357089A4629E706000E436E
S113295000D017E714E72900114300D1F9E18021E1
S113296009030A431203120B3BE701235B42984617
S1132970C4446346002B72D1691A8D429B413F1AAD
S11329805B42FF1A0D0068E702000A4300D107E723
S1132990012252429046C4446246002A00D0E6E036
S11329A06918A942B6413F187642F7190D00BAE7F3
S11329B0002E00D080E0621C5205520D012A00DC7A
S11329C0F9E06A1A91464D45B6413A1A7642921B8D
S11329D09046120200D499E04D1BA9428941C71BBD
S11329E049427A1A90469A463CE75246012300250A
S11329F013400022F5E6280000F08AFB2030030093
S1132A00083B1F2B00DC39E72A00283882400025C8
S1132A109C4200DC3EE7264FE41A1740C0E601431F
S1132A20481E81410022C9B210E7002E00D0F1E017
S1132A30621C94465205520D012A00DCA0E01B4A98
S1132A40944500D1C5E06918A94292413F18524209
S1132A50D2194908D5070D4357086446A0E6134B1D
S1132A609C4200D0D9E69BE611001F3CE1400C00DB
S1132A70202B00D180E04021CB1A9A4015436A1ED6
S1132A8095410027254300241FE763460200203BAD
S1132A90DA406346202B71D0402366469B1B984046
S1132AA00143481E814111430022CFE6FF07000085
S1132AB0FFFF7FFFFFFF0F80002C48D0CA4CA242CB
S1132AC000D1A2E07442A1468024240427434C464A
S1132AD0382C00DDDBE01F2C00DD44E14E462024D1
S1132AE0A41B3E00A640A246B0464C462E00E6403B
S1132AF0B4464646644626435446A5406C1EA5414A
S1132B0034002C434D46EF400D1B28E04A46434613
S1132B104D461A4300D0A5E6002300240025DEE636
S1132B201F2A5ADC66462022921B060096409146D4
S1132B30B04662460E00D640424616434A4691408D
S1132B404A1E9141020060463143C240E4E63C0023
S1132B502C435AD0F443A146002C52D14D1BA94218
S1132B608941C71B49427F1A14009A4675E69E4A5A
S1132B70944200D0C7E613E600227FE700208FE7E7
S1132B80002C00D0C8E03B002B4300D10FE1030030
S1132B900B4300D104E66918A9429B413F185B42EC
S1132BA0DF193B0200D41AE1904B0D001F4064462C
S1132BB0F6E59A4689E63A002A43002C5CD1002ABD
S1132BC075D102000A4300D1CAE007000D009A46FD
S1132BD0E6E564460022002581E662460600203AC6
S1132BE0D6406246B046202A00D1B7E0402266466D
S1132BF0921B904001434246481E814111430022EA
S1132C008AE6794CA24200D061E707000D00140067
S1132C109A46C5E5002C41D13C002C4378D0F443BE
S1132C20A146002C20D0704CA24271D04C46382CC6
S1132C3000DDB2E01F2C00DDBCE02026341BA246E0
S1132C403C005646B4404E46A0462C00F440A446F0
S1132C50444666463443A4465446A54064466E1E24
S1132C60B54125434C46E7406D188D4289413F18D4
S1132C704942CF19140056E6002A2FD102000A4314
S1132C8000D184E007000D009A46574C88E53D4387
S1132C906F1EBD41ECB200270D1B60E7524CA242EF
S1132CA036D0744280263604A1463743BEE702007C
S1132CB00A4300D174E56A1A90464545B6413A1A6A
S1132CC07642921B9446120200D4F7E54D1BA942AA
S1132CD08941C71B49427F1A9A4661E502000A43AB
S1132CE03AD0ED087C072C438025FA082D032A42AC
S1132CF008D0C7082F4205D145072C003A009A4650
S1132D00C9080C43670FD200E5001743364C47E56A
S1132D1007000D00140043E53A002A4343D00200A3
S1132D200A4319D0ED087C072C438025FA082D03AB
S1132D302A4207D0C6082E4204D147073C0032007D
S1132D40C9080C43D700620FE50017439A46264C86
S1132D5026E50022002544E5234C21E5002049E72F
S1132D6000230025BBE54C463E00203CE6404C4693
S1132D70B446202C31D040244E46A61BB7403D43D8
S1132D806C1EA54164462C4300270D1BE7E68022F8
S1132D9000231203144C0025A1E53D436F1EBD41E1
S1132DA00027EDB260E707000D000F4CF8E40700C0
S1132DB00D00F5E44E463C00203EF440A0464C464F
S1132DC0202C0ED040244E46A41BA7403D436F1E2A
S1132DD0BD4144460027254346E70027CFE70D00C1
S1132DE073E50027F2E7C046FF070000FFFF7FFFFF
S1132DF00B0330B5134D1A0B4B005B0DC90F0024A8
S1132E00AB4211DD104CA34210DC80246403224346
S1132E100E4CE41A1F2C0CDD0D48C31ADA401300C3
S1132E205C42002900D11C00200030BD094BCC18A5
S1132E30FAE7E040084CA44663449A401300034375
S1132E40EEE7C046FE0300001D040000330400004A
S1132E5013040000FFFFFF7FEDFBFFFF70B50028A8
S1132E6030D0C317C4185C40C50F200000F050F9DF
S1132E70174B184A1B1AD21A1F2A18DD164AD21ADF
S1132E809440002224035B05240B5B0D00211000F9
S1132E9024030A0D1205240B1443104A1B05144085
S1132EA01C436400ED0764082C43210070BD21001D
S1132EB091400A000B21081AC4405B052403240B2B
S1132EC05B0DE3E70025002300240022DEE7C04673
S1132ED01E0400003304000013040000FFFF0F80F1
S1132EE070B5051E28D000F013F9154B154A1B1AAE
S1132EF0D21A1F2A16DD2C00134A0025D21A944038
S1132F005A052403240B520D002124030B0D240B1A
S1132F101B0523430D4C1205234013435B0028007B
S1132F20590870BD0B212C00081AC4409540240395
S1132F305A05240B520DE7E700220024E4E7C046BB
S1132F401E0400003304000013040000FFFF0F8080
S1132F504200120E511C4302C9B270B55D0AC40F7F
S1132F60012915DDE02189008C466D071B0B6244A5
S1132F70002128000D0D2D052B431C4D52052B401F
S1132F80520813435B00E4075B082343190070BD38
S1132F90002A15D1002D1FD0280000F0B9F80A2806
S1132FA01DDC0B232A001B1ADA4013000200153221
S1132FB095400F4A1B03121A52051B0B520DD7E7FB
S1132FC0002D06D080221B0B120313436D07094A00
S1132FD0CEE7084A0023CBE700220023C8E703001A
S1132FE00B3B9D402B000025E3E7C046FFFF0F800D
S1132FF089030000FF0700004B0070B55E0D0C0351
S1133000751C640A420F6D052243C90FC4006D0D7F
S1133010012D2ADD3B4BF318FE2B1ADC002B42DD7D
S11330208001451EA841D2001043620F024350079D
S113303004D00F201040042800D004328020C004A3
S1133040104021D00133FF2B03D09201520ADBB28E
S113305001E0FF2300225202520ADB0513435B0006
S1133060C9075B080B43180070BD002E07D014433A
S1133070EFD08020D20080040243FF23D7E722430D
S11330800023002A03D00522D208FF2B03D05202CA
S1133090520ADBB2DFE7002A32D08020C0030243A9
S11330A05202520AD7E71800173014DB80200004BC
S11330B002431E20C01A1F280FDC2500124BF318F0
S11330C09D406E1EB5419A402B0013432200C2401E
S11330D01A430023ABE70023D5E702256D42EB1A20
S11330E01500DD40202809D0084BF3189A401443FA
S11330F0621E9441220000232A4398E70022F6E747
S11331000022A8E780FCFFFF82FCFFFFA2FCFFFF78
S11331101C2101231B04984201D3000C10391B0A03
S1133120984201D3000A08391B09984201D30009C7
S1133130043902A2105C40187047C046040302021E
S113314001010101000000000000000070B50D4EF7
S11331500D4D0024AD1BAD1005D0A300F358013470
S11331609847A542F9D100F0CDF9084E084D002446
S1133170AD1BAD1005D0A300F35801349847A54208
S1133180F9D170BD10350000103500001035000075
S11331901835000070B583073FD0541E002A3BD079
S11331A0CEB20300032503E0621E002C34D01400C9
S11331B001335A1E16702B42F6D1032C24D9FF2555
S11331C00D402A0215432A0415430F2C11D9260059
S11331D0103E3609013636011A009B1915605560F8
S11331E09560D56010329342F8D10F221440032C1D
S11331F00AD9261FB6080136B6001A009B1920C248
S11332009342FCD103221440002C05D0C9B21C19EE
S1133210197001339C42FBD170BD14000300CCE74C
S1133220034B10B5002B02D0024800F005F810BD86
S1133230000000004932000010B501000023002204
S1133240002000F01BF810BD70B5094B094CE41ABE
S1133250A41009D0084AA518AD00ED182B68013C4C
S11332609847043D002CF9D100F056F970BDC046D2
S11332702435000028350000FFFFFF3FF8B5444621
S11332805F4656464D469B462F4BF0B41C68A4231C
S11332905B000500E0580E00904600284BD04368C0
S11332A01F2B0DDC5C1C002D21D102339B004460DC
S11332B01E5000203CBC90469946A246AB46F8BD41
S11332C0224B002B3CD0C820400000E000BF002867
S11332D036D0A42200235200A15843600160A050BC
S11332E040328350043283500124002DDDD09A00F3
S11332F091468144424688214F467A50C422520066
S11333009046804442468739994012688A460A4367
S11333109446424661461160842249465F46520003
S11333208F50022DC1D1020055468D32FF321168F3
S11333300D431560B9E720004D30FF30E050AEE793
S113334001204042B6E7C0460035000000000000FE
S11333500200000C000200000E000200000D00003C
S1133360208DFFFFA1ADFFFF64CEFFFF6CEFFFFFD9
S1133370B71000004A3200002554000049760000CE
S1133380B798000072BB000079DE0000D001010094
S1133390762501006F490100BC6D01005E920100B9
S11333A058B70100AADC010058020200622802009A
S11333B0CC4E020096750200C49C020057C4020061
S11333C052EC0200B7140300893D0300CA660300EF
S11333D07D900300A4BA030044E503005E100400DA
S11333E0F63B04000E680400AC940400D1C1040050
S11333F081EF0400C11D0500954C0500007C05000B
S113340007AC0500AEDC0500FB0D0600F23F06002C
S113341098720600F4A5060009DA0600E00E07001B
S11334207D440700E87A070028B2070044EA070051
S113343044230800305D080010980800EFD308000A
S1133440D6100900CF4E0900E58D090023CE0900EE
S1133450980F0A004F520A0057960A00BFDB0A0071
S113346098220B00F36A0B00E2B40B007B000C0003
S1133470D44D0C00039D0C0023EE0C0050410D00B4
S1133480A9960D004EEE0D0065480E0016A50E001F
S11334908E040F000000000606010001030B01006A
S11334A001020A0000000301000000020000000005
S11334B007070200000C000200000E004424000074
S11334C00423000004230000022300001C24000045
S11334D01C2400000E240000022300001C24000011
S11334E00E2400001C2400000223000024240000F9
S11334F024240000242400002426000043000000AB
S113350010000020F8B5C046F8BC08BC9E467047C1
S113351021320000DD000000F8B5C046F8BC08BC4C
S10B35209E467047B50000004F
S113352840420F0080BB0000300000000000000093
S113353800000000FC02002064030020CC030020EB
S1133548000000000000000000000000000000006F
S1133558000000000000000000000000000000005F
S113356800000000FC34000000000000000000001F
S1133578000000000000000000000000000000003F
S1133588000000000000000000000000000000002F
S1133598000000000000000000000000000000001F
S11335A8000000000000000000000000000000000F
S11335B800000000000000000000000000000000FF
S11335C800000000000000000000000000000000EF
S11335D800000000000000000100000000000000DE
S11335E80E33CDAB34126DE6ECDE05000B000000A3
S11335F800000000000000000000000000000000BF
S113360800000000000000000000000000000000AE
S1133618000000000000000000000000000000009E
S1133628000000000000000000000000000000008E
S9030000FC
