S0150000547261636B27656D2056302E312E737265631C
S1130000C0080020F1000000ED000000ED00000039
S113001000000000000000000000000000000000DC
S1130020000000000000000000000000ED000000DF
S11300300000000000000000ED000000ED000000E2
S1130040ED000000ED000000ED000000BD0E00001A
S1130050ED000000ED000000ED000000ED000000E8
S1130060ED000000ED000000ED00000000000000C5
S1130070ED000000250F0000ED000000ED00000081
S1130080ED000000ED000000ED00000010B5064C8E
S11300902378002B07D1054B002B02D0044800E045
S11300A000BF0123237010BD48040020000000009D
S11300B0CC160000084B10B5002B03D007490848A4
S11300C000E000BF07480368002B00D110BD064BB9
S11300D0002BFBD09847F9E7000000004C040020F7
S11300E0CC160000CC16000000000000FEE7000063
S11300F02148224970B5884202D00023204C03E0F5
S1130100204B214A002106E0CA18A242F8D2C55861
S113011004331560F8E7934201D202C3FBE7FF21E1
S113012002240325194B1A4A8B430C269360082298
S1130130184B19495C62CB78AB432343CB70CB7823
S1130140B3431343CB703021144B987B884310394D
S113015008439873997BB1431143997380219A7B27
S1130160AA4322439A730E4A53680B4353600D4BC0
S113017098470D4B9847FEE7CC160000000000207E
S11301804804002048040020BC04002000000000B3
S113019000ED00E0FC7000410050004100480041C7
S11301A000400041B11200005D030000014A024B0F
S11301B01A60704740420F00000000201E21F8B56D
S11301C00225504A012453688B432B4353604E4A03
S11301D0163993690B4393614C4B98474C4B9847A2
S11301E04C4B98474C4B98474022C1214B4B8900BC
S11301F01A6058584A4A02405A504A4B1F004E3718
S11302003A781900A2433A708022D2019A604F31A1
S11302100A781E00A2430A700A7837362A430A7005
S1130220802212025A600F223078904328433070A3
S113023038782043387020273078BC461040384343
S11302401F00307008785837204308703978A1436C
S1130250397080214904996019005931087811399D
S1130260A0434874487C2843487480208004586024
S113027070799043284370713878204338707079CE
S113028002406046024372714A7C274F22434A74FB
S11302900A78A2430A70802252009A604A78A243E4
S11302A04A70802292009A601A0045321178A14364
S11302B0117011780D4319001570042558604231EE
S11302C00A780020A2430A709D609D618A78A24347
S11302D08A70102229009A609A61083AB84700226D
S11302E0124E134B21001000B047290020000822B1
S11302F0B8472200032120000E4BB0470E4B98470D
S1130300F8BDC0460040004100040040AD010000BB
S1130310BD0C00003D0D00003D0E000000E100E0BA
S1130320FFFF00FF00440041E111000045120000FE
S113033074F900005BB10000D90E000070B506002E
S11303400D000024AC4206DA315D0120024B013479
S11303509847E4B2F6E770BD89120000F0B53D4B52
S113036097B0984704223C4B3C4E5A619F2300931C
S113037073783078B2781B02034312041900130017
S11303800B43B1797779F4790902394324040800DD
S11303902100347AF278757A014324060C4312065C
S11303A01A432000337929002D4FB847F37AB17AE4
S11303B01B020B431A00337BB77B1B041343727B72
S11303C0290012061A43274E3B0020001392B0471F
S11303D0139A3B0029002000B0472900139A3B00E0
S11303E02000B04704221C4B9A611F4B984764209D
S11303F01E4B984731201E4B98471E4B98471E4C66
S11304006378002BF9D02378002BF6D00023210049
S11304106370237010314422184B684698470FCC00
S1130420174CA0471821174B17484F24984702AB85
S1130430E4182070154BF52098472378144C002BB2
S113044000D1144C2000144B9847144B0100200099
S11304509847D2E7BD010000004400415C1600004B
S1130460A10400000D050000310C00008D0E0000F9
S1130470610500002910000068040020F912000042
S1130480510F000055080000040000208D060000F4
S11304906B16000070160000511400003D030000AC
S11304A0010C130CF0B5CDB2D9B201231E00120E0B
S11304B09340000E86401A0008233000114EC901F3
S11304C087B08F19104E0CACED01AE19247801964B
S11304D00C4EB446AC446646306066B2002E05DA73
S11304E0094EB4468C446646326000E03A60019E90
S11304F0013B6400DBB23060E4B2002BE8D107B00A
S1130500F0BDC0461444004118440041F0B5012533
S113051085B003911100060C0193F3B22E00090E6D
S1130520140C029000928D40020E08210020964087
S1130530E2B20A4CDB01D2011B1912195E61146A82
S113054040002C40671EBC4101390443C9B2E0B2EB
S11305509E610029F2D105B0F0BDC04600440041BF
S11305601022154B73B55A619218196A1142FCD1C5
S1130570124900904B780C788A781B0223431204AA
S113058018001300CA78034312064E1D4D791A430E
S11305900B798979B0780902294300040C00010021
S11305A0F078214300060843054C3179A047102216
S11305B0014B9A6173BDC0460044004176160000A9
S11305C0A10400001022154B73B55A619218196AE0
S11305D01142FCD13423124900934B780C788A7869
S11305E01B022343120418001300CA7803431206A3
S11305F04E1D4D791A430B798979B0780902294344
S113060000040C000100F078214300060843054C67
S11306103179A0471022014B9A6173BD0044004117
S113062076160000A10400001022154B73B55A6120
S11306309218196A1142FCD13523124900934B7860
S11306400C788A781B022343120418001300CA781A
S1130650034312064E1D4D791A430B798979B078FC
S11306600902294300040C000100F078214300062C
S11306700843054C3179A0471022014B9A6173BDA0
S11306800044004176160000A1040000F7B51022D2
S11306901D4B5A619218196A1142FCD11B4C0090EF
S11306A063782078A2781B02034312041900130014
S11306B00B43A1796679E579090231432D040800D9
S11306C02900257AE278667A01432D060D43120645
S11306D0280031001A430E4F2379B847E37AA07AF1
S11306E0227B1B020343120419001300627B0B4399
S11306F012061A432800A37B3100064CA04710229F
S1130700014B9A61FEBDC0460044004176160000CC
S1130710A10400000D0500004023F0B516001022CE
S11307201843284B85B05A610D0002932023029A86
S1130730126A1A42FBD1244C009063782078A27884
S11307401B0203431204190013000B43A1796079BF
S113075009020143E079E27800040143207A120699
S113076000061A4308432379184F617AB847FF27D4
S1130770AB190393039B9D421ED02B786178A2781A
S11307800093237812040902194313000B43A1793F
S1130790607909020143E079E27800040143207A98
S11307A0120600061A4308432379617A3B40394014
S11307B0064EB0470135DDE71023029A936105B078
S11307C0F0BDC0460044004176160000A1040000BC
S11307D01022F0B51C4B85B003915A619218196A26
S11307E01142FCD14022194B10435A7800909C7856
S11307F01878120202432404110022005D1D1F799F
S11308000A43DC7859799B7924061B020B43144371
S11308101A00AB782E791B041343EA7831001206D0
S11308201A4302923B0022000298094DA847039BF9
S11308302200009302983B003100A8471022024B8B
S11308409A6105B0F0BDC046004400417616000030
S1130850A1040000F0B5864B85B006000F001025FA
S11308609847F520834CA0471F2303400D2B2FD01E
S11308701128F6D10B21804C8048A0470121152076
S1130880A04720227E4B5D61196A1142FCD13A23B4
S11308907C4900934B780A781B0213438A7818002A
S11308A012041300CA78034312064C1D48791A43F4
S11308B00B79897909020143A07800040143E078A7
S11308C0000608432179704CA0476D4B9D61C8E731
S11308D0FA206E4D4000A8473A0031006C4B3F208F
S11308E09847FA204000A8476A4B9847FA204000EE
S11308F0A847F520A0471F231840133802287CD9A5
S11309000E215D4C6448A04701211520A047102307
S11309105B4D6B61DB182A6A594F1A42FBD13623AF
S1130920584C009363782078A2781B020343120486
S1130930190013000B43A179607909020143E0799E
S1130940E27800040143207A120600061A430843A1
S11309502379617A4C4EB0471023BB617B61DB186D
S11309602A6A474F1A42FBD1631D9C463B23617898
S1130970A2780093237812040902194313000B434D
S11309806146497860790902014360468078E278DB
S1130990000401436046C07812060006084361461D
S11309A01A4309792379B0471023BB617B61DB18B3
S11309B02F6A1F40FCD13A23009363782078A278F1
S11309C01B0203431204190013000B43A17960793D
S11309D0651D0902E2780143A878120600041A434F
S11309E023790C000100E8782143000608432979A3
S11309F0B0471022224B9A6137E0284B6420984775
S1130A00FA20A0470F236B441870FA20A047002750
S1130A10B8422AD110221A4B5A619218196A11420B
S1130A20FCD13623174900934B780C788A781B0243
S1130A302343120418001300CA78034312064E1D00
S1130A401A434D790B798979B07809022943000456
S1130A500C000100F0782143000608430A4C317968
S1130A60A04710220127064B9A61380005B0F0BD5B
S1130A70C50500008D0600003D030000851600003A
S1130A800044004176160000A10400005D0E000041
S1130A901907000029060000911600008D0E0000C1
S1130AA010B52921604C0020A0472E210120A04729
S1130AB006210220A04747210320A047D321042078
S1130AC0A04791210520A047FF210620A04704212B
S1130AD00720A04705210820A04700210920A0479E
S1130AE000210A20A04706210B20A04700210C204A
S1130AF0A04711211020A0471321B520A047B12100
S1130B002B20A047F5211020A04783211120A047C6
S1130B1003211220A04722211320A047F8211420EA
S1130B20A04715210800A04707211620A04730211F
S1130B301720A04718210800A04716211920A04714
S1130B406C211A20A04703211B20A04740211C2010
S1130B50A04791211D20A04787211E20A0476B217B
S1130B601F20A047FB212020A04756212120A04779
S1130B7010212220A047E9212320A0472A21242054
S1130B80A04700212520A0471F212620A04741215E
S1130B902720A04700212820A04759212920A04729
S1130BA07F212A20A0473F212B20A04781212C20F0
S1130BB0A04735212D20A04709212E20A047002140
S1130BC03020A04704213120A04700213220A04733
S1130BD000213320A04700213420A04700213520E4
S1130BE0A04700213620A04700213720A04700213C
S1130BF03820A04700213920A04700213A20A047EF
S1130C0000213B20A04700213C20A04700213D209B
S1130C10A0471022054B5A619218196A1142FCD15F
S1130C201022024B9A6110BDD1070000004400411C
S1130C30F7B510251C4C1D4E1E20A561B0471E2083
S1130C406561B047A5612D20B04720236561226A04
S1130C501A42FCD13023164900934B780D788A78D8
S1130C601B022B43120418001300CA780343120614
S1130C704F1D4E791A430B798979B87809023143AB
S1130C8000040D000100F878294300060843094DCB
S1130C903979A8472023226A1A42FCD11022024B38
S1130CA09A61054B9847F7BD004400415D0E000072
S1130CB076160000A1040000A10A0000C22302204D
S1130CC010B51549154ADB008B6053680343536024
S1130CD0134B1A68920E3F2A00D1203A114B124846
S1130CE01B689B059B0D834200D1104B10488884E0
S1130CF01020CC680442FCD092021343064A93624B
S1130D001023CA681A42FCD080220A4B52009A600F
S1130D10094A5A6010BDC046000800400040004126
S1130D202460800028608000FF030000FF010000B1
S1130D3022050000000C004000070100274B284A50
S1130D4028489A61284A996912680140D204520ECF
S1130D501204114399612549996199690840022156
S1130D6002439A619A690A439A610422D96811423A
S1130D70FCD081221E4B52009A601E4A5A605A7857
S1130D8052B2002AFBDB1C4A194B5A8004221B4B2B
S1130D901A809A7A1949D209FBD1A0200A88C00086
S1130DA002430A809A7AD209FCD11549134A9182E6
S1130DB0997A124AC909FBD15188124801435180DA
S1130DC080210220D1711188014311809A7AD209BD
S1130DD0FCD10D4B08321A607047C0460008004031
S1130DE006060000FFFF80FF246080000406000068
S1130DF0000C0040020023000442000000140040E4
S1130E00E60300001040000000E100E00F2318405A
S1130E10084B12021A40F82309025B01194080238F
S1130E2010B55B02044C194302430843A26060609E
S1130E3010BDC04600FFFF00000C0040044B054AF3
S1130E401A6030225A60044B2B3A1A607047C0462D
S1130E501800002080BB000010E000E070B5802482
S1130E600021084B084A5B686402013808D3002B50
S1130E70FBD0054E5360916035682542FCD0F4E701
S1130E8070BDC0461800002010E000E070B580245A
S1130E900021084B084A1B686402013808D3002B60
S1130EA0FBD0054E5360916035682542FCD0F4E7D1
S1130EB070BDC0461800002010E000E0FA21044A8A
S1130EC0890013685B181360FF22024B1A72704783
S1130ED064040020001400400C4A0D4B0D495A8054
S1130EE040220B6A13430B620B4B0C4919800221FD
S1130EF01A753F3A5A73FF325A811A880A431A8084
S1130F008022074B92011A607047C04612420000CB
S1130F10000C00400004004000180042040F0000D0
S1130F2000E100E0FF22034B9A73034BFE3A1A7070
S1130F307047C046001800426804002002000020E8
S1130F40135C2C2B02D0431CD8B2F9E77047000085
S1130F5084B070B5334C0490059101200A212525F5
S1130F6006920793A04707AE6D44317801200136FD
S1130F70A047AE42F9D12C2101202F26A0476E4470
S1130F80297801200135A047B542F9D12C2101204F
S1130F90A04704ABD97F0120A0473B262C21012088
S1130FA0A0470CAD6E44297801200135A047B54215
S1130FB0F9D12C210120A04729780120A0474325FD
S1130FC02C2101204D26A0476D446E442978002928
S1130FD005D157252C210120A0476D440AE00120AA
S1130FE00135A047AE42F1D1F3E701200136A04715
S1130FF0B54202D031780029F7D161262C21012095
S1131000A0476E4404E001200135A047AE4202D05F
S113101029780029F7D12C210120A04770BC08BCF5
S113102004B0184789120000F0B55C4BC1B01A7EB9
S11310301D00530700D4AFE000242B7E5B07FCD5D2
S11310400020574B98470D2804D16B461B79472B3A
S11310506ED105E06B4618550134FF2CEDD1F4E751
S11310606B465B79472B00D096E04E4C6846A04710
S11310704D4E2C216846B047471C3800A0474B4DC5
S1131080020039004A48A8472C213800B047471CC1
S11310903800A047390002004648A8472C213800F0
S11310A0B047471C3800A047390002004248A8470F
S11310B02C213800B047471C3800A04739000200F3
S11310C03E48A8472C213800B047471C3800A047A9
S11310D0390002003A48A8472C213800B047471C81
S11310E03800A047390002003648A8472C213800B0
S11310F0B047471C3800A047390002003248A847CF
S11311002C213800B047471C3800A04739000200A2
S11311102E48A8472C213800B047461C3000A04771
S1131120310002002A48A84701222A4B5A7033E0B2
S1131130522B31D16B465B794D2B2DD10022254B9F
S1131140184E68465A70B047174C2C216846A04781
S11311502C210130A0472C210130A0472C21013043
S1131160A0472C210130A0472C210130A0472C217D
S11311700130A047451C2800B047290002000B4F4E
S11311801548B8472C212800A047441C2000B0472C
S1131190210002001148B84741B0F0BD00080042E8
S11311A0A11200003D0F000075130000B9140000E7
S11311B0740400207D04002087040020880400209B
S11311C09304002094040020950400209704002038
S11311D09B04002068040020A5040020AF04002024
S11311E070B504000123A61CB3400D480D00016A2C
S11311F00B430362002D03D007212800094B9847B5
S1131200F023802029021B011940C0010143200062
S11312103F230E301840044B0843588070BDC0462D
S1131220000400400D0E0000000C0040044B80023E
S1131230C0180123036002681A42FCD17047C046FB
S113124000080042F8B507001E000C4B0D00140006
S113125098470B4BB802C0180423C0220360C02374
S1131260290592031140074AB6B29B0224048681E1
S11312701143436023400B430360F8BD2D1200006B
S11312800008004206000040044B8002C01889B2E6
S11312900185037EDB07FCD57047C0460008004289
S11312A0024B8002C018008DC0B270470008004293
S11312B070B50D4E0D4D0024AD1BAD1005D0A3002F
S11312C0F35801349847A542F9D100F0EDF9084EDE
S11312D0084D0024AD1BAD1005D0A300F358013414
S11312E09847A542F9D170BDB4160000B4160000A9
S11312F0B4160000BC16000070B50F2A32D90C00D9
S113130004430B00A40731D115000400103D2D093E
S113131001352D0149191E6826605E6866609E6865
S1131320A660DE681033E66010349942F3D10F23CF
S113133045191340032B1BD91C1F0023A408013497
S1131340A400CE58EE5004339C42FAD103232D1945
S113135009191A4005D00023CC5CEC5401339A429D
S1131360FAD170BD0500002AF5D1FAE70500F2E7CD
S11313701A00F8E7CAB270B5002A40D083070ED02D
S11313800378002B5ED003249A4205D136E003781B
S1131390002B57D09A4231D001302042F7D1FF239D
S11313A0FF250B402D020902294019430D040D436A
S11313B02C000168244B4C40CB188B431900224B62
S11313C0224EE318A3430B4333420DD12C000430C7
S11313D001681D4B4C40CB188B4319001A4BE31882
S11313E0A3430B433342F1D00378002B04D129E00B
S11313F001300378002B25D09A42F9D170BD8307C0
S11314000AD003780322002B03D1F7E70378002BDB
S1131410F4D001301042F9D102680B4B0B49D318B8
S113142093430B4206D104300268074BD31893430D
S11314300B42F8D00378002BE0D001300378002B66
S1131440FBD1DBE70020D9E7FFFEFEFE8080808031
S113145010B5830727D00378002B26D0030003217F
S113146002E01A78002A1CD001330B42F9D1196822
S11314700F4A104C8A188A4322420FD10433196848
S11314800B4A8A188A43224208D104331968084A4D
S11314908A188A432242F1D000E001331A78002AE4
S11314A0FBD1181A10BD0300E1E70020FAE7C0469B
S11314B0FFFEFEFE808080800B00034370B50500B4
S11314C09B0701D1032A15D8002A12D04C1C097895
S11314D0013A6B1C297000291BD0210007E00C780D
S11314E001335D1E013A2C700131002C11D0002A09
S11314F0F5D170BD0B4E0C680B4BE318A34333427C
S1131500E4D104352B1F043A04311C60032AF2D8B9
S1131510DAE79C180021002AEBD019700133A342AA
S1131520FBD1E6E780808080FFFEFEFE034B10B512
S1131530002B02D0024800F005F810BD00000000A6
S11315405515000010B5010000230022002000F012
S11315501BF810BD70B5094B094CE41AA41009D04E
S1131560084AA518AD00ED182B68013C9847043DC6
S1131570002CF9D100F0A2F870BDC046C8160000D6
S1131580CC160000FFFFFF3FF8B544465F465646C1
S11315904D469B462F4BF0B41C68A4235B0005000A
S11315A0E0580E00904600284BD043681F2B0DDCFA
S11315B05C1C002D21D102339B0044601E5000208E
S11315C03CBC90469946A246AB46F8BD224B002B44
S11315D03CD0C820400000E000BF002836D0A42240
S11315E000235200A15843600160A0504032835050
S11315F0043283500124002DDDD09A0091468144A9
S1131600424688214F467A50C42252009046804474
S113161042468739994012688A460A4394464246AC
S113162061461160842249465F4652008F50022D64
S1131630C1D1020055468D32FF3211680D43156049
S1131640B9E720004D30FF30E050AEE701204042C2
S1131650B6E7C046A4160000000000000000000821
S113166000000000090000000005007472756500A8
S113167066616C736500000000080000000009004A
S113168000000005005258206F766572666C6F7713
S1131690005458206E6F7420656E74657265640022
S11316A04300000020000020F8B5C046F8BC08BC88
S11316B09E4670472D150000B5000000F8B5C046E1
S10F16C0F8BC08BC9E4670478D0000007A
S11316CC40420F00AA0AAAFAAAAAA2AAAAAA0AAA79
S11316DCAAAAAAA7AAAA000080BB00003000000096
S11316EC000000000C03002074030020DC03002025
S11316FC00000000000000000000000000000000DA
S113170C00000000000000000000000000000000C9
S113171C00000000A0160000000000000000000003
S113172C00000000000000000000000000000000A9
S113173C0000000000000000000000000000000099
S113174C0000000000000000000000000000000089
S113175C0000000000000000000000000000000079
S113176C0000000000000000000000000000000069
S113177C0000000000000000000000000000000059
S113178C0000000000000000010000000000000048
S113179C0E33CDAB34126DE6ECDE05000B0000000D
S11317AC0000000000000000000000000000000029
S11317BC0000000000000000000000000000000019
S11317CC0000000000000000000000000000000009
S11317DC00000000000000000000000000000000F9
S9030000FC
