S01700004763634170706C69636174696F6E322E737265635A
S113000070C40020D5020000D1020000D10200001B
S1130010D1020000D1020000D10200000000000063
S1130020000000000000000000000000D1020000F9
S1130030D102000000000000D1020000D102000043
S1130040D1020000D1020000D1020000D102000060
S1130050D1020000D1020000D1020000D102000050
S1130060D1020000D1020000D1020000D102000040
S1130070D1020000D1020000D1020000D102000030
S1130080D1020000D1020000D1020000D102000020
S1130090D1020000D1020000D1020000D102000010
S11300A0D1020000D1020000D1020000D102000000
S11300B0D1020000D1020000D1020000D1020000F0
S11300C0D1020000D1020000D1020000D1020000E0
S11300D0D1020000D1020000D1020000D1020000D0
S11300E0D1020000D1020000000000000000000066
S11300F000000000D1020000D1020000D102000083
S1130100D1020000D1020000D1020000D10200009F
S1130110D1020000D1020000D1020000D10200008F
S1130120D1020000D1020000D1020000D10200007F
S1130130D1020000D1020000D1020000D10200006F
S1130140D1020000D1020000D1020000D10200005F
S1130150D1020000D10200000000000000000000F5
S1130160000000000000000000000000000000008B
S1130170000000000000000000000000000000007B
S1130180D1020000D1020000D1020000D10200001F
S113019000000000D1020000D1020000D1020000E2
S11301A0D1020000D1020000D1020000D1020000FF
S11301B0D1020000D1020000D1020000D1020000EF
S11301C0D1020000D1020000D1020000D1020000DF
S11301D0D1020000D1020000D1020000D1020000CF
S11301E0D1020000D1020000D1020000D1020000BF
S11301F0D1020000D1020000D1020000D1020000AF
S1130200D10200000000000000000000D102000044
S1130210D1020000D1020000D1020000D10200008E
S1130220D1020000D1020000D1020000D10200007E
S1130230D1020000D1020000D1020000D10200006E
S1130240D1020000D1020000D1020000D10200005E
S1130250D1020000D1020000D1020000D10200004E
S11302600000000010B5054C237833B9044B13B1DA
S11302700448AFF300800123237010BD2C04002038
S113028000000000E80400000C4B43B10C480D4989
S113029010B5AFF300800C48036823B910BD0A48B9
S11302A0036833B97047094B002BF7D0BDE8104001
S11302B01847064B002BF5D0184700BF000000007C
S11302C0E804000030040020E804000000000000FE
S11302D0FEE7000008B5104B104A9A4209D00E4BB5
S11302E00E4A03E011681960043304320C498B424E
S11302F0F8D30C4B02E000221A6004330A4A9342FA
S1130300F9D30A4A0A4B23F07F039360094B9847B9
S1130310094B9847FEE700BF00000020E8040000F6
S11303202C0400202C0400206C04002000ED00E0CC
S113033000000000510300003D03000000210B46B3
S113034001330121014A9342FADDF8E780969800CF
S113035070B50F4E0F4D761BB61018BF002405D094
S1130360013455F8043B9847A642F9D10A4E0B4D87
S1130370761B00F0A7F8B61018BF002406D001348D
S113038055F8043B9847A642F9D170BD70BD00BF33
S1130390D0040000D0040000D8040000D004000001
S11303A0024B13B1024800F005B87047000000008A
S11303B0C1030000002301461A46184600F01EB887
S11303C038B50A4C0A4D641BA4100AD004F18043CA
S11303D0013B05EB8305013C55F804399847002C93
S11303E0F9D1BDE8384000F077B800BFE804000058
S11303F0E4040000704700BF704700BF2DE9F843D4
S11304002C4D0646286898460F469146FFF7F2FFA2
S1130410294B1C68D4F84831002B3ED05A681F2A57
S11304201CDC02F1010E76B103EB82010124C1F858
S11304308890D3F8880194402043022EC3F88801A1
S1130440C1F8088123D00232C3F804E0286843F8D5
S11304502270FFF7D1FF0020BDE8F883174B0BB3E0
S11304604FF4C870AFF300800346D8B1D4F84821E4
S11304700260002141600A46C4F848014FF0010EB1
S1130480C0F88811C0F88C11002EDCD0CCE7D3F86A
S11304908C110C43C3F88C41D5E704F5A673C4F85A
S11304A04831BBE72868FFF7A7FF4FF0FF30BDE8EE
S11304B0F88300BF28040020C004000000000000EE
S11304C000000020F8B500BFF8BC08BC9E46704789
S11304D0A103000089020000F8B500BFF8BC08BC05
S10B04E09E467047650200000E
S11304E800000000EC02002054030020BC0300209C
S11304F800000000000000000000000000000000F0
S113050800000000000000000000000000000000DF
S113051800000000000000000000000000000000CF
S113052800000000000000000000000000000000BF
S113053800000000000000000000000000000000AF
S1130548000000000000000000000000000000009F
S1130558000000000000000000000000000000008F
S1130568000000000000000000000000000000007F
S1130578000000000000000000000000000000006F
S1130588000000000000000001000000000000005E
S11305980E33CDAB34126DE6ECDE05000B00000023
S11305A8000000000000000000000000000000003F
S11305B8000000000000000000000000000000002F
S11305C8000000000000000000000000000000001F
S11305D8000000000000000000000000000000000F
S10F090800000000000000004804002073
S9030000FC
