S0140000446173416C74696D657465722E7372656351
S1130000D825002019010000150100005D0A000038
S113001000000000000000000000000000000000DC
S113002000000000000000000000000015010000B6
S1130030000000000000000015010000F1100000A5
S11300401501000015010000150100002511000034
S11300501501000015010000150100001501000044
S11300601501000015010000150100001501000034
S11300701501000015010000150100001501000024
S1130080150100001501000015010000C511000054
S11300902D12000000000000000000001501000007
S11300A015010000150100001501000015010000F4
S11300B00000000010B5064C2378002B07D1054B37
S11300C0002B02D0044800E000BF0123237010BDC0
S11300D0D80000200000000004670000084B10B5A1
S11300E0002B03D00749084800E000BF0748036815
S11300F0002B00D110BD064B002BFBD09847F9E72D
S113010000000000DC000020046700000467000019
S113011000000000FEE700002148224970B5884233
S113012002D00023204C03E0204B214A002106E0AA
S1130130CA18A242F8D2C55804331560F8E79342AE
S113014001D202C3FBE7FF2102240325194B1A4AFB
S11301508B430C2693600822184B19495C62CB78B8
S1130160AB432343CB70CB78B3431343CB703021E1
S1130170144B987B8843103908439873997BB14397
S11301801143997380219A7BAA4322439A730E4A9E
S113019053680B4353600D4B98470D4B9847FEE74C
S11301A00467000000000020D8000020D8000020D0
S11301B0D80500200000000000ED00E0FC700041C4
S11301C00050004100480041004000419965000092
S11301D0D5090000014A024B1A60704740420F00E3
S11301E000000020802370B5084CDB026361052108
S11301F00120074B984701250120064B98472842C8
S1130200FAD18023DB02A36170BDC04600440041E3
S1130210C12D0000D92D000070B58025064CED02DB
S1130220064E656106210120B047A5616021656124
S11302300120B047A56170BD00440041C12D0000FC
S1130240F7B580270600144D144BFF02019200916C
S11302509847134C6F6106210120A047AF6102212A
S11302606F610120A047310CC9B20120A047310AB7
S1130270C9B20120A047F1B20120A047019E009B12
S1130280F718BE4204D031780120A0470136F8E7C0
S11302908023DB02AB61F7BD00440041E5010000AF
S11302A0C12D0000F7B580270600134DFF02134C43
S11302B0019101206F610621A047AF6102216F61A6
S11302C00120A047310CC9B20120A047310AC9B2AC
S11302D00120A047F1B20120A047019E771CFF37FF
S11302E0317801200136A047BE42F9D18023DB02D8
S11302F0AB610020FEBDC04600440041C12D00009A
S11303008023F7B505000F00114EDB020192114C5A
S113031073610B210120A047290CC9B20120A04719
S1130320290AC9B20120A047E9B20120A047FF2150
S11303300120A047019CE719BC4205D00120064BCF
S1130340984720700134F7E78023DB02B361F7BDDF
S113035000440041C12D0000D92D0000F8B58023D0
S113036007000C00104EDB02104D73610B210120BD
S1130370A847390CC9B20120A847390AC9B20120DB
S1130380A847F9B20120A847FF210120A847651C0E
S1130390FF350120064B984720700134AC42F8D158
S11303A08023DB02B361F8BD00440041C12D00008D
S11303B0D92D0000F7B580270B4EFF0100210B4B10
S11303C07761022098470A4D0220A84704000220C2
S11303D0A84701900220A847B761019B24041B028F
S11303E01C432043FEBDC04600440041C12D000013
S11303F0D92D0000F0B587B00493244B039014006A
S11304005A88234F01929A8800921A89DD880292B1
S11304105E8936028E1BF217059298893200F31713
S11304200021B847FA234902C00D0843DB00C01875
S113043020603200F31728000021B8474C06CB1186
S11304400021C2092243019C200480185941039AC7
S11304500023B847CB02440D32001C434D15059BC5
S113046002980021B8478B068F11009986091E4314
S11304704A04CB0B92197B41A41A9D416B04E40BF3
S11304801C43049B1C6007B0F0BDC04666020020FC
S1130490B544000010B50C4B98470C4C00220C4B93
S11304A0A04700220B4BA0470B4A0C4B0C4CA04717
S11304B00C4C02000B0000200B49A0470B4A0C4BCC
S11304C00C4CA04710BDC0469D6200000D4E0000BC
S11304D00000594000AA8F403CDD79E2395BC83FF7
S11304E0ED300000495B00000000F03F9A999999B3
S11304F0B3BE014155560000F7B5A224114D962014
S1130500114E8000B04796208000B04780230F4EE4
S1130510DB012100736102200D4B98470D4F02202F
S1130520B84701900220B8478023DB01B361019BE7
S113053002341B021843E4B228800235AE2CDED10B
S1130540F7BDC04668020020C1100000004400410D
S1130550C12D0000D92D000070B58025064CED0199
S11305601E2165610220054B9847A561C820044BF4
S11305709847044B984770BD00440041C12D0000CA
S1130580F5100000F9040000024B00209A7BDA8188
S11305907047C046660200201E21F0B5FC4A85B0B3
S11305A0536801248B431C390B435360F94A0631C9
S11305B093690F260B439361F74B98470020F74B41
S11305C09847F74B9847F74B9847F74B9847F74BA3
S11305D00220190054310A781D00A2430A708022B7
S11305E052039A6033352A780E39B24322432A7073
S11305F00A781F0022430A701A0047321178943790
S1130600A143117011780143117080215960297838
S11306100E303140014329700225117821431170B5
S11306207C321178A143117011782943117008218B
S11306308C469C4461460635CD67A9310D7835401A
S113064005430D701578254315701D00D7352A789C
S1130650A2432A708025D64A2D0415602A000397E8
S11306603A601A000227C2321578A543157015782E
S11306703D4315706546FF19EF670D78B543254373
S11306800D7011780225214311701900D6310A78B2
S1130690A2430A708021C64AC90311600A00039963
S11306A00A601A0043321178A1431170117829436A
S11306B011701D00082131355960297831400843F3
S11306C028701178022021431170190059310A78D9
S11306D0A2430A70802292049A605A611A0042323C
S11306E01178A14311701178014311705F6029786A
S11306F01800B14321432970117848302143117007
S1130700190058310A781F00A2430A708022002180
S113071052049A605A61A74A493711700021117234
S1130720002111740021117602780225A24302707F
S1130730802252009A603A78A2433A708022920052
S11307409A601A004B321178A14311701178294331
S1130750117080210901596035218C469C44614601
S113076009781E35314029436546297011782025C2
S113077021431170190034310A7832402A430A7037
S11307803A781E3D22433A700A780637B2432A4328
S11307900A7002789631224302700A78A2430A70E2
S11307A080228349D2000A60190098310A60817856
S11307B0A14381709A609A61027AA24302728022F4
S11307C052029A60BA78A243BA70802292029A6066
S11307D01A0053321178A143117011782943117012
S11307E080210903596039218C469C44614609786B
S11307F01E3531402943654629701178202521434F
S11308001170190038310A7832402A430A70BA78D4
S11308101E3D2243BA700A78B2432A430A70027A10
S11308201431224302728A79A2438A718022D2024D
S11308309A609A6103910A78A2430A708022520155
S11308409A603A782021A2433A70802212029A6078
S11308501A004D321078A04310701078284310709D
S113086080208001586018003630057835400D43EB
S1130870057011780D0025431570372294469C4469
S1130880624620211278022532400A4361460A70EA
S113089002213A7822433A700278B2430A43027042
S11308A0039A03991278402022430A7019004E31AA
S11308B00A78A2430A708022D2019A609A611A00CF
S11308C055321178A1431170802189039960117800
S11308D0A143117011780143180011705630027849
S11308E01900A24302708022D2039A603B310A7835
S11308F0B2432A430A700278224302701A00573224
S11309001078A043107010782843107080200004E1
S1130910586020200B78334003430B701378A830C1
S113092023431370244B9847244F280004220321A7
S1130930B8470023224E019300932100280003228C
S1130940B047042203210020B84700230321019368
S113095000931A001800B047200004220321B8476E
S113096000232000019300931A000321B0470822BA
S113097004210320B8479623210000220320DB0131
S1130980104CA047104B9847104B984705B01FE0F8
S11309900040004100040040D50100002110000087
S11309A0210F000095100000410D0000004400419B
S11309B088440041AC020020F5100000992C00008E
S11309C0FD2C0000612D000075110000DD110000F8
S11309D0F0BDC04610B5124B9847124B9847124BC6
S11309E09847124B9847124CA047124B9847124B0A
S11309F09847124B9847C820114B80009847114BD9
S1130A009847114B1860114B98470028FBD0A0471A
S1130A100F4B98470F4B98470F4B9847F3E7C04647
S1130A209905000059050000750A0000AD17000083
S1130A3089290000490C00004D150000092F000011
S1130A40250E00004111000054010020712900000E
S1130A50451200002116000019220000BFF34F8F39
S1130A60024A034BDA60BFF34F8FFEE70400FA0536
S1130A7000ED00E070B5084C80252300ED009433B0
S1130A801D60064E0F210020B04798340C21002031
S1130A90B047256070BDC04600440041C12D000030
S1130AA010B5094B1C7E6407E40F012C01D0002013
S1130AB009E00320054B9847011E4829F7D103207C
S1130AC0034B9847200010BD001400420D2E000077
S1130AD0F52D0000F0B5802705000024091A090A45
S1130AE0C3B08BB201937F0002A92800094B984739
S1130AF0002602AB995D0320074B01369847BE429E
S1130B00F7D10134019B0135A4B2FF35A342EBD2E6
S1130B1043B0F0BD5D030000F52D0000074B10B598
S1130B209869074B98470B00064902000868496812
S1130B30054CA047054B984710BDC046080100204E
S1130B4021630000E0020020495B000031620000E4
S1130B50074B70B5D868074B9847074A074B084DB1
S1130B600124A847002800D1041CE0B270BDC0468F
S1130B7078050020916300006666666666660A4032
S1130B806544000010B56420144B9847002380216D
S1130B90134A09031380134A80241380124A022043
S1130BA0D16708216403D467D167104A118881434F
S1130BB011800F4A13600F4A936180220E4B52003A
S1130BC09A60832252025A600C4B0D4A9C610D4B71
S1130BD05A635A6B02435A63FEE7C046F51000009D
S1130BE0003000420034004204E100E00014004000
S1130BF010E000E000040040000C0040004400410C
S1130C0008203C00000800400122054B10B51A7072
S1130C10044B9847044B9847044B9847044B984718
S1130C2064010020E501000005280000990E000081
S1130C30850B0000024B10B59847024B9847C046FD
S1130C40990E0000850B0000F0B5324B85B0984733
S1130C50314B80B2DB890124834200D100248027F8
S1130C602E4DFF029F212E4B019401206F61984766
S1130C702C4E0120B04702900120B0470390012080
S1130C80B047AF61029B1F3B5A1E93411900039B5F
S1130C90863B5A1E9341224A02920B4204D00128F9
S1130CA002D001230224019380271F4BFF001F6001
S1130CB0029B802100209847FF2100201B4EB04753
S1130CC01B4B1F60FA2802D00123032401936F6198
S1130CD080210020029B9847FF210020B047AF618C
S1130CE00F2803D1019B002B01D111E0042425001E
S1130CF0104E002D09D096200F4B400098479620A7
S1130D00013D4000B047EDB2F2E70C48B047EEE7D2
S1130D1005B0F0BD890500006602002000440041D2
S1130D20C12D0000D92D000094440041A92D0000DC
S1130D3098440041F5100000250E0000DC05000079
S1130D40802110B5104A4902136A10480B431362FC
S1130D50E0230F490F4ADB008B8050800E4A126853
S1130D60500118400D4B54011A68D30E2343DAB2D4
S1130D70030013430B8501234B70DB180B704B7E70
S1130D805BB2002BFBDB10BD000400401E400000E2
S1130D9000400042000C004024608000206080007D
S1130DA00222054B1A73013A197E1142FCD0024B00
S1130DB0588B80B27047C0460040004237B50125C9
S1130DC0020CD4B20090000E01914208E3011149D3
S1130DD0D2185218284205D00F211478214010242B
S1130DE0214303E00F241178A14329431170012109
S1130DF0094AC3189B181A780A431A706B461A7961
S1130E001F231340C02252011343044A1361044BAD
S1130E1098473EBD304400414044004100400042F8
S1130E20A10D0000F8B580238027060000250A4C98
S1130E305B03E361BF03B54206D0E7617A20074B49
S1130E4001359847ADB2F6E780239B0363618023A5
S1130E505B03E361F8BDC04600440041C1100000DB
S1130E6070B5962676000A4D3000A847094C5020EC
S1130E70A0473000A847FA20A0473000A8475020D8
S1130E80A0473000A847FA204000A04770BDC046E4
S1130E90250E0000F510000070B596260C4C760067
S1130EA05020A0470B4D3000A8475020A0473000E9
S1130EB0A8475020A0473000A8475020A0478022D0
S1130EC0054B92035A61802252035A6170BDC04699
S1130ED0F5100000250E000000440041084B18687E
S1130EE0800E3F2800D12038064B074A1B689B051B
S1130EF09B0D934200D1054B800218437047C046B6
S1130F002460800028608000FF030000FF010000CF
S1130F10024AD368DB06FCD57047C046000800408F
S1130F20274B284A28489A61284A9969126801403F
S1130F30D204520E120411439961254999619969A9
S1130F400840022102439A619A690A439A61042281
S1130F50D9681142FCD081221E4B52009A601E4A6D
S1130F605A605A7852B2002AFBDB1C4A194B5A8049
S1130F7004221B4B1A809A7A1949D209FBD1A0206A
S1130F800A88C00002430A809A7AD209FCD1154922
S1130F90134A9182997A124AC909FBD1518812489D
S1130FA00143518080210220D171118801431180B5
S1130FB09A7AD209FCD10D4B08321A607047C046A8
S1130FC00008004006060000FFFF80FF2460800048
S1130FD004060000000C004002002300044200004C
S1130FE000140040E60300001040000000E100E0AF
S1130FF00F231840084B12021A40F82309025B0120
S11310001940802310B55B02044C19430243084382
S1131010A260606010BDC04600FFFF00000C0040ED
S1131020C2231E2170B5124C124ADB00A360536820
S113103005008B431A390B4353600F4A04319369FB
S11310400B43936101230D4A137011781942FCD1AB
S11310500B4B0C4EA384B0470B4B9847A062B04790
S11310600A4B2800A38401220721094B984770BD2D
S1131070000800400040004100040040000C004013
S113108002050000110F0000DD0E000082050000C3
S1131090F10F00003022064B064906C3064A136AC4
S11310A01B021B0A13620522044B1A607047C046D8
S11310B00400002080BB000000ED00E010E000E030
S11310C070B580240021084B084A5B68640201382B
S11310D008D3002BFBD0054E536091603568254240
S11310E0FCD0F4E770BDC0460400002010E000E02E
S11310F07047000070B580240021084B084A1B6823
S11311006402013808D3002BFBD0054E5360916074
S113111035682542FCD0F4E770BDC04604000020C9
S113112010E000E0FA21044A890013685B18136098
S1131130FF22024B1A727047F40000200014004092
S113114030B5EFF3108172B6084A094D108A2B6846
S1131150147A80B2E40904D0138AFA22286892002F
S11311608018C01881F3108830BDC04600140040B8
S1131170F400002080210D4A0D4B49015A800D4A8C
S1131180136A0B4313620C4B0C4A02211A8050223F
S11311901A754F3A5A73FF325A811A880A431A80D1
S11311A08022074B12031A607047C0461C4200009D
S11311B0000C00400004004000300042040900001C
S11311C000E100E0FF2210B5024B9A73024B9847EE
S11311D010BDC046003000427D29000080210D4A28
S11311E00D4B89015A800D4A136A0B4313620C4B51
S11311F00C4A02211A8066221A75653A5A73FF3224
S11312005A811A880A431A808022074B52031A60B3
S11312107047C0461C420000000C0040000400401F
S113122000340042040C000000E100E0FF22034B04
S11312309A73034BFE3A1A707047C046003400425A
S11312405201002070B5664D28780A2800D9ACE018
S113125003F05CF806193A67ABAB6D889CAB67008A
S1131260604B9847604B9847604B1B68C01A604BB3
S1131270984206D95F4B98475F4B984702232B70DF
S113128093E05E4B80E0584EB0475D4CE36AC01A71
S1131290FA23DB00984205D9B047E062C820594BD5
S11312A040009847584B1B7E5B0700D47DE0032029
S11312B0564B9847522878D1BFF34F8F544A554B19
S11312C0DA60BFF34F8FFEE7464B9847524B1B78CB
S11312D0002B05D0514B98478022514B5203DA61C1
S11312E05049514C002208684968504BA0470028D7
S11312F00CD080234E49002208684968DB05A047CA
S1131300441EA04101244042044000E00400494B33
S11313109847642801DCE30747D503232B70464B29
S113132032E03D4B1B78002B3FD0444B2CE03A4B32
S11313301B78002B01D0414B9847414B188B414BF4
S113134098470B0040490200886DC96D3F4CA04787
S113135000282AD007232B703D4B98474D203D4B46
S1131360984722E02C4B1B78002B01D0334B984735
S11313702C49002208684968374B344CA0470028A0
S113138013D008232B70354B98470EE0164EB04708
S11313901B4CE36AC01AFA23DB00984205D9B04714
S11313A0E062C820174B4000984702232C782C4E4B
S11313B0A342A4416442B047002C03D0002801D0CA
S11313C0264B9847002302212A7891425B41DCB2E4
S11313D0B047002C03D0002801D0224B984770BDA1
S11313E06401002069140000411100005401002030
S11313F010270000C5280000610E000071300000B5
S113140008010020250E0000001400420D2E0000EB
S11314100400FA0500ED00E052010020FD25000063
S113142000440041D80200208D44000000002E40FA
S1131430D00200201D0B00009D2800004524000060
S1131440380100209D6200007805002065440000FA
S113145051170000E923000000001440090C0000AB
S1131460510B0000350C0000F7B52B4C2B4D2C4ACA
S1131470206961692B4BA8472B4B0600586A2B4BFC
S11314800F009847264A2A4BA84702000B00300059
S11314903900284EB047284E20616161E069B047A9
S11314A00022264BA8470090019125490022086894
S11314B04968224BA8471F4F02000B00009801996E
S11314C0B847204FB847E061606AB047144A154BEB
S11314D0A847154B00900191586DB047104A144B22
S11314E0A847144D0B00020000980199A847B8477B
S11314F0154D6062A8472368C01AFA23DB0098429E
S113150009D9E369A361636A236222696369A260FA
S1131510E360A8472060F7BD08010020555600008D
S11315209A9999999999E93F780500209163000067
S11315309999C93FB5470000216300000000E03FCE
S1131540E00200200D45000041110000F8B51E2600
S1131550002400250A20214B9847214B9847214A13
S1131560214F224B20002900B847214B0400586A20
S113157080230D001B06C0181E4B9847194A1E4BAA
S1131580B84722002B001D4CA047013EF6B20400D0
S11315900D00002EDED11A4E1A4A1B4BB0473700FD
S11315A01A4E002807D00F4A194B20002900B047D3
S11315B0012200280ED1134A164B20002900B047FF
S11315C000280AD0074A144B20002900B8470028F5
S11315D003D00022114B5A71F8BDFEE7F51000004C
S11315E0892900009A999999555600009999E93FDB
S11315F078050020916300009999C93FB547000020
S11316008D440000CDCCCCCCCCCCEC3F6544000068
S11316109999F13FCCCCECBF9999F1BF58010020C6
S113162010B5234C2378002B0DD0224B98476368C8
S1131630C01AFA23DB00984205D980221E4B1204FB
S11316401A6000232370237A002B0DD0194B98477E
S1131650E368C01AFA23DB00984205D98022164BAE
S1131660D2031A6000232372237C002B0DD0114B6C
S113167098476369C01AFA23DB00984205D980228F
S11316800E4B92045A6100232374237E002B0DD049
S1131690084B9847E369C01AFA23DB00984205D93E
S11316A08022064B52045A610023237610BDC046A3
S11316B0AC02002041110000944400410044004168
S11316C08022054B120410B51A600123034C2370C9
S11316D0034B9847606010BD98440041AC02002061
S11316E0411100008022054BD20310B51A6001237A
S11316F0034C2372034B9847E06010BD98440041AB
S1131700AC020020411100008022054B920410B568
S11317109A610123034C2374034B9847606110BD05
S113172000440041AC020020411100008022054B1E
S1131730520410B59A610123034C2376034B984756
S1131740E06110BD00440041AC02002041110000E2
S113175010B5114C6378002B04D12378002B01D0F1
S11317600E4B9847E379002B04D1A379002B01D0C9
S11317700B4B9847637B002B04D1237B002B01D0B8
S1131780084B9847E37C002B04D1A37C002B01D0A9
S1131790054B984710BDC04638010020C116000013
S11317A0E5160000091700002D170000DC4BDD488A
S11317B0DD49F0B59860D9609862D962DB48DC49AC
S11317C00022186159610020DA49DB4C8C46DB4D5C
S11317D0DB49CDB040AE97196646961910323C608D
S11317E07D6030607160BC60FD60B060F160302A83
S11317F0F0D119685A681A911B929969DA691C9197
S11318001D92196A5A6A1E911F92196B5A6B209184
S11318102192996BDA6B22912392196C5A6C249160
S11318202592996CDA6C3A913B92196D5A6DDC6D84
S11318309B6D3E933F940023C24C3C913D92029396
S113184003940023002410931194009301940493AF
S113185005940023BB4C0E930F940023002408939B
S113186009940C930D940A930B9480240023E405AB
S11318700693079400233893B34D069A079B1A984E
S11318801B99A847A74A06000F0008980999A64B78
S1131890A847AE4C02000B0030003900A047A34A11
S11318A006000F0000980199A14BA84702000B0005
S11318B030003900A0470A9A0B9B169017911A988A
S11318C01B99A847974A06000F000E980F99964B4C
S11318D0A84702000B0030003900A047934A0600D5
S11318E00F0010981199924BA84702000B0030008A
S11318F03900A0470C9A0D9B129013911A981B99CA
S1131900A847884A06000F0004980599864BA84703
S113191002000B0030003900A047844A06000F0083
S113192002980399824BA84702000B00300039004B
S1131930A047069A079B149015911C981D99A847D7
S1131940089A099B06000F001E981F99A8470200D9
S11319500B0030003900A047724A06000F000098BF
S11319600199714BA84702000B0030003900A047D1
S11319700A9A0B9B189019911C981D99A8470E9AC6
S11319800F9B06000F001E981F99A84702000B002A
S113199030003900A047634A06000F0010981199DF
S11319A0614BA84702000B0030003900A0470C9A95
S11319B00D9B269027911C981D99A847049A059B76
S11319C006000F001E981F99A84702000B00300064
S11319D03900A047534A06000F0002980399524B5E
S11319E0A84702000B0030003900A047069A079B65
S11319F02890299120982199A847089A099B0600C4
S1131A000F0022982399A84702000B0030003900E8
S1131A10A047009A019B06000F0024982599A84727
S1131A2002000B0030003900A0470A9A0B9B2E904D
S1131A302F9120982199A8470E9A0F9B06000F001A
S1131A4022982399A84702000B0030003900A047D0
S1131A50109A119B06000F0024982599A8470200AC
S1131A600B0030003900A0470C9A0D9B069007919B
S1131A7020982199A847049A059B06000F002298F4
S1131A802399A84702000B0030003900A047029AAE
S1131A90039B06000F0024982599A84702000B0019
S1131AA030003900A0471F4A0290039112981399FD
S1131AB01D4BA847169A179BA0471C4A06000F0007
S1131AC0149815991A4BA84702000B0030003900EE
S1131AD0A047002208900991169817990023A84757
S1131AE006000F0002000B0012981399A0470D4A3C
S1131AF000900191149815990B4BA84702000B0014
S1131B0000980199A04700223090319112981399BE
S1131B100023A84732003B00A047149A159B17E006
S1131B20100000207B14AE47E17A743F2D431CEB78
S1131B30E236EA3E78020020FCA9F1D24D62503F21
S1131B400000F03F0000224055560000B547000059
S1131B50A047D94A129104901691D84B26982799F8
S1131B60A847189A199BA047D54A06000F00289841
S1131B702999D44BA84702000B0030003900A04734
S1131B8000222A902B91189819990023A847002223
S1131B9032903391269827990023A847329A339B91
S1131BA0A047289A299BA047C34A2C902D910698B8
S1131BB00799C24BA8472E9A2F9BA047C04A0600FC
S1131BC00F0002980399BF4BA84702000B00300096
S1131BD03900A0470022009001912E982F990023EC
S1131BE0A84706000F0002000B0006980799A047BB
S1131BF0B14A0A900B9102980399B04BA84702008E
S1131C000B000A980B99A047002210901191069896
S1131C1007990023A84732003B00A047029A039B80
S1131C20A0473A9A3B9BA0473C9A3D9B0290039164
S1131C3008980999A0473E9A3F9B0A900B910298F5
S1131C400399A047009A019B0C900D910498169952
S1131C50A8470C9A0D9B0E900F910A980B99A847D0
S1131C600E9A0F9B984EB0470C9A0D9B06900791C5
S1131C7008980999A8470E9A0F9BB047069A079BA4
S1131C80924EB04734903591349A359B90490A600E
S1131C904B6008980999802212069446129B049A74
S1131CA063442E932E9BA8470A9A0B9B06000F00B1
S1131CB004981699A84702000B0030003900A04789
S1131CC0069A079B814EB0470E900F9180490E9A59
S1131CD00F9B8A60CB600C9A0D9B2A982B99A8477E
S1131CE0009A019B06000F002C982D99A84702002A
S1131CF00B0030003900744EB047069A079B734EB0
S1131D00B04702000B003991714918900A614B6188
S1131D102A982B99049A2E9BA8470A9A0B9B060093
S1131D200F002C982D99A84702000B0030003900B1
S1131D30A047069A079B654EB04712901391129ADA
S1131D40139B63498A61CB610C9A0D9B009801999E
S1131D50A847029A039B06000F0000980199A84720
S1131D6002000B0030003900574EB047069A079B1B
S1131D70564EB04714901591149A159B54490A6213
S1131D804B6200980199049A2E9BA8470A9A0B9BD0
S1131D9006000F0002980399A84702000B003000C8
S1131DA03900A047069A079B484EB04736903791B2
S1131DB0369A379B4649444E8A62CB62349A359BA5
S1131DC000204449B04702000B000C900D91089884
S1131DD00999A8470E9A0F9B06000F0000980199D5
S1131DE0A84702000B0030003900374EB0470C9A68
S1131DF00D9B0690079130983199A8470E9A0F9B36
S1131E0006000F0010981199A84702000B0030003B
S1131E1039002D4EB0470C9A0D9B0A900B910498F3
S1131E201699A8470E9A0F9B06000F000298039973
S1131E30A84702000B0030003900234EB04780222F
S1131E4012069446399B189A63442E932E9B0C9049
S1131E500D9108980999A8472A9A2B9BA047129A92
S1131E60139B06000F0000980199A84702000B007D
S1131E7030003900144EB047329A339B08900991D0
S1131E8026982799A0470C4A06000F0028982999FC
S1131E900A4BA84702000B0030003900A047189AEB
S1131EA006000F00309831992E9BA84702000B00C2
S1131EB030003900A0470FE07B14AE47E17A743F4D
S1131EC02D431CEBE236EA3E495B00000D4E000058
S1131ED0780200200000F03F129A139B06000F00C6
S1131EE010981199A84702000B0030003900504E99
S1131EF0B047189A0E900F912E9B04981699A847F4
S1131F002C9A2D9BA047129A139B06000F0002984F
S1131F100399A847464C02000B0030003900A04743
S1131F20369A379B0490059100204249A04702004D
S1131F300B001290139100980199A847149A159BCD
S1131F4006000F0000980199A84702000B0030001A
S1131F503900A04700900191129A139B109811998F
S1131F60A847149A159B06000F0010981199A847CA
S1131F7002000B0030003900A047129A139B109006
S1131F80119102980399A847149A159B06000F0013
S1131F9002980399A8470B00020039003000A047BB
S1131FA00024389B0290039101333893224B1494FC
S1131FB026931F4B289340ABE518002316951293E4
S1131FC0129B269AE3189B181A685B681892199357
S1131FD018981999169B289D1E685F6832003B006B
S1131FE0A84732003B00154DA847154B154A164E1D
S1131FF0B047431E9841149B16991B181493189AC2
S1132000199B0CC1129B169108331293102BD7D134
S11320101034302CCFD1149B002B01D0FFF72CFCB3
S1132020389B632B01DCFFF727FC4DB0F0BDC046A5
S1132030495B00000000F03F780200200D4E0000D4
S1132040B5F8E43EF168E3888D440000F0B58FB044
S113205008920993684B694D5C681B68009301946E
S1132060674B069007915C681B680098019902937E
S11320700394644B5C681B6804930594624C226867
S11320806368A847A268E36806000F0002980399F2
S1132090A84702000B00300039005C4EB0472269AB
S11320A0636906000F0004980599A84702000B0015
S11320B030003900554EB0470A900B910A9A0B9B99
S11320C053490A604B60A269E36900980199A847E3
S11320D0226A636A06000F0002980399A847020067
S11320E00B0030003900494EB047A26AE36A06008B
S11320F00F0004980599A84702000B00300039002E
S1132100424EB0470C900D910C9A0D9B40498A6049
S1132110CB60226B636B00980199A847A26BE36BB9
S113212006000F0002980399A84702000B00300034
S11321303900364EB047226C636C06000F000498D9
S11321400599A847314C02000B0030003900A04724
S113215003000C002E4A0090019106980799136120
S113216054612C4C22686368A8470A9A0B9B274E3B
S1132170B047A268E36806000F0008980999A847C9
S113218002000B0030003900204EB0471A4B186093
S113219059602269636906980799A8470C9A0D9BB0
S11321A0B047A269E36906000F0008980999A84797
S11321B002000B0030003900144EB047104B186079
S11321C05960226A636A06980799A847009A019B96
S11321D0B047A26AE36A06000F0008980999A84765
S11321E00A4C02000B0030003900A047054B186070
S11321F059600FB0F0BDC046E00200205556000003
S1132200D8020020D002002010000020B5470000B2
S1132210E802002078020020F7B5194D194B686ACE
S11322209847194B194C9A68DB68A047184A194B10
S1132230194EB047AA6DEB6D184D00920193184CDE
S113224006000F002868696800220023A0470F4C8D
S1132250002803D0009A019B2A606B60114D300066
S11322602A696B693900A0472A686B6806000F0069
S113227000980199A04732003B000B4CA047F7BDE2
S1132280780500209163000008010020495B0000EC
S1132290DFF8DA334B16404055560000E0020020C8
S11322A059440000E80200204D200000F0B51F4A08
S11322B015784319FF2B03DC002380B21C4C29E062
S11322C000231B4E5F19DCB2B446FF2F04DCCC5C48
S11322D00133F4559BB2F5E70023164F137065469E
S11322E0ED182E78FE5400262E70802501336D00E3
S11322F0AB42F4D100235D1C844207D267460E5DD5
S11323000134FE54E4B215702B00F4E701220A4BA9
S11323101A7009E0834207D8CF5CE6187755EE18A7
S1132320013316709BB2F5E7F0BDC046700500207E
S113233066010020020300200204002070B50E4A4A
S11323400E4C0023DDB2A84205D91D00D65C233D06
S113235056550133F6E72332A242F2D10023084C4A
S1132360DAB2904206D91A00CD5C3C32FF32A55451
S11323700133F5E770BDC0462F0400206A05002034
S11323800C0400201FB546236A46137000236946D7
S113239068465370114B124A5B688B70190A53607C
S11323A0C170190C1B0E437193690171190A837171
S11323B0C171190C1B0E4372136A01721A0A8372DB
S11323C0C2721A0C1B0E4373FE230273C373694655
S11323D01020044B984705B000BDC0467805002086
S11323E008010020AD2200007FB5124D124B6A682F
S11323F05B6801ACD31A452222701A0A0F4EA370EF
S1132400E2701A0C1B0E227163716070B047A071E8
S1132410B0470012E071B04700142072B0470016B4
S113242060722B892100A3721B0AE3720C20044BF7
S113243098477FBD78050020080100201D0B00008F
S1132440AD2200000022F0B5594B8FB01A70594BE1
S11324501E685F68584B390030009847574D00B2EA
S1132460A847574C02000B0030003900A047554FD5
S1132470B847554B55499847554EB04703B2019359
S1132480544B1A685B6802920393100019004A4B7C
S1132490984700B2A84702000B0002980399A0478E
S11324A0B8474A49484B9847B04753234A4D05AC6F
S11324B023706B6806B21A0A6370A2701A0C1B0EA2
S11324C0E2702371454FB8476071B8470012A0719C
S11324D0B8470014E071B847364B001620721868EC
S11324E05968354B98476B461B7900B2E372019BE0
S11324F060720012A0721812364B20731868596863
S11325002D4B984700B26073E67300123612344BB9
S1132510A0732674A86DE96D9847030A6074A374C8
S1132520030C000E2075E3742022AB5E210063755A
S11325301B12A3752822AB5E2320E3751B1223769E
S11325403022AB5E63761B12A3763822AB5EE37651
S11325501B122377AB1C3E229B5E63771B12A3776F
S11325602B00483300229B5E04AAE37705321B123A
S1132570D3772B8B04AA0632D37704AA07321B0A1B
S1132580D377184B9847184B1A78002A0ED000229C
S11325901A708022154B164C5203DA611549164BFA
S11325A02068984723680133FF3323600FB0F0BDE0
S11325B052010020D0020020316200009D62000020
S11325C0495B0000396400004945000000007A447A
S11325D071470000D8020020780500201D0B000080
S11325E00D450000AD22000002040020004400411B
S11325F00804002002030020A50200000022F0B518
S1132600504B8FB01A70504B1C685D684F4B2900BB
S1132610200098474E4E00B2B0474E4F02000B00C8
S113262020002900B8474C4CA0474C4D4C49A847C2
S11326304C4B984703B201934B4B1A685B68029268
S1132640039310001900414B984700B2B0470200B1
S11326500B0002980399B847A0474149A847414B4A
S113266098475323414D05AC23706B6806B21A0A90
S11326706370A2701A0C1B0EE27023713C4FB847B2
S11326806071B8470012A071B8470014E071B847F0
S11326902D4B00162072186859682C4B98476B46CE
S11326A01B7900B2E372019B60720012A0721812CF
S11326B02D4B207318685968244B984700B26073F7
S11326C0E67300123612A0732A4BA86DE96D2674C6
S11326D09847030A6074A374030C000E2075E37416
S11326E02022AB5E210063751B12A3752822AB5E0A
S11326F02320E3751B1223763022AB5E63761B1214
S1132700A3763822AB5EE3761B122377AB1C3E2202
S11327109B5E63771B12A3772B00483300229B5EDA
S113272004AAE37705321B12D3772B8B04AA063253
S1132730D37704AA07321B0AD3770F4B98470FB0FD
S1132740F0BDC04652010020D002002031620000DA
S11327509D620000495B00003964000049450000A7
S113276000007A4471470000D80200207805002058
S11327701D0B00000D4500003D230000062313B58A
S1132780584301AC0130FF3022000321044B984729
S11327906078A37800021B0418432378184316BDFD
S11327A001030000062313B5584301AC0430FF3085
S11327B022000321044B98476078A37800021B048D
S11327C018432378184316BD0103000010B5044BC9
S11327D09847044BC018431E9841C0B210BDC04670
S11327E07D270000010000FF10B5034B034A188841
S11327F00321034B984710BD00030020030400206D
S11328004102000007B50620094B01AA1B6813709A
S1132810190A1B0C9370074B51701B780321584302
S11328200430FF30044B98470A20044B984707BDF7
S1132830080400205301002041020000F5100000AC
S1132840F8B58027AF2600247F0376000C490D4B92
S11328506118232098470C4B1A78002A0CD00022C8
S11328601A700A4B0A4DDF610A490B4B28689847D6
S11328702B680133FF332B602334B442E6D1F8BD17
S11328800C040020AD22000002040020004400419A
S11328900804002002030020A502000010B5054B27
S11328A09847054B9847054B98474C20044B98474D
S11328B010BDC046E9270000852300004128000020
S11328C0E9230000F8B500242000214B9847002894
S11328D038D1204F204D002C14D0601E1F4BC0B2A5
S11328E0984706001E4B05209847330A6B70062351
S11328F063431C4A01333E602E70FF33360CAE70C6
S113290013800DE01023174A6B70F033138080237B
S1132910FA205B013B608000134B2C70AC7098472D
S1132920124B1C70FA204000002C08D00E4B984724
S1132930FA200B4B4000013C9847E4B2F2E7084B05
S1132940984703E00134E4B2142CBDD1F8BDC0466D
S1132950CD2700000804002003040020A527000060
S1132960F510000000030020250E00005301002094
S1132970014B18787047C046650100200122014BC5
S11329801A70704765010020F7B50022A74BA84FC5
S11329901A70A84B7C6898477860001BA64C388056
S11329A063782178A0781B020B4300041A0003000B
S11329B0E07813430006A14E21791843B047A04B99
S11329C0388198479F4AA04DA04BA847A04B9847F1
S11329D0A3796179F860E0791B020B4300041A00C3
S11329E00300207A13430006617A1843B047E37A60
S11329F0A17A3882207B1B020B4300041A000300D7
S1132A00607B13430006A17B1843B047237CE17B22
S1132A107882607C1B020B4300041A000300A07C34
S1132A2013430006E17C1843B047637D217DB882DF
S1132A30A07D1B020B4300041A000300E07D134336
S1132A400006217E1843B0471022824DF882AB88DD
S1132A50617E1343AB800423AB70A37EE07E1B0234
S1132A600B4300040343207F617F00061843B047F3
S1132A70794B3883C018724B9847784A724C784B1C
S1132A80A047734B98470023F861AB70AB88754E31
S1132A909BB2AB808025ED015021734C75610220FF
S1132AA0A0479620B5618000704B9847704B9847BB
S1132AB04021019075610220A04780226D4BD20015
S1132AC08221B56100201A60A0476B4D0020A84701
S1132AD004000020A8470002044300203C84A847C7
S1132AE004000020A8470002044300203C85A847B6
S1132AF004000020A8478022604BD2001A60604B7B
S1132B0000025A790443009624B23D0020217B5EE2
S1132B10002A00D05B421B112B842823EE5E241173
S1132B2036112023E85E2E852C86454B9847FE23DC
S1132B3000229B05444FB847454FB847404B686255
S1132B4030009847FE2300223F4E9B05B047B8470C
S1132B503B4BE86220009847FE2300229B05B047C8
S1132B60B8478022009BD200822168635A6100200A
S1132B703D4B9847404E0020B04704000020B0472A
S1132B800002044300202C87B04704000020B04713
S1132B903C4B000204430020DC87B04704000020C3
S1132BA0B04780210300009AC90091613822A85ED1
S1132BB0344A001128873E26965F1B02314A1C4383
S1132BC0361124B2D68723116A4600932B0012884B
S1132BD048331A801A4B9847FE231B4C00229B054E
S1132BE0A047B847164BE86330009847FE230022FD
S1132BF09B05A047B847124B686400989847FE238A
S1132C0000229B05A047B847E864C820174B400042
S1132C109847174B98471C4A01991C4B1C4CA047DA
S1132C20286D1C4B9847A865E965F7BD6501002030
S1132C307805002041110000E4650000BD0D00008E
S1132C409D6200002B137EA9555600009F37653FF7
S1132C503964000000400042C941FFFF514EB4AB4B
S1132C6090F2733F00440041C12D0000C1100000E8
S1132C70B503000094440041D92D0000984400415C
S1132C80580100207A050020CC050020C80500204A
S1132C90F50300009504000070B504000123A61C90
S1132CA0B3400D480D00016A0B430362002D03D0AD
S1132CB007212800094B9847F0228020290212019D
S1132CC01140C0010143200014303F22030013408F
S1132CD01943034B598070BD00040040F10F0000FC
S1132CE0000C0040044B8002C018012303600268FA
S1132CF01A42FCD17047C04600080042F7B50400F0
S1132D00009308AB1B780E00019309AB1F78124B9C
S1132D1015009847114BA402E41880239B026360BA
S1132D20C023C0212D049B022B400E2536058903A8
S1132D303140009E1D43731E9E41019B72070D434B
S1132D402A43591E8B4116001B071E432773266016
S1132D50E3695B07FCD4F7BDE52C000000080042E2
S1132D6070B506000C4B0D00140098470B4BB002D5
S1132D70C0180423C0220360094B29058381C023A2
S1132D8092031140074A9B022404436011432340E9
S1132D900B43036070BDC046E52C000000080042F0
S1132DA05BB1FFFF06000040044B8002C018816243
S1132DB0037E5B07FCD5806AC0B2704700080042FE
S1132DC0044B8002C0188162037E5B07FCD5836AD2
S1132DD07047C04600080042054B8002C018FF231C
S1132DE08362037E5B07FCD5806AC0B27047C0462D
S1132DF000080042044B8002C01889B20185037E9A
S1132E00DB07FCD57047C04600080042024B800235
S1132E10C018008DC0B2704700080042114A5178B2
S1132E201300002905D11178002902D05388138397
S1132E3017E0DA79002A04D19A79002A01D01A8994
S1132E400EE05A7B002A04D11A7B002A01D0DA89C9
S1132E5006E0DA7C002A04D19A7C002A01D09A8AFE
S1132E601A83704738010020962000220121094B63
S1132E704000197059705A801A719971DA71188169
S1132E809A721A735973DA811A749A74DA7498827A
S1132E909A7570473801002000B5C1B0694668468C
S1132EA0174B1A780A705A784A705A88110A817036
S1132EB0C2701A7902719A794271DA7982711A8927
S1132EC0110AC17102729A7A42721A7B82725A7B17
S1132ED0C272DA89110A017342731A7C82739A7C72
S1132EE0C273DA7C02749A8A110A417482749B7DDB
S1132EF06946C3740020034B0875984741B000BD70
S1132F0038010020A502000000B5C1B069462C4B71
S1132F10002098476A4612782A4B511E8A411A703B
S1132F206A46527869465A706A469278C97812029B
S1132F300A435A806A4612791A716A465279511EB6
S1132F408A419A716A4692796946DA716A46D279F7
S1132F50097A12020A431A816A46527A9A726A46B6
S1132F60927A511E8A411A736A46D27A69465A7312
S1132F706A46127B497B12020A43DA816A46927BD3
S1132F801A746A46D27B511E8A419A746A46127C2C
S1132F906946DA746A46527C897C12020A439A8230
S1132FA06A46D27C9A756B461B7DFF2B03D1064B78
S1132FB09847064B9847064B984741B000BDC0461A
S1132FC05D03000038010020692E0000992E0000E6
S1132FD01D2E0000F7B5002420001E4B9847002842
S1132FE003D0210003201C4B98470134E4B2142C75
S1132FF0F2D1FF210320184CA047184A137E5B0727
S1133000FCD5174B032098476B46D871D879DD1D42
S1133010C0B2144B984707002878134BC0B29847A6
S11330200600C51B2D0AE9B20320A047A9B2090A6C
S11330300320A047F1B20320A047310AC9B20320FC
S1133040A047310CC9B20320A04731003800074B18
S11330509847F7BDCD270000F52D0000001400426D
S11330600D2E00007D270000A5270000D50A0000D2
S113307070B5144B9847002822D00122124B1A70C5
S1133080124A137E5B07FCD50320114B9847041E9C
S11330904C2C02D10F4B984712E0452810D10E4E0C
S11330A0B0470E4DA84764200D4B9847B047A8473A
S11330B003200C4B21009847C8200B4B4000984735
S11330C070BDC046A10A0000640100200014004243
S11330D00D2E0000D52F000019020000E5010000AC
S11330E0F5100000F52D0000250E0000F0B55F4638
S11330F04D4656464446F0B491B01F0004000D00FE
S1133100160000F0AFF9CF4B029003919B461B7859
S11331105BB2994601334FD032003B003000390096
S113312003F066F80090002846D122002B0020000E
S1133130290003F05DF800228246002834D10023E0
S11331402000290001F088F900283AD00022002349
S11331503000390001F080F90590002800D174E0B6
S113316006AB9846012342460693B74B5360434649
S113317052469C60DD601A621E615F614246002314
S113318000249361D4614B46002B00D194E00023CA
S1133190AE4C009301940098019911B03CBC904648
S11331A09946A246AB46F0BD00233000390001F039
S11331B053F9002800D0EBE0029B039C0093019498
S11331C0E9E70298039900F07DFF8146002800D1C9
S11331D086E0029803990022002301F03DF90028BB
S11331E0EAD02000290000F06DFF029A039B0092B0
S11331F001930028CFD03000390000F063FF029A19
S1133200039B009201930028C5D006AB9846042383
S1133210424606938C4B9460D5605360002300248F
S1133220136200239361D4615B461B781661576176
S11332305BB2022B04D0404600F04EFF002840D180
S113324003F0A4F9222303603BE03000390000F0CE
S113325039FF029A039B0092019300289BD000221D
S113326000233000390001F0FDF8002800D192E776
S113327006AB9846012342460693734B536043467C
S1133280059A9C60DD601A621E615F615B461B7873
S11332905BB2002B0BD0002042466D499061D16196
S11332A0022B09D103F072F92123036009E042469D
S11332B0002300249361D461404600F00DFF0028F0
S11332C0F0D043461B6A002B04D003F05FF9434659
S11332D01B6A03604346DC699B69009301945AE7C7
S11332E02000290000F0EEFE002800D171E7300034
S11332F0390000F0E7FE002800D16AE7029803993C
S11333000B00020002F074FF06AB984600287AD145
S11333100323424606934C4B106253605B461B7872
S11333209460D5605BB2166157619946002B48D111
S1133330E0224146474B12068A61CB6120000022FD
S11333400023290001F08EF8002800D173E7002241
S1133350414B3000390002F07DF904000D0000F00B
S1133360C3FE02000B002000290001F075F80028BC
S113337005D1E022394B120641468A61CB615B4696
S11333801B785BB299464B46022B00D053E757E7B4
S113339006AB98460123424606932B4B53604346A3
S11333A09C60DD600024009A284D1A621E615F61F2
S11333B09C61DD614B4600940195022B00D07BE7B4
S11333C0E9E600224146264B20008A61CB610022B7
S11333D00023290001F046F80028D4D000221E4B17
S11333E03000390002F036F904000D0000F07CFED4
S11333F002000B002000290001F02EF80028BED1A5
S11334000022134BB8E70123424606930E4B536048
S113341043464A469C60DD601A621E615F61002477
S11334205B461C57002C00D141E700230022190001
S1133430100001F0EBFC43469861D961022C00D1E5
S113344030E739E770000020046600000000F03F18
S11334500000F0FFFFFFEF470000E03FFFFFEFC772
S11334600000F07FF0B556464D4644465F46F0B442
S11334701C001300670091B07F08009301940600BC
S11334800D0080468946A2463B4332D06E4B6C0009
S113349064089C4229DC26D09F4226DC6A4B9F426A
S11334A000D189E000239B464B46002B00DA87E0DD
S11334B0002A2FD1644B9F4200D19FE0634B9F426F
S11334C05DD08023DB059A4501D100F0C1FB604B40
S11334D09A451FD14B46002B1CDB3000290000F01D
S11334E0F7FC060007E000280DD05A4BE0183043E3
S11334F00BD100265549300011B03CBC904699468A
S1133500A246AB46F0BDA742C8DD534800F0E6FD35
S11335100600F0E73000290000F0D0FD4346002B00
S11335201DD0EB0F013B98465B464246134379D0CE
S11335304A4B9F4200DC9FE0494B9F4201DC00F074
S1133540CEFB484B9C4279DD5346002B79DD464A3D
S1133550464B1000190002F07DF80600CBE7002C62
S113356004D03A4AAB009B089342DAD15346002B6D
S113357000DAADE34B46002B0DDB0600BBE75346F8
S11335802900002BB7DA32002B0000202F4901F06C
S11335903DFC0600AFE72F4B9C465B4664441C434E
S11335A001D100F02BFC5B460600012BA3D1802344
S11335B01B069C4661449EE7002A00D172E794E70B
S11335C02B4B9F422BDC274B9F4200DC70E72949A1
S11335D03B158C466344142B01DC00F0F2FB3421D0
S11335E0CB1A0099D94008009840824200D05FE786
S11335F00123194001335B1A9B4659E7154BE01828
S1133600064300D175E7174B9C4200DC51E3534657
S1133610002B16DB009B019C1E0021006BE702239C
S11336209B4645E732002B003000290002F08CFA5B
S113363002000B0001F0EAFB06005CE75346002B96
S113364085DB0026002156E70000F07F0000F03FF4
S11336500000E03F000010C0086600000000E041E8
S11336600000F043FFFFEF3F9C7500883CE4377E89
S1133670FFFF3F4301FCFFFFE84B00229C4206DCB6
S11336800022E74B01F0E6FF35220C005242E54DE3
S11336902315AC46634499462403E34DE34B240BC2
S11336A0914425439C4209DDE14B9C4200DCA9E3A3
S11336B001239C46DF4BE1449C46654400230024DF
S11336C00022089309940C930D940024D64B06927F
S11336D00793069A079B29000A900B9102F034FA8B
S11336E0069A079B06000F000A980B9901F062F8EE
S11336F002000B000020CC4901F088FB0A00010005
S113370013000E910F9202003900300001F0A2FF65
S11337100A000100802004910592130000228021F8
S11337200003844602920393002289056D100D4321
S113373065442B190298039914001D0001F08AFFB7
S113374002000B003000390002F0FEF9069A079BD4
S113375006000F002000290002F0F6F902000B0019
S11337600A980B9902F0F0F9029A039B01F072FF98
S113377002000B003000390002F0E6F90E9A0F9BAC
S113378001F068FF049D059E069007912A0033000E
S11337902800310001F05EFF06000F00A64AA74B87
S11337A001F058FFA64AA74B01F004F832003B0091
S11337B001F050FFA44AA54B00F0FCFF32003B008F
S11337C001F048FFA24AA34B00F0F4FF32003B0093
S11337D001F040FFA04AA14B00F0ECFF32003B0097
S11337E001F038FF9E4A9F4B00F0E4FF32000400D2
S11337F00D003B003000390001F02CFF02000B00EB
S11338002000290001F026FF029E039F04000D0002
S11338100498059932003B0000F0CCFF069A079B00
S113382001F018FF22002B0000F0C4FF32000A90C0
S11338300B913B00300039000296039701F00AFF18
S11338400022894B04000D0000F0B4FF0A9A0B9B80
S113385000F0B0FF00260F0032000B00029803991D
S113386001F0F8FE0022029003917F4B30003900F2
S113387002F06AF922002B0002F066F902000B0044
S11338800A980B9902F060F9049A059B01F0E2FE94
S1133890320004000D00069807993B0001F0DAFE9F
S11338A002000B002000290000F084FF04000D003A
S11338B002000B000298039900F07CFF0026E0222E
S11338C06A4B120630000F0001F0C4FE029A039BFB
S11338D0049005913000390002F036F902000B0023
S11338E02000290002F030F9614A604B01F0B2FE79
S11338F0604A04000D00604B3000390001F0AAFE5C
S113390002000B002000290000F054FF0C9A0D9BCC
S113391000F050FF060048460F0002F0BFFC040010
S11339200D000498059932003B0000F043FF089A0B
S1133930099B00F03FFF22002B0000F03BFF00201A
S113394022002B000290039102F0FEF8089A099BD2
S113395002F0FAF8049A059B02F0F6F802000B0054
S11339603000390002F0F0F8049005915B464246BD
S1133970013B134300D197E100232B4C069307949A
S11339800098019900260B0032000F0002F0DCF8C9
S1133990029A039B01F05EFE009A019B04000D0055
S11339A00498059901F056FE02000B00200029003E
S11339B000F000FF04000D00029803993B00320060
S11339C00494059501F046FE009001910B0002005D
S11339D02900200000F0EEFE284B81460F1E8A4687
S11339E09F4200DC3CE1264BCB18034300D0DBE1D3
S11339F004980599234A244B00F0DCFE009A019BAD
S1133A0004000D004846390002F09EF802000B0045
S1133A102000290000F03AFD3E0037E0FFFF0F00D0
S1133A200000404301FCFFFF0000F03F8E980300BC
S1133A3079B60B000000F0FFEF4E454A287ECA3FDE
S1133A4065DBC9934A86CD3F01411DA96074D13F0E
S1133A504D268F515555D53FFFAB6FDBB66DDB3F20
S1133A60033333333333E33F0000084009C7EE3FE9
S1133A70FD033ADCF5015B14E02F3EBEFFFF8F40EF
S1133A80000070BFFE822B654715973C002800D0CC
S1133A908AE18022E74B52039C46130036156644A4
S1133AA03341E549DB195E001C001B038C461B0BEC
S1133AB013431422760DE14F66443741961B33417C
S1133AC098465346BC4300202100002B00DAA9E1AC
S1133AD002000B000098019902F036F80B000090E8
S1133AE0019102000498059900F064FE43461B0509
S1133AF0994600200022D24B06000F0001F0AAFDD7
S1133B00009A019B029003913000390002F01CF8E6
S1133B1002000B000498059902F016F8C94ACA4B32
S1133B2001F098FDC94A04000D00C94B300039006A
S1133B3001F090FD02000B002000290000F03AFE85
S1133B4004000D0002000B000298039900F032FEFD
S1133B50029A039B06000F0001F0F6FF02000B001F
S1133B602000290001F0F0FF3200009001913B0099
S1133B703000390001F06EFD04000D00B54AB64B6B
S1133B8001F068FDB54AB64B01F0DEFF22002B00C0
S1133B9001F060FDB34AB44B00F00CFE22002B0090
S1133BA001F058FDB14AB24B01F0CEFF22002B00C8
S1133BB001F050FDAF4AB04B00F0FCFD22002B0099
S1133BC001F048FD02000B003000390001F0BCFF99
S1133BD004000D0002000B003000390001F03AFD32
S1133BE08023029003910022DB052000290001F0CC
S1133BF0ABFF02000B000298039901F007F9009A49
S1133C00019B04000D003000390001F023FD009AEF
S1133C10019B00F0CFFD02000B002000290001F001
S1133C2093FF32003B0001F08FFF02000B000020E5
S1133C30924901F089FF4B465B181A15002A00DCF3
S1133C40F4E01900069A079B01F004FD060052E413
S1133C50320030002B00290001F0FCFC06004AE48D
S1133C60874B4E0076089E4200DCBFE0854BCB18A4
S1133C7003430CD1009A019B01F066FF02000B0084
S1133C800498059900F0F8FB002800D101E7069894
S1133C9007997D4A7D4B01F0DDFC7B4A7B4B01F0AB
S1133CA0D9FC0600FFF727FC0023794C0693079400
S1133CB066E65346002B00DBC3E4009B019C802294
S1133CC012061E009446230063441900FFF713FCF8
S1133CD002000B000020694901F098F84AE46D4B9A
S1133CE09C4200DCAAE4654B9C4201DDFFF72CFCFE
S1133CF00022624B01F028FFC022674BD20504006A
S1133D000D0001F0A7FC654A06000F00644B20007B
S1133D10290001F09FFC002202900391614B2000D6
S1133D20290001F097FC02000B005F485F4901F095
S1133D300BFF22002B0001F08DFC02000B00002081
S1133D405B4901F001FF2200049005912B00200043
S1133D50290001F07FFC02000B000498059901F092
S1133D6079FC544A4C4B01F075FC02000B0002989C
S1133D70039901F0E9FE02000B0004000D0030007D
S1133D80390000F017FD002210003B0032000290C1
S1133D90039101F0D9FE02000B002000290001F07C
S1133DA0D3FE04900591E1E5434A444B06980799F4
S1133DB001F050FC404A414B01F04CFC0600FFF777
S1133DC09AFB002A01D0FFF7A5FB1432D31A3A005C
S1133DD01A41110099408F4201D0FFF76FFB012374
S1133DE013400222D31A9B46FFF768FB304B9E42D6
S1133DF000DD4EE60023994698467AE602000B0061
S1133E00FFF714FC80232E4CDB05089309942D4BFB
S1133E102D4C00220C930D9480242C4BE40206922A
S1133E20079356E443465B42984651E6424600F007
S1133E30FDF907E702FCFFFF01FCFFFFFFFF0F0096
S1133E40432EE63FEF39FAFE422EE63F396CA80CCA
S1133E50615C20BED0A4BE726937663EF16BD2C5E8
S1133E6041BDBB3E2CDE25AF6A56113F93BDBE1645
S1133E706CC1663F3E5555555555C53F0000F03F52
S1133E80FFCB904000346F3F59F3F8C21F6EA50179
S1133E900000F0BFFEFFEF3F4715F73F44DF5DF83A
S1133EA00BAE543E0000D03F555555555555D53FA2
S1133EB00000E03FFE822B659C7500883CE4377E61
S1133EC003B8E23F06D0CF43EBFD4C3E0000F83F81
S1133ED0F0B556464D4644465F46754BF0B40A006D
S1133EE00D00190083B0060004002940994200D156
S1133EF0BAE0002D00DC94E02D1500D1A3E06D4B59
S1133F0012039C468023120B5B0365441A43EB07A0
S1133F1000D581E06B109846E30F9B189B18802214
S1133F2016210026002764009203B818984202DC88
S1133F3087181B1AB618E00F5B0001391B186400C0
S1133F4052080029F1D100220192944680221206DF
S1133F502020914609E09F4241D0E10FC918013861
S1133F60CB186400520800281ED0614651189F42A5
S1133F70F1DA8D18AC46CD0FED07BA464D4539D070
S1133F80DB1B8C42BF417F42DB1B641A0199013861
S1133F908B46934459460191E10FC9185746CB18F3
S1133FA0640052080028E0D123432BD1019B5B0815
S1133FB0414972108C466244F10702D580210906FA
S1133FC00B43414609058D181E002F0030003900AF
S1133FD003B03CBC90469946A246AB46F0BDA14214
S1133FE00ED88D18AC46CD0FED074D4548D09A46F6
S1133FF00023CAE76546002DC2DB7D1CAA46BFE745
S11340003B00AAE7019B01333ED0019A0123944669
S1134010134063445B08CBE7E30F52009A18640033
S113402078E76B005B0803432F00002BCED00025FC
S1134030002A31D1E20A153D6405002AFAD0802312
S11340405B031A4223D180200023400300E00B00CD
S11340505200591C0242FAD02020401AED1A2300C3
S1134060C3408C401A434AE702002B00290001F0A8
S1134070F1FA32002B0000F09DFB06000F00A5E7CB
S11340806546002DB9DAB2E70136002390E7012333
S113409020205B420021E1E73B000200390001F0EF
S11340A053FD02000B0000F0B1FE06000F008DE787
S11340B00000F07F01FCFFFF0000E03F49004B08D7
S11340C019007047034B48009C4640086044C00FE9
S11340D07047C0460000108000207047002001494E
S11340E07047C0460000F87FF0B5474680B4CB0F58
S11340F098464A4C4B005B0D1E1982B007000A001B
S1134100132E35DC002E57DB454B040033411F00D2
S11341100F4007430D00002F24D05B081C000C4007
S113412020430027002807D0132E00D172E08022FC
S1134130D202324199430A434346DE00394B11000F
S11341409E1934687568380022002B0000F032FB99
S1134150009001910098019922002B0001F0F4FCD9
S113416004000D002000290002B004BC9046F0BDFC
S1134170332E0CDD802304000D00DB009E42F1D1C0
S113418002000B0000F016FB04000D00EAE7264CC9
S11341900D00A446012463446442DC40A446614605
S11341A004000142DED049080142C5D08027FF0542
S11341B01F4188430743BFE74B005B0803430400E8
S11341C00D00002BCED00B031B0B03435A421343A9
S11341D080221B0B120313404A0C52041343190090
S11341E04346104ADB00D3181C685D6822002B008C
S11341F000F0E0FA009001910098019922002B0050
S113420001F0A2FC42464B005B08D607334304008E
S11342101D00A7E780273F0689E7C04601FCFFFF92
S1134220FFFF0F0010660000EDFBFFFF4B0070B5B1
S11342305B0D14000A00002B1AD14B005B080343EA
S113424015D00022224B01F005FA224B0A009C42B1
S113425022DB4B005B0D363B1F4DE318AB4220DCE9
S1134260002B0DDD1D4C1B0522401A43110070BDAF
S11342701B4DAB42F0D102000B0000F09BFAF6E7B5
S11342801D00353518DA174B02009C420ADC0B007E
S11342901548164900F032F8134A144B01F0DAF9C4
S11342A0E5E702000B001248124900F027F8104A13
S11342B0104B01F0CFF9DAE7084C363322401B05E6
S11342C01343190000220C4B01F0C4F9CFE7C04698
S11342D000005043B03CFFFFFE070000FFFF0F80CB
S11342E0FF07000050C3000059F3F8C21F6EA50178
S11342F09C7500883CE4377E0000903C30B54A0051
S1134300DB0FDB0752081A43110030BD02B47146BB
S113431049084900095C49008E4402BC7047C04604
S1134320002243088B4274D303098B425FD3030AF0
S11343308B4244D3030B8B4228D3030C8B420DD303
S1134340FF22090212BA030C8B4202D31212090291
S113435065D0030B8B4219D300E0090AC30B8B42CF
S113436001D3CB03C01A5241830B8B4201D38B037D
S1134370C01A5241430B8B4201D34B03C01A524122
S1134380030B8B4201D30B03C01A5241C30A8B4265
S113439001D3CB02C01A5241830A8B4201D38B0250
S11343A0C01A5241430A8B4201D34B02C01A5241F4
S11343B0030A8B4201D30B02C01A5241CDD2C30966
S11343C08B4201D3CB01C01A524183098B4201D3E2
S11343D08B01C01A524143098B4201D34B01C01ACD
S11343E0524103098B4201D30B01C01A5241C30845
S11343F08B4201D3CB00C01A524183088B4201D3B4
S11344008B00C01A524143088B4201D34B00C01A9F
S11344105241411A00D20146524110467047FFE70B
S113442001B5002000F006F802BDC0460029F7D00F
S113443076E770477047C0468446101C62468C4637
S1134440191C634600E0C0461FB501F099F8002826
S113445001D40021C8421FBD10B500F0EDFF404259
S1134460013010BD10B501F08BF8002801DB0020ED
S113447010BD012010BDC04610B501F081F8002820
S113448001DD002010BD012010BDC04610B501F0B3
S113449013F8002801DC002010BD012010BDC04627
S11344A010B501F009F8002801DA002010BD012040
S11344B010BDC046F0B54F464646C0B41604360C8F
S11344C09946330005042C0C070C150C63437E43FA
S11344D06F4365431C0CAD1964199C46A64203D96D
S11344E080235B02984647446346250CEF191D045C
S11344F04B464A4343432D0C240464199918C919A3
S113450020000CBC90469946F0BDC04670B5002210
S11345100C4B04000D00FFF7C3FF002804D120005A
S1134520290001F085FE70BD064B00222000290001
S113453001F00AFB01F07CFE80231B069C466044CC
S1134540F1E7C0460000E041F0B557464E46454607
S11345504300E0B446028846760A1F0EC40F002FBB
S113456047D0FF2F25D0002380259A469946F60090
S1134570ED042E437F3F434642465D02D20F5B006B
S11345806D0A1B0E904640D0FF2B39D080220020AC
S1134590ED00D20415437F3BFB1842465746591C95
S11345A062408C4607430F2F5CD86F49BF00C9593E
S11345B08F46002E45D108239A46063B9946DAE7F2
S11345C0424602282DD0032800D1C3E0012800D0A0
S11345D0A2E0002500260240D4B27602ED05760A58
S11345E02E43E407264330001CBC90469946A2465D
S11345F0F0BD002E1AD104239A46033B9946BAE72C
S11346002A00511E8A41901CC6E70120002DC3D008
S1134610280001F09DFF431F76309D404342002057
S1134620BAE70124FF2514400026D6E7300001F044
S11346308FFF431F9E400023763047429A46994697
S113464099E70C239A46093B994694E7802600246F
S1134650F603FF25C1E735004846B2E735002200DE
S11346604846AEE72904090C0800370C3604360C1A
S11346702C0C7943704367437443060C6418361951
S1134680B14203D980214902884647440004000C02
S1134690310409188D01681E8541890E2943350CA2
S11346A0ED19AD010D43290104D5012369081D400D
S11346B063460D4319007F31002925DD680704D0C6
S11346C00F202840042800D00435280103D52749A9
S11346D080330D401900FE29A3DC0124AD016E0ACC
S11346E01440CDB279E78020C003064207D00542CA
S11346F005D128434602760A4446FF256DE7064362
S11347007602760AFF2568E70124611A1B2905DD74
S113471014400025002660E76346CBE72E002023E3
S1134720CE40591A8D406B1E9D412E43730704D011
S11347300F233340042B00D00436730104D5012425
S113474001251440002648E70124B601760A1440E6
S1134750002542E780260124F6032E437602760ADA
S11347601440FF2539E7C04620660000FFFFFFF72D
S11347704302590A4300C20F1B0E00207E2B0EDD9C
S11347809D2B0DDC802000040143952B0BDC96202F
S1134790C31AD9400B005842002A00D118007047B0
S11347A0034BD018FBE7963B99400B00F3E7C04658
S11347B0FFFFFF7FF8B556465F464D464446F0B4CA
S11347C00F00FD0FAA4609037C002E005F00450F71
S11347D0490A7F0D2943C5001803BC46400A570FF8
S11347E0640DDB0F3843D2009A4500D1AAE0664637
S11347F0A61B002E00DCFFE06346002B39D103002A
S1134800134300D0D9E06B0709D00F232B40042BAE
S113481005D02B1DAB42AD416D4249191D000B0261
S113482000D482E0CA4B01349C4200D1FEE00A006D
S11348305646C84BED081A4050076405520205431A
S1134840120B640D002112030B0D1B056405120BE2
S11348501A436308C04CF60714401C436400640800
S11348603443280021003CBC90469946A246AB46FE
S1134870F8BDB74B9C42C6D080231B041843382E86
S113488000DDEBE01F2E00DD1EE120239B1B9C4678
S113489003006746BB40984613004746F3403B433A
S11348A06746BA40571EBA4113430200F240EB1A5E
S11348B09D42B6411D008A1A7642911B0B0231D5E6
S11348C04A02560A002E00D1B4E0300001F040FE46
S11348D00300083B1F2B00DDB5E020222900D21A7B
S11348E0D1409E400A009D4032439C4200DDB1E02D
S11348F01C1B631C1F2B00DDD5E0202114002800A5
S1134900C91A8C40D8408D400443DA40681E854162
S113491011002543002476E74146314300D134E2B7
S1134920310045466B0700D06FE756464807ED084F
S1134930C9080543864B9C4235D00A036405120B13
S1134940640D7FE76346E31A9B46002B00DC8BE093
S11349506746002F3CD07E4FBC4200D153E78027EE
S11349603F0438435B46382B00DCF7E00243501E1B
S113497082410020D2B253194218AB4289411D0032
S1134980494289180B02CDD5714B01349C4200D1A8
S11349903DE101206F4A6B080A4028401843D507BF
S11349A0054351082FE72B000B4300D1CBE18023B3
S11349B01B030B431A03120B44E7013E002E6DD177
S11349C0AE1AB5429B41091A5B42C91A350075E714
S11349D00700174300D116E701235B429C46E344DA
S11349E05B46002B00D0E0E0AA18AA429B410918BC
S11349F05B4259181500C5E7002E75D1661C760573
S1134A00760D012E00DCF3E0AE1AB0464545BF41F9
S1134A100E1A7F42F61B370200D48FE0551BAA42C0
S1134A20B641411A76428E1B9A464BE756460022FF
S1134A30002507E7280001F08BFD20300300083B28
S1134A401F2B00DC49E72A002838824000259C42BD
S1134A5000DC4DE73F49E41A1140D4E60243501EFE
S1134A608241D3B2002222E7002B00D0F3E0631C82
S1134A709C465B055B0D012B00DC9FE0344B9C45A1
S1134A8000D1C3E0AA180918AA4280414042411843
S1134A90CD075208154349086446B4E62C4B9C42A2
S1134AA000D0ECE6AFE611001F3CE1400C00202BE7
S1134AB000D17FE04021CB1A9A4015436A1E9541EC
S1134AC00021254300242DE733000700203BDF406D
S1134AD03B00202E70D04027BE1BB0400243501E26
S1134AE0824113430022E2E6002C4FD0184CA44527
S1134AF000D1ABE08024240476422143382E00DD2B
S1134B00DFE01F2E00DD43E12027BC1BA1460C0083
S1134B104F46BC40A0462C004746F4403C434F4619
S1134B20BD406F1EBD41F1402C43151BAA4292416A
S1134B30411A5242891A64469A46BFE6414645469E
S1134B40314300D0BEE6002600240025F2E6C0462C
S1134B50FF070000FFFF7FFFFFFF0F801F2B59DCC3
S1134B602027FF1ABC46070063469F405B46B946B0
S1134B701700DF40B8464F4643461F4363469A40FA
S1134B80531E9A415B463A43D840F4E60C002C434A
S1134B905CD0F643002E55D1551BAA42A441411ABC
S1134BA06442091B9A46644688E6964FBC4200D08C
S1134BB0D8E628E6002280E700208FE70B002B438D
S1134BC0002C00D0C2E0002B00D101E1030013430C
S1134BD000D118E6AB18AB42B641091876427118F9
S1134BE00A0200D409E1884A1D00114064460AE61D
S1134BF0002C5BD10E002E4300D08AE0010011434B
S1134C0000D1C2E0010015009A46FCE5644600218B
S1134C1000258FE620235B429C46DC446346070064
S1134C20DF405B46BC46202B00D1ACE040235F460E
S1134C30DB1B98400243501E8241634613431A0013
S1134C40002098E66F4CA44500D057E701001500FA
S1134C5064469A46D7E5002C39D10C002C436ED01B
S1134C60DB43002B1AD0674CA44568D0382B00DDF9
S1134C70A4E01F2B00DDAEE020240F00E41AA740BF
S1134C80B9462F00DF40B846A3464F464446274363
S1134C905C46A5406C1EA541D9403D43AD189542E4
S1134CA09B4109185B42591864466BE60C002C437F
S1134CB015D1010011437BD0010015009A46514CD7
S1134CC0A1E50D43691E8D410021ECB22DE74D4C49
S1134CD0A44534D0802424045B422143C6E7040065
S1134CE014434ED0ED084C072C438025C9082D03EE
S1134CF0294208D0C6082E4205D1D20841071143E3
S1134D000C009A463100620FC900E50011433D4C86
S1134D1079E50600164300D175E5AE1AB04645455F
S1134D20BF410E1A7F42F61B370200D4F4E5551B2F
S1134D30AA42B641411A7642891B9A4663E50100AC
S1134D40150064465FE5002200257BE5002B3BD07F
S1134D500300134315D0ED084B072B438025C908E6
S1134D602D03294207D0C4082C4204D141070B006B
S1134D702100D2081343C9005A0F1143DD00214C0E
S1134D8041E5204C3FE5002054E700260025D1E50D
S1134D9034000F00203CE7403C00202E2BD040275D
S1134DA0BE1BB1400D43691E8D4100212C43BCE65E
S1134DB0802100260903134C0025BBE50D43691E21
S1134DC08D410021EDB269E7010015000D4C1AE593
S1134DD00100150017E51C000F00203CE7403C00D3
S1134DE0202B0CD04027FB1A99400D43691E8D419E
S1134DF00021254352E70021D4E71D0092E500215C
S1134E00F3E7C046FF070000FFFF7FFFF0B55646FB
S1134E104D4644465F46F0B41D000E034C00CB0FD4
S1134E2087B0070092468146360B640D98466AD0D7
S1134E306D4B9C4235D08022430F12041343F6007D
S1134E401E43C3009946694B00279C4600236444D3
S1134E5002932B0368001B0BED0F51469B46400D3C
S1134E60009500D178E0604B98426CD05B46DA0044
S1134E704B0F802109040B4313439B465346D9002F
S1134E805A4B9C46002360444246201A6A4092468C
S1134E9001901F430F2F00D9B0E05548BF00C059FF
S1134EA08746374300D088E0002399460233082719
S1134EB000260293CDE74346B34649460093029B3E
S1134EC0009A9246022B00D0BFE1002153460122F2
S1134ED0002689461A40444B002136030C0D240554
S1134EE0360B2643434C1B0526401E437600D2074F
S1134EF0760816434846310007B03CBC90469946B4
S1134F00A246AB46F0BD330003434FD0002E00D180
S1134F10BCE1300001F01CFB03000B3B1C2B00DD4B
S1134F20ADE11D220100D31A08393A008F408E40AA
S1134F30DA40B9461643304B00279C4600236044B0
S1134F404442029385E753465A4613432CD1002327
S1134F5000219B46023397E70B4320D05B46002B8E
S1134F6000D19EE1584601F0F3FA03000B3B1C2BE1
S1134F7000DD8FE102005946083A91408B461D211D
S1134F80CB1A5146D9400B0059460B4351469B4618
S1134F909140194B9C4660444042002374E700232F
S1134FA000219B4601336FE703236DE700239946F5
S1134FB001330427002602934BE703230C270293B3
S1134FC047E70122D51A382D00DCB0E153461A40D8
S1134FD000210023002689467EE700238026994687
S1134FE000223603004B77E7FF07000001FCFFFFB8
S1134FF060660000FFFF0F80F30300005E4500D9E8
S113500072E100D16DE1019B4D46013B0193002308
S1135010340002935B461E020B0E1E430B020393E5
S1135020330C994633041B0C494620000093FFF7C8
S113503077F9009B37004343060049462000984611
S1135040FFF7F4F92C0C09040C43A04509D9E41921
S1135050731EA74200D95CE1A04500D859E1023E85
S1135060E4194346E41A49462000FFF759F90300BE
S1135070009A80465343494620009B46FFF7D6F9E1
S11350802A040904120C0A4393450DD94346D21944
S1135090013B974200D93AE1934500D837E1022316
S11350A05B429C46D219E0445B46D21A434636041E
S11350B033439B460399180C0B0C1D0005930904FC
S11350C05B46090C0C001B041B0C4443049159431C
S11350D06B4368431B190D0CEB189C4203D98024C5
S11350E06402A44660441C0C09041B04090C201827
S11350F05D18824200D2DEE000D1D7E0161A029B8E
S11351009C465D1BAC459B415B42F61AB74200D1FD
S113511006E149463000FFF703F9009B04004343CE
S1135120494630009846FFF781F92E0C09040E43D6
S1135130B04509D9F619631EB74200D9F3E0B0456A
S113514000D8F0E0023CF6194346F31A4946180029
S11351500293FFF7E5F8009B060043434946029893
S11351609846FFF763F92D0409042D0C0D43A84557
S113517009D9ED19731EAF4200D9D6E0A84500D86D
S1135180D3E0023EED192404210043463143049E3A
S1135190059A3000ED1A0B040C0C1B0C58436643A3
S11351A0534354439A19030C9B189E4203D98022FB
S11351B05202944664441A0C00041B04000C141993
S11351C01B18A54250D34DD001231943964A019B85
S11351D094466344002B00DCF3E64A0709D00F220F
S11351E00A40042A05D00A1D8A42894149428B4457
S11351F011005A46D20108D55A468C4B1A409346A0
S11352008022D2009446019B6344894A934200DD84
S11352105BE65A46C9085007084356025146012224
S11352205B058146360B5B0D0A4055E680231B0364
S11352301E4211D05A461A420ED15E461E43360310
S1135240360B2A0089467B4B46E6032B00D1E1E06E
S1135250012BBBD11A40BBE61E433603360B424634
S1135260744B39E6002BB1D07D194A1EAF4252D996
S11352701100A542A8D1039A9A42A5D1A6E703003A
S11352803E00283B9E400023994654E601F060F915
S1135290203041E603005246283B9A4000219346C1
S11352A077E6504601F054F920305EE6029B002672
S11352B0AB4200D323E7039E0299B4466144884677
S11352C0B045B6415B467642F619B218013B0291ED
S11352D0974213D290424FD800D18EE0161A9B46C3
S11352E00DE7894500D28EE674084B46F607350073
S11352F05B081D434B46DB0702938BE69742EDD1D7
S11353000399029CA142E5D93E1A9B46F7E69846CA
S1135310CAE61E00A5E6AC423ED874D0110053E79D
S11353200121494252E71C000EE71E002BE71F2D06
S11353303CDC20230A0058465B1B9840EA40994015
S11353400243481E81415E461143EE404B0709D09B
S11353500F230B40042B05D00B00191D99429B41D0
S11353605B42F61833023CD55346012200211A4011
S1135370002601238946AFE502235B429C46039C39
S1135380E344A446029B63449846A045B641764252
S1135390F6190293B218B1E603988A1E41008142BD
S11353A0B6417642F619AD19039161E71F225242C4
S11353B0D31A5A46DA401300202D29D040225846E9
S11353C0551BA8400143481E814107200B43184048
S11353D00026002809D00F2200261A401900042AAA
S11353E0BBD10B0070077602360BDB0803439946EA
S11353F0012253461A4000236EE502998D42BBD820
S11354009B4600267BE603989842C5D3110032E7F9
S11354100020D7E780265B4636031E433603360B4F
S1135420009A8946034B57E5FF030000FFFFFFFE88
S1135430FE070000FF070000F0B55F4656464D46E4
S11354404446F0B41F035C00DB0F9A46194B0E036D
S11354504D00C90F8046360B6D0D8B4691463F0BB0
S1135460640D9D4219D0134B9C421BD00123A542CD
S113547006D018003CBC90469946A246AB46F0BD07
S1135480BE42F6D1C845F4D1D34510D0002DF0D199
S1135490304303005A1E9341EBE7310001230143DB
S11354A0E7D1E0E73A430123002AE2D1DEE7002313
S11354B0DFE7C046FF070000F0B55F4644465646A6
S11354C04D46F0B41F033C0B2C4F0E034D00A34676
S11354D05C008446360B6D0DC90F9046640DDB0FDE
S11354E0BD422BD0254FBC422ED0002D0ED13043CF
S11354F00700814678427841002C17D15F463A4331
S113550014D14B460020002B0AD006E0002C02D117
S11355105846024301D099421AD001234842184305
S11355203CBC90469946A246AB46F0BD0028F2D05A
S113553058425841012240421043F1E737000743E3
S1135540D0D002204042EBE75F461743CDD0F8E7C6
S1135550A542E2DC05DB5E45DFD808D000205E45CD
S1135560DED248424841012340421843D8E7C445AB
S1135570D3D80020C445F4D3D2E7C046FF070000C7
S1135580F0B55F464D4644465646F0B41C03240B22
S1135590A4462F4C0F034D005E00C90F80463F0BFD
S11355A06D0D8B469146760DDB0FA54220D0284C1D
S11355B0A64222D0002D12D1384344424441002E49
S11355C020D0002C0DD05C42634101245B421C437B
S11355D020003CBC90469946A246AB46F0BD002E46
S11355E017D05B4519D05B465C4201231C43EFE7AF
S11355F0390002240143EBD1D9E761460224114367
S1135600E6D1D7E761460A43DBD100240028DFD086
S1135610E9E761460A43E4D1E5E7B54203DD012247
S11356205C421443D4E7B542CDDB6745DBD809D0EF
S113563000246745CCD259464C4261410124494279
S11356400C43C5E7C845CED80024C845F3D3BFE70B
S1135650FF070000F0B55F4656464D464446F0B499
S11356600D0399464E002B0B87B0070092468046E7
S11356709B46760DCC0F002E69D06D4B9E4235D0E3
S11356805B468022DD001204430F13432B439B46E9
S1135690C3009846674B00279C4600236644019349
S11356A04A4615035000D20F53462D0B400D914628
S11356B000D176E05E4A90426CD080225B0F1204E7
S11356C013435C4AED0094461D4353460022DB001D
S11356D0604449463618701C6140029017430F2FEE
S11356E000D9AFE05448BF00C759BF465B461F43CB
S11356F000D088E000239B46984602330827019394
S1135700CEE74946022A6AD0032A00D109E2012AD7
S113571000D0BBE111400022002300259046CCB20A
S113572000212D030A0D12052D0B1543434A1B05B9
S113573015401D436D00E4076D08254340462900CC
S113574007B03CBC90469946A246AB46F0BD034325
S113575052D05B46002B00D18AE1584600F0F8FE97
S113576003000B3B1C2B00DD7BE11D22D31A3A0006
S113577001005D46DA4008398D4013008F402B4309
S11357809B46B8462E4B00279C4600236044464265
S1135790019385E752462A432CD100250023022297
S11357A097E752462A4321D0002D00D154E1280026
S11357B000F0CEFE03000B3B1C2B00DD46E11D2157
S11357C0CB1A51460200D9405346083A95409340BB
S11357D00D431B4A944660444042002279E7012469
S11357E000220C40124B0025904699E70025002327
S11357F001226EE703226CE700239B46984601339F
S1135800042701934CE703230C27019348E7002363
S11358108025984600242D03054B81E75D464346C9
S1135820019A6FE75D4643462100019A6AE7C04644
S1135830FF07000001FCFFFFA0660000FFFF0F80D0
S1135840F30300004246120C91461A0C9446424659
S113585017044A461B041B0C5A43604690464A46AA
S113586042431000039262461C003F0C7A437C437F
S113587042440192220C9246019A5244904506D920
S11358808246802040028046C24450460390100C59
S1135890049048462404240C1204121905922A0C7C
S11358A02D042D0C68432C00824648467C4350430B
S11358B08146200C8046574357444744BA4503D990
S11358C0802040028046C144380C3F04B846484416
S11358D02404240C01900498A044404404905846A5
S11358E0000C814658460404200C824607004846B2
S11358F05F434C4643436046604364468346504698
S11359004443380C8446E4186444A34203D98023F6
S11359105B029C46E34448463F04230C3F0C2404AA
S1135920E419574668436F4384464D4650465543F1
S11359304243380C814662444A445B44944503D94B
S1135940802040028446654403983F0483460498BB
S11359503F0C8446E344C3458041404282461004E0
S113596084460198674484466744A344BC46A345DF
S1135970A4419946D44464428742BF41D4458041FE
S1135980E144A04699459B417F424042C8440743B5
S1135990120CBA18A045A4415F423B006442234361
S11359A0D71843467D19DB0D6D021D435B465A0231
S11359B0059B1A43531E9A415B46DB0D1A4343462B
S11359C05B021343EA0107D501225C081340234319
S11359D0EA07029E13436D08574AB218002A4BDDAA
S11359E0580709D00F201840042805D0181D9842E4
S11359F09B415B42ED180300E80104D54F4A154072
S1135A008022D200B2184E48824200DDE7E601242B
S1135A10DB08680718436D02530580462D0B5B0DA8
S1135A200C407DE6802259461203114208D01542EB
S1135A3006D115432D0398462D0B4C46414B6FE67A
S1135A405D4615432D032D0B3E4B69E60300554679
S1135A50283B9D400023BCE6504600F079FD2030F1
S1135A60A8E60300283B9F400023BB46984689E6EE
S1135A7000F06EFD203073E60124A61A382E07DDEF
S1135A8000220C4000230025904649E6029EA3E72D
S1135A901F2E20DC20222C001800921BF040944082
S1135AA093400443581E83411C43F540630709D0C7
S1135AB00F232340042B05D023001C1D9C4292413C
S1135AC05242AD182B021FD5012400220C400123A1
S1135AD00025904624E61F202C004042821AD44020
S1135AE0202E1CD04022961BB5402B43581E8341C8
S1135AF00720234318400025002809D00F22002541
S1135B001A401C00042AD8D1230068076D022D0B0B
S1135B100124DB08034398460C40002300E60025DB
S1135B20E3E780220124120315432D0398462D0B2D
S1135B300C40044BF4E5C046FF030000FFFFFFFEEA
S1135B40FE070000FF070000F0B557464E464546E5
S1135B50E0B40E001100F20F9246C500420F180384
S1135B6037037400400A4E0F7F0A3043CF4E174369
S1135B705A00640D520DDB0FC900B24200D1E5E0BA
S1135B8001267340A61AB446534500D1AFE0002E57
S1135B9000DC0DE1002A3AD103000B4300D0E4E01D
S1135BA06B0709D00F232B40042B05D02B1DAB42D0
S1135BB0AD416D427F191D003B0200D488E0BB4B10
S1135BC001349C4200D110E13A00B94B51461A40CD
S1135BD001235007ED08520264050543120B640DBE
S1135BE00B400021280012030D0D120B64052D0536
S1135BF015436208AF4CDB072C401443640064086F
S1135C001C4321001CBC90469946A246F0BDA74BFC
S1135C109C42C5D080231B0418436346382B00DD07
S1135C20FDE01F2B00DD30E1624620239B1A0200B9
S1135C309A40664690460A009940F24046464B1EFA
S1135C4099413243114363460200DA40691A8D4296
S1135C509B410D00BA1A5B42D71A3B0235D57A0232
S1135C60530A98464346002B00D1C4E0404600F056
S1135C706FFC0300083B1F2B00DDC5E02022290038
S1135C80D21A4746D1409F400A009D403A439C4265
S1135C9000DDC0E01C1B631C1F2B00DDE4E02021A1
S1135CA014002800C91AD8408C408D400443DA40BF
S1135CB0681E854117002543002471E74246634668
S1135CC01A4300D14CE2674645466B0700D069E7AA
S1135CD0012351467807ED08FA080B400543734940
S1135CE08C4238D012036405120B640D79E7002E40
