S0140000446173416C74696D657465722E7372656351
S1130000E827002019010000150100001501000077
S113001000000000000000000000000000000000DC
S113002000000000000000000000000015010000B6
S11300300000000000000000150100001501000090
S1130040150100001501000015010000290F000032
S11300501501000015010000150100001501000044
S11300601501000015010000150100001501000034
S11300701501000015010000150100001501000024
S1130080150100001501000015010000C90F000052
S11300903110000000000000000000001501000005
S11300A015010000150100001501000015010000F4
S11300B00000000010B5064C2378002B07D1054B37
S11300C0002B02D0044800E000BF0123237010BDC0
S11300D0A804002000000000D4640000084B10B500
S11300E0002B03D00749084800E000BF0748036815
S11300F0002B00D110BD064B002BFBD09847F9E72D
S113010000000000AC040020D4640000D4640000AB
S113011000000000FEE700002148224970B5884233
S113012002D00023204C03E0204B214A002106E0AA
S1130130CA18A242F8D2C55804331560F8E79342AE
S113014001D202C3FBE7FF2102240325194B1A4AFB
S11301508B430C2693600822184B19495C62CB78B8
S1130160AB432343CB70CB78B3431343CB703021E1
S1130170144B987B8843103908439873997BB14397
S11301801143997380219A7BAA4322439A730E4A9E
S113019053680B4353600D4B98470D4B9847FEE74C
S11301A0D464000000000020A4040020A80400205F
S11301B0E80700200000000000ED00E0FC700041B2
S11301C000500041004800410040004135620000F9
S11301D0F5090000014A024B1A60704740420F00C3
S11301E000000020F8B580230A4CDB020A4D63614D
S11301F005210120A847094B2E0001271D00187076
S113020029780120B0473842FAD18023DB02A36168
S1130210F8BDC04600440041B9260000C8040020CF
S1130220F8B58025084CED02084F656106210120D0
S1130230B847074E60213070A56101206561B84759
S11302403070A561F8BDC04600440041B9260000E5
S1130250C80400208023F7B5194EDB020192070081
S1130260184C0091012073610621A0478023164D8C
S1130270DB0228700221B36101207361A047390CAD
S11302802870C9B20120A047390A2870C9B20120D8
S1130290A047F9B228700120A047009B019F287055
S11302A0FB180093009B9F4205D039780120A0479A
S11302B001372870F6E78023DB02B361F7BDC0463F
S11302C000440041B9260000C80400208023F7B58B
S11302D0184EDB020700184D0191012073610621BD
S11302E0A8478023154CDB0220700221B361012052
S11302F07361A847390C2070C9B20120A847390A94
S11303002070C9B20120A847F9B220700120A84783
S1130310019F20707B1CFF33019339780120A8478B
S1130320019B013720709F42F7D18023DB02B36128
S11303300020FEBD00440041B9260000C80400208E
S11303408023F7B5174FDB0201920600164C00918B
S113035001207B610B21A047144D310C2870C9B2D8
S11303600120A047310A2870C9B20120A047F1B288
S113037028700120A047FF2128700120A047009B7E
S1130380019E2870F3180093009B9E4205D02978A3
S11303900120A04730700136F6E78023DB02BB6101
S11303A0F7BDC04600440041B9260000C80400203F
S11303B08023F7B5164FDB020600164C019101208D
S11303C07B610B21A047144D310C2870C9B2012068
S11303D0A047310A2870C9B20120A047F1B22870A1
S11303E00120A047FF2128700120A047019E28700A
S11303F0731CFF33019329780120A047019B3070BF
S113040001369E42F7D18023DB02BB61F7BDC046B3
S113041000440041B9260000C8040020F7B5802735
S11304200C4EFF010C4C776100210220A047FF21F4
S11304300220A047FF2105000220A047FF210190D0
S11304400220A047B761019B2D041B021D432843D2
S1130450FEBDC04600440041B9260000F0B587B097
S11304600493244B14001A88039000925A88224F54
S11304700192DA889D8802921E8936028E1BF21739
S1130480059258893200F3170021B847FA2349022C
S1130490C00D0843DB00C01820603200F3172800A9
S11304A00021B8470C060B120021020A2243009CCB
S11304B0E00380185941039A0023B847CB02440D46
S11304C032001C434D15059B02980021B8474B068A
S11304D0C6091E430023CF1101990A0492197B41D6
S11304E0A41A9D416B04E40B1C43049B1C6007B0DD
S11304F0F0BDC046160600200D3B000010B50C4BA5
S113050098470C4C00220C4BA04700220B4BA047F1
S11305100B4A0C4B0C4CA0470C4C02000B00002067
S11305200B49A0470B4A0C4B0C4CA04710BDC046CE
S1130530215E0000914900000000244000AA8F4081
S11305403CDD79E2395BC83FE9270000CD56000065
S11305500000F03F9A999999B3BE0141D951000026
S1130560F7B500249620104D8000A84796208000FF
S1130570A847802721000D4EFF015E390C4DC9B2FA
S113058077610220A847FF210220A847FF2101909C
S11305900220A847B761019B1B021843054B18535F
S11305A002340C2CDED1F7BDC90E0000004400411A
S11305B0B92600001606002070B58025064CED0112
S11305C01E216561054B02209847A561C820044B94
S11305D09847044B984770BD00440041B926000079
S11305E0F90E0000610500001E21F0B5F04A85B047
S11305F0536801248B431C390B435360ED4A063185
S113060093690F260B439361EB4B9847EB4B984749
S1130610EB4B9847EB4B9847EB4B98474022C12153
S1130620EA4B89001A605858E94A102502405A508A
S1130630E84B0220190054310A781F00A2430A70C3
S1130640802252039A6021390A789437B2432243B4
S11306500A70CA7C2243CA741A00C3321178A143B7
S1130660117011780143117008218C469C44614635
S11306700630C8671900B131087830402843087043
S113068010780E3D204310701800D7300278A24332
S113069002708020D04A000410601A003860C23210
S11306A01078A0431070107828431070604602350B
S11306B0C56708780C35B0432043087011780220D0
S11306C0214311701900D6310A78A2430A7080219F
S11306D0C14AC90311601A003960433211784B3F93
S11306E0A1431170117801431170180008213130B1
S11306F05960017831400D4305701178022521437A
S11307001170190059310A78A2430A7080229204A8
S11307109A605A611A0042321178A143117011781B
S113072029431170042159600178B14321430170B8
S1130730117821431170190058310A78A2430A70C4
S11307408022002152049A605A61A44A1170002147
S11307505170002191700021D170C27DA243C275F5
S1130760802252009A603A78A2433A708022920022
S11307709A601A004B321178A14311701178294301
S1130780117080210901596035218C469C446146D1
S113079009781E3531402943654629701178202592
S11307A021431170190034310A7832402A430A7007
S11307B03A781E3D22433A700A780637B2432A43F8
S11307C00A70C27D96312243C2750A78A2430A7028
S11307D080228149D2000A60190098310A60417E62
S11307E0A14341769A609A61C27FA243C277802274
S11307F052029A60BA78A243BA70802292029A6036
S11308001A0053321178A1431170117829431170E1
S113081080210903596039218C469C44614609783A
S11308201E3531402943654629701178202521431E
S11308301170190038310A7832402A430A70BA78A4
S11308401E3D2243BA700A78B2432A430A70C27F1B
S113085014312243C2778A79A2438A718022D20258
S11308609A609A6103910A78A2430A708022520125
S11308709A603A782021A2433A70802212029A6048
S11308801A004D321078A04310701078284310706D
S113089080208001586018003630057835400D43BB
S11308A0057011780D0025431570372294469C4439
S11308B0624620211278022532400A4361460A70BA
S11308C002213A7822433A700278B2430A43027012
S11308D0039A03991278203022430A7019004E318A
S11308E00A78A2430A708022D2019A609A611A009F
S11308F055321178A14311708021890399604021F8
S1130900117002781900A24302708022D2033B3195
S11309109A600A78B2432A430A700278304F22431D
S113092002701A0057321078A043107010782843D0
S1130930107080200004586020200B78334003435B
S11309400B70137828002343137003210422B84743
S11309500023244E01930093210028000322B04772
S1130960042203210020B8470023032101930093AC
S11309701A001800B047200004220321B8470023BE
S11309802000019300931A000321B0470822042198
S11309900320B8479623210000220320DB01124CD8
S11309A0A047124B9847124B984705B0F0BDC0467C
S11309B00040004100040040D5010000210D00006A
S11309C0A90D0000A90E0000850B000000E100E065
S11309D0FFFF00FF00440041884400415806002006
S11309E0A92500000D26000071260000790F0000E3
S11309F0E10F000010B50E4B98470E4B98470E4B75
S1130A0098470E4B98470E4CA047C8200D4B40000A
S1130A1098470D4B98470D4B18600D4B984700288D
S1130A20FBD0A0470B4B98470B4B9847F5E7C046C4
S1130A30E9050000B90500005D0A00002D1300005F
S1130A4075220000690C0000450F00000405002019
S1130A505D22000049100000CD1B000070B5084C59
S1130A6080252300ED0094331D60064E0F210020E5
S1130A70B04798340C210020B047256070BDC046B3
S1130A8000440041B926000010B5094B1C7E6407E0
S1130A90E40F012C01D0002009E00320054B984706
S1130AA0011E4829F7D10320034B9847200010BDAD
S1130AB000140042E9260000D1260000F0B580278A
S1130AC005000024091A090AC3B08BB201937F0000
S1130AD002A92800094B9847002602AB995D032020
S1130AE0074B01369847BE42F7D10134019B0135CB
S1130AF0A4B2FF35A342EBD243B0F0BDB103000072
S1130B00D1260000074B10B59869074B98470B0096
S1130B100649020008684968054CA047054B9847F8
S1130B2010BDC046D0040020A55E00007006002061
S1130B30CD560000B55D0000054B10B5D8680549D9
S1130B40054B01249847002800D1041CE0B210BDD5
S1130B50A007002000006040BD3A0000012210B54B
S1130B60044B1A70044B9847044B9847044B98471E
S1130B7010BDC0465C060020E50100006D210000A8
S1130B80DD0C0000802110B5104A4902136A104898
S1130B900B431362E0230F490F4ADB008B80508024
S1130BA00E4A1268500118400D4B54011A68D30EB6
S1130BB02343DAB2030013430B8502234B700B70FB
S1130BC04B7E5BB2002BFBDB10BDC0460004004033
S1130BD01E40000000400042000C004024608000E1
S1130BE0206080000222054B1A73013A197E1142DB
S1130BF0FCD0024B588B80B27047C0460040004284
S1130C0037B50125020CD4B20090000E01914208C0
S1130C10E3011149D2185218284205D00F21147843
S1130C2021401024214303E00F241178A1432943D8
S1130C3011700121094AC3189B181A780A431A70C3
S1130C406B461A791F231340C02252011343044AEE
S1130C501361044B98473EBD304400414044004179
S1130C6000400042E50B0000F8B580238027060011
S1130C7000250A4C5B03E361BF03B54206D0E7617C
S1130C807A20074B01359847ADB2F6E780239B03E2
S1130C90636180235B03E361F8BDC0460044004107
S1130CA0C90E000070B5962676000A4D3000A8479C
S1130CB0094C5020A0473000A847FA20A047300034
S1130CC0A8475020A0473000A847FA204000A0477A
S1130CD070BDC046690C0000F90E000070B5962680
S1130CE00C4C76005020A0470B4D3000A8475020F4
S1130CF0A0473000A8475020A0473000A847502004
S1130D00A0478022054B92035A61802252035A6104
S1130D1070BDC046F90E0000690C0000004400419B
S1130D20C223022010B51649164ADB008B605368B3
S1130D3003435360144B1A68920E3F2A00D1203AA1
S1130D40124B13481B689B059B0D834200D1114B2A
S1130D50114888841020CC680442FCD092021343CA
S1130D60074A93621023CA681A42FCD00B4A044B08
S1130D709A8480220A4B52009A600A4A5A6010BD33
S1130D80000800400040004124608000286080008A
S1130D90FF030000FF01000022050000A20500007F
S1130DA0000C004000070100274B284A28489A619C
S1130DB0284A996912680140D204520E1204114360
S1130DC099612549996199690840022102439A6110
S1130DD09A690A439A610422D9681142FCD081229B
S1130DE01E4B52009A601E4A5A605A7852B2002A28
S1130DF0FBDB1C4A194B5A8004221B4B1A809A7A3B
S1130E001949D209FBD1A0200A88C00002430A80F4
S1130E109A7AD209FCD11549134A9182997A124AD5
S1130E20C909FBD151881248014351808021022015
S1130E30D1711188014311809A7AD209FCD10D4BEA
S1130E4008321A607047C0460008004006060000D9
S1130E50FFFF80FF2460800004060000000C0040B7
S1130E60020023000442000000140040E6030000D6
S1130E701040000000E100E00F231840084B12026C
S1130E801A40F82309025B011940802310B55B0264
S1130E90044C194302430843A260606010BDC0467D
S1130EA000FFFF00000C0040044B054A1A6030228A
S1130EB05A60044B2B3A1A607047C0460400002065
S1130EC080BB000010E000E070B580240021084BD6
S1130ED0084A5B686402013808D3002BFBD0054E36
S1130EE05360916035682542FCD0F4E770BDC0467C
S1130EF00400002010E000E070B580240021084BBD
S1130F00084A1B686402013808D3002BFBD0054E45
S1130F105360916035682542FCD0F4E770BDC0464B
S1130F200400002010E000E0FA21044A890013685C
S1130F305B181360FF22024B1A727047C40400202E
S1130F400014004030B5EFF3108172B6084A094D21
S1130F50108A2B68147A80B2E40904D0138AFA2226
S1130F60286892008018C01881F3108830BDC046EC
S1130F7000140040C404002080210D4A0D4B490197
S1130F805A800D4A136A0B4313620C4B0C4A02211C
S1130F901A8050221A754F3A5A73FF325A811A88AE
S1130FA00A431A808022074B12031A607047C04616
S1130FB01C420000000C00400004004000300042CD
S1130FC00409000000E100E0FF2210B5024B9A730F
S1130FD0024B984710BDC046003000426922000011
S1130FE080210D4A0D4B89015A800D4A136A0B4327
S1130FF013620C4B0C4A02211A8066221A75653A58
S11310005A73FF325A811A880A431A808022074B86
S113101052031A607047C0461C420000000C004096
S11310200004004000340042040C000000E100E031
S1131030FF22034B9A73034BFE3A1A707047C04663
S1131040003400420005002070B55D4C20780A2869
S113105000D9A4E002F0D8FC06253756A3A382A346
S1131060A3A38900574B9847574B9847574B1B6886
S1131070C01A574B984208D9564B9847564B984735
S1131080564B98470A23237089E0554B9847554B94
S11310909847002800D182E001232370524B9847DF
S11310A07DE0524B1B7E5B0700D486E00320504B4F
S11310B09847522873D1BFF34F8F4E4A4E4BDA6094
S11310C0BFF34F8FFEE73F4B98474C4B1A78002AEB
S11310D005D000221A708022494B5203DA61494933
S11310E0494A4A4B08684968494DA847002856D0E0
S11310F0484B9847052852DD03234C202370464B68
S113110098474CE03D4B1A78002A15D000251D70F5
S1131110424B9847424B1A78AA420DD080221D7048
S1131120374B404D5203DA613F49404B286898479A
S11311302B680133FF332B60324900220868496869
S113114000233B4DA847002829D0062341202370C3
S1131150314B98476420374B984720E0304B1A783E
S1131160002A1CD000221A700CE0244B1A78002AA2
S113117015D000251D70294B9847294B1A78AA428F
S11311800DD01D7080221E4B264D5203DA61264974
S1131190264B286898472B680133FF332B600123C3
S11311A02478A342A4410F4B64429847002C06D0F4
S11311B0002804D0204B984701E00A4B984770BDA3
S11311C05C0600203D120000450F000004050020CD
S11311D010270000A9210000951E0000A50C0000A6
S11311E0F9260000390B0000DD0C00000014004259
S11311F0E92600000400FA0500ED00E000050020E7
S113120000440041680600209A9999999999A93F48
S1131210713A0000050B0000F11E00004D1F000094
S1131220900700209407002090060020CD020000C3
S1131230493A0000690C00005D0B0000F7B52E4B25
S11312402E4C9B6A2E4D2F4A2069616900932E4BC8
S1131250A8472E4B060000980F009847294A2C4BAC
S1131260A84702000B00300039002A4EB0472A4B31
S113127020616161E06998470022284BA8470F006C
S113128027490600086849680022244BA847020041
S11312900B00300039001F4EB047224FB847164BA1
S11312A0E061DE6B606A1C4B9847164A164BA847F0
S11312B0194B0090019130009847124A144BA847EB
S11312C00B00020000980199124DA847B847164D2B
S11312D06062A8472368C01AFA23DB00984209D940
S11312E0E369A361636A236222696369A260E360BC
S11312F0A8472060F7BDC046A0070020D004002006
S1131300D95100009A9999999999E93F155F00007C
S11313109999C93F39430000A55E00000000E03FF1
S113132070060020953B0000450F0000DC4BDD48B3
S1131330DD49F0B59860D9609862D962DB48DC4930
S11313400022186159610020DA49DB4C8C46DB4DE0
S1131350DB49CDB040AE97196646961910323C6011
S11313607D6030607160BC60FD60B060F160302A07
S1131370F0D119685A681A911B929969DA691C911B
S11313801D92196A5A6A1E911F92196B5A6B209109
S11313902192996BDA6B22912392196C5A6C2491E5
S11313A02592996CDA6C3A913B92196D5A6DDC6D09
S11313B09B6D3E933F940023C24C3C913D9202931B
S11313C00394002300241093119400930194049334
S11313D005940023BB4C0E930F9400230024089320
S11313E009940C930D940A930B9480240023E40530
S11313F00693079400233893B34D069A079B1A98D3
S11314001B99A847A74A06000F0008980999A64BFC
S1131410A847AE4C02000B0030003900A047A34A95
S113142006000F0000980199A14BA84702000B0089
S113143030003900A0470A9A0B9B169017911A980E
S11314401B99A847974A06000F000E980F99964BD0
S1131450A84702000B0030003900A047934A060059
S11314600F0010981199924BA84702000B0030000E
S11314703900A0470C9A0D9B129013911A981B994E
S1131480A847884A06000F0004980599864BA84788
S113149002000B0030003900A047844A06000F0008
S11314A002980399824BA84702000B0030003900D0
S11314B0A047069A079B149015911C981D99A8475C
S11314C0089A099B06000F001E981F99A84702005E
S11314D00B0030003900A047724A06000F00009844
S11314E00199714BA84702000B0030003900A04756
S11314F00A9A0B9B189019911C981D99A8470E9A4B
S11315000F9B06000F001E981F99A84702000B00AE
S113151030003900A047634A06000F001098119963
S1131520614BA84702000B0030003900A0470C9A19
S11315300D9B269027911C981D99A847049A059BFA
S113154006000F001E981F99A84702000B003000E8
S11315503900A047534A06000F0002980399524BE2
S1131560A84702000B0030003900A047069A079BE9
S11315702890299120982199A847089A099B060048
S11315800F0022982399A84702000B00300039006D
S1131590A047009A019B06000F0024982599A847AC
S11315A002000B0030003900A0470A9A0B9B2E90D2
S11315B02F9120982199A8470E9A0F9B06000F009F
S11315C022982399A84702000B0030003900A04755
S11315D0109A119B06000F0024982599A847020031
S11315E00B0030003900A0470C9A0D9B0690079120
S11315F020982199A847049A059B06000F00229879
S11316002399A84702000B0030003900A047029A32
S1131610039B06000F0024982599A84702000B009D
S113162030003900A0471F4A029003911298139981
S11316301D4BA847169A179BA0471C4A06000F008B
S1131640149815991A4BA84702000B003000390072
S1131650A047002208900991169817990023A847DB
S113166006000F0002000B0012981399A0470D4AC0
S113167000900191149815990B4BA84702000B0098
S113168000980199A0470022309031911298139943
S11316900023A84732003B00A047149A159B17E08B
S11316A0100000207B14AE47E17A743F2D431CEBFD
S11316B0E236EA3E28060020FCA9F1D24D62503FF2
S11316C00000F03F00002240D951000039430000DF
S11316D0A047D94A129104901691D84B269827997D
S11316E0A847189A199BA047D54A06000F002898C6
S11316F02999D44BA84702000B0030003900A047B9
S113170000222A902B91189819990023A8470022A7
S113171032903391269827990023A847329A339B15
S1131720A047289A299BA047C34A2C902D9106983C
S11317300799C24BA8472E9A2F9BA047C04A060080
S11317400F0002980399BF4BA84702000B0030001A
S11317503900A0470022009001912E982F99002370
S1131760A84706000F0002000B0006980799A0473F
S1131770B14A0A900B9102980399B04BA847020012
S11317800B000A980B99A04700221090119106981B
S113179007990023A84732003B00A047029A039B05
S11317A0A0473A9A3B9BA0473C9A3D9B02900391E9
S11317B008980999A0473E9A3F9B0A900B9102987A
S11317C00399A047009A019B0C900D9104981699D7
S11317D0A8470C9A0D9B0E900F910A980B99A84755
S11317E00E9A0F9B984EB0470C9A0D9B069007914A
S11317F008980999A8470E9A0F9BB047069A079B29
S1131800924EB04734903591349A359B90490A6092
S11318104B6008980999802212069446129B049AF8
S113182063442E932E9BA8470A9A0B9B06000F0035
S113183004981699A84702000B0030003900A0470D
S1131840069A079B814EB0470E900F9180490E9ADD
S11318500F9B8A60CB600C9A0D9B2A982B99A84702
S1131860009A019B06000F002C982D99A8470200AE
S11318700B0030003900744EB047069A079B734E34
S1131880B04702000B003991714918900A614B610D
S11318902A982B99049A2E9BA8470A9A0B9B060018
S11318A00F002C982D99A84702000B003000390036
S11318B0A047069A079B654EB04712901391129A5F
S11318C0139B63498A61CB610C9A0D9B0098019923
S11318D0A847029A039B06000F0000980199A847A5
S11318E002000B0030003900574EB047069A079BA0
S11318F0564EB04714901591149A159B54490A6298
S11319004B6200980199049A2E9BA8470A9A0B9B54
S113191006000F0002980399A84702000B0030004C
S11319203900A047069A079B484EB0473690379136
S1131930369A379B4649444E8A62CB62349A359B29
S113194000204449B04702000B000C900D91089808
S11319500999A8470E9A0F9B06000F000098019959
S1131960A84702000B0030003900374EB0470C9AEC
S11319700D9B0690079130983199A8470E9A0F9BBA
S113198006000F0010981199A84702000B003000C0
S113199039002D4EB0470C9A0D9B0A900B91049878
S11319A01699A8470E9A0F9B06000F0002980399F8
S11319B0A84702000B0030003900234EB0478022B4
S11319C012069446399B189A63442E932E9B0C90CE
S11319D00D9108980999A8472A9A2B9BA047129A17
S11319E0139B06000F0000980199A84702000B0002
S11319F030003900144EB047329A339B0890099155
S1131A0026982799A0470C4A06000F002898299980
S1131A100A4BA84702000B0030003900A047189A6F
S1131A2006000F00309831992E9BA84702000B0046
S1131A3030003900A0470FE07B14AE47E17A743FD1
S1131A402D431CEBE236EA3ECD56000091490000DE
S1131A50280600200000F03F129A139B06000F0096
S1131A6010981199A84702000B0030003900504E1D
S1131A70B047189A0E900F912E9B04981699A84778
S1131A802C9A2D9BA047129A139B06000F000298D4
S1131A900399A847464C02000B0030003900A047C8
S1131AA0369A379B0490059100204249A0470200D2
S1131AB00B001290139100980199A847149A159B52
S1131AC006000F0000980199A84702000B0030009F
S1131AD03900A04700900191129A139B1098119914
S1131AE0A847149A159B06000F0010981199A8474F
S1131AF002000B0030003900A047129A139B10908B
S1131B00119102980399A847149A159B06000F0097
S1131B1002980399A8470B00020039003000A0473F
S1131B200024389B0290039101333893224B149480
S1131B3026931F4B289340ABE51800231695129368
S1131B40129B269AE3189B181A685B6818921993DB
S1131B5018981999169B289D1E685F6832003B00EF
S1131B60A84732003B00154DA847154B154A164EA1
S1131B70B047431E9841149B16991B181493189A46
S1131B80199B0CC1129B169108331293102BD7D1B9
S1131B901034302CCFD1149B002B01D0FFF72CFC38
S1131BA0389B632B01DCFFF727FC4DB0F0BDC0462A
S1131BB0CD5600000000F03F2806002091490000A7
S1131BC0B5F8E43EF168E388713A0000F0B57E4D63
S1131BD08FB0A86A7D4B98477D4B7E4C9A68DB6832
S1131BE0A0477D4A7D4B7E4EB0472E6C6F6C7D4D79
S1131BF000900191286869687B4C00220023A0476B
S1131C00744C002801D02E606F60784B30001A6845
S1131C105B683900A047754B069007911A695B69A8
S1131C2000980199A0476F4B6D4D5C681B68009349
S1131C3001946F4B089009915C681B6800980199A6
S1131C40029303946B4B5C681B68049305946A4C81
S1131C5022686368A847A268E36806000F00029838
S1131C600399A84702000B0030003900634EB047C7
S1131C702269636906000F0004980599A8470200C9
S1131C800B00300039005D4EB0470A900B910A9A60
S1131C900B9B56490A604B60A269E369009801995D
S1131CA0A847226A636A06000F0002980399A847AE
S1131CB002000B0030003900504EB047A26AE36ABC
S1131CC006000F0004980599A84702000B00300095
S1131CD039004A4EB0470C900D910C9A0D9B434924
S1131CE08A60CB60226B636B00980199A847A26B52
S1131CF0E36B06000F0002980399A84702000B004B
S1131D00300039003D4EB047226C636C06000F0072
S1131D1004980599A847394C02000B00300039009B
S1131D20A04703000C00314A0090019113615461F3
S1131D30334C2268636806980799A8470A9A0B9B54
S1131D402E4EB047A268E36806000F000898099970
S1131D50A84702000B0030003900284EB047214B41
S1131D60186059602269636906980799A8470C9A14
S1131D700D9BB047A269E36906000F000898099912
S1131D80A84702000B00300039001C4EB047184B26
S1131D9018605960226A636A06980799A847009AEE
S1131DA0019BB047A26AE36A06000F0008980999EC
S1131DB0A847124C02000B0030003900A0470D4B1D
S1131DC0186059600FB0F0BDA0070020155F000037
S1131DD0D0040020CD560000DFF8DA334B16404023
S1131DE0D9510000700600203D3A0000780600201A
S1131DF0680600206006002010000020394300001F
S1131E0028060020F0B51F4A15784319FF2B03DC80
S1131E10002380B21C4C29E000231B4E5F19DCB266
S1131E20B446FF2F04DCCC5C0133F4559BB2F5E7D8
S1131E300023164F13706546ED182E78FE540026C5
S1131E402E70802501336D00AB42F4D100235D1C5C
S1131E50844207D267460E5D0134FE54E4B2157025
S1131E602B00F4E701220A4B1A7009E0834207D8D9
S1131E70CF5CE6187755EE18013316709BB2F5E780
S1131E80F0BDC0469C0700201505002090060020E8
S1131E90900700201FB546236A4613700023694645
S1131EA068465370104A13688B70190AC170190C74
S1131EB01B0E437193690171190A8371C171190C65
S1131EC01B0E4372136A01721A0A8372C2721A0CCD
S1131ED01B0E4373FE230273C37369461020034B26
S1131EE0984705B000BDC046D0040020051E000080
S1131EF07FB54523124D01AC23706B68114EA3705E
S1131F006B6860701B0AE3706B681B0C23716B6851
S1131F101B0E6371B047A071B0470012E071B04767
S1131F2000142072B047001660722B892100A3723E
S1131F302B890C201B0AE372034B98477FBDC046D4
S1131F40A0070020050B0000051E00005323F0B578
S1131F505A4E8FB008AF3B707368594C7B707368EE
S1131F601B0ABB7073681B0CFB7073681B0E3B7100
S1131F70A0477871A0470012B871A0470014F87107
S1131F80A047504B00161C685D68387229004E4B00
S1131F902000984703B2009318004C4B9847020066
S1131FA00B00200029004A4CA0474A4B9847069052
S1131FB006984949494B9847494B98476A461278CD
S1131FC004AB7A72009A00B258801212BA720233C9
S1131FD01A881B88FA721B0A3B73424B1A685B68A7
S1131FE00092019310001900374B984705B2374B04
S1131FF02800984702000B0000980199A047354B30
S1132000984707903449354B07989847344B98477D
S113201005AB00B204AA1880D5802A12BA731A88B4
S11320202E49FA731A887D73120A3A741A8818882A
S1132030EB175B1BD20BDB0F00B23400039113428E
S113204003D1C317181A054002D5C820264B984758
S1132050206C616C254DA8477874206C616CA8478E
S1132060000AB874206C616CA847000CF874206CEA
S1132070616CA847A66AA36A000E0093184D3875D0
S1132080A06AA8477875A06AA847000AB87500989E
S1132090A847174B00B29847164B011C301C9847B1
S11320A08721039BC9059847134B98473900F87556
S11320B0124B182098470FB0F0BDC046A00700206F
S11320C0050B000060060020B55D0000215E0000E5
S11320D0CD560000BD5F000000007A44313D000091
S11320E06542000068060020690C0000953B000072
S11320F0A9420000593F0000653B0000051E000096
S1132100062313B5584301AC0130FF3022000321EC
S1132110044B98476078A37800021B041843237883
S1132120184316BD41030000062313B5584301AC00
S11321300430FF3022000321044B98476078A378D1
S113214000021B0418432378184316BD4103000002
S113215010B5044B9847044BC018431E9841C0B2B5
S113216010BDC04601210000010000FF07B5062094
S1132170094B01AA1B681370190A1B0C9370074BB7
S113218051701B78032158430430FF30044B9847A7
S11321900A20044B984707BD94070020010500203E
S11321A055020000F90E0000F7B500242000234B6F
S11321B0984700283CD1224F01AD002C16D0601E58
S11321C0204BC0B29847204B0600052098470620B4
S11321D06043330A01303E602E706B70360CFF3062
S11321E02A000321194BAE7098470FE0102380207A
S11321F06B704000154B2A0003212C70AC7098477B
S113220080235B013B601248124B9847124B1C70B1
S1132210FA204000002C08D00E4B9847FA200A4BB5
S11322204000013C9847E4B2F2E7074B984703E0CB
S11322300134E4B2142CB9D1F7BDC04651210000D9
S11322409407002029210000F90E00005502000027
S1132250DC050000690C000001050020014B187822
S11322607047C046140500200122014B1A707047C4
S1132270140500200022F0B5B14B85B0B14D1A70A1
S1132280A847B14C6368C01A80B22080A847AF4AFF
S11322906060926A6368AE4E9B1AAE4A317893606E
S11322A07378B0781B020B4300041A000300F07823
S11322B013430006A84D31791843A847208120898B
S11322C0A64B80B29847A64AA64FA74BB847A74B40
S11322D09847B3797179E060F0791B020B430004ED
S11322E01A000300307A13430006717A1843A84792
S11322F0F37AB17A2082307B1B020B4300041A006C
S11323000300707B13430006B17B1843A847337C5A
S1132310F17B6082707C1B020B4300041A000300F3
S1132320B07C13430006F17C1843A847737D317DCC
S1132330A082B07D1B020B4300041A000300F07D51
S113234013430006317E1843A847B37E717EE082B2
S1132350F07E1B020B4300041A0003003700307F99
S113236013430006797F1843A8472083208B804BB2
S11323708027C018794B98477E4A7A4D7E4BA847F0
S11323807A4B98477D4BFF017D4D5021E0615F61A1
S11323900220A8479620794B80009F61794B98478B
S11323A0794B9847754B019040215F610220A84703
S11323B08022FF26714BD2009F61744B82211A60E8
S11323C00020A84731000020A84731000700002062
S11323D0A847000207433BB2310000200293A847FC
S11323E0310007000020A847000207433BB2310038
S11323F000200393A847310007000020A84780214C
S1132400634AC9001160029A03021F431011039A20
S11324103BB212111B1102920393504B9847FE23B7
S1132420504F00229B05B847504B98474B4B2062B6
S113243002989847FE2300229B05B8474B4B9847C8
S1132440039B60625842454B9847FE2300229B053C
S1132450B847464B98478022484BD200A06282215D
S11324605A610020A84731000020A8473100070026
S11324700020A847000207433BB23100002002932A
S1132480A847310007000020A847000207433BB2D9
S1132490310000200393A847310007000020A8471B
S11324A08022364BD2009A61029B05021811039BCD
S11324B02F431E11294B9847FE2300223DB29B0552
S11324C0284FB847294B9847244BE062300098477F
S11324D0FE2300229B05B847244B98472D111F4B20
S11324E0206328009847FE2300229B05B8471F4B12
S11324F098476063C820234B40009847224B984775
S1132500244A254B0199254E0500B047244BA06B66
S1132510984700230922206461641900AA425B41A0
S1132520DBB28B4205D101998A425B41DBB2002BBD
S113253003D0C8201B4B4000984705B0F0BDC046EF
S113254014050020450F0000A0070020D00400203F
S1132550AC63000008050020010C0000215E0000AF
S1132560C58F3177D95100002D215F3FBD5F000039
S1132570C4F0FFFFD200DE02098A8FBF004400418D
S1132580B9260000C90E00001D0400009444004157
S113259098440041DC070020D80700205D040000B7
S11325A0FD040000690C000070B504000123A61CA2
S11325B0B3400D480D00016A0B430362002D03D0A4
S11325C007212800094B9847F02280202902120194
S11325D01140C0010143200014303F220300134086
S11325E01943034B598070BD00040040790E00006C
S11325F0000C0040044B8002C018012303600268F1
S11326001A42FCD17047C04600080042F7B50400E6
S1132610009308AB1B780E00019309AB1F78124B93
S113262015009847114BA402E41880239B026360B1
S1132630C023C0212D049B022B400E25360589039F
S11326403140009E1D43731E9E41019B72070D4342
S11326502A43591E8B4116001B071E43277326600D
S1132660E3695B07FCD4F7BDF525000000080042D0
S113267070B506000C4B0D00140098470B4BB002CC
S1132680C0180423C0220360094B29058381C02399
S113269092031140074A9B022404436011432340E0
S11326A00B43036070BDC046F525000000080042DE
S11326B05BB1FFFF06000040044B8002C01881623A
S11326C0037E5B07FCD5806AC0B2704700080042F5
S11326D0044B8002C01889B20185037EDB07FCD558
S11326E07047C04600080042024B8002C018008DAB
S11326F0C0B2704700080042F8B52F4B9847002835
S113270058D001222D4B1A702D4A137E2C4E5B0794
S1132710FBD503202B4DA847041E4C2C3CD1002490
S11327202000294B9847002805D021003031C9B238
S11327300320264B98470134E4B20B2CF0D10F212F
S11327400320224CA047337E5B07FCD50320A84717
S11327503038C5B228001E4B98471E4B070028008E
S11327609847461EFF3EF51B2D0AE9B20320A047F9
S1132770A9B2090A0320A047F1B20320A047310AF5
S1132780C9B20320A047310CC9B20320A0473100CD
S11327903800114B98470DE045280BD10F4B984753
S11327A00F4B98470320094B21009847C8200D4B35
S11327B040009847F8BDC046890A00005C06002026
S11327C000140042E926000051210000D126000037
S11327D00121000029210000BD0A0000210200009F
S11327E0E5010000690C0000F0B55F464D46564611
S11327F04446F0B491B01F0004000D00160000F030
S1132800AFF9CF4B029003919B461B785BB299467C
S113281001334FD032003B003000390003F0AAFAF4
S11328200090002846D122002B002000290003F04C
S1132830A1FA00228246002834D100232000290076
S113284001F0FCF800283AD00022002330003900BF
S113285001F0F4F80590002800D174E006AB984626
S1132860012342460693B74B5360434652469C604D
S1132870DD601A621E615F61424600230024936199
S1132880D4614B46002B00D194E00023AE4C00935E
S113289001940098019911B03CBC90469946A24617
S11328A0AB46F0BD00233000390001F0C7F8002822
S11328B000D0EBE0029B039C00930194E9E70298AB
S11328C0039900F07DFF8146002800D186E002983C
S11328D003990022002301F0B1F80028EAD0200077
S11328E0290000F06DFF029A039B009201930028D7
S11328F0CFD03000390000F063FF029A039B0092AE
S113290001930028C5D006AB98460423424606939B
S11329108C4B9460D5605360002300241362002321
S11329209361D4615B461B78166157615BB2022BDD
S113293004D0404600F04EFF002840D103F074FC60
S1132940222303603BE03000390000F039FF029A93
S1132950039B0092019300289BD0002200233000A7
S1132960390001F071F8002800D192E706AB9846CF
S1132970012342460693734B53604346059A9C6079
S1132980DD601A621E615F615B461B785BB2002BDF
S11329900BD0002042466D499061D161022B09D1D0
S11329A003F042FC2123036009E042460023002493
S11329B09361D461404600F00DFF0028F0D04346F7
S11329C01B6A002B04D003F02FFC43461B6A0360F0
S11329D04346DC699B69009301945AE7200029006F
S11329E000F0EEFE002800D171E73000390000F05D
S11329F0E7FE002800D16AE7029803990B00020061
S1132A0003F0B8F906AB984600287AD1032342466E
S1132A1006934C4B106253605B461B789460D56000
S1132A205BB2166157619946002B48D1E0224146BA
S1132A30474B12068A61CB61200000220023290043
S1132A4001F002F8002800D173E70022414B300066
S1132A50390002F0C1FB04000D0000F0C3FE0200C7
S1132A600B002000290000F0E9FF002805D1E02236
S1132A70394B120641468A61CB615B461B785BB2D7
S1132A8099464B46022B00D053E757E706AB9846CE
S1132A900123424606932B4B536043469C60DD6002
S1132AA00024009A284D1A621E615F619C61DD61F9
S1132AB04B4600940195022B00D07BE7E9E6002207
S1132AC04146264B20008A61CB6100220023290065
S1132AD000F0BAFF0028D4D000221E4B3000390089
S1132AE002F07AFB04000D0000F07CFE02000B00F3
S1132AF02000290000F0A2FF0028BED10022134BC1
S1132B00B8E70123424606930E4B536043464A46B8
S1132B109C60DD601A621E615F6100245B461C5785
S1132B20002C00D141E7002300221900100001F01D
S1132B302FFF43469861D961022C00D130E739E771
S1132B4070000020CC6300000000F03F0000F0FFA4
S1132B50FFFFEF470000E03FFFFFEFC70000F07FFB
S1132B60F0B556464D4644465F46F0B41C0013008B
S1132B70670091B07F080093019406000D00804621
S1132B808946A2463B4332D06E4B6C0064089C429B
S1132B9029DC26D09F4226DC6A4B9F4200D189E083
S1132BA000239B464B46002B00DA87E0002A2FD1F6
S1132BB0644B9F4200D19FE0634B9F425DD08023D2
S1132BC0DB059A4501D100F0C1FB604B9A451FD14A
S1132BD04B46002B1CDB3000290000F0F7FC0600FC
S1132BE007E000280DD05A4BE01830430BD10026E3
S1132BF05549300011B03CBC90469946A246AB46BC
S1132C00F0BDA742C8DD534800F0E6FD0600F0E73A
S1132C103000290000F0D0FD4346002B1DD0EB0FFF
S1132C20013B98465B464246134379D04A4B9F4248
S1132C3000DC9FE0494B9F4201DC00F0CEFB484B97
S1132C409C4279DD5346002B79DD464A464B100001
S1132C50190002F0C1FA0600CBE7002C04D03A4A6E
S1132C60AB009B089342DAD15346002B00DAADE364
S1132C704B46002B0DDB0600BBE753462900002B17
S1132C80B7DA32002B0000202F4901F081FE060044
S1132C90AFE72F4B9C465B4664441C4301D100F0D4
S1132CA02BFC5B460600012BA3D180231B069C460C
S1132CB061449EE7002A00D172E794E72B4B9F42C0
S1132CC02BDC274B9F4200DC70E729493B158C46DF
S1132CD06344142B01DC00F0F2FB3421CB1A00997D
S1132CE0D94008009840824200D05FE70123194090
S1132CF001335B1A9B4659E7154BE018064300D194
S1132D0075E7174B9C4200DC51E35346002B16DB5E
S1132D10009B019C1E0021006BE702239B4645E7B4
S1132D2032002B003000290002F0D0FC02000B001E
S1132D3001F02EFE06005CE75346002B85DB0026DF
S1132D40002156E70000F07F0000F03F0000E03F64
S1132D50000010C0D06300000000E0410000F04318
S1132D60FFFFEF3F9C7500883CE4377EFFFF3F4345
S1132D7001FCFFFFE84B00229C4206DC0022E74BEB
S1132D8002F02AFA35220C005242E54D2315AC46D6
S1132D90634499462403E34DE34B240B91442543B8
S1132DA09C4209DDE14B9C4200DCA9E301239C46E3
S1132DB0DF4BE1449C466544002300240022089331
S1132DC009940C930D940024D64B06920793069A0B
S1132DD0079B29000A900B9102F078FC069A079B46
S1132DE006000F000A980B9901F0A6FA02000B00E6
S1132DF00020CC4901F0CCFD0A00010013000E9123
S1132E000F9202003900300002F0E6F90A000100D6
S1132E10802004910592130000228021000384463F
S1132E2002920393002289056D100D4365442B190A
S1132E300298039914001D0002F0CEF902000B0061
S1132E403000390002F042FC069A079B06000F008E
S1132E502000290002F03AFC02000B000A980B99AA
S1132E6002F034FC029A039B02F0B6F902000B0054
S1132E703000390002F02AFC0E9A0F9B02F0ACF9E4
S1132E80049D059E069007912A0033002800310016
S1132E9002F0A2F906000F00A64AA74B02F09CF923
S1132EA0A64AA74B01F048FA32003B0002F094F91D
S1132EB0A44AA54B01F040FA32003B0002F08CF921
S1132EC0A24AA34B01F038FA32003B0002F084F925
S1132ED0A04AA14B01F030FA32003B0002F07CF929
S1132EE09E4A9F4B01F028FA320004000D003B007B
S1132EF03000390002F070F902000B0020002900B4
S1132F0002F06AF9029E039F04000D0004980599DB
S1132F1032003B0001F010FA069A079B02F05CF9BC
S1132F2022002B0001F008FA32000A900B913B00BA
S1132F30300039000296039702F04EF90022894BC3
S1132F4004000D0001F0F8F90A9A0B9B01F0F4F962
S1132F5000260F0032000B000298039902F03CF99E
S1132F600022029003917F4B3000390002F0AEFB47
S1132F7022002B0002F0AAFB02000B000A980B9916
S1132F8002F0A4FB049A059B02F026F93200040027
S1132F900D00069807993B0002F01EF902000B0091
S1132FA02000290001F0C8F904000D0002000B0004
S1132FB00298039901F0C0F90026E0226A4B120638
S1132FC030000F0002F008F9029A039B0490059167
S1132FD03000390002F07AFB02000B0020002900C7
S1132FE002F074FB614A604B02F0F6F8604A040098
S1132FF00D00604B3000390002F0EEF802000B00C7
S11330002000290001F098F90C9A0D9B01F094F925
S1133010060048460F0002F003FF04000D00049868
S1133020059932003B0001F087F9089A099B01F0E9
S113303083F922002B0001F07FF9002022002B00ED
S11330400290039102F042FB089A099B02F03EFBB6
S1133050049A059B02F03AFB02000B003000390091
S113306002F034FB049005915B464246013B134356
S113307000D197E100232B4C069307940098019903
S113308000260B0032000F0002F020FB029A039B83
S113309002F0A2F8009A019B04000D00049805991F
S11330A002F09AF802000B002000290001F044F914
S11330B004000D00029803993B0032000494059526
S11330C002F08AF8009001910B0002002900200010
S11330D001F032F9284B81460F1E8A469F4200DCDC
S11330E03CE1264BCB18034300D0DBE1049805995F
S11330F0234A244B01F020F9009A019B04000D009F
S11331004846390002F0E2FA02000B0020002900D0
S113311000F0AEFC3E0037E0FFFF0F00000040432C
S113312001FCFFFF0000F03F8E98030079B60B000E
S11331300000F0FFEF4E454A287ECA3F65DBC99385
S11331404A86CD3F01411DA96074D13F4D268F5160
S11331505555D53FFFAB6FDBB66DDB3F03333333E0
S11331603333E33F0000084009C7EE3FFD033ADC78
S1133170F5015B14E02F3EBEFFFF8F40000070BFDF
S1133180FE822B654715973C002800D08AE18022F7
S1133190E74B52039C461300361566443341E54918
S11331A0DB195E001C001B038C461B0B134314220B
S11331B0760DE14F66443741961B3341984653469A
S11331C0BC4300202100002B00DAA9E102000B001F
S11331D00098019902F07AFA0B0000900191020024
S11331E00498059901F0A8F843461B059946002068
S11331F00022D24B06000F0001F0EEFF009A019B63
S1133200029003913000390002F060FA02000B00D2
S11332100498059902F05AFAC94ACA4B01F0DCFF36
S1133220C94A04000D00C94B3000390001F0D4FF35
S113323002000B002000290001F07EF804000D00BC
S113324002000B000298039901F076F8029A039B9E
S113325006000F0002F03AFA02000B0020002900D9
S113326002F034FA3200009001913B003000390042
S113327001F0B2FF04000D00B54AB64B01F0ACFFFB
S1133280B54AB64B02F022FA22002B0001F0A4FF4B
S1133290B34AB44B01F050F822002B0001F09CFF1C
S11332A0B14AB24B02F012FA22002B0001F094FF53
S11332B0AF4AB04B01F040F822002B0001F08CFF24
S11332C002000B003000390002F000FA04000D0087
S11332D002000B003000390001F07EFF80230290D1
S11332E003910022DB052000290002F0EFF902001F
S11332F00B000298039901F04BFB009A019B040018
S11333000D003000390001F067FF009A019B01F0C5
S113331013F802000B002000290002F0D7F9320054
S11333203B0002F0D3F902000B000020924902F0A6
S1133330CDF94B465B181A15002A00DCF4E019009D
S1133340069A079B01F048FF060052E43200300061
S11333502B00290001F040FF06004AE4874B4E0091
S113336076089E4200DCBFE0854BCB1803430CD1AA
S1133370009A019B02F0AAF902000B000498059937
S113338000F06CFB002800D101E7069807997D4AFC
S11333907D4B01F021FF7B4A7B4B01F01DFF0600B2
S11333A0FFF727FC0023794C0693079466E65346FF
S11333B0002B00DBC3E4009B019C802212061E004C
S11333C09446230063441900FFF713FC02000B002A
S11333D00020694901F0DCFA4AE46D4B9C4200DCB0
S11333E0AAE4654B9C4201DDFFF72CFC0022624BF2
S11333F002F06CF9C022674BD20504000D0001F005
S1133400EBFE654A06000F00644B2000290001F022
S1133410E3FE002202900391614B2000290001F099
S1133420DBFE02000B005F485F4902F04FF9220007
S11334302B0001F0D1FE02000B0000205B4902F0DA
S113344045F92200049005912B002000290001F089
S1133450C3FE02000B000498059901F0BDFE544A16
S11334604C4B01F0B9FE02000B000298039902F0E4
S11334702DF902000B0004000D003000390000F0AB
S11334805BFF002210003B0032000290039102F027
S11334901DF902000B002000290002F017F9049026
S11334A00591E1E5434A444B0698079901F094FEDF
S11334B0404A414B01F090FE0600FFF79AFB002AB8
S11334C001D0FFF7A5FB1432D31A3A001A411100B8
S11334D099408F4201D0FFF76FFB01231340022272
S11334E0D31A9B46FFF768FB304B9E4200DD4EE645
S11334F00023994698467AE602000B00FFF714FC75
S113350080232E4CDB05089309942D4B2D4C00226F
S11335100C930D9480242C4BE4020692079356E4FA
S113352043465B42984651E6424600F0FDF907E700
S113353002FCFFFF01FCFFFFFFFF0F00432EE63FED
S1133540EF39FAFE422EE63F396CA80C615C20BECE
S1133550D0A4BE726937663EF16BD2C541BDBB3E95
S11335602CDE25AF6A56113F93BDBE166CC1663F73
S11335703E5555555555C53F0000F03FFFCB904093
S113358000346F3F59F3F8C21F6EA5010000F0BF6D
S1133590FEFFEF3F4715F73F44DF5DF80BAE543EA7
S11335A00000D03F555555555555D53F0000E03FD7
S11335B0FE822B659C7500883CE4377E03B8E23FAD
S11335C006D0CF43EBFD4C3E0000F83FF0B5564625
S11335D04D4644465F46754BF0B40A000D00190091
S11335E083B0060004002940994200D1BAE0002DBE
S11335F000DC94E02D1500D1A3E06D4B12039C4632
S11336008023120B5B0365441A43EB0700D581E06A
S11336106B109846E30F9B189B18802216210026F6
S1133620002764009203B818984202DC87181B1A1A
S1133630B618E00F5B0001391B186400520800291A
S1133640F1D1002201929446802212062020914654
S113365009E09F4241D0E10FC9180138CB1864003A
S1133660520800281ED0614651189F42F1DA8D1885
S1133670AC46CD0FED07BA464D4539D0DB1B8C4225
S1133680BF417F42DB1B641A019901388B46934486
S113369059460191E10FC9185746CB1864005208E6
S11336A00028E0D123432BD1019B5B0841497210D0
S11336B08C466244F10702D5802109060B4341463A
S11336C009058D181E002F003000390003B03CBCE2
S11336D090469946A246AB46F0BDA1420ED88D183D
S11336E0AC46CD0FED074D4548D09A460023CAE7B6
S11336F06546002DC2DB7D1CAA46BFE73B00AAE756
S1133700019B01333ED0019A012394461340634444
S11337105B08CBE7E30F52009A18640078E76B006C
S11337205B0803432F00002BCED00025002A31D1A3
S1133730E20A153D6405002AFAD080235B031A428D
S113374023D180200023400300E00B005200591CC9
S11337500242FAD02020401AED1A2300C3408C40C4
S11337601A434AE702002B00290001F035FD32001C
S11337702B0000F0E1FD06000F00A5E76546002DD3
S1133780B9DAB2E70136002390E7012320205B4237
S11337900021E1E73B000200390001F097FF02003D
S11337A00B0001F0F5F806000F008DE70000F07F34
S11337B001FCFFFF0000E03F49004B08190070477F
S11337C0034B48009C4640086044C00F7047C04605
S11337D00000108000207047002001497047C04657
S11337E00000F87FF0B5474680B4CB0F98464A4CAA
S11337F04B005B0D1E1982B007000A00132E35DC46
S1133800002E57DB454B040033411F000F40074394
S11338100D00002F24D05B081C000C40204300271F
S1133820002807D0132E00D172E08022D202324148
S113383099430A434346DE00394B11009E1934680C
S11338407568380022002B0000F076FD009001918D
S11338500098019922002B0001F038FF04000D00AC
S11338602000290002B004BC9046F0BD332E0CDDCC
S1133870802304000D00DB009E42F1D102000B0006
S113388000F05AFD04000D00EAE7264C0D00A446A2
S1133890012463446442DC40A446614604000142BE
S11338A0DED049080142C5D08027FF051F41884367
S11338B00743BFE74B005B08034304000D00002BE4
S11338C0CED00B031B0B03435A42134380221B0B22
S11338D0120313404A0C5204134319004346104A7E
S11338E0DB00D3181C685D6822002B0000F024FD67
S11338F0009001910098019922002B0001F0E6FE4E
S113390042464B005B08D607334304001D00A7E77B
S113391080273F0689E7C04601FCFFFFFFFF0F0039
S1133920D8630000EDFBFFFF4B0070B55B0D140086
S11339300A00002B1AD14B005B08034315D0002268
S1133940224B01F049FC224B0A009C4222DB4B0033
S11339505B0D363B1F4DE318AB4220DC002B0DDD25
S11339601D4C1B0522401A43110070BD1B4DAB4278
S1133970F0D102000B0000F0DFFCF6E71D00353546
S113398018DA174B02009C420ADC0B001548164952
S113399000F032F8134A144B01F01EFCE5E7020074
S11339A00B001248124900F027F8104A104B01F09E
S11339B013FCDAE7084C363322401B051343190085
S11339C000220C4B01F008FCCFE7C0460000504336
S11339D0B03CFFFFFE070000FFFF0F80FF07000061
S11339E050C3000059F3F8C21F6EA5019C750088EE
S11339F03CE4377E0000903C30B54A00DB0FDB0727
S1133A0052081A43110030BD02B4714649084900F6
S1133A10095C49008E4402BC7047C0468446101CB1
S1133A2062468C46191C634600E0C0461FB501F08F
S1133A3069FB002801D40021C8421FBD10B501F064
S1133A40BDFA4042013010BD10B501F05BFB002807
S1133A5001DB002010BD012010BDC04610B501F0EF
S1133A6051FB002801DD002010BD012010BDC0461F
S1133A7010B501F0E3FA002801DC002010BD01209C
S1133A8010BDC04610B501F0D9FA002801DA0020B3
S1133A9010BD012010BDC0468446081C6146FFE7E6
S1133AA01FB500F001F9002801D40021C8421FBD50
S1133AB010B500F08DF84042013010BD10B500F093
S1133AC0F3F8002801DB002010BD012010BDC04622
S1133AD010B500F0E9F8002801DD002010BD012038
S1133AE010BDC04610B500F09BF8002801DC002092
S1133AF010BD012010BDC04610B500F091F800289B
S1133B0001DA002010BD012010BDC046F0B54F46BB
S1133B104646C0B41604360C9946330005042C0CF2
S1133B20070C150C63437E436F4365431C0CAD19AE
S1133B3064199C46A64203D980235B0298464744F5
S1133B406346250CEF191D044B464A4343432D0C91
S1133B50240464199918C91920000CBC904699468C
S1133B60F0BDC0469E2110B5C905041CFFF7C4FF73
S1133B70002803D1201C00F075FB10BD9E21201CE1
S1133B80C90500F0E9F900F06DFB80231B069C4693
S1133B906044F2E770B500220C4B04000D00FFF7FF
S1133BA071FF002804D12000290002F003F970BD40
S1133BB0064B00222000290001F088FD02F0FAF8EB
S1133BC080231B069C466044F1E7C0460000E041A8
S1133BD0430270B542004C005D0AC30F4802120E46
S1133BE0460A240EC90FFF2A0FD0FF2C11D0012042
S1133BF0A24200D070BDB542FCD18B420DD0002A48
S1133C00F8D12800431E9841F4E70120002DF1D19A
S1133C10EBE70120002EEDD1E9E70020EAE7C046FA
S1133C204302F0B542005D0AC30F4802440A48004B
S1133C30120E000EC90FFF2A1FD0FF2822D0002A1F
S1133C4009D16E426E4100280FD1002C0DD1002005
S1133C50002D09D005E0002801D1002C01D08B42B1
S1133C6013D0584201231843F0BD002EF7D0484228
S1133C704141012049420843F6E7002DDDD00220EE
S1133C804042F1E7002CDAD0F9E78242E9DC04DBB8
S1133C90A542E6D80020A542E6D25842434101207D
S1133CA05B421843E0E7C0464302F0B542004C00D3
S1133CB05E0AC30F4802120E450A240EC90FFF2ADA
S1133CC017D0FF2C19D0002A0BD170427041002C60
S1133CD017D0002807D048424141012049420843F7
S1133CE0F0BD002C13D08B4214D05842012318434A
S1133CF0F6E70220002EF3D1E3E70220002DEFD1F6
S1133D00E1E7002DE5D10020002EE9D0EDE7002DFC
S1133D10E9D1EAE7A242E8DC04DBAE42E5D80020C0
S1133D20AE42DDD25842434101205B421843D7E7FB
S1133D30F0B557464E4645464300E0B44602884631
S1133D40760A1F0EC40F002F47D0FF2F25D0002363
S1133D5080259A469946F600ED042E437F3F43465C
S1133D6042465D02D20F5B006D0A1B0E904640D0A6
S1133D70FF2B39D080220020ED00D20415437F3B75
S1133D80FB1842465746591C62408C4607430F2F86
S1133D905CD86F49BF00C9598F46002E45D108230E
S1133DA09A46063B9946DAE7424602282DD0032874
S1133DB000D1C3E0012800D0A2E000250026024083
S1133DC0D4B27602ED05760A2E43E407264330008A
S1133DD01CBC90469946A246F0BD002E1AD104237D
S1133DE09A46033B9946BAE72A00511E8A41901C21
S1133DF0C6E70120002DC3D0280002F0F7F9431FC5
S1133E0076309D4043420020BAE70124FF25144048
S1133E100026D6E7300002F0E9F9431F9E40002354
S1133E20763047429A46994699E70C239A46093BCD
S1133E30994694E780260024F603FF25C1E7350060
S1133E404846B2E7350022004846AEE72904090C8B
S1133E500800370C3604360C2C0C79437043674346
S1133E607443060C64183619B14203D980214902FF
S1133E70884647440004000C310409188D01681E6B
S1133E808541890E2943350CED19AD010D432901F6
S1133E9004D5012369081D4063460D4319007F3191
S1133EA0002925DD680704D00F202840042800D00D
S1133EB00435280103D5274980330D401900FE2914
S1133EC0A3DC0124AD016E0A1440CDB279E7802051
S1133ED0C003064207D0054205D128434602760AAC
S1133EE04446FF256DE706437602760AFF2568E718
S1133EF00124611A1B2905DD14400025002660E712
S1133F006346CBE72E002023CE40591A8D406B1E0A
S1133F109D412E43730704D00F233340042B00D05C
S1133F200436730104D5012401251440002648E712
S1133F300124B601760A1440002542E780260124B4
S1133F40F6032E437602760A1440FF2539E7C0466D
S1133F50E8630000FFFFFFF7F8B54A024E00430292
S1133F604400240EC50F9B09360EC90F9209FF2E7B
S1133F7000D183E001204140A01BA9425CD000286D
S1133F8000DC95E0002E1CD1002A00D081E05A0705
S1133F9004D00F221A40042A00D004335A013BD51E
S1133FA00134FF2C00D191E001209B015B0AE4B2B3
S1133FB005405B02E4055B0AED0723432B4318002D
S1133FC0F8BDFF2CE3D08021C9040A431B2800DD7F
S1133FD090E016002021C640081A8240511E8A41F2
S1133FE032439B1A5A0115D59B019E09300002F0F9
S1133FF0FDF80538864084426CDC041B3300202025
S11340000134E340041BA640721E9641002433434E
S1134010BDE70D005A07BCD1DF0801231D40FF2C6A
S113402033D1002F00D190E08022D20313003B4310
S11340305B025B0AFF24BCE700284FDD002E2ED074
S1134040FF2CA4D08025ED042A431B2800DD97E033
S113405016002025C640281A8240501E8241324351
S11340609B185A01D5D50134FF2C6DD001227B4811
S11340701A405B08034013430D0088E7002A00D070
S11340807AE777E7031EC5D100257B025B0AE4B219
S11340908FE701380028A4D0FF2C97D177E7002AB6
S11340A000D174E701380028DAD0FF2CCDD16EE7B7
S11340B0002821D1601CC0B2012858DD80279E1A37
S11340C0FF0437402FD0D61A0D008FE701231D407F
S11340D000236EE7624B241A334058E7002851D17D
S11340E0601CC6B2012E33DDFF282DD09B185B085F
S11340F004004CE7012274E7002C1AD0FF2E1FD0D5
S11341008024E404404223431B2800DD96E01D0084
S11341102024C540201A8340581E83412B43D31AC0
S113412034000D005EE7002E00D05FE70025002478
S1134130ABE7002B44D0C0430028F0D0FF2EE3D1DE
S11341401300FF240D0022E70D00FF24002330E7B5
S1134150002C5DD1002B7DD0002A00D117E79B18DD
S11341605A0100D456E73E4A040013400FE7002CDE
S11341701ED1002B2FD1002A65D013000D0006E7B5
S113418001226DE7002C1FD1002B59D0C043002819
S11341900BD0FF2E4FD01B285EDC1D002024C54011
S11341A0201A8340581E83412B439B18340058E740
S11341B0002B1CD1002A49D013000D00FF24E6E691
S11341C0130034000D00E2E6FF2E34D08024E40412
S11341D040422343DFE7002A00D1D8E68027981A1B
S11341E0FF04074000D14DE7D31A0D00CFE6FF24AA
S11341F0002A00D1CBE68020DB08C003034204D0B0
S1134200D208024201D113000D00DB00FF24BEE6F8
S1134210002B10D0FF24002A00D1B8E68020DB0850
S1134220C003034203D0D208024200D11300DB00D2
S11342300D00FF24ABE61300FF24A8E601236EE77C
S113424013003400A3E6002700251EE7802700257D
S1134250FF03E9E613009AE60123A6E7FFFFFF7DCB
S1134260FFFFFFFB4302590A4300C20F1B0E00204D
S11342707E2B0EDD9D2B0DDC802000040143952B4D
S11342800BDC9620C31AD9400B005842002A00D1F7
S113429018007047034BD018FBE7963B99400B007E
S11342A0F3E7C046FFFFFF7F70B5002830D0C31787
S11342B0C5185D40C40F280001F098FF9E231B1A07
S11342C0962B0DDC9622D21A95406A02520AD8B275
S11342D05202C005520AE40702432243100070BD93
S11342E0992B19DC9922D21A9540124A2A4069075F
S11342F004D00F210D40042D00D00432510103D508
S11343000C4B1A409F231B1A9201520AD8B2DFE7C2
S1134310002400200022DBE705222E00121AB92116
S1134320D6402A00C91A8A40551EAA4135001543B1
S1134330DBE7C046FFFFFFFBF8B556465F464D4638
S11343404446F0B40F00FD0FAA4609037C002E007A
S11343505F00450F490A7F0D2943C5001803BC4679
S1134360400A570F640DDB0F3843D2009A4500D141
S1134370AAE06646A61B002E00DCFFE06346002B85
S113438039D10300134300D0D9E06B0709D00F23C0
S11343902B40042B05D02B1DAB42AD416D42491976
S11343A01D000B0200D482E0CA4B01349C4200D1B0
S11343B0FEE00A005646C84BED081A405007640553
S11343C052020543120B640D002112030B0D1B0551
S11343D06405120B1A436308C04CF60714401C43CF
S11343E0640064083443280021003CBC904699468C
S11343F0A246AB46F8BDB74B9C42C6D080231B04F3
S11344001843382E00DDEBE01F2E00DD1EE12023D3
S11344109B1B9C4603006746BB40984613004746D7
S1134420F3403B436746BA40571EBA411343020068
S1134430F240EB1A9D42B6411D008A1A7642911B46
S11344400B0231D54A02560A002E00D1B4E03000E6
S113445001F0CCFE0300083B1F2B00DDB5E0202259
S11344602900D21AD1409E400A009D4032439C420A
S113447000DDB1E01C1B631C1F2B00DDD5E02021F7
S113448014002800C91A8C40D8408D400443DA40F7
S1134490681E854111002543002476E741463143D7
S11344A000D134E2310045466B0700D06FE7564631
S11344B04807ED08C9080543864B9C4235D00A03DA
S11344C06405120B640D7FE76346E31A9B46002BD9
S11344D000DC8BE06746002F3CD07E4FBC4200D10D
S11344E053E780273F0438435B46382B00DCF7E072
S11344F00243501E82410020D2B253194218AB42EB
S113450089411D00494289180B02CDD5714B0134F4
S11345109C4200D13DE101206F4A6B080A402840CB
S11345201843D507054351082FE72B000B4300D14F
S1134530CBE180231B030B431A03120B44E7013E18
S1134540002E6DD1AE1AB5429B41091A5B42C91ABD
S1134550350075E70700174300D116E701235B42D6
S11345609C46E3445B46002B00D0E0E0AA18AA4234
S11345709B4109185B4259181500C5E7002E75D1F7
S1134580661C7605760D012E00DCF3E0AE1AB0460B
S11345904545BF410E1A7F42F61B370200D48FE017
S11345A0551BAA42B641411A76428E1B9A464BE7E6
S11345B056460022002507E7280001F017FE2030A8
S11345C00300083B1F2B00DC49E72A0028388240FF
S11345D000259C4200DC4DE73F49E41A1140D4E633
S11345E00243501E8241D3B2002222E7002B00D0A6
S11345F0F3E0631C9C465B055B0D012B00DC9FE034
S1134600344B9C4500D1C3E0AA180918AA42804142
S113461040424118CD075208154349086446B4E6A0
S11346202C4B9C4200D0ECE6AFE611001F3CE1406D
S11346300C00202B00D17FE04021CB1A9A40154377
S11346406A1E95410021254300242DE7330007000D
S1134650203BDF403B00202E70D04027BE1BB040E3
S11346600243501E824113430022E2E6002C4FD045
S1134670184CA44500D1ABE08024240476422143A5
S1134680382E00DDDFE01F2E00DD43E12027BC1BB8
S1134690A1460C004F46BC40A0462C004746F440BF
S11346A03C434F46BD406F1EBD41F1402C43151B9A
S11346B0AA429241411A5242891A64469A46BFE676
S11346C041464546314300D0BEE60026002400257D
S11346D0F2E6C046FF070000FFFF7FFFFFFF0F80E9
S11346E01F2B59DC2027FF1ABC46070063469F4056
S11346F05B46B9461700DF40B8464F4643461F4362
S113470063469A40531E9A415B463A43D840F4E6C6
S11347100C002C435CD0F643002E55D1551BAA4205
S1134720A441411A6442091B9A46644688E6964F9E
S1134730BC4200D0D8E628E6002280E700208FE7BC
S11347400B002B43002C00D0C2E0002B00D101E170
S11347500300134300D118E6AB18AB42B641091865
S1134760764271180A0200D409E1884A1D001140FA
S113477064460AE6002C5BD10E002E4300D08AE08A
S11347800100114300D1C2E0010015009A46FCE586
S11347906446002100258FE620235B429C46DC44CE
S11347A063460700DF405B46BC46202B00D1ACE0EB
S11347B040235F46DB1B98400243501E8241634600
S11347C013431A00002098E66F4CA44500D057E725
S11347D00100150064469A46D7E5002C39D10C0037
S11347E02C436ED0DB43002B1AD0674CA44568D011
S11347F0382B00DDA4E01F2B00DDAEE020240F00E9
S1134800E41AA740B9462F00DF40B846A3464F46F6
S1134810444627435C46A5406C1EA541D9403D4310
S1134820AD1895429B4109185B42591864466BE6E2
S11348300C002C4315D1010011437BD0010015005D
S11348409A46514CA1E50D43691E8D410021ECB2FD
S11348502DE74D4CA44534D0802424045B422143ED
S1134860C6E7040014434ED0ED084C072C438025C2
S1134870C9082D03294208D0C6082E4205D1D20802
S1134880410711430C009A463100620FC900E5004C
S113489011433D4C79E50600164300D175E5AE1A87
S11348A0B0464545BF410E1A7F42F61B370200D47D
S11348B0F4E5551BAA42B641411A7642891B9A4631
S11348C063E50100150064465FE5002200257BE5F1
S11348D0002B3BD00300134315D0ED084B072B43AB
S11348E08025C9082D03294207D0C4082C4204D1CD
S11348F041070B002100D2081343C9005A0F11438A
S1134900DD00214C41E5204C3FE5002054E7002622
S11349100025D1E534000F00203CE7403C00202E68
S11349202BD04027BE1BB1400D43691E8D41002191
S11349302C43BCE6802100260903134C0025BBE56B
S11349400D43691E8D410021EDB269E70100150098
S11349500D4C1AE50100150017E51C000F00203C62
S1134960E7403C00202B0CD04027FB1A99400D4314
S1134970691E8D410021254352E70021D4E71D0023
S113498092E50021F3E7C046FF070000FFFF7FFF29
S1134990F0B556464D4644465F46F0B41D000E033E
S11349A04C00CB0F87B0070092468146360B640D4E
S11349B098466AD06D4B9C4235D08022430F120436
S11349C01343F6001E43C3009946694B00279C46D7
S11349D00023644402932B0368001B0BED0F514624
S11349E09B46400D009500D178E0604B98426CD016
S11349F05B46DA004B0F802109040B4313439B46AB
S1134A005346D9005A4B9C46002360444246201A20
S1134A106A40924601901F430F2F00D9B0E05548D9
S1134A20BF00C0598746374300D088E00023994629
S1134A300233082700260293CDE74346B34649468E
S1134A400093029B009A9246022B00D0BFE1002102
S1134A5053460122002689461A40444B002136035E
S1134A600C0D2405360B2643434C1B0526401E43E0
S1134A707600D207760816434846310007B03CBC9E
S1134A8090469946A246AB46F0BD330003434FD04F
S1134A90002E00D1BCE1300001F0A8FB03000B3B69
S1134AA01C2B00DDADE11D220100D31A08393A00A8
S1134AB08F408E40DA40B9461643304B00279C465F
S1134AC0002360444442029385E753465A46134305
S1134AD02CD1002300219B46023397E70B4320D0BF
S1134AE05B46002B00D19EE1584601F07FFB03009A
S1134AF00B3B1C2B00DD8FE102005946083A914024
S1134B008B461D21CB1A5146D9400B0059460B4305
S1134B1051469B469140194B9C46604440420023B9
S1134B2074E7002300219B4601336FE703236DE7FD
S1134B300023994601330427002602934BE70323FD
S1134B400C27029347E70122D51A382D00DCB0E187
S1134B5053461A4000210023002689467EE700239D
S1134B608026994600223603004B77E7FF070000B2
S1134B7001FCFFFF28640000FFFF0F80F303000027
S1134B805E4500D972E100D16DE1019B4D46013BC8
S1134B9001930023340002935B461E020B0E1E4356
S1134BA00B020393330C994633041B0C4946200033
S1134BB0009301F08FFA009B3700434306004946F7
S1134BC02000984601F00CFB2C0C09040C43A04572
S1134BD009D9E419731EA74200D95CE1A04500D8A5
S1134BE059E1023EE4194346E41A4946200001F023
S1134BF071FA0300009A80465343494620009B46BD
S1134C0001F0EEFA2A040904120C0A4393450DD963
S1134C104346D219013B974200D93AE1934500D863
S1134C2037E102235B429C46D219E0445B46D21A28
S1134C304346360433439B460399180C0B0C1D0062
S1134C40059309045B46090C0C001B041B0C44432C
S1134C50049159436B4368431B190D0CEB189C4298
S1134C6003D980246402A44660441C0C09041B0478
S1134C70090C20185D18824200D2DEE000D1D7E092
S1134C80161A029B9C465D1BAC459B415B42F61A7F
S1134C90B74200D106E14946300001F01BFA009BFF
S1134CA00400434349463000984601F099FA2E0C1B
S1134CB009040E43B04509D9F619631EB74200D959
S1134CC0F3E0B04500D8F0E0023CF6194346F31A8D
S1134CD049461800029301F0FDF9009B0600434386
S1134CE049460298984601F07BFA2D0409042D0CDC
S1134CF00D43A84509D9ED19731EAF4200D9D6E07A
S1134D00A84500D8D3E0023EED192404210043460F
S1134D103143049E059A3000ED1A0B040C0C1B0C55
S1134D2058436643534354439A19030C9B189E42B9
S1134D3003D980225202944664441A0C00041B04D2
S1134D40000C14191B18A54250D34DD0012319434C
S1134D50964A019B94466344002B00DCF3E64A0721
S1134D6009D00F220A40042A05D00A1D8A4289412B
S1134D7049428B4411005A46D20108D55A468C4BFD
S1134D801A4093468022D2009446019B6344894A88
S1134D90934200DD5BE65A46C908500708435602B1
S1134DA0514601225B058146360B5B0D0A4055E6F0
S1134DB080231B031E4211D05A461A420ED15E466E
S1134DC01E433603360B2A0089467B4B46E6032BEB
S1134DD000D1E1E0012BBBD11A40BBE61E433603F0
S1134DE0360B4246744B39E6002BB1D07D194A1E6E
S1134DF0AF4252D91100A542A8D1039A9A42A5D133
S1134E00A6E703003E00283B9E400023994654E653
S1134E1001F0ECF9203041E603005246283B9A4069
S1134E200021934677E6504601F0E0F920305EE633
S1134E30029B0026AB4200D323E7039E0299B446AB
S1134E4061448846B045B6415B467642F619B218CD
S1134E50013B0291974213D290424FD800D18EE089
S1134E60161A9B460DE7894500D28EE674084B4618
S1134E70F60735005B081D434B46DB0702938BE6C0
S1134E809742EDD10399029CA142E5D93E1A9B4673
S1134E90F7E69846CAE61E00A5E6AC423ED874D0B2
S1134EA0110053E70121494252E71C000EE71E009E
S1134EB02BE71F2D3CDC20230A0058465B1B98403F
S1134EC0EA4099400243481E81415E461143EE4048
S1134ED04B0709D00F230B40042B05D00B00191DE1
S1134EE099429B415B42F61833023CD5534601225A
S1134EF000211A40002601238946AFE502235B42C4
S1134F009C46039CE344A446029B63449846A04504
S1134F10B6417642F6190293B218B1E603988A1E96
S1134F2041008142B6417642F619AD19039161E719
S1134F301F225242D31A5A46DA401300202D29D098
S1134F4040225846551BA8400143481E8141072072
S1134F500B4318400026002809D00F2200261A40CF
S1134F601900042ABBD10B0070077602360BDB084C
S1134F7003439946012253461A4000236EE50299E1
S1134F808D42BBD89B4600267BE603989842C5D346
S1134F90110032E70020D7E780265B4636031E4324
S1134FA03603360B009A8946034B57E5FF0300008E
S1134FB0FFFFFFFEFE070000FF070000F0B55F469D
S1134FC056464D464446F0B41F035C00DB0F9A4638
S1134FD0194B0E034D00C90F8046360B6D0D8B46E1
S1134FE091463F0B640D9D4219D0134B9C421BD03C
S1134FF00123A54206D018003CBC90469946A2461F
S1135000AB46F0BDBE42F6D1C845F4D1D34510D06D
S1135010002DF0D1304303005A1E9341EBE73100D9
S113502001230143E7D1E0E73A430123002AE2D117
S1135030DEE70023DFE7C046FF070000F0B55F4668
S1135040444656464D46F0B41F033C0B2C4F0E030A
S11350504D00A3465C008446360B6D0DC90F904687
S1135060640DDB0FBD422BD0254FBC422ED0002D4A
S11350700ED130430700814678427841002C17D185
S11350805F463A4314D14B460020002B0AD006E079
S1135090002C02D15846024301D099421AD0012370
S11350A0484218433CBC90469946A246AB46F0BDE4
S11350B00028F2D058425841012240421043F1E7FF
S11350C037000743D0D002204042EBE75F46174346
S11350D0CDD0F8E7A542E2DC05DB5E45DFD808D099
S11350E000205E45DED24842484101234042184335
S11350F0D8E7C445D3D80020C445F4D3D2E7C0468A
S1135100FF070000F0B55F464D4644465646F0B4EE
S11351101C03240BA4462F4C0F034D005E00C90F43
S113512080463F0B6D0D8B469146760DDB0FA542F5
S113513020D0284CA64222D0002D12D1384344421C
S11351404441002E20D0002C0DD05C426341012448
S11351505B421C4320003CBC90469946A246AB46A9
S1135160F0BD002E17D05B4519D05B465C4201238D
S11351701C43EFE7390002240143EBD1D9E7614630
S113518002241143E6D1D7E761460A43DBD1002468
S11351900028DFD0E9E761460A43E4D1E5E7B542F8
S11351A003DD01225C421443D4E7B542CDDB6745FD
S11351B0DBD809D000246745CCD259464C42614122
S11351C0012449420C43C5E7C845CED80024C8454C
S11351D0F3D3BFE7FF070000F0B55F4656464D46E0
S11351E04446F0B40D0399464E002B0B87B00700DC
S11351F0924680469B46760DCC0F002E69D06D4BAF
S11352009E4235D05B468022DD001204430F1343D7
S11352102B439B46C3009846674B00279C460023BC
S1135220664401934A4615035000D20F53462D0B92
S1135230400D914600D176E05E4A90426CD08022C7
S11352405B0F120413435C4AED0094461D4353461E
S11352500022DB00604449463618701C614002900D
S113526017430F2F00D9AFE05448BF00C759BF46BA
S11352705B461F4300D088E000239B4698460233D8
S113528008270193CEE74946022A6AD0032A00D1AF
S113529009E2012A00D0BBE11140002200230025CD
S11352A09046CCB200212D030A0D12052D0B154397
S11352B0434A1B0515401D436D00E4076D08254353
S11352C04046290007B03CBC90469946A246AB46EE
S11352D0F0BD034352D05B46002B00D18AE158460F
S11352E000F084FF03000B3B1C2B00DD7BE11D223F
S11352F0D31A3A0001005D46DA4008398D401300A4
S11353008F402B439B46B8462E4B00279C460023D8
S113531060444642019385E752462A432CD1002536
S11353200023022297E752462A4321D0002D00D1C0
S113533054E1280000F05AFF03000B3B1C2B00DD56
S113534046E11D21CB1A51460200D9405346083A82
S1135350954093400D431B4A9446604440420022CA
S113536079E7012400220C40124B0025904699E76E
S11353700025002301226EE703226CE700239B46ED
S113538098460133042701934CE703230C27019328
S113539048E700238025984600242D03054B81E728
S11353A05D464346019A6FE75D4643462100019AF4
S11353B06AE7C046FF07000001FCFFFF68640000C5
S11353C0FFFF0F80F30300004246120C91461A0CB3
S11353D09446424617044A461B041B0C5A43604633
S11353E090464A4642431000039262461C003F0C1A
S11353F07A437C4342440192220C9246019A5244DD
S1135400904506D98246802040028046C2445046D8
S11354100390100C049048462404240C120412191E
S113542005922A0C2D042D0C68432C008246484614
S11354307C4350438146200C80465743574447449D
S1135440BA4503D9802040028046C144380C3F0449
S1135450B84648442404240C01900498A0444044D1
S113546004905846000C814658460404200C824699
S1135470070048465F434C464343604660436446E6
S1135480834650464443380C8446E4186444A3429B
S113549003D980235B029C46E34448463F04230C23
S11354A03F0C2404E419574668436F4384464D4631
S11354B0504655434243380C814662444A445B4457
S11354C0944503D9802040028446654403983F04F0
S11354D0834604983F0C8446E344C34580414042DC
S11354E08246100484460198674484466744A34472
S11354F0BC46A345A4419946D44464428742BF4173
S1135500D4458041E144A04699459B417F424042B5
S1135510C8440743120CBA18A045A4415F423B009B
S113552064422343D71843467D19DB0D6D021D43A6
S11355305B465A02059B1A43531E9A415B46DB0D98
S11355401A4343465B021343EA0107D501225C0870
S113555013402343EA07029E13436D08574AB218C7
S1135560002A4BDD580709D00F201840042805D025
S1135570181D98429B415B42ED180300E80104D5D5
S11355804F4A15408022D200B2184E48824200DDB4
S1135590E7E60124DB08680718436D0253058046DB
S11355A02D0B5B0D0C407DE68022594612031142FF
S11355B008D0154206D115432D0398462D0B4C46B1
S11355C0414B6FE65D4615432D032D0B3E4B69E6BB
S11355D003005546283B9D400023BCE6504600F09E
S11355E005FE2030A8E60300283B9F400023BB466D
S11355F0984689E600F0FAFD203073E60124A61AE5
S1135600382E07DD00220C4000230025904649E691
S1135610029EA3E71F2E20DC20222C001800921BE0
S1135620F040944093400443581E83411C43F5408A
S1135630630709D00F232340042B05D023001C1D2E
S11356409C4292415242AD182B021FD501240022E4
S11356500C4001230025904624E61F202C004042E4
S1135660821AD440202E1CD04022961BB5402B43D6
S1135670581E83410720234318400025002809D0E1
S11356800F2200251A401C00042AD8D123006807E1
S11356906D022D0B0124DB08034398460C400023C4
S11356A000E60025E3E780220124120315432D03BD
S11356B098462D0B0C40044BF4E5C046FF03000054
S11356C0FFFFFFFEFE070000FF070000F0B557468E
S11356D04E464546E0B40E001100F20F9246C50056
S11356E0420F180337037400400A4E0F7F0A3043F9
S11356F0CF4E17435A00640D520DDB0FC900B2425E
S113570000D1E5E001267340A61AB446534500D102
S1135710AFE0002E00DC0DE1002A3AD103000B4378
S113572000D0E4E06B0709D00F232B40042B05D0F5
S11357302B1DAB42AD416D427F191D003B0200D4CD
S113574088E0BB4B01349C4200D110E13A00B94BD4
S113575051461A4001235007ED08520264050543DF
S1135760120B640D0B400021280012030D0D120BC7
S113577064052D0515436208AF4CDB072C40144328
S1135780640064081C4321001CBC90469946A24650
S1135790F0BDA74B9C42C5D080231B04184363462D
S11357A0382B00DDFDE01F2B00DD30E162462023B5
S11357B09B1A02009A40664690460A009940F240BD
S11357C046464B1E99413243114363460200DA4078
S11357D0691A8D429B410D00BA1A5B42D71A3B02EB
S11357E035D57A02530A98464346002B00D1C4E0CB
S11357F0404600F0FBFC0300083B1F2B00DDC5E026
S113580020222900D21A4746D1409F400A009D40D9
S11358103A439C4200DDC0E01C1B631C1F2B00DDCF
S1135820E4E0202114002800C91AD8408C408D409F
S11358300443DA40681E854117002543002471E7BC
S1135840424663461A4300D14CE2674645466B071D
S113585000D069E7012351467807ED08FA080B40A8
S1135860054373498C4238D012036405120B640D4E
S113587079E7002E00DC9AE0002A47D06C4A944273
S113588000D14FE78022120410436246382A00DC1C
S113589008E10143481E81410022C9B24919D219C5
S11358A0A942BF410D007F42BF183A0200D442E131
S11358B05F4A0134944200D14EE101205D4A6908F7
S11358C03A4028400843D507054357089A4629E734
S11358D006000E4300D017E714E72900114300D156
S11358E0F9E1802109030A431203120B3BE7012368
S11358F05B429846C4446346002B72D1691A8D42B8
S11359009B413F1A5B42FF1A0D0068E702000A43FD
S113591000D107E7012252429046C4446246002A5D
S113592000D0E6E06918A942B6413F187642F7195B
S11359300D00BAE7002E00D080E0621C5205520D23
S1135940012A00DCF9E06A1A91464D45B6413A1A3B
S11359507642921B9046120200D499E04D1BA94254
S11359608941C71B49427A1A90469A463CE75246F7
S11359700123002513400022F5E6280000F036FC40
S113598020300300083B1F2B00DC39E72A002838AD
S1135990824000259C4200DC3EE7264FE41A174073
S11359A0C0E60143481E81410022C9B210E7002E1F
S11359B000D0F1E0621C94465205520D012A00DC2D
S11359C0A0E01B4A944500D1C5E06918A942924160
S11359D03F185242D2194908D5070D435708644667
S11359E0A0E6134B9C4200D0D9E69BE611001F3C75
S11359F0E1400C00202B00D180E04021CB1A9A40DA
S1135A0015436A1E95410027254300241FE763467A
S1135A100200203BDA406346202B71D040236646C7
S1135A209B1B98400143481E814111430022CFE64D
S1135A30FF070000FFFF7FFFFFFF0F80002C48D00F
S1135A40CA4CA24200D1A2E07442A146802424049C
S1135A5027434C46382C00DDDBE01F2C00DD44E1FD
S1135A604E462024A41B3E00A640A246B0464C4607
S1135A702E00E640B4464646644626435446A540B6
S1135A806C1EA54134002C434D46EF400D1B28E00D
S1135A904A4643464D461A4300D0A5E60023002457
S1135AA00025DEE61F2A5ADC66462022921B0600E9
S1135AB096409146B04662460E00D6404246164392
S1135AC04A4691404A1E9141020060463143C24019
S1135AD0E4E63C002C435AD0F443A146002C52D1B6
S1135AE04D1BA9428941C71B49427F1A14009A469B
S1135AF075E69E4A944200D0C7E613E600227FE78B
S1135B0000208FE7002C00D0C8E03B002B4300D1DD
S1135B100FE103000B4300D104E66918A9429B413D
S1135B203F185B42DF193B0200D41AE1904B0D0091
S1135B301F406446F6E59A4689E63A002A43002C5B
S1135B405CD1002A75D102000A4300D1CAE00700E3
S1135B500D009A46E6E564460022002581E6624689
S1135B600600203AD6406246B046202A00D1B7E06B
S1135B7040226646921B904001434246481E8141A2
S1135B80114300228AE6794CA24200D061E7070063
S1135B900D0014009A46C5E5002C41D13C002C436D
S1135BA078D0F443A146002C20D0704CA24271D08E
S1135BB04C46382C00DDB2E01F2C00DDBCE0202672
S1135BC0341BA2463C005646B4404E46A0462C0028
S1135BD0F440A446444666463443A4465446A5408D
S1135BE064466E1EB54125434C46E7406D188D4210
S1135BF089413F184942CF19140056E6002A2FD193
S1135C0002000A4300D184E007000D009A46574C75
S1135C1088E53D436F1EBD41ECB200270D1B60E7D4
S1135C20524CA24236D0744280263604A1463743F1
S1135C30BEE702000A4300D174E56A1A904645455E
S1135C40B6413A1A7642921B9446120200D4F7E502
S1135C504D1BA9428941C71B49427F1A9A4661E5F7
S1135C6002000A433AD0ED087C072C438025FA0849
S1135C702D032A4208D0C7082F4205D145072C001E
S1135C803A009A46C9080C43670FD200E50017434F
S1135C90364C47E507000D00140043E53A002A435B
S1135CA043D002000A4319D0ED087C072C43802519
S1135CB0FA082D032A4207D0C6082E4204D147070A
S1135CC03C003200C9080C43D700620FE5001743BB
S1135CD09A46264C26E50022002544E5234C21E57E
S1135CE0002049E700230025BBE54C463E00203C4C
