S015000050617261626565702056302E322E73726563E9
S113000028C10020650600006106000061060000AA
S113001061060000610600006106000000000000A7
S11300200000000000000000000000006106000065
S11300306106000000000000610600006106000087
S11300406106000061060000610600006106000010
S11300506106000061060000610600006106000000
S11300606106000061060000610600000D06000044
S113007061060000610600006106000061060000E0
S113008061060000610600006106000061060000D0
S113009061060000610600006106000061060000C0
S11300A061060000610600006106000061060000B0
S11300B061060000610600006106000061060000A0
S11300C06106000061060000610600006106000090
S11300D06106000061060000610600006106000080
S11300E0610600006106000000000000000000003E
S11300F000000000610600006106000061060000C7
S1130100610600006106000061060000610600004F
S1130110610600006106000061060000610600003F
S1130120610600006106000061060000610600002F
S1130130610600006106000061060000610600001F
S1130140610600006106000061060000610600000F
S113015061060000610600000000000000000000CD
S1130160000000000000000000000000000000008B
S1130170000000000000000000000000000000007B
S113018061060000610600006106000061060000CF
S11301900000000061060000610600006106000026
S11301A061060000610600006106000061060000AF
S11301B0610600006106000061060000610600009F
S11301C0610600006106000061060000610600008F
S11301D0610600006106000061060000610600007F
S11301E061060000610600006106000011050000C0
S11301F0610600002505000061060000610600009C
S1130200610600000000000000000000610600001C
S1130210610600006106000061060000610600003E
S1130220610600006106000061060000610600002E
S1130230610600006106000061060000610600001E
S1130240610600006106000061060000610600000E
S113025061060000610600006106000061060000FE
S11302600000000010B5054C237833B9044B13B1DA
S11302700448AFF300800123237010BD6800002000
S113028000000000A43C00000C4B43B10C480D4995
S113029010B5AFF300800C48036823B910BD0A48B9
S11302A0036833B97047094B002BF7D0BDE8104001
S11302B01847064B002BF5D0184700BF000000007C
S11302C0A43C00006C000020A43C000000000000DE
S11302D0F8B50F46074C4FF40065656101460020F0
S11302E0054EB0470120054B984739460020B047DA
S11302F0A561F8BD0080004165100000850500007F
S1130300F8B5124E4FF400677761F2210020104BCC
S1130310984700200F4DA8470F4C84F85000002048
S1130320A84784F851000020A84784F85200002010
S1130330A84784F853000020A84784F854000020FC
S1130340A84784F85500B761F8BD00BF008000419C
S1130350651000001D110000B80000207047000067
S113036030B4FF2A1DD80025044601F00F0141EAEC
S113037002422A4342F410620830104941F8202016
S11303803BB10E4B5B68C3F38B03234113F0010FA6
S1130390F7D130BC7047A2B2013A92B24FF4805503
S11303A0E2E70F24002C06DD42FA04F515F0010FF4
S11303B0F1D1013CF6E74FF48055D5E7001C00402D
S11303C000F00F0040F040002031044B43F82100BE
S11303D0024B5B68002BFBD1704700BF001C004040
S11303E0044BDA696FF38202DA61DA6942F00202DD
S11303F0DA6170470014004010B50123014CA04796
S113040010BD00BF6103000008B520220421084686
S1130410124B984709210420114B9847114A5369FC
S113042043F48043536101220F4B1A600E4B1B6946
S113043013F0010FFAD10C4A062313600B4B1B78FF
S1130440DBB282F82F30084B1B6913F0020FFAD18C
S11304504FF40062064BDA6008BD00BFF9030000E8
S1130460C1030000000800400038004000000020E4
S113047000E100E00122014B5A727047003800404D
S113048008B5202206210320124B98471A21032085
S1130490114B9847114A936943F400539361012225
S11304A00F4B1A600E4B1B6913F0010FFAD10C4A63
S11304B040F2062313600B4B5B78DBB282F82F30DB
S11304C0074B1B6913F0020FFAD14FF40052064B8D
S11304D0DA6008BDF9030000C10300000008004011
S11304E000A001410000002000E100E00122014BD6
S11304F05A72704700A001410122044B1A724FF452
S11305008002A3F59033C3F89420704700A0014102
S11305100123024A9372024A137270470038004062
S1130520B80000200122044B9A724FF48002A3F514
S11305309033C3F89C20704700A001410022044B73
S113054083F823200522A3F54F631A60704700BF88
S113055000ED00E003E00021094B19601046421E43
S113056068B1074B4BF68031596000219960012135
S11305701960034B1B6813F4803FFAD0EBE7704714
S113058010E000E003E00021094B19601046421E10
S113059060B1074B30215960002199600121196035
S11305A0034B1B6813F4803FFAD0ECE7704700BF9D
S11305B010E000E00122124B1A80114B1B6913F06A
S11305C0010FFAD101220F4B1A7403F580534FF433
S11305D000425A8148F204621A8040F2E6329A8359
S11305E01A8892B242F002021A80054B1B6913F07A
S11305F0020FFAD14FF40062034B1A60704700BF38
S1130600002400400014004000E100E04FF40042E8
S1130610034B9A81034A136803F57A731360704796
S11306200024004084000020EFF3108272B60A4BCD
S1130630188B0A49096811FA80F09B8913F4004F5A
S113064007D0054B188B054B1B6813FA80F000F597
S11306507A7082F3108870470024004084000020E0
S1130660FEE7000008B5104B104A9A4209D00E4B21
S11306700E4A03E011681960043304320C498B42BA
S1130680F8D30C4B02E000221A6004330A4A934266
S1130690F9D30A4A0A4B23F07F039360094B984726
S11306A0094B9847FEE700BF00000020A43C00006F
S11306B068000020680000202401002000ED00E014
S11306C0000000005D320000CD06000038B5164B76
S11306D09847164B98474FF48042154B9A61154B37
S11306E098470546144B9847144B984703E0631BFF
S11306F0B3F5FA7F0ED80F4B98470446104B984732
S1130700104B1B7A002BF2D000220E4B1A720E4BA8
S11307109847ECE70D4B98474FF48032044BC3F8ED
S11307209C202546E7E700BF7D13000075160000F6
S11307300080004129060000150A0000510A00004B
S11307405D030000B8000020B50C0000B90A0000E9
S11307502DE9F0410B4E80277761002108460A4BB2
S113076098470020094DA84780460020A847044622
S11307700020A847B761240244EA08442043BDE8A6
S1130780F08100BF00800041651000001D110000D1
S11307902DE9F04F89B00193334CB4F802E0A388FB
S11307A0B4F806C026896589B4F80C80A1EB05214C
S11307B00791079C4FEAE47B1FFA88F8A8FB0445DD
S11307C008FB0B55E10D41EA452101F5FA61116081
S11307D09AB2150C1404079A4FEAE279B6B2A6FB52
S11307E0022306FB0933D60946EA4366DF11A4193E
S11307F07D41CDE9044500254FEACE34079AD71749
S11308001FFA8CF8A8FB022308FB0733160A46EAF2
S113081003661F12A4197D41CDE90245DDE90223D7
S1130820A0FB024500FB0355620D42EAC5226B158D
S1130830DDE90401121A63EB0103D00B40EA4340E3
S1130840D9130A4B984706A3D3E90023084CA047C1
S1130850019BC3E9000109B0BDE8F08FAFF300804C
S11308607B14AE47E17A843FA4000020A92B00004A
S1130870052C00000000000070B5154CA047154E73
S1130880B047154D0CA3D3E90023A847A047B047B0
S11308900BA3D3E90023114EB04702460B460020B8
S11308A00F49104EB04708A3D3E90023A847A04737
S11308B070BD00BFAFF300800886DEC9742B503FC3
S11308C0000000E0395BC83F9A999999B3BE014191
S11308D0653100005D2B0000052C00004917000065
S11308E00000F03F9D2800002DE9F843012426E094
S11308F004F150056D00EDB2134F4FF08008C7F8B6
S113090014804FF41670114EB04729460020104B46
S113091098474FF41670B04700200E4DA847814603
S11309200020A8470546C7F818804FF41670B04752
S113093045EA0925084B23F814500134E4B2062C87
S1130940D6D9BDE8F88300BF0080004185050000CA
S1130950651000001D110000A400002038B5074CEC
S1130960802565611E210020054B9847A5614FF441
S11309709670044B9847044B984738BD008000415B
S11309806510000055050000E908000010B4184B7C
S1130990DC8904F47F42DA810023184614E042081B
S11309A0134931F8122083EA122318E05B00DBB20A
S11309B0013AD2B232B103F400410029F6D05B000F
S11309C0DBB2F5E70130C0B20F280AD810F0010FEE
S11309D0E5D04208064931F812205340DBB2082220
S11309E0E8E7E4B2024BDC81002010BC704700BF92
S11309F0A400002010B524210220054CA047242186
S1130A000220A04724210220A047012010BD00BFDE
S1130A108912000010B50024FF2C0FD00A4B1B7E56
S1130A2013F0040FFAD00220084B98471CB1252874
S1130A3006D00D2806D00134E4B2EDE7002010BD45
S1130A40012010BD012010BD002001411113000040
S1130A5010B584B0144B98479620144B9847144B08
S1130A6093E8070004AB03E90700002408E004ABA3
S1130A70234413F80C1C02200E4B98470134E4B2B3
S1130A800A2CF4D90D2102200A4CA0470A20074B56
S1130A9098472D210220A0472D210220A0472D2177
S1130AA00220A04704B010BDF50900005505000060
S1130AB00C3C00008912000070B59CB0234B9E6969
S1130AC0D869234B98470546224B03AC93E80300AF
S1130AD084E803005C22002105A81F4B9847009678
S1130AE02B4622461D4920461D4CA04700252C4676
S1130AF000E0013403A81B4B9847A04209D91CAB62
S1130B00234413F8643C2A2B03D0242BF1D05D40FA
S1130B10EFE72B4603AA14491046114CA04703A83B
S1130B20104B9847C5B2002408E01CAB234413F8CB
S1130B30641C02200D4B98470134E4B2AC42F4D358
S1130B400D210220094B98471CB070BDB80000204D
S1130B5005320000A83B0000A5320000183C00004C
S1130B60B5320000FD320000343C00008912000060
S1130B702DE9F8430E4C8025656158210020DFF8EB
S1130B803C90C847A56142F25030DFF83480C0473A
S1130B90084FB847084E3060656148210020C847B7
S1130BA0A56142F25030C047B8477060BDE8F88391
S1130BB00080004151070000B800002065100000CB
S1130BC08505000000000000F8B5314B93F8513062
S1130BD013F0800F40D12E4991F8502002EB0323EB
S1130BE0A1F856302A4B93F8533013F0800F3BD1C1
S1130BF0274991F8522042EA0323A1F85830244BA4
S1130C0093F8552012F0800F36D1214991F85430D1
S1130C1043EA0223A1F85A301D4C1E4FB4F9560082
S1130C20B8471D4E18A3D3E90023B0471B4DA8476E
S1130C30E065B4F95800B84713A3D3E90023B047DB
S1130C40A8472066B4F95A00B8470FA3D3E9002394
S1130C50B047A8476066F8BD0D4991F8502042EAB4
S1130C600323A1F85630BDE7094991F8522042EA1E
S1130C700323A1F85830C2E7194693F8543043EAE5
S1130C800223A1F85A30C7E7DE718A8EE4F26F3F7F
S1130C90B8000020392B0000052C0000653100004D
S1130CA008B5024B9847024B984708BD0103000062
S1130CB0C90B000038B5114B9847114B984711499F
S1130CC0A1F110040B4601F1080251F8101C6068F0
S1130CD00D4DA847D4E904010C4B9847E0610C4B37
S1130CE09847E36AA3620B4B9847E062A36AC01A71
S1130CF02063E3680133E36038BD00BF710B00007B
S1130D00A10C0000C8000020910700007908000031
S1130D1001030000290600002DE9F04704460C22D7
S1130D20062101205E4B9847072101205D4B98471F
S1130D305D4A536943F48053536164B1012C10D06C
S1130D40022C11D0032C12D0042C13D0052C04D166
S1130D50DFF85CA101E0DFF854A10123CAF80030F8
S1130D6010E0DFF850A1F8E7DFF84CA1F5E7DFF871
S1130D704CA1F2E74FF0864AEFE74C4E336813F08C
S1130D80010F16D0002CF8D0012C09D0022C09D068
S1130D90032C09D0042C09D0052CEFD1444EEDE7E7
S1130DA0444EEBE7444EE9E7444EE7E74FF086460E
S1130DB0E4E764B1012C1ED0022C1FD0032C20D0F8
S1130DC0042C21D0052C04D1DFF8E49001E0DFF8F5
S1130DD0DC904FF40033C9F80430C4B1012C28D09E
S1130DE0022C29D0032C2AD0042C2BD0052C10D172
S1130DF0DFF8BC800DE0DFF8BC90EAE7DFF8B890DC
S1130E00E7E7DFF8B890E4E74FF08649E1E7DFF879
S1130E109C80052388F80C30BCB1012C19D0022C1D
S1130E2019D0032C19D0042C19D09C420ED1204F78
S1130E300CE0DFF88080ECE7DFF87C80E9E7DFF89E
S1130E407C80E6E74FF08648E3E7184F1C4B3B6095
S1130E500DE0184FFAE7184FF8E7184FF6E74FF090
S1130E608647F3E7114DEB6913F0040F16D0002CFD
S1130E70F8D0012C09D0022C09D0032C09D0042C61
S1130E8009D0052CEFD10A4DEDE70A4DEBE70A4DE9
S1130E90E9E70A4DE7E74FF08645E4E7BDE8F08768
S1130EA0F9030000C10300000008004000300040C6
S1130EB0000400430034004000200141004001418F
S1130EC00E0020302DE9F0470446232101205D4B1C
S1130ED098475D4A136A43F00203136264B1012C1C
S1130EE010D0022C11D0032C12D0042C13D0052CBA
S1130EF004D1DFF85CA101E0DFF850A10123CAF8B6
S1130F00003010E0DFF84CA1F8E7DFF84CA1F5E77A
S1130F10DFF848A1F2E74FF0864AEFE74B4E33681B
S1130F2013F0010F16D0002CF8D0012C09D0022C9C
S1130F3009D0032C09D0042C09D0052CEFD1444E40
S1130F40EDE7444EEBE7444EE9E7444EE7E74FF064
S1130F508646E4E764B1012C1ED0022C1FD0032C7A
S1130F6020D0042C21D0052C04D1DFF8E49001E03A
S1130F70DFF8D8904FF40033C9F80430C4B1012C21
S1130F8028D0022C29D0032C2AD0042C2BD0052CB9
S1130F9010D1DFF8BC800DE0DFF8B890EAE7DFF8A5
S1130FA0B890E7E7DFF8B490E4E74FF08649E1E76B
S1130FB0DFF89880052388F80C30BCB1012C19D0D7
S1130FC0022C19D0032C19D0042C19D09C420ED118
S1130FD01F4F0CE0DFF87C80ECE7DFF87C80E9E76A
S1130FE0DFF87880E6E74FF08648E3E7174F1C4BBD
S1130FF03B600DE0174FFAE7174FF8E7174FF6E796
S11310004FF08647F3E7114DEB6913F0040F16D048
S1131010002CF8D0012C09D0022C09D0032C09D0C3
S1131020042C09D0052CEFD1094DEDE7094DEBE770
S1131030094DE9E7094DE7E74FF08645E4E7BDE8E8
S1131040F08700BFC10300000008004000300040EA
S113105000040043003400400020014100400141ED
S11310600E00300030B4034658B101280CD00228D9
S11310700CD003280CD004280CD0052802D1224A15
S113108000E0224A91620DE0214AFBE7214AF9E798
S1131090214AF7E74FF08642F4E71C4C227E12F017
S11310A0040F16D1002BF8D0012B09D0022B09D044
S11310B0032B09D0042B09D0052BEFD1124CEDE7FB
S11310C0134CEBE7134CE9E7134CE7E74FF0864486
S11310D0E4E75BB1012B0DD0022B0DD0032B0DD017
S11310E0042B0DD0052B02D1074D00E0074DAB6A50
S11310F030BC7047064DFAE7064DF8E7064DF6E7B3
S11311004FF08645F3E700BF000400430030004081
S113111000340040002001410040014130B4034646
S113112058B101280DD002280DD003280DD0042871
S11311300DD0052802D1234C00E0234CFF22A262EB
S11311400DE0224CFAE7224CF8E7224CF6E74FF088
S11311508644F3E71C490A7E12F0040F16D1002BD3
S1131160F8D0012B09D0022B09D0032B09D0042B72
S113117009D0052BEFD11349EDE71449EBE71449E6
S1131180E9E71449E7E74FF08641E4E75BB1012B57
S11311900ED0022B0ED0032B0ED0042B0ED0052B19
S11311A002D1084D00E0084DA86AC0B230BC7047B7
S11311B0064DF9E7064DF7E7064DF5E74FF086458E
S11311C0F2E700BF00040043003000400034004058
S11311D0002001410040014108B5012206210220FE
S11311E00E4B9847172102200D4B98470D4A9369DF
S11311F043F40073936101220B4B1A600A4B1B6882
S113120013F0010FFAD1084B4FF22A629A81074A70
S11312101A604FF440325A6008BD00BFF903000061
S1131220C1030000000800400020014106001040F6
S113123008B50122062102200E4B984718210220EE
S11312400D4B98470D4A936943F4806393610122DF
S11312500B4B1A600A4B1B6813F0010FFAD1084BB1
S11312604FF22A629A81074A1A604FF440325A6058
S113127008BD00BFF9030000C103000000080040DE
S1131280004001410600104010B4034658B1012843
S11312900CD002280CD003280CD004280CD005282C
S11312A002D1164A00E0164A91620DE0154AFBE7A6
S11312B0154AF9E7154AF7E74FF08642F4E7104C70
S11312C0227E12F0020F16D1002BF8D0012B09D088
S11312D0022B09D0032B09D0042B09D0052BEFD105
S11312E0064CEDE7074CEBE7074CE9E7074CE7E76B
S11312F04FF08644E4E710BC704700BF000400438D
S11313000030004000340040002001410040014111
S113131058B101280DD002280DD003280DD004287F
S11313200DD0052802D1074A00E0074A906AC0B2EE
S11313307047064AFAE7064AF8E7064AF6E74FF026
S11313408642F3E7000400430030004000340040CC
S113135000200141004001410346064A126822B1BF
S1131360044A10680344136070470349014A11603A
S1131370F6E700BF8800002028C10020F8B5B14B73
S11313809847B14B9847B14B9847B14B9847B14BED
S113139098470020B04B98470520B04B9847B04B76
S11313A09847B04B9847B04B93F8D6206FF30002A0
S11313B083F8D6204FF48004C3F8884093F8D720EC
S11313C06FF3000283F8D7204FF40000C3F88800BD
S11313D093F8CC206FF3000283F8CC204FF48056AE
S11313E0C3F88860C3F8986093F8D0206FF30002C4
S11313F083F8D0204FF48032C3F8882093F8482033
S11314006FF3000283F848204FF480729A6093F8D7
S11314103410022262F3030183F8341093F8481065
S113142041F0010183F8481093F849106FF300016B
S113143083F849104FF40071996093F8341062F303
S1131440071183F8341093F8491041F0010183F82F
S1131450491093F84B106FF3000183F84B104FF4CD
S113146000619960996193F847106FF3000183F864
S1131470471080219960996193F84A106FF3000135
S113148083F84A1093F84A10114383F84A104FF432
S11314908061596093F8351062F3030183F83510C5
S11314A093F84A1041F0010183F84A1093F8C210EE
S11314B06FF3000183F8C2100421C3F8881093F875
S11314C0B110032767F3030183F8B11093F8C21036
S11314D041F0010183F8C21093F8C3106FF30001C7
S11314E083F8C3100825C3F8885093F8B11067F344
S11314F0071183F8B11093F8C31041F0010183F888
S1131500C31093F8C0106FF3000183F8C0100121D9
S1131510C3F88810C3F8981093F8C1106FF3000152
S113152083F8C11093F8C110114383F8C110C3F8B4
S1131530842093F8B01067F3071183F8B01093F880
S1131540C11041F0010183F8C11093F84C106FF3FE
S1131550000183F84C109E6093F8361062F3030187
S113156083F8361093F84C1041F0010183F84C10C5
S113157093F84D106FF3000183F84D1093F84D105C
S1131580114383F84D104FF40051596093F836100D
S113159062F3071183F8361093F84D1041F00101FE
S11315A083F84D1093F856106FF3000183F856102A
S11315B09C6093F83B1062F3030183F83B1093F8AB
S11315C0561041F0010183F8561093F857106FF349
S11315D0000183F8571093F85710114383F85710FC
S11315E0586093F83B1062F3071183F83B1093F8AB
S11315F0572042F0010283F8572093F84E206FF3EE
S1131600000283F84E204FF48041996093F84F20F4
S11316106FF3000283F84F204FF400429A609A61FE
S11316205961124B984700212D20114CA0470021ED
S11316303120A04700213820A04729462D20A0476B
S1131640F8BD00BFE10300003D050000B505000042
S11316508104000009040000190D0000C50E0000FB
S113166031120000D9110000008000415D09000022
S1131670D1020000F0B583B02A4B984780B22A4BC0
S1131680DB89984242D00124284E0127C6F8947081
S11316909F210520264B98470520264DA8478DF805
S11316A007000520A8478DF806000520A8478DF8F7
S11316B00500C6F898709DF80730DBB29DF8062047
S11316C0D2B21F2B18BF862A14BF012300239DF812
S11316D00520D2B2BA420CBF002303F0010303B9C0
S11316E02346ABB1144EB0474FF47A70134CA04765
S11316F0134DA8474FF47A70A047B0474FF47A705F
S1131700A047A8470F4B984703B0F0BD0024BBE7A0
S1131710094B98474FF47A70084B9847084B984701
S1131720F0E700BF8D090000A40000200080004104
S1131730651000001D110000ED04000055050000B7
S1131740F9040000750400002DE9F04FDFF8F09271
S11317508DB006460F4614461D4600F075F999F9FA
S11317600080B8F1FF3FCDE9000136D022462B4678
S11317702046294601F0E0FC834670BB32463B46D6
S11317803046394601F0D8FC002282460023002866
S113179040F0A0803046394601F09CFC10B3002292
S11317A000232046294601F095FC834600286AD090
S11317B001229C4B029200210022CDF828A0CDE901
S11317C00467CDE90645CDE908120393B8F1000F8B
S11317D045D0954C0023CDE90034DDE900010DB07E
S11317E0BDE8F08FDDE9000100F034FF80460028F9
S11317F000F08B804FF0000A4FF0000B52465B461E
S1131800DDE9000101F066FC0028E6D030463946E7
S113181000F020FF0028E0D02046294600F01AFFFF
S11318200028DAD099F900307E4A0392042100227C
S1131830022BCDE90467CDE90645CDE908AB029159
S11318400A9203D002A800F00BFF68B901F000FD72
S11318502223036008E000230024CDE9083402A811
S113186000F0FEFE002830D00A9B1BB101F0F0FC12
S11318700A9B0360DDE90834CDE90034DDE90001A9
S11318800DB0BDE8F08F2046294600F0E3FE0028A5
S1131890A3D0002200232046294601F025FC00287D
S11318A09BD099F900305F4ACDF828B00121CDE9E9
S11318B00467CDE9064502910392002BCBD05B4926
S11318C00020022BCDE90801C9D101F0C1FC21237C
S11318D00360C9E72046294601F0FCFB00283FF4D9
S11318E07CAF514B4F49CDF828B001200022B8F10C
S11318F0020FCDE90467CDE9064502900391CDE9D5
S11319000823ACD1CDE9002367E73046394600F01F
S1131910A1FE00283FF46EAF2046294600F09AFE4F
S113192000283FF467AFDDE900231046194601F0B3
S113193003FC002858D1032399F900800293394B02
S11319400A900393CDE90467CDE9064500220023FC
S113195030463946B8F1000F26D1354F4FF0604676
S1131960CDE9086701F0C0FB00283FF46BAF00220B
S1131970304B2046294601F045F904460D4600F057
S113198077FE02460B462046294601F0A3FB40BBE6
S1131990294B99F900804FF06042CDE90823B8F152
S11319A0020F7FF44FAF51E7244F0026CDE90867BB
S11319B001F09AFB0028F2D000221E4B2046294653
S11319C001F020F904460D4600F052FE02460B4693
S11319D02046294601F07EFB18B9144B0022CDE9BC
S11319E0082399F90080DAE799F900900D4BCDF8B6
S11319F028800122CDE90467CDE9064502920393CC
S1131A00B9F1000F3FF427AF002200231046194616
S1131A1001F022FAB9F1020FCDE908013FF455AF04
S1131A201DE700BF3C3C00000000F03F0000F0FF59
S1131A30FFFFEF470000E03FFFFFEFC70000F07F2C
S1131A4002000020000000002DE9F04F23F00047C1
S1131A5057EA020493B037D0674C21F00046A642FF
S1131A6083460D4629DC9A46964625D0A74224DCB7
S1131A70614CA74279D0002D89468046CDE90023E8
S1131A8077DB0024BEF1000F2CD15B4B9F4200F0AA
S1131A908B805A4B9F4261D0BAF1804F00F0BA83D9
S1131AA0574B9A451ED1002D1CDB4046494613B0C6
S1131AB0BDE8F04F00F00EBD58B106F1404606F502
S1131AC0801656EA0B0306D14C49002013B0BDE83A
S1131AD0F08FB742CCDD4B4813B0BDE8F04F00F0B7
S1131AE0C1BD00244046494600F0B0FDBBF1000FE3
S1131AF019D126B1414B25F040429A4213D1BAF193
S1131B00000FC0F2BC83002DE0DA06F1404606F572
S1131B10801656EA040300F08F84012CD6D101F11B
S1131B2000431946D2E7ED0F013D54EA05034ED0B8
S1131B30354B9F426EDD03F104739F4240F3E8830B
S1131B40324B9E424EDDBAF1000F4EDD28A3D3E99D
S1131B5000231046194601F055F8B7E7BAF1000F13
S1131B60C0F23C8440464946B0E7BEF1000F82D043
S1131B70A3E7274B9F4228DCA3F154739F4280DDE7
S1131B803B15A3F2FF33142B40F33E84C3F134031B
S1131B902EFA03F202FA03F39E457FF472AF02F0C9
S1131BA00102C2F102046DE706F1404303F580131C
S1131BB053EA0B0388D0154B9E4240F33283BAF1AB
S1131BC0000F12DBDDE9000180E702245AE74246F8
S1131BD04B464046494600F061FE02460B4601F082
S1131BE03BF973E7BAF1000FB0DB002000216DE789
S1131BF09C7500883CE4377E0000F07F0000F03FD5
S1131C000000E03F303C00000000E041FFFFEF3FF8
S1131C10FFFF3F43B6F5801F4FF0000205DAD44BB7
S1131C2000F0F0FF6FF034020E463315D14FC6F3C7
S1131C301306A3F2FF33134446F07F5ABE421A46FA
S1131C400D934AF4401A40F32183CB4B9E4240F358
S1131C50FD83134601330D93C84B0022CDE90623BF
S1131C6000270026CDE90867CDE90E67AAF5801A9A
S1131C700027024653465146CDE90A23DDE90623EF
S1131C8000F00CFEDDE9062380468946DDE90A0101
S1131C9000F006FE02460B460020B84901F0DCF8CD
S1131CA00A460146CDE9101213464946024640460B
S1131CB000F0A8FF4FEA6A0343F000538C468346C2
S1131CC003F50023CDE904BCDA468B46D919002379
S1131CD0CDE902AB0293DDE902AB002006460F46D4
S1131CE002460B465046594600F08CFF02460B460E
S1131CF04046494600F0D2FDDDE906238046894688
S1131D003046394600F0CAFD02460B46DDE90A01B9
S1131D1000F0C4FD52465B4600F074FF02460B46D9
S1131D204046494600F0BAFDDDE9102300F06AFFA1
S1131D30DDE90467CDE9060132463B4630463946C3
S1131D4000F060FF78A3D3E9002306460F4600F0B5
S1131D5059FF77A3D3E9002300F0A2FD32463B46A6
S1131D6000F050FF74A3D3E9002300F099FD32463C
S1131D703B4600F047FF72A3D3E9002300F090FD37
S1131D8032463B4600F03EFF6FA3D3E9002300F048
S1131D9087FD32463B4600F035FF6DA3D3E90023AF
S1131DA000F07EFD3246804689463B463046394641
S1131DB000F028FF02460B464046494600F022FF49
S1131DC0524606460F465B46DDE9040100F068FD15
S1131DD0DDE9062300F016FF32463B4600F060FDC5
S1131DE05246804689465B465046594600F00AFFF3
S1131DF00022634BCDE90A0100F052FD42464B46F6
S1131E0000F04EFD02980F46064632463B465046C9
S1131E10594600F0F7FE002282468B46584B304666
S1131E20394600F03BFDDDE90A2300F037FD0246A8
S1131E300B464046494600F031FDDDE9042300F03D
S1131E40E1FE3246804689463B46DDE9060100F064
S1131E50D9FE02460B464046494600F021FD804625
S1131E60894602460B4650465946CDE904AB00F07C
S1131E7017FDDDE902AB38A3D3E9002350460F4632
S1131E8000F0C0FEDDE90423CDE9020139465046E5
S1131E9000F004FD02460B464046494600F0FEFCB5
S1131EA02FA3D3E9002300F0ADFE2FA3D3E9002331
S1131EB0804689465046394600F0A4FE02460B4649
S1131EC04046494600F0ECFCDDE90E2300F0E8FC56
S1131ED080460D98894600F02FFE424606460F467E
S1131EE04B46DDE9020100F0DBFCDDE9082300F0EC
S1131EF0D7FC32463B4600F0D3FC32463B465046C4
S1131F008B4600F0CBFCDDE9082300F0C7FCDDE9DB
S1131F10022300F0C3FC02460B464046494600F04B
S1131F20BDFC80462EE000BFEF4E454A287ECA3FE6
S1131F3065DBC9934A86CD3F01411DA96074D13F39
S1131F404D268F515555D53FFFAB6FDBB66DDB3F4B
S1131F50033333333333E33F000000E009C7EE3F7C
S1131F60FD033ADC09C7EE3FF5015B14E02F3EBEEA
S1131F70000040438E98030079B60B000000F03F48
S1131F80000008408946013C54EA0503DDE90001EC
S1131F9014BFD94CD94C0023CDE9043403460C4674
S1131FA0CDE9023400230293DDE9024522462B46A3
S1131FB000F074FC52465B4600F024FEDDE9002389
S1131FC006460F464046494600F01CFE02460B46B4
S1131FD03046394600F064FC2246804689462B464A
S1131FE050465946CDE9008900F00CFE0B460246E6
S1131FF006460F464046494600F052FCC04B994203
S113200004460D468A4640F3168101F13F4303F529
S1132010E003034340F0EA81A3A3D3E90023DDE90D
S1132020000100F03DFC3246804689463B4620468E
S1132030294600F033FC02460B464046494601F06F
S113204071F8002840F0D281A8464FEA28534FF493
S11320508012A3F2FE3342FA03F35344C3F30A5249
S1132060A84DA2F2FF321541C3F3130423EA05017C
S11320700020C2F1140B44F48014BAF1000F02469C
S11320800B4644FA0BFB30463946B8BFCBF1000B84
S113209000F004FC02460B4606460F46DDE900014B
S11320A000F0FEFB4FEA0B5A0D46002480A3D3E94F
S11320B000232046294600F0A5FD32468046894685
S11320C03B462046294600F0E9FB02460B46DDE983
S11320D0000100F0E3FB78A3D3E9002300F092FDB4
S11320E077A3D3E9002306460F462046294600F08D
S11320F089FD02460B463046394600F0D1FB0646C0
S11321000F4602460B464046494600F0C9FB42468C
S11321104B4604460D4600F0C1FB02460B463046D2
S1132120394600F0BBFB2246804689462B462046B2
S1132130294600F067FD64A3D3E9002306460F4651
S113214000F060FD62A3D3E9002300F0A7FB324650
S11321503B4600F057FD60A3D3E9002300F0A0FB49
S113216032463B4600F04EFD5DA3D3E9002300F068
S113217095FB32463B4600F045FD5BA3D3E90023C3
S113218000F08EFB32463B4600F03CFD02460B4617
S11321902046294600F082FB06460F4602460B46BF
S11321A02046294600F02EFD0022CDE900014FF023
S11321B080433046394600F071FB02460B46DDE9A8
S11321C0000100F049FE424606460F464B462046B3
S11321D0294600F017FD42464B4600F061FB0246DB
S11321E00B463046394600F059FB22462B4600F098
S11321F055FB02460B4600203F4900F04FFB8A4442
S1132200BAF5801FC0F233815146DDE9042300F0A2
S1132210F9FC5BE4424640464B46494600F0F2FC7A
S113222054E4BAF1000FBFF6E0ACDDE9003418461F
S113223004F100414AE4344B21F00048984540F34E
S1132240F280324B0B4403430CD132463B4600F040
S113225025FB02460B46DDE9000100F04FFF002894
S11322603FF4F3AEDDE9040121A3D3E9002300F038
S1132270C9FC1FA3D3E9002300F0C4FC26E40246F2
S11322800B4600201C4900F0E7FD3CE4002200233B
S1132290CDE90823CDE90E23174B00220027CDE911
S11322A00623E6E4AFF30080FE822B654715973CD6
S11322B000000000432EE63FEF39FAFE422EE63FCF
S11322C0396CA80C615C20BED0A4BE726937663E2E
S11322D0F16BD2C541BDBB3E2CDE25AF6A56113F22
S11322E093BDBE166CC1663F3E5555555555C53F09
S11322F059F3F8C21F6EA5010000F03F0000F0BFC3
S1132300FFFF8F40FFFF0F00FFCB904000346F3F73
S11323106B4B9E427FF766AC6A4B9E423FF713AC11
S11323200022684B00F0BAFA57A3D3E9002306460B
S11323300F4600F067FC56A3D3E900238046894684
S11323403046394600F05EFC002282468B465E4BE6
S11323503046394600F056FC02460B464EA1D1E900
S1132360000100F09BFA32463B4600F04BFC02466B
S11323700B460020554900F091FA3246CDE902019E
S11323803B463046394600F03DFC02460B46DDE94B
S1132390020100F037FC42A3D3E9002300F032FC31
S11323A002460B465046594600F078FA02460B4660
S11323B006460F464046494600F072FA42464B46EE
S11323C0002082468B4600F069FA02460B463046EE
S11323D0394600F063FA80468946D4E542464B46C6
S11323E00020384900F038FDFFF770BBDDE9040137
S11323F02DA3D3E9002300F005FC2BA3D3E900238C
S113240000F000FCFFF762BBBEF1000F7FF469AB84
S1132410C3F1140347FA03F202FA03F39F422AD0EA
S11324207446FFF736BB294B98453FF70EAEDDE9FE
S113243002239246934638E602460B4600F02EFAF3
S113244002460B4600F008FDFFF740BB18A3D3E992
S11324500023CDE9082318A3D3E90023CDE90E23F3
S11324601B4B00224FF48027CDE9062301E45A4692
S113247000F08AF9C9E602F00102C2F10204FFF792
S113248008BB00BFAFF30080000000604715F73FB2
S113249044DF5DF80BAE543E555555555555D53F63
S11324A0FE822B654715F73F9C7500883CE4377E18
S11324B00000004003B8E23F06D0CF43EBFD4C3EA2
S11324C0FEFFEF3F0000F03F0000D03F0000E03F80
S11324D00000F83F2DE9F8435B4F8F4305460C4657
S11324E000F0928000290B4602466FDD0F157BD069
S11324F0A7F2FF37C3F31303F80743F480135CD444
S113250003EBD27100260B447F105200B64616200E
S11325104FF400110EEB01049C424FEAD2754FEACE
S1132520420203DC1B1B04EB010E0E44013805EBD5
S113253043034FEA5101EDD1844620244FF000417A
S113254009E020D003EBD275013C4FEA51012B4442
S11325504FEA420220D0734501EB0C05F1DD002D5A
S113256005EB010C09DBF0469542A3EB0E0300D901
S1132570013B521B0844C646E4E7BCF1000FF2DB02
S11325800EF10108F0E79542DCD8002D05EB010CB3
S113259044DB98460023ECE7134313D1400873103F
S11325A003F17F5303F50013F20703EB075948BF08
S11325B040F000404946BDE8F8835B0003EBD2736A
S11325C052009DE7411C2DD00130E7E7064621F07B
S11325D000473E43EFD069BB0F46D30A153F52056F
S11325E0002BFAD0DE0220D4002400E004465B0075
S11325F0DD0204F10100F9D5C0F1200122FA01F154
S11326000B433F1B824073E702460B4600F0FAFA85
S11326102A46234600F044F9BDE8F883BCF1000FD4
S1132620AEDAB6E701362046B9E7002020214FF0A4
S1132630FF34E3E702460B4600F030F902460B464E
S113264000F00AFCB7E700BF0000F07F21F0004172
S1132650704700BF41F0004101F58010C00F704782
S11326600020704700200149704700BF0000F87F38
S1132670F0B5C1F30A5EAEF2FF36132E83B0024604
S11326800B460C464FEAD17507462EDC002E49DB7B
S11326903A49314103EA010010432BD049080B4069
S11326A053EA02070CD04FF48023132E24EA0101CD
S11326B043FA06F444EA01040CBF4FF00047002734
S11326C02F4B03EBC5052146D5E900453846224684
S11326D02B4600F0E5F8CDE9000122462B46DDE962
S11326E0000100F0DBF803B0F0BD332E06DDB6F5D3
S11326F0806F40D01046194603B0F0BDAEF2134EC1
S11327004FF0FF3121FA0EF10842F3D04908084294
S1132710D6D04FF0804320EA010143FA0EFE4EEA80
S11327200107CDE721F000410143E3D0C3F31301D6
S1132730134E0143C1F1000C06EBC506D6E9006750
S11327404CEA010C4FEA1C3C5C0C64040CF40023BE
S113275043EA040132463B4600F0A2F8CDE9000109
S113276032463B46DDE9000100F098F821F00044D0
S113277044EAC571C0E700F093F8BDE7FFFF0F001E
S1132780403C000000000000F8B5C1F30A560446BE
S11327900D460B4617460EBB21F000430343864605
S11327A025D00022344B00F02DFA344A97420446D7
S11327B00D460B462ADBC1F30A56363E3E4440F230
S11327C0FE72964228DC002E12DD23F0FF4323F430
S11327D0E00343EA065520462946F8BD40F2FF725D
S11327E09642EBD102460B4600F05AF8F8BDF8BD0C
S11327F016F1350F1DDA4CF250339F4222462B4618
S113280025DC19A1D1E9000100F03CF816A3D3E9B5
S1132810002300F0F7F9F8BD22462B4614A1D1E9B4
S1132820000100F02FF812A3D3E9002300F0EAF925
S1132830F8BD23F0FF4323F4E003363643EA06559C
S11328402046294600220E4B00F0DCF9F8BD08A111
S1132850D1E9000100F016F805A3D3E9002300F044
S1132860D1F9F8BDAFF3008059F3F8C21F6EA5018A
S11328709C7500883CE4377E00005043B03CFFFF69
S11328800000903C03F0004321F0004242EA0301BF
S1132890704700BF81F0004102E000BF83F00043B5
S11328A030B54FEA41044FEA430594EA050F08BFE7
S11328B090EA020F1FBF54EA000C55EA020C7FEAAB
S11328C0645C7FEA655C00F0E2804FEA5454D4EB28
S11328D05555B8BF6D420CDD2C4480EA020281EAF2
S11328E0030382EA000083EA010180EA020281EA2A
S11328F00303362D88BF30BD11F0004F4FEA01317C
S11329004FF4801C4CEA113102D0404261EB41018A
S113291013F0004F4FEA03334CEA133302D0524210
S113292063EB430394EA050F00F0A780A4F10104CC
S1132930D5F1200E0DDB02FA0EFC22FA05F2801806
S113294041F1000103FA0EF2801843FA05F35941EC
S11329500EE0A5F120050EF1200E012A03FA0EFC6B
S113296028BF4CF0020C43FA05F3C01851EBE37195
S113297001F0004507D54FF0000EDCF1000C7EEBB2
S113298000006EEB0101B1F5801F1BD3B1F5001FF0
S11329900CD349085FEA30004FEA3C0C04F101040F
S11329A04FEA445212F5800F80F09A80BCF1004F38
S11329B008BF5FEA500C50F1000041EB045141EABA
S11329C0050130BD5FEA4C0C404141EB010111F4BB
S11329D0801FA4F10104E9D191F0000F04BF014666
S11329E00020B1FA81F308BF2033A3F10B03B3F144
S11329F020020CDA0C3208DD02F1140CC2F10C02D4
S1132A0001FA0CF021FA02F10CE002F11402D8BF31
S1132A10C2F1200C01FA02F120FA0CFCDCBF41EAFD
S1132A200C019040E41AA2BF01EB0451294330BDCC
S1132A306FEA04041F3C1CDA0C340EDC04F11404A9
S1132A40C4F1200220FA04F001FA02F340EA030080
S1132A5021FA04F345EA030130BDC4F10C04C4F1C6
S1132A60200220FA02F001FA04F340EA03002946A6
S1132A7030BD21FA04F0294630BD94F0000F83F4F0
S1132A80801306BF81F480110134013D4EE77FEAD3
S1132A90645C18BF7FEA655C29D094EA050F08BF1F
S1132AA090EA020F05D054EA000C04BF1946104600
S1132AB030BD91EA030F1EBF0021002030BD5FEA44
S1132AC0545C05D14000494128BF41F0004130BD6C
S1132AD014F580043CBF01F5801130BD01F00045C0
S1132AE045F0FE4141F470014FF0000030BD7FEA33
S1132AF0645C1ABF194610467FEA655C1CBF0B462E
S1132B00024650EA013406BF52EA033591EA030F44
S1132B1041F4002130BD00BF90F0000F04BF00213C
S1132B20704730B54FF4806404F132044FF000056F
S1132B304FF0000150E700BF90F0000F04BF0021E8
S1132B40704730B54FF4806404F1320410F000454E
S1132B5048BF40424FF000013EE700BF42004FEA49
S1132B60E2014FEA31014FEA02701FBF12F07F43C6
S1132B7093F07F4F81F06051704792F0000F14BFC3
S1132B8093F07F4F704730B54FF4607401F0004507
S1132B9021F0004120E700BF50EA010208BF70475E
S1132BA030B54FF000050AE050EA010208BF704753
S1132BB030B511F0004502D5404261EB41014FF4BC
S1132BC0806404F132045FEA915C3FF4DCAE4FF0C0
S1132BD003025FEADC0C18BF03325FEADC0C18BFA7
S1132BE0033202EBDC02C2F1200300FA03FC20FAF8
S1132BF002F001FA03FE40EA0E0021FA02F1144445
S1132C00C1E600BF70B54FF0FF0C4CF4E06C1CEA59
S1132C1011541DBF1CEA135594EA0C0F95EA0C0FCE
S1132C2000F0DEF82C4481EA030621EA4C5123EA41
S1132C304C5350EA013518BF52EA033541F4801170
S1132C4043F4801338D0A0FB02CE4FF00005E1FB23
S1132C5002E506F00042E0FB03E54FF00006E1FB6D
S1132C6003569CF0000F18BF4EF0010EA4F1FF04B0
S1132C70B6F5007F64F5407404D25FEA4E0E6D41F0
S1132C8046EB060642EAC62141EA55514FEAC52001
S1132C9040EA5E504FEACE2EB4F1FD0C88BFBCF57D
S1132CA0E06F1ED8BEF1004F08BF5FEA500E50F12E
S1132CB0000041EB045170BD06F0004646EA0101F4
S1132CC040EA020081EA0301B4EB5C04C2BFD4EB26
S1132CD00C0541EA045170BD41F480114FF0000E1F
S1132CE0013C00F3AB8014F1360FDEBF002001F08D
S1132CF0004170BDC4F10004203C35DA0C341BDC07
S1132D0004F11404C4F1200500FA05F320FA04F0D8
S1132D1001FA05F240EA020001F0004221F000410C
S1132D2010EBD37021FA04F642EB06015EEA430E7F
S1132D3008BF20EAD37070BDC4F10C04C4F12005AF
S1132D4000FA04F320FA05F001FA04F240EA020062
S1132D5001F0004110EBD37041F100015EEA430E33
S1132D6008BF20EAD37070BDC4F1200500FA05F253
S1132D704EEA020E20FA04F301FA05F243EA0203D2
S1132D8021FA04F001F0004121FA04F220EA0200E1
S1132D9000EBD3705EEA430E08BF20EAD37070BD27
S1132DA094F0000F0FD101F00046400041EB010107
S1132DB011F4801F08BF013CF7D041EA060195F0E9
S1132DC0000F18BF704703F00046520043EB0303A3
S1132DD013F4801F08BF013DF7D043EA0603704790
S1132DE094EA0C0F0CEA135518BF95EA0C0F0CD09B
S1132DF050EA410618BF52EA4306D1D181EA0301E1
S1132E0001F000414FF0000070BD50EA410606BFDA
S1132E101046194652EA430619D094EA0C0F02D11F
S1132E2050EA013613D195EA0C0F05D152EA033664
S1132E301CBF104619460AD181EA030101F0004182
S1132E4041F0FE4141F470014FF0000070BD41F0CB
S1132E50FE4141F4780170BD70B54FF0FF0C4CF4A5
S1132E60E06C1CEA11541DBF1CEA135594EA0C0FC4
S1132E7095EA0C0F00F0A7F8A4EB050481EA030E11
S1132E8052EA03354FEA013100F088804FEA0333F8
S1132E904FF0805545EA131343EA12634FEA0222C6
S1132EA045EA111545EA10654FEA00260EF0004187
S1132EB09D4208BF964244F1FD0404F5407402D2D9
S1132EC05B084FEA3202B61A65EB03055B084FEA6A
S1132ED032024FF480104FF4002CB6EB020E75EB67
S1132EE0030E22BFB61A754640EA0C005B084FEA8F
S1132EF03202B6EB020E75EB030E22BFB61A75460C
S1132F0040EA5C005B084FEA3202B6EB020E75EB56
S1132F10030E22BFB61A754640EA9C005B084FEACE
S1132F203202B6EB020E75EB030E22BFB61A7546DB
S1132F3040EADC0055EA060E18D04FEA051545EACA
S1132F4016754FEA06164FEAC30343EA52734FEA73
S1132F50C2025FEA1C1CC0D111F4801F0BD141EAEC
S1132F6000014FF000004FF0004CB6E711F4801F51
S1132F7004BF01430020B4F1FD0C88BFBCF5E06F31
S1132F803FF6AFAEB5EB030C04BFB6EB020C5FEA41
S1132F90500C50F1000041EB045170BD0EF0004E96
S1132FA04EEA113114EB5C04C2BFD4EB0C0541EAC8
S1132FB0045170BD41F480114FF0000E013C90E6C5
S1132FC045EA060E8DE60CEA135594EA0C0F08BF89
S1132FD095EA0C0F3FF43BAF94EA0C0F0AD150EA88
S1132FE001347FF434AF95EA0C0F7FF425AF10461B
S1132FF019462CE795EA0C0F06D152EA03353FF443
S1133000FDAE1046194622E750EA410618BF52EABF
S113301043067FF4C5AE50EA41047FF40DAF52EA93
S113302043057FF4EBAE12E74FF0FF3C06E000BF30
S11330304FF0010C02E000BF4FF0010C4DF804CD3D
S11330404FEA410C7FEA6C5C4FEA430C18BF7FEAFD
S11330506C5C1BD001B050EA410C0CBF52EA430C2B
S113306091EA030F02BF90EA020F0020704710F1AB
S1133070000F91EA030F58BF994208BF90422CBF3A
S1133080D8176FEAE37040F0010070474FEA410C33
S11330907FEA6C5C02D150EA013C07D14FEA430C51
S11330A07FEA6C5CD6D152EA033CD3D05DF8040BC2
S11330B0704700BF8446104662468C4619466346F4
S11330C000E000BF01B5FFF7B7FF002848BF10F1CB
S11330D0000F01BD4DF808EDFFF7F4FF0CBF012010
S11330E000205DF808FB00BF4DF808EDFFF7EAFF8C
S11330F034BF012000205DF808FB00BF4DF808ED47
S1133100FFF7E0FF94BF012000205DF808FB00BF3B
S11331104DF808EDFFF7CEFF94BF012000205DF8C5
S113312008FB00BF4DF808EDFFF7C4FF34BF0120D2
S113313000205DF808FB00BF4FEA410C7FEA6C5C9D
S113314002D150EA013C0AD14FEA430C7FEA6C5C9D
S113315002D152EA033C02D14FF0000070474FF015
S1133160010070474FEA4102B2F1E04324BFB3F5D6
S1133170001CDCF1FE5C0DD901F0004C4FEAC002EA
S11331804CEA5070B2F1004F40EB830008BF20F0CE
S11331900100704711F0804F21D113F13872BCBF88
S11331A001F00040704741F480114FEA5252C2F1DD
S11331B01802C2F1200C10FA0CF320FA02F018BF26
S11331C040F001004FEAC1234FEAD32303FA0CFC79
S11331D040EA0C0023FA02F34FEA4303CCE77FEA08
S11331E0625307D150EA01331EBF4FF0FE4040F452
S11331F04000704701F0004040F0FE4040F4000001
S1133200704700BF4FEA4002B2F1FE4F0FD34FF0B8
S11332109E03B3EB12620DD94FEA002343F000433F
S113322010F0004F23FA02F018BF404270474FF0ED
S11332300000704712F1610F01D1420205D110F074
S1133240004008BF6FF0004070474FF00000704727
S1133250014B1868704700BF0400002070B50D4E84
S11332600D4CA41BA4100025A54209D10B4E0C4CF7
S113327000F008FDA41BA4100025A54205D170BDD3
S113328056F8253098470135EEE756F8253098472B
S11332900135F2E7903C0000903C0000903C0000B7
S11332A0943C000002440346934200D1704703F863
S11332B0011BF9E70EB400B59CB04FF402711DABCD
S11332C0ADF81410029006906FF000410A48049182
S11332D007914FF6FF7153F8042BADF816100068F0
S11332E0019302A900F06EF8029B00221A701CB030
S11332F05DF804EB03B0704704000020034613F8A4
S1133300012B002AFBD1181A013870472DE9F04728
S11333108E689E4282460C469146984635D88A89E4
S113332012F4906F31D0256809696F1A6569022318
S113333005EB450595FBF3F508F101033B449D427C
S113334038BF1D46530531D5294600F08DFB06468E
S113335050B90C23CAF80030A38943F04003A38179
S11333604FF0FF30BDE8F0873A46216900F008FBD2
S1133370A38923F4906343F08003A38126616561EC
S11333803E44ED1B2660A5604646464528BF46469A
S113339032464946206800F0FEFAA3689B1BA360EE
S11333A023681E4426600020BDE8F0872A4600F00A
S11333B0B9FB06460028E1D12169504600F006FB1E
S11333C0C7E700002DE9F04F9DB0804603938B8939
S11333D01C060D4616460FD50B696BB9402100F04B
S11333E043FB2860286128B90C23C8F800304FF04B
S11333F0FF30C5E040236B610023099320238DF83F
S1133400293030238DF82A304FF0010B37463C46E3
S113341014F8013B002B3CD1B7EB060A0BD0534602
S1133420324629464046FFF771FF013000F0A38081
S1133430099B534409933B78002B00F09C800023A4
S11334404FF0FF3204930793059206938DF853309F
S11334501A9305222178504800F042FA671C049B15
S1133460D8B9D90644BF20228DF853201A0744BF87
S11334702B228DF8532022782A2A16D0079A00216D
S11334800A20274601343B78303B092B51D9C9B176
S113349011E0252BC0D02746B9E73F4A801A0BFA22
S11334A000F0184304903C46D3E7039A111D1268B8
S11334B00391002A01DB079204E0524243F0020325
S11334C0079204933B782E2B0ED17B782A2B07F19D
S11334D0010132D1039B1A1D1B680392002BB8BF54
S11334E04FF0FF33023705932C4C397803222046E2
S11334F000F0F6F938B14023001B03FA00F0049BF6
S1133500034304930137397825488DF8281006229F
S11335107E1C00F0E5F9002835D0224BFBB9039B53
S1133520073323F0070308330393099B4B440993A0
S11335306CE700FB02320121A3E700230593184640
S11335400A240F4601313A78303A092A03D9002B6C
S1133550CAD00590C8E704FB00200123F1E703ABC0
S113356000932A46104B04A94046AFF30080B0F103
S1133570FF3F8146D9D1AB895B063FF538AF099847
S11335801DB0BDE8F08F03AB00932A46064B04A997
S1133590404600F081F8EAE7503C0000563C000049
S11335A05A3C0000000000000D3300002DE9F047F4
S11335B091461F468A680B69DDF820809342B8BFA4
S11335C01346C9F8003091F8432006460C4612B160
S11335D00133C9F800302368990642BFD9F8003096
S11335E00233C9F80030256815F0060507D104F147
S11335F0190AE368D9F800209B1A9D4229DB94F844
S113360043302268003318BF012392062ED404F1FC
S1133610430239463046C047013021D02368E5686B
S1133620D9F8002003F00603042B08BFAD1AA368E1
S113363022690CBF25EAE57500259342C4BF9B1A95
S1133640ED184FF000091A344D451BD10020BDE898
S1133650F0870123524639463046C047013003D132
S11336604FF0FF30BDE8F0870135C2E7E1185A1C7E
S1133670302081F84300224494F8451082F8431026
S11336800233C4E70123224639463046C04701309D
S1133690E6D009F10109D7E72DE9F04317460A7E80
S11336A085B06E2A984606460C460C9B01F1430EE3
S11336B000F0BC801AD8632A2ED00AD8002A00F061
S11336C0C880582A00F08A8004F1420584F8422018
S11336D02AE0642A01D0692AF6D121681A6811F017
S11336E0800F23D0111D1960136827E0732A00F09E
S11336F0B48008D86F2A2AD0702AE5D10A6842F02B
S113370020020A6003E0752A21D0782ADCD17822CD
S113371084F845206E4964E01A6801F14205111DE0
S11337201960136884F842300123A3E011F0400FBC
S113373002F104011960D7D0B2F90030002B03DA8A
S11337402D225B4284F8432062490A2217E0206854
S1133750196810F0800F03D0081D18600B6806E08C
S113376010F0400F01F104001860F7D00B8859499C
S11337706F2A14BF0A220822002084F843006568D7
S1133780A560002DC0F29C80206820F00400206019
S1133790002B3FD1002D40F095807546082A0BD1AF
S11337A02368DA0708D5236962689A42DEBF3023AA
S11337B005F8013C05F1FF35AEEB05032361CDF8B7
S11337C000803B4603AA21463046FFF7EFFE013056
S11337D055D14FF0FF3005B0BDE8F08381F84520A6
S11337E03C492268186812F0800F00F104051D603E
S11337F001D0036802E05506FBD50388D00744BF17
S113380042F0200222601BB9226822F020022260CA
S11338101022B1E77546B3FBF2F002FB1033CB5C28
S113382005F8013D03460028F5D1B7E708681A6892
S1133830496910F0800F04D0101D186013681960D6
S113384007E010F0400F02F1040018601368F6D08E
S11338501980002323617546B1E71A68111D1960A8
S1133860156862680021284600F03AF808B1401B48
S1133870606063682361002384F843309FE7236911
S11338802A4639463046C0470130A2D023689B07F8
S113389007D5002504F11909E368039A9B1A9D4290
S11338A005DBE068039B9842B8BF184693E7012301
S11338B04A4639463046C04701308AD00135EBE7E5
S11338C0002BA7D10B7884F8423004F1420565E758
S11338D0723C0000613C0000000000000000000099
S11338E001F0FF01102A2BDB10F0070F08D010F8AD
S11338F0013B013A8B422DD010F0070F42B3F6D1B1
S1133900F0B441EA012141EA014122F007047FF0C9
S113391000070023F0E80256083C85EA010586EA20
S1133920010685FA47F5A3FA87F586FA47F6A5FA5C
S113393087F68EB9EED1F0BC01F0FF0102F0070268
S113394032B110F8013B013A83EA010313B1F8D113
S11339500020704701387047002D06BF35460338F4
S1133960073815F0010F07D1013015F4807F02BF2D
S1133970013015F4C03F0130F0BC0138704700BF7E
S113398010B5431E0A44914200D110BD11F8014BF9
S113399003F8014FF7E7884210B501EB020303D89F
S11339A0421E99420CD110BD9842F9D28118D21A04
S11339B0D34200D110BD13F8014D01F8014DF7E7D2
S11339C011F8014B02F8014FEBE7000038B505464A
S11339D0002945D051F8043C0C1F002BB8BFE41853
S11339E000F0D6F81F4A1368104633B963601460B8
S11339F02846BDE8384000F0CCB8A3420CD9216871
S1133A006218934204BF1A685B68636004BF52186B
S1133A1022600460ECE713465A680AB1A242FAD95C
S1133A2019685818A0420BD12068014458188242E2
S1133A301960DDD1106852685A6001441960D7E7F3
S1133A4002D90C232B60D3E7206821188A4204BFD3
S1133A5011685268626004BF091821605C60C7E79E
S1133A6038BD00BF8C00002070B5CD1C25F00305C7
S1133A7008350C2D38BF0C25002D064601DBA94264
S1133A8003D90C233360002070BD00F081F8234A71
S1133A901468214691B9224C23681BB9304600F0C2
S1133AA067F820602946304600F062F8431C26D1AE
S1133AB00C233360304600F06CF8E4E70B685B1BC2
S1133AC01AD40B2B0FD90B60CD50CC18304600F014
S1133AD060F804F10B00231D20F00700C31A1BD06B
S1133AE05A42E25070BD8C420DBF63684B686360FC
S1133AF0136018BF0C46E9E70C464968CAE7C41CC2
S1133B0024F00304A04205D0211A304600F030F816
S1133B100130CDD02560D9E770BD00BF8C000020F6
S1133B2090000020F8B5074614460E4621B9114608
S1133B30BDE8F840FFF798BF22B9FFF747FF2546D5
S1133B402846F8BD00F026F884420FD921463846AD
S1133B50FFF78AFF05460028F2D031462246FFF7D8
S1133B600FFF31463846FFF731FFE9E73546E7E70F
S1133B7038B5064C0023054608462360FDF7ECFBE8
S1133B80431C02D1236803B12B6038BD20010020FF
S1133B907047704751F8040C0028A0F10400BCBF22
S1133BA00B58C018704700004C4B384558312C0056
S1133BB00000000000000000000000000000000001
S1133BC000000000000000000000000000000000F1
S1133BD000000000000000000000000000000000E1
S1133BE000000000000000000000000000000000D1
S1133BF000000000000000000000000000000000C1
S1133C00000000000000000000000000532D2C50B4
S1133C106172614265657000257339393939393902
S1133C202C25642C393939392C25642C3939392C13
S1133C3000000000257324732A256400706F770048
S1133C40000000000000304300000000000030C30A
S1133C50232D302B2000686C4C0065666745464771
S1133C6000303132333435363738394142434445F4
S1133C704600303132333435363738396162636463
S1133C8065660000F8B500BFF8BC08BC9E467047E6
S1133C9089020000F8B500BFF8BC08BC9E46704716
S1073CA065020000B5
S1133CA4323201000800002000000000000000007F
S1133CB400000000000000000000000000000000FC
S1133CC400000000000000000000000000000000EC
S1133CD400000000000000000000000000000000DC
S1133CE400000000000000000000000000000000CC
S1133CF400000000000000000000000000000000BC
S10B3D040000000000000000B3
S9030000FC
