S015000050617261626565702056302E322E73726563E9
S1130000E8C40020AD050000A9050000A905000012
S1130010A9050000A9050000A905000000000000D2
S1130020000000000000000000000000A90500001E
S1130030A905000000000000A9050000A9050000B2
S1130040A9050000A9050000A9050000A9050000F4
S1130050A9050000A9050000A9050000A9050000E4
S1130060A9050000A9050000A90500005505000028
S1130070A9050000A9050000A9050000A9050000C4
S1130080A9050000A9050000A9050000A9050000B4
S1130090A9050000A9050000A9050000A9050000A4
S11300A0A9050000A9050000A9050000A905000094
S11300B0A9050000A9050000A9050000A905000084
S11300C0A9050000A9050000A9050000A905000074
S11300D0A9050000A9050000A9050000A905000064
S11300E0A9050000A90500000000000000000000B0
S11300F000000000A9050000A9050000A9050000F2
S1130100A9050000A9050000A9050000A905000033
S1130110A9050000A9050000A9050000A905000023
S1130120A9050000A9050000A9050000A905000013
S1130130A9050000A9050000A9050000A905000003
S1130140A9050000A9050000A9050000A9050000F3
S1130150A9050000A905000000000000000000003F
S1130160000000000000000000000000000000008B
S1130170000000000000000000000000000000007B
S1130180A9050000A9050000A9050000A9050000B3
S113019000000000A9050000A9050000A905000051
S11301A0A9050000A9050000A9050000A905000093
S11301B0A9050000A9050000A9050000A905000083
S11301C0A9050000A9050000A9050000A905000073
S11301D0A9050000A9050000A9050000A905000063
S11301E0A9050000A9050000A9050000A905000053
S11301F0A905000061040000A9050000A90500008C
S1130200A90500000000000000000000A90500008E
S1130210A9050000A9050000A9050000A905000022
S1130220A9050000A9050000A9050000A905000012
S1130230A9050000A9050000A9050000A905000002
S1130240A9050000A9050000A9050000A9050000F2
S1130250A9050000A9050000A9050000A9050000E2
S11302600000000010B5054C237833B9044B13B1DA
S11302700448AFF300800123237010BD380400202C
S113028000000000602C00000C4B43B10C480D49E9
S113029010B5AFF300800C48036823B910BD0A48B9
S11302A0036833B97047094B002BF7D0BDE8104001
S11302B01847064B002BF5D0184700BF000000007C
S11302C0602C00003C040020602C000000000000B2
S11302D030B583B00A4C4FF40065656140F080018D
S11302E00020084B98470120074B98470020074BF4
S11302F098478DF80700A5619DF8070003B030BD4D
S113030000800041190F0000CD040000D10F00004F
S1130310F8B50F46074C4FF40065656101460020AF
S1130320054EB0470120054B984739460020B04799
S1130330A561F8BD00800041190F0000CD04000044
S113034030B4FF2A1DD80025044601F00F0141EA0C
S113035002422A4342F410620830104941F8202036
S11303603BB10E4B5B68C3F38B03234113F0010FC6
S1130370F7D130BC7047A2B2013A92B24FF4805523
S1130380E2E70F24002C06DD42FA04F515F0010F14
S1130390F1D1013CF6E74FF48055D5E7001C00404D
S11303A0044BDA696FF38202DA61DA6942F002021D
S11303B0DA6170470014004000F00F0040F0400084
S11303C02031044B43F82100024B5B68002BFBD126
S11303D0704700BF001C004010B50123014CA0472A
S11303E010BD00BF4103000008B5164B98472022FA
S11303F006210320144B98471A210320134B9847D6
S1130400134A936943F4005393610122114B1A6018
S1130410104B1B6913F0010FFAD10E4B01225A72D3
S113042040F206221A600C4A1278D2B283F82F20C6
S1130430084B1B6913F0020FFAD14FF40052074B1B
S1130440DA6008BDA1030000D9030000B90300006D
S11304500008004000A001410000002000E100E08D
S11304600122054B9A72054B1B781BB14FF4801285
S1130470034BDA61704700BF00A00141680400200B
S1130480008000410022044B83F823200522A3F5B9
S11304904F631A60704700BF00ED00E003E00021E5
S11304A0094B19601046421E68B1074B4BF6803168
S11304B059600021996001211960034B1B6813F4F2
S11304C0803FFAD0EBE7704710E000E003E0002142
S11304D0094B19601046421E60B1074B3021596028
S11304E00021996001211960034B1B6813F4803FBC
S11304F0FAD0ECE7704700BF10E000E00122124B95
S11305001A80114B1B6913F0010FFAD101220F4B12
S11305101A7403F580534FF400425A8148F204627E
S11305201A8040F2E6329A831A8892B242F00202AA
S11305301A80054B1B6913F0020FFAD14FF40062C5
S1130540034B1A60704700BF0024004000140040B1
S113055000E100E04FF40042034B9A81034A136820
S113056003F57A731360704700240040540400209C
S1130570EFF3108272B60A4B188B0A49096811FA14
S113058080F09B8913F4004F07D0054B188B054B63
S11305901B6813FA80F000F57A7082F310887047B4
S11305A00024004054040020FEE7000008B5104B6E
S11305B0104A9A4209D00E4B0E4A03E011681960A2
S11305C0043304320C498B42F8D30C4B02E0002272
S11305D01A6004330A4A9342F9D30A4A0A4B23F0B5
S11305E07F039360094B9847094B9847FEE700BF88
S11305F000000020602C0000340400203804002097
S1130600E404002000ED00E000000000B12A000036
S11306105D08000008B56C4B98476C4B98476C4BD1
S1130620984700206B4B984705206B4B98476B4BC2
S113063093F854206FF3000283F854204FF480128F
S11306409A6093F8CC206FF3000283F8CC204FF427
S11306508052C3F88820C3F8982093F8D0206FF311
S1130660000283F8D0204FF48032C3F88820C3F806
S1130670982093F848206FF3000283F848204FF441
S113068080729A6093F83410022262F3030183F8B3
S1130690341093F8481041F0010183F8481093F89E
S11306A049106FF3000183F849104FF40071996009
S11306B093F8341062F3071183F8341093F8491057
S11306C041F0010183F8491093F84B106FF30001D6
S11306D083F84B104FF400619960996193F84710C7
S11306E06FF3000183F8471080219960996193F8B2
S11306F04A106FF3000183F84A1093F84A1011432B
S113070083F84A104FF48061596093F8351062F30E
S1130710030183F8351093F84A1041F0010183F87E
S11307204A1093F8C2106FF3000183F8C210042139
S1130730C3F8881093F8B110032060F3030183F821
S1130740B11093F8C21041F0010183F8C21093F87C
S1130750C3106FF3000183F8C3100821C3F8881095
S113076093F8B11060F3071183F8B11093F8C31034
S113077041F0010183F8C31093F8C0106FF3000136
S113078083F8C0100121C3F88810C3F8981093F8B7
S1130790C1106FF3000183F8C11093F8C110114325
S11307A083F8C110C3F8842093F8B02060F30712D3
S11307B083F8B02093F8C12042F0010283F8C120ED
S11307C0074B984708BD00BF85040000FD040000E6
S11307D0E9030000CD0B0000790D0000008000410A
S11307E09D0B00002DE9F04182B0154C8025656118
S11307F058210020DFF86080C047A56142F25030E4
S1130800104FB847104EB047019065614821002051
S1130810C047A56142F25030B847B04700900098F5
S113082001990A4C234604F10802094DA84774E8CB
S11308300201084B9847C4E9060102B0BDE8F08103
S113084000800041CD040000A909000078040020C4
S1130850E9090000D10A0000190F000000B589B0B1
S1130860484B984700212D20474DA8472D20474C41
S1130870A0478DF81F0003213120A8473120A0474D
S11308808DF81E0000213820A8473820A0478DF895
S11308901D002C20A0478DF81C0008212D20A847FE
S11308A02D20A0478DF81B000020A0478DF81A00CA
S11308B02D20A0478DF819003120A0478DF818008D
S11308C03920A0478DF81700314C0125C4F8945005
S11308D09F2105202F4B984705202F4EB0478DF8B8
S11308E016000520B0478DF81500C4F898500A206A
S11308F02A4B98472A4B9847049032E0294B984753
S113090008212D20204B98470020234B98478DF831
S113091006003220214B984700201C4CA0478DF83C
S113092007003220A0478DF808003320A0478DF837
S113093009003420A0478DF80A003520A0478DF81F
S11309400B003620A0478DF80C003720A0478DF807
S11309500D002D20A0478DF80E002D20A0478DF806
S11309600F000F4B9847049BC01AB0F5FA7FC5D906
S11309700B4B984704904FF48032054BC3F89C20EE
S1130980BCE700BF1506000011030000D1020000FF
S113099000800041190F0000D10F00009D040000E9
S11309A071050000E50700002DE9F0410B4E80279A
S11309B07761002108460A4B98470020094DA84753
S11309C080460020A84704460020A847B7612402B7
S11309D044EA08442043BDE8F08100BF00800041A0
S11309E0190F0000D10F00002DE9F04F89B00193D9
S11309F0334CB4F802E0A388B4F806C026896589AC
S1130A00B4F80C80A1EB05210791079C4FEAE47B25
S1130A101FFA88F8A8FB044508FB0B55E10D41EAD1
S1130A20452101F5FA6111609AB2150C1404079A74
S1130A304FEAE279B6B2A6FB022306FB0933D609D4
S1130A4046EA4366DF11A4197D41CDE9044500253A
S1130A504FEACE34079AD7171FFA8CF8A8FB022363
S1130A6008FB0733160A46EA03661F12A4197D41E0
S1130A70CDE90245DDE90223A0FB024500FB035555
S1130A80620D42EAC5226B15DDE90401121A63EB1B
S1130A900103D00B40EA4340D9130A4B984706A3FD
S1130AA0D3E90023084CA047019BC3E9000109B026
S1130AB0BDE8F08FAFF300807B14AE47E17A843F4A
S1130AC058040020E924000045250000000000002F
S1130AD038B5114C0AA3D3E90023A0470AA3D3E9EC
S1130AE000230E4DA84702460B4600200C490D4D2D
S1130AF0A84707A3D3E90023A04738BDAFF300807C
S1130B000886DEC9742B503F3CDD79E2395BC83F6F
S1130B109A999999B3BE0141452500008D100000B2
S1130B200000F03FDD2100002DE9F843012426E018
S1130B3004F150056D00EDB2134F4FF08008C7F873
S1130B4014804FF41670114EB04729460020104B04
S1130B5098474FF41670B04700200E4DA8478146C1
S1130B600020A8470546C7F818804FF41670B04710
S1130B7045EA0925084B23F814500134E4B2062C45
S1130B80D6D9BDE8F88300BF00800041CD04000041
S1130B90190F0000D10F00005804002038B5074C8D
S1130BA0802565611E210020054B9847A5614FF4FF
S1130BB09670044B9847044B984738BD0080004119
S1130BC0190F00009D040000290B00002DE9F047D7
S1130BD004460C22062101205E4B98470721012080
S1130BE05D4B98475D4A536943F48053536164B144
S1130BF0012C10D0022C11D0032C12D0042C13D0B1
S1130C00052C04D1DFF85CA101E0DFF854A1012335
S1130C10CAF8003010E0DFF850A1F8E7DFF84CA183
S1130C20F5E7DFF84CA1F2E74FF0864AEFE74C4EC8
S1130C30336813F0010F16D0002CF8D0012C09D022
S1130C40022C09D0032C09D0042C09D0052CEFD197
S1130C50444EEDE7444EEBE7444EE9E7444EE7E704
S1130C604FF08646E4E764B1012C1ED0022C1FD05D
S1130C70032C20D0042C21D0052C04D1DFF8E490DF
S1130C8001E0DFF8DC904FF40033C9F80430C4B15C
S1130C90012C28D0022C29D0032C2AD0042C2BD0B0
S1130CA0052C10D1DFF8BC800DE0DFF8BC90EAE73A
S1130CB0DFF8B890E7E7DFF8B890E4E74FF086494B
S1130CC0E1E7DFF89C80052388F80C30BCB1012CE7
S1130CD019D0022C19D0032C19D0042C19D09C4201
S1130CE00ED1204F0CE0DFF88080ECE7DFF87C8049
S1130CF0E9E7DFF87C80E6E74FF08648E3E7184F42
S1130D001C4B3B600DE0184FFAE7184FF8E7184FFB
S1130D10F6E74FF08647F3E7114DEB6913F0040F44
S1130D2016D0002CF8D0012C09D0022C09D0032CA9
S1130D3009D0042C09D0052CEFD10A4DEDE70A4D5A
S1130D40EBE70A4DE9E70A4DE7E74FF08645E4E7AC
S1130D50BDE8F087D9030000B90300000008004093
S1130D6000300040000400430034004000200141F2
S1130D70004001410E0020302DE9F04704462321B4
S1130D8001205D4B98475D4A136A43F002031362E6
S1130D9064B1012C10D0022C11D0032C12D0042CDD
S1130DA013D0052C04D1DFF85CA101E0DFF850A1D9
S1130DB00123CAF8003010E0DFF84CA1F8E7DFF8AF
S1130DC04CA1F5E7DFF848A1F2E74FF0864AEFE7D8
S1130DD04B4E336813F0010F16D0002CF8D0012CC1
S1130DE009D0022C09D0032C09D0042C09D0052CDD
S1130DF0EFD1444EEDE7444EEBE7444EE9E7444E71
S1130E00E7E74FF08646E4E764B1012C1ED0022CDC
S1130E101FD0032C20D0042C21D0052C04D1DFF8C2
S1130E20E49001E0DFF8D8904FF40033C9F80430BF
S1130E30C4B1012C28D0022C29D0032C2AD0042C94
S1130E402BD0052C10D1DFF8BC800DE0DFF8B89072
S1130E50EAE7DFF8B890E7E7DFF8B490E4E74FF0AB
S1130E608649E1E7DFF89880052388F80C30BCB1A7
S1130E70012C19D0022C19D0032C19D0042C19D010
S1130E809C420ED11F4F0CE0DFF87C80ECE7DFF8CA
S1130E907C80E9E7DFF87880E6E74FF08648E3E70F
S1130EA0174F1C4B3B600DE0174FFAE7174FF8E75D
S1130EB0174FF6E74FF08647F3E7114DEB6913F050
S1130EC0040F16D0002CF8D0012C09D0022C09D024
S1130ED0032C09D0042C09D0052CEFD1094DEDE7E2
S1130EE0094DEBE7094DE9E7094DE7E74FF0864582
S1130EF0E4E7BDE8F08700BFB90300000008004044
S1130F000030004000040043003400400020014150
S1130F10004001410E00300030B4034658B10128AE
S1130F200CD002280CD003280CD004280CD005289F
S1130F3002D1224A00E0224A91620DE0214AFBE7F5
S1130F40214AF9E7214AF7E74FF08642F4E71C4CBF
S1130F50227E12F0040F16D1002BF8D0012B09D0F9
S1130F60022B09D0032B09D0042B09D0052BEFD178
S1130F70124CEDE7134CEBE7134CE9E7134CE7E7AE
S1130F804FF08644E4E75BB1012B0DD0022B0DD06A
S1130F90032B0DD0042B0DD0052B02D1074D00E0FF
S1130FA0074DAB6A30BC7047064DFAE7064DF8E7CB
S1130FB0064DF6E74FF08645F3E700BF0004004313
S1130FC00030004000340040002001410040014155
S1130FD030B4034658B101280DD002280DD003289F
S1130FE00DD004280DD0052802D1234C00E0234C59
S1130FF0FF22A2620DE0224CFAE7224CF8E7224CD1
S1131000F6E74FF08644F3E71C490A7E12F0040F1A
S113101016D1002BF8D0012B09D0022B09D0032BB9
S113102009D0042B09D0052BEFD11349EDE714495E
S1131030EBE71449E9E71449E7E74FF08641E4E7B1
S11310405BB1012B0ED0022B0ED0032B0ED0042B40
S11310500ED0052B02D1084D00E0084DA86AC0B29D
S113106030BC7047064DF9E7064DF7E7064DF5E746
S11310704FF08645F2E700BF000400430030004013
S11310800034004000200141004001412DE9F04FAF
S1131090DFF8F0928DB006460F4614461D4600F068
S11310A073F999F90080B8F1FF3FCDE9000136D01A
S11310B022462B462046294601F0DEFC834670BBBF
S11310C032463B463046394601F0D6FC0022824681
S11310D00023002840F0A0803046394601F09AFCF5
S11310E010B3002200232046294601F093FC8346D6
S11310F000286AD001229C4B029200210022CDF8E4
S113110028A0CDE90467CDE90645CDE9081203938B
S1131110B8F1000F45D0954C0023CDE90034DDE94A
S113112000010DB0BDE8F08FDDE9000100F032FFF1
S11311308046002800F08B804FF0000A4FF0000B2F
S113114052465B46DDE9000101F064FC0028E6D06C
S11311503046394600F01EFF0028E0D020462946DC
S113116000F018FF0028DAD099F900307E4A039283
S113117004210022022BCDE90467CDE90645CDE91F
S113118008AB02910A9203D002A800F009FF68B9E3
S113119001F088FC2223036008E000230024CDE949
S11311A0083402A800F0FCFE002830D00A9B1BB1D2
S11311B001F078FC0A9B0360DDE90834CDE90034D2
S11311C0DDE900010DB0BDE8F08F2046294600F0AE
S11311D0E1FE0028A3D0002200232046294601F086
S11311E023FC00289BD099F900305F4ACDF828B041
S11311F00121CDE90467CDE9064502910392002B54
S1131200CBD05B490020022BCDE90801C9D101F004
S113121049FC21230360C9E72046294601F0FAFB73
S113122000283FF47CAF514B4F49CDF828B0012042
S11312300022B8F1020FCDE90467CDE9064502901A
S11312400391CDE90823ACD1CDE9002367E730460B
S1131250394600F09FFE00283FF46EAF2046294631
S113126000F098FE00283FF467AFDDE90023104644
S1131270194601F001FC002858D1032399F9008094
S11312800293394B0A900393CDE90467CDE90645EF
S11312900022002330463946B8F1000F26D1354FDD
S11312A04FF06046CDE9086701F0BEFB00283FF42B
S11312B06BAF0022304B2046294601F043F9044627
S11312C00D4600F075FE02460B462046294601F005
S11312D0A1FB40BB294B99F900804FF06042CDE956
S11312E00823B8F1020F7FF44FAF51E7244F0026D3
S11312F0CDE9086701F098FB0028F2D000221E4BCC
S11313002046294601F01EF904460D4600F050FE21
S113131002460B462046294601F07CFB18B9144BC3
S11313200022CDE9082399F90080DAE799F90090C1
S11313300D4BCDF828800122CDE90467CDE906459F
S113134002920393B9F1000F3FF427AF0022002368
S11313501046194601F020FAB9F1020FCDE908014F
S11313603FF455AF1DE700BF202C00000000F03F04
S11313700000F0FFFFFFEF470000E03FFFFFEFC773
S11313800000F07F020000202DE9F04F23F0004719
S113139057EA020493B037D0674C21F00046A642C6
S11313A083460D4629DC9A46964625D0A74224DC7E
S11313B0614CA74279D0002D89468046CDE90023AF
S11313C077DB0024BEF1000F2CD15B4B9F4200F071
S11313D08B805A4B9F4261D0BAF1804F00F0BA83A0
S11313E0574B9A451ED1002D1CDB4046494613B08D
S11313F0BDE8F04F00F00EBD58B106F1404606F5C9
S1131400801656EA0B0306D14C49002013B0BDE800
S1131410F08FB742CCDD4B4813B0BDE8F04F00F07D
S1131420C1BD00244046494600F0B0FDBBF1000FA9
S113143019D126B1414B25F040429A4213D1BAF159
S1131440000FC0F2BC83002DE0DA06F1404606F539
S1131450801656EA040300F08F84012CD6D101F1E2
S113146000431946D2E7ED0F013D54EA05034ED07F
S1131470354B9F426EDD03F104739F4240F3E883D2
S1131480324B9E424EDDBAF1000F4EDD28A3D3E964
S113149000231046194601F055F8B7E7BAF1000FDA
S11314A0C0F23C8440464946B0E7BEF1000F82D00A
S11314B0A3E7274B9F4228DCA3F154739F4280DDAE
S11314C03B15A3F2FF33142B40F33E84C3F13403E2
S11314D02EFA03F202FA03F39E457FF472AF02F090
S11314E00102C2F102046DE706F1404303F58013E3
S11314F053EA0B0388D0154B9E4240F33283BAF172
S1131500000F12DBDDE9000180E702245AE74246BE
S11315104B464046494600F061FE02460B4601F048
S11315203BF973E7BAF1000FB0DB002000216DE74F
S11315309C7500883CE4377E0000F07F0000F03F9B
S11315400000E03F242C00000000E041FFFFEF3FDB
S1131550FFFF3F43B6F5801F4FF0000205DAD44B7E
S113156000F0F0FF6FF034020E463315D14FC6F38E
S11315701306A3F2FF33134446F07F5ABE421A46C1
S11315800D934AF4401A40F32183CB4B9E4240F31F
S1131590FD83134601330D93C84B0022CDE9062386
S11315A000270026CDE90867CDE90E67AAF5801A61
S11315B00027024653465146CDE90A23DDE90623B6
S11315C000F00CFEDDE9062380468946DDE90A01C8
S11315D000F006FE02460B460020B84901F0DCF894
S11315E00A460146CDE910121346494602464046D2
S11315F000F0A8FF4FEA6A0343F000538C46834689
S113160003F50023CDE904BCDA468B46D91900233F
S1131610CDE902AB0293DDE902AB002006460F469A
S113162002460B465046594600F08CFF02460B46D4
S11316304046494600F0D2FDDDE90623804689464E
S11316403046394600F0CAFD02460B46DDE90A0180
S113165000F0C4FD52465B4600F074FF02460B46A0
S11316604046494600F0BAFDDDE9102300F06AFF68
S1131670DDE90467CDE9060132463B46304639468A
S113168000F060FF78A3D3E9002306460F4600F07C
S113169059FF77A3D3E9002300F0A2FD32463B466D
S11316A000F050FF74A3D3E9002300F099FD324603
S11316B03B4600F047FF72A3D3E9002300F090FDFE
S11316C032463B4600F03EFF6FA3D3E9002300F00F
S11316D087FD32463B4600F035FF6DA3D3E9002376
S11316E000F07EFD3246804689463B463046394608
S11316F000F028FF02460B464046494600F022FF10
S1131700524606460F465B46DDE9040100F068FDDB
S1131710DDE9062300F016FF32463B4600F060FD8B
S11317205246804689465B465046594600F00AFFB9
S11317300022634BCDE90A0100F052FD42464B46BC
S113174000F04EFD02980F46064632463B46504690
S1131750594600F0F7FE002282468B46584B30462D
S1131760394600F03BFDDDE90A2300F037FD02466F
S11317700B464046494600F031FDDDE9042300F004
S1131780E1FE3246804689463B46DDE9060100F02B
S1131790D9FE02460B464046494600F021FD8046EC
S11317A0894602460B4650465946CDE904AB00F043
S11317B017FDDDE902AB38A3D3E9002350460F46F9
S11317C000F0C0FEDDE90423CDE9020139465046AC
S11317D000F004FD02460B464046494600F0FEFC7C
S11317E02FA3D3E9002300F0ADFE2FA3D3E90023F8
S11317F0804689465046394600F0A4FE02460B4610
S11318004046494600F0ECFCDDE90E2300F0E8FC1C
S113181080460D98894600F02FFE424606460F4644
S11318204B46DDE9020100F0DBFCDDE9082300F0B2
S1131830D7FC32463B4600F0D3FC32463B4650468A
S11318408B4600F0CBFCDDE9082300F0C7FCDDE9A2
S1131850022300F0C3FC02460B464046494600F012
S1131860BDFC80462EE000BFEF4E454A287ECA3FAD
S113187065DBC9934A86CD3F01411DA96074D13F00
S11318804D268F515555D53FFFAB6FDBB66DDB3F12
S1131890033333333333E33F000000E009C7EE3F43
S11318A0FD033ADC09C7EE3FF5015B14E02F3EBEB1
S11318B0000040438E98030079B60B000000F03F0F
S11318C0000008408946013C54EA0503DDE90001B3
S11318D014BFD94CD94C0023CDE9043403460C463B
S11318E0CDE9023400230293DDE9024522462B466A
S11318F000F074FC52465B4600F024FEDDE9002350
S113190006460F464046494600F01CFE02460B467A
S11319103046394600F064FC2246804689462B4610
S113192050465946CDE9008900F00CFE0B460246AC
S113193006460F464046494600F052FCC04B9942C9
S113194004460D468A4640F3168101F13F4303F5F0
S1131950E003034340F0EA81A3A3D3E90023DDE9D4
S1131960000100F03DFC3246804689463B46204655
S1131970294600F033FC02460B464046494601F036
S113198071F8002840F0D281A8464FEA28534FF45A
S11319908012A3F2FE3342FA03F35344C3F30A5210
S11319A0A84DA2F2FF321541C3F3130423EA050143
S11319B00020C2F1140B44F48014BAF1000F024663
S11319C00B4644FA0BFB30463946B8BFCBF1000B4B
S11319D000F004FC02460B4606460F46DDE9000112
S11319E000F0FEFB4FEA0B5A0D46002480A3D3E916
S11319F000232046294600F0A5FD3246804689464C
S1131A003B462046294600F0E9FB02460B46DDE949
S1131A10000100F0E3FB78A3D3E9002300F092FD7A
S1131A2077A3D3E9002306460F462046294600F053
S1131A3089FD02460B463046394600F0D1FB064686
S1131A400F4602460B464046494600F0C9FB424653
S1131A504B4604460D4600F0C1FB02460B46304699
S1131A60394600F0BBFB2246804689462B46204679
S1131A70294600F067FD64A3D3E9002306460F4618
S1131A8000F060FD62A3D3E9002300F0A7FB324617
S1131A903B4600F057FD60A3D3E9002300F0A0FB10
S1131AA032463B4600F04EFD5DA3D3E9002300F02F
S1131AB095FB32463B4600F045FD5BA3D3E900238A
S1131AC000F08EFB32463B4600F03CFD02460B46DE
S1131AD02046294600F082FB06460F4602460B4686
S1131AE02046294600F02EFD0022CDE900014FF0EA
S1131AF080433046394600F071FB02460B46DDE96F
S1131B00000100F049FE424606460F464B46204679
S1131B10294600F017FD42464B4600F061FB0246A1
S1131B200B463046394600F059FB22462B4600F05E
S1131B3055FB02460B4600203F4900F04FFB8A4408
S1131B40BAF5801FC0F233815146DDE9042300F069
S1131B50F9FC5BE4424640464B46494600F0F2FC41
S1131B6054E4BAF1000FBFF6E0ACDDE900341846E6
S1131B7004F100414AE4344B21F00048984540F315
S1131B80F280324B0B4403430CD132463B4600F007
S1131B9025FB02460B46DDE9000100F04FFF00285B
S1131BA03FF4F3AEDDE9040121A3D3E9002300F0FF
S1131BB0C9FC1FA3D3E9002300F0C4FC26E40246B9
S1131BC00B4600201C4900F0E7FD3CE40022002302
S1131BD0CDE90823CDE90E23174B00220027CDE9D8
S1131BE00623E6E4AFF30080FE822B654715973C9D
S1131BF000000000432EE63FEF39FAFE422EE63F96
S1131C00396CA80C615C20BED0A4BE726937663EF4
S1131C10F16BD2C541BDBB3E2CDE25AF6A56113FE8
S1131C2093BDBE166CC1663F3E5555555555C53FCF
S1131C3059F3F8C21F6EA5010000F03F0000F0BF89
S1131C40FFFF8F40FFFF0F00FFCB904000346F3F3A
S1131C506B4B9E427FF766AC6A4B9E423FF713ACD8
S1131C600022684B00F0BAFA57A3D3E900230646D2
S1131C700F4600F067FC56A3D3E90023804689464B
S1131C803046394600F05EFC002282468B465E4BAD
S1131C903046394600F056FC02460B464EA1D1E9C7
S1131CA0000100F09BFA32463B4600F04BFC024632
S1131CB00B460020554900F091FA3246CDE9020165
S1131CC03B463046394600F03DFC02460B46DDE912
S1131CD0020100F037FC42A3D3E9002300F032FCF8
S1131CE002460B465046594600F078FA02460B4627
S1131CF006460F464046494600F072FA42464B46B5
S1131D00002082468B4600F069FA02460B463046B4
S1131D10394600F063FA80468946D4E542464B468C
S1131D200020384900F038FDFFF770BBDDE90401FD
S1131D302DA3D3E9002300F005FC2BA3D3E9002352
S1131D4000F000FCFFF762BBBEF1000F7FF469AB4B
S1131D50C3F1140347FA03F202FA03F39F422AD0B1
S1131D607446FFF736BB294B98453FF70EAEDDE9C5
S1131D7002239246934638E602460B4600F02EFABA
S1131D8002460B4600F008FDFFF740BB18A3D3E959
S1131D900023CDE9082318A3D3E90023CDE90E23BA
S1131DA01B4B00224FF48027CDE9062301E45A4659
S1131DB000F08AF9C9E602F00102C2F10204FFF759
S1131DC008BB00BFAFF30080000000604715F73F79
S1131DD044DF5DF80BAE543E555555555555D53F2A
S1131DE0FE822B654715F73F9C7500883CE4377EDF
S1131DF00000004003B8E23F06D0CF43EBFD4C3E69
S1131E00FEFFEF3F0000F03F0000D03F0000E03F46
S1131E100000F83F2DE9F8435B4F8F4305460C461D
S1131E2000F0928000290B4602466FDD0F157BD02F
S1131E30A7F2FF37C3F31303F80743F480135CD40A
S1131E4003EBD27100260B447F105200B6461620D5
S1131E504FF400110EEB01049C424FEAD2754FEA95
S1131E60420203DC1B1B04EB010E0E44013805EB9C
S1131E7043034FEA5101EDD1844620244FF0004141
S1131E8009E020D003EBD275013C4FEA51012B4409
S1131E904FEA420220D0734501EB0C05F1DD002D21
S1131EA005EB010C09DBF0469542A3EB0E0300D9C8
S1131EB0013B521B0844C646E4E7BCF1000FF2DBC9
S1131EC00EF10108F0E79542DCD8002D05EB010C7A
S1131ED044DB98460023ECE7134313D14008731006
S1131EE003F17F5303F50013F20703EB075948BFCF
S1131EF040F000404946BDE8F8835B0003EBD27331
S1131F0052009DE7411C2DD00130E7E7064621F041
S1131F1000473E43EFD069BB0F46D30A153F520535
S1131F20002BFAD0DE0220D4002400E004465B003B
S1131F30DD0204F10100F9D5C0F1200122FA01F11A
S1131F400B433F1B824073E702460B4600F0FAFA4C
S1131F502A46234600F044F9BDE8F883BCF1000F9B
S1131F60AEDAB6E701362046B9E7002020214FF06B
S1131F70FF34E3E702460B4600F030F902460B4615
S1131F8000F00AFCB7E700BF0000F07F21F0004139
S1131F90704700BF41F0004101F58010C00F704749
S1131FA00020704700200149704700BF0000F87FFF
S1131FB0F0B5C1F30A5EAEF2FF36132E83B00246CB
S1131FC00B460C464FEAD17507462EDC002E49DB42
S1131FD03A49314103EA010010432BD049080B4030
S1131FE053EA02070CD04FF48023132E24EA010194
S1131FF043FA06F444EA01040CBF4FF000470027FB
S11320002F4B03EBC5052146D5E90045384622464A
S11320102B4600F0E5F8CDE9000122462B46DDE928
S1132020000100F0DBF803B0F0BD332E06DDB6F599
S1132030806F40D01046194603B0F0BDAEF2134E87
S11320404FF0FF3121FA0EF10842F3D0490808425B
S1132050D6D04FF0804320EA010143FA0EFE4EEA47
S11320600107CDE721F000410143E3D0C3F313019D
S1132070134E0143C1F1000C06EBC506D6E9006717
S11320804CEA010C4FEA1C3C5C0C64040CF4002385
S113209043EA040132463B4600F0A2F8CDE90001D0
S11320A032463B46DDE9000100F098F821F0004497
S11320B044EAC571C0E700F093F8BDE7FFFF0F00E5
S11320C0282C000000000000F8B5C1F30A560446AD
S11320D00D460B4617460EBB21F0004303438646CC
S11320E025D00022344B00F02DFA344A974204469E
S11320F00D460B462ADBC1F30A56363E3E4440F2F7
S1132100FE72964228DC002E12DD23F0FF4323F4F6
S1132110E00343EA065520462946F8BD40F2FF7223
S11321209642EBD102460B4600F05AF8F8BDF8BDD2
S113213016F1350F1DDA4CF250339F4222462B46DE
S113214025DC19A1D1E9000100F03CF816A3D3E97C
S1132150002300F0F7F9F8BD22462B4614A1D1E97B
S1132160000100F02FF812A3D3E9002300F0EAF9EC
S1132170F8BD23F0FF4323F4E003363643EA065563
S11321802046294600220E4B00F0DCF9F8BD08A1D8
S1132190D1E9000100F016F805A3D3E9002300F00B
S11321A0D1F9F8BDAFF3008059F3F8C21F6EA50151
S11321B09C7500883CE4377E00005043B03CFFFF30
S11321C00000903C03F0004321F0004242EA030186
S11321D0704700BF81F0004102E000BF83F000437C
S11321E030B54FEA41044FEA430594EA050F08BFAE
S11321F090EA020F1FBF54EA000C55EA020C7FEA72
S1132200645C7FEA655C00F0E2804FEA5454D4EBEE
S11322105555B8BF6D420CDD2C4480EA020281EAB8
S1132220030382EA000083EA010180EA020281EAF0
S11322300303362D88BF30BD11F0004F4FEA013142
S11322404FF4801C4CEA113102D0404261EB410151
S113225013F0004F4FEA03334CEA133302D05242D7
S113226063EB430394EA050F00F0A780A4F1010493
S1132270D5F1200E0DDB02FA0EFC22FA05F28018CD
S113228041F1000103FA0EF2801843FA05F35941B3
S11322900EE0A5F120050EF1200E012A03FA0EFC32
S11322A028BF4CF0020C43FA05F3C01851EBE3715C
S11322B001F0004507D54FF0000EDCF1000C7EEB79
S11322C000006EEB0101B1F5801F1BD3B1F5001FB7
S11322D00CD349085FEA30004FEA3C0C04F10104D6
S11322E04FEA445212F5800F80F09A80BCF1004FFF
S11322F008BF5FEA500C50F1000041EB045141EA81
S1132300050130BD5FEA4C0C404141EB010111F481
S1132310801FA4F10104E9D191F0000F04BF01462C
S11323200020B1FA81F308BF2033A3F10B03B3F10A
S113233020020CDA0C3208DD02F1140CC2F10C029A
S113234001FA0CF021FA02F10CE002F11402D8BFF8
S1132350C2F1200C01FA02F120FA0CFCDCBF41EAC4
S11323600C019040E41AA2BF01EB0451294330BD93
S11323706FEA04041F3C1CDA0C340EDC04F1140470
S1132380C4F1200220FA04F001FA02F340EA030047
S113239021FA04F345EA030130BDC4F10C04C4F18D
S11323A0200220FA02F001FA04F340EA030029466D
S11323B030BD21FA04F0294630BD94F0000F83F4B7
S11323C0801306BF81F480110134013D4EE77FEA9A
S11323D0645C18BF7FEA655C29D094EA050F08BFE6
S11323E090EA020F05D054EA000C04BF19461046C7
S11323F030BD91EA030F1EBF0021002030BD5FEA0B
S1132400545C05D14000494128BF41F0004130BD32
S113241014F580043CBF01F5801130BD01F0004586
S113242045F0FE4141F470014FF0000030BD7FEAF9
S1132430645C1ABF194610467FEA655C1CBF0B46F4
S1132440024650EA013406BF52EA033591EA030F0B
S113245041F4002130BD00BF90F0000F04BF002103
S1132460704730B54FF4806404F132044FF0000536
S11324704FF0000150E700BF90F0000F04BF0021AF
S1132480704730B54FF4806404F1320410F0004515
S113249048BF40424FF000013EE700BF42004FEA10
S11324A0E2014FEA31014FEA02701FBF12F07F438D
S11324B093F07F4F81F06051704792F0000F14BF8A
S11324C093F07F4F704730B54FF4607401F00045CE
S11324D021F0004120E700BF50EA010208BF704725
S11324E030B54FF000050AE050EA010208BF70471A
S11324F030B511F0004502D5404261EB41014FF483
S1132500806404F132045FEA915C3FF4DCAE4FF086
S113251003025FEADC0C18BF03325FEADC0C18BF6D
S1132520033202EBDC02C2F1200300FA03FC20FABE
S113253002F001FA03FE40EA0E0021FA02F114440B
S1132540C1E600BF70B54FF0FF0C4CF4E06C1CEA20
S113255011541DBF1CEA135594EA0C0F95EA0C0F95
S113256000F0DEF82C4481EA030621EA4C5123EA08
S11325704C5350EA013518BF52EA033541F4801137
S113258043F4801338D0A0FB02CE4FF00005E1FBEA
S113259002E506F00042E0FB03E54FF00006E1FB34
S11325A003569CF0000F18BF4EF0010EA4F1FF0477
S11325B0B6F5007F64F5407404D25FEA4E0E6D41B7
S11325C046EB060642EAC62141EA55514FEAC520C8
S11325D040EA5E504FEACE2EB4F1FD0C88BFBCF544
S11325E0E06F1ED8BEF1004F08BF5FEA500E50F1F5
S11325F0000041EB045170BD06F0004646EA0101BB
S113260040EA020081EA0301B4EB5C04C2BFD4EBEC
S11326100C0541EA045170BD41F480114FF0000EE5
S1132620013C00F3AB8014F1360FDEBF002001F053
S1132630004170BDC4F10004203C35DA0C341BDCCD
S113264004F11404C4F1200500FA05F320FA04F09F
S113265001FA05F240EA020001F0004221F00041D3
S113266010EBD37021FA04F642EB06015EEA430E46
S113267008BF20EAD37070BDC4F10C04C4F1200576
S113268000FA04F320FA05F001FA04F240EA020029
S113269001F0004110EBD37041F100015EEA430EFA
S11326A008BF20EAD37070BDC4F1200500FA05F21A
S11326B04EEA020E20FA04F301FA05F243EA020399
S11326C021FA04F001F0004121FA04F220EA0200A8
S11326D000EBD3705EEA430E08BF20EAD37070BDEE
S11326E094F0000F0FD101F00046400041EB0101CE
S11326F011F4801F08BF013CF7D041EA060195F0B0
S1132700000F18BF704703F00046520043EB030369
S113271013F4801F08BF013DF7D043EA0603704756
S113272094EA0C0F0CEA135518BF95EA0C0F0CD061
S113273050EA410618BF52EA4306D1D181EA0301A7
S113274001F000414FF0000070BD50EA410606BFA1
S11327501046194652EA430619D094EA0C0F02D1E6
S113276050EA013613D195EA0C0F05D152EA03362B
S11327701CBF104619460AD181EA030101F0004149
S113278041F0FE4141F470014FF0000070BD41F092
S1132790FE4141F4780170BD70B54FF0FF0C4CF46C
S11327A0E06C1CEA11541DBF1CEA135594EA0C0F8B
S11327B095EA0C0F00F0A7F8A4EB050481EA030ED8
S11327C052EA03354FEA013100F088804FEA0333BF
S11327D04FF0805545EA131343EA12634FEA02228D
S11327E045EA111545EA10654FEA00260EF000414E
S11327F09D4208BF964244F1FD0404F5407402D2A0
S11328005B084FEA3202B61A65EB03055B084FEA30
S113281032024FF480104FF4002CB6EB020E75EB2D
S1132820030E22BFB61A754640EA0C005B084FEA55
S11328303202B6EB020E75EB030E22BFB61A7546D2
S113284040EA5C005B084FEA3202B6EB020E75EB1D
S1132850030E22BFB61A754640EA9C005B084FEA95
S11328603202B6EB020E75EB030E22BFB61A7546A2
S113287040EADC0055EA060E18D04FEA051545EA91
S113288016754FEA06164FEAC30343EA52734FEA3A
S1132890C2025FEA1C1CC0D111F4801F0BD141EAB3
S11328A000014FF000004FF0004CB6E711F4801F18
S11328B004BF01430020B4F1FD0C88BFBCF5E06FF8
S11328C03FF6AFAEB5EB030C04BFB6EB020C5FEA08
S11328D0500C50F1000041EB045170BD0EF0004E5D
S11328E04EEA113114EB5C04C2BFD4EB0C0541EA8F
S11328F0045170BD41F480114FF0000E013C90E68C
S113290045EA060E8DE60CEA135594EA0C0F08BF4F
S113291095EA0C0F3FF43BAF94EA0C0F0AD150EA4E
S113292001347FF434AF95EA0C0F7FF425AF1046E1
S113293019462CE795EA0C0F06D152EA03353FF409
S1132940FDAE1046194622E750EA410618BF52EA86
S113295043067FF4C5AE50EA41047FF40DAF52EA5A
S113296043057FF4EBAE12E74FF0FF3C06E000BFF7
S11329704FF0010C02E000BF4FF0010C4DF804CD04
S11329804FEA410C7FEA6C5C4FEA430C18BF7FEAC4
S11329906C5C1BD001B050EA410C0CBF52EA430CF2
S11329A091EA030F02BF90EA020F0020704710F172
S11329B0000F91EA030F58BF994208BF90422CBF01
S11329C0D8176FEAE37040F0010070474FEA410CFA
S11329D07FEA6C5C02D150EA013C07D14FEA430C18
S11329E07FEA6C5CD6D152EA033CD3D05DF8040B89
S11329F0704700BF8446104662468C4619466346BB
S1132A0000E000BF01B5FFF7B7FF002848BF10F191
S1132A10000F01BD4DF808EDFFF7F4FF0CBF0120D6
S1132A2000205DF808FB00BF4DF808EDFFF7EAFF52
S1132A3034BF012000205DF808FB00BF4DF808ED0D
S1132A40FFF7E0FF94BF012000205DF808FB00BF02
S1132A504DF808EDFFF7CEFF94BF012000205DF88C
S1132A6008FB00BF4DF808EDFFF7C4FF34BF012099
S1132A7000205DF808FB00BF4FEA410C7FEA6C5C64
S1132A8002D150EA013C0AD14FEA430C7FEA6C5C64
S1132A9002D152EA033C02D14FF0000070474FF0DC
S1132AA001007047014B1868704700BF0400002004
S1132AB070B50F4E0F4D761BB61018BF002405D00D
S1132AC0013455F8043B9847A642F9D10A4E0B4D00
S1132AD0761B00F0B3F8B61018BF002406D00134FA
S1132AE055F8043B9847A642F9D170BD70BD00BFAC
S1132AF0482C0000482C0000502C0000482C0000FA
S1132B00024B13B1024800F005B870470000000002
S1132B10212B0000002301461A46184600F01EB877
S1132B2038B50A4C0A4D641BA4100AD004F1804342
S1132B30013B05EB8305013C55F804399847002C0B
S1132B40F9D1BDE8384000F083B800BF602C000024
S1132B505C2C0000704700BF704700BF2DE9F843AC
S1132B602C4D0646286898460F469146FFF7F2FF1B
S1132B70294B1C68D4F84831002B3ED05A681F2AD0
S1132B801CDC02F1010E76B103EB82010124C1F8D1
S1132B908890D3F8880194402043022EC3F888011A
S1132BA0C1F8088123D00232C3F804E0286843F84E
S1132BB02270FFF7D1FF0020BDE8F883174B0BB359
S1132BC04FF4C870AFF300800346D8B1D4F848215D
S1132BD00260002141600A46C4F848014FF0010E2A
S1132BE0C0F88811C0F88C11002EDCD0CCE7D3F8E3
S1132BF08C110C43C3F88C41D5E704F5A673C4F8D3
S1132C004831BBE72868FFF7A7FF4FF0FF30BDE866
S1132C10F88300BF30040020382C000000000000BE
S1132C20706F7700000000000000000000003043D7
S1132C3000000000000030C308000020F8B500BF09
S1132C40F8BC08BC9E467047012B000089020000B6
S1132C50F8B500BFF8BC08BC9E467047650200008A
S1132C601E6401000800002000000000F40200209F
S1132C705C030020C40300200000000000000000EA
S1132C800000000000000000000000000000000040
S1132C900000000000000000000000000000000030
S1132CA00000000000000000000000000000000020
S1132CB00000000000000000000000000000000010
S1132CC00000000000000000000000000000000000
S1132CD000000000000000000000000000000000F0
S1132CE000000000000000000000000000000000E0
S1132CF000000000000000000000000000000000D0
S1132D0000000000000000000000000000000000BF
S1132D1001000000000000000E33CDAB34126DE65C
S1132D20ECDE05000B0000000000000000000000C5
S1132D30000000000000000000000000000000008F
S1132D40000000000000000000000000000000007F
S1132D50000000000000000000000000000000006F
S1132D60000000000000000000000000000000005F
S1073090C004002054
S9030000FC
