S0140000446173416C74696D657465722E7372656351
S1130000E025002019010000150100001501000081
S113001000000000000000000000000000000000DC
S113002000000000000000000000000015010000B6
S11300300000000000000000150100001501000090
S11300401501000015010000150100001501000054
S11300501501000015010000150100001501000044
S11300601501000015010000150100001501000034
S11300701501000015010000150100001501000024
S11300801501000015010000150100001501000014
S11300901501000000000000000000001501000030
S11300A015010000150100001501000015010000F4
S11300B00000000010B5064C2378002B07D1054B37
S11300C0002B02D0044800E000BF0123237010BDC0
S11300D04004002000000000E81E0000084B10B59A
S11300E0002B03D00749084800E000BF0748036815
S11300F0002B00D110BD064B002BFBD09847F9E72D
S11301000000000044040020E81E0000E81E000077
S113011000000000FEE7C04670B52E4B2E4A9A42FE
S113012003D02E4B2B4A9A4204D32D4B2D4A9A428C
S113013010D31EE02C4A294B03339B1A9B0801332E
S11301409B000022234824498C58845004329A424C
S1130150FAD1EAE7254A224B03339B1A9B08013361
S11301609B0000221F4800211418216004329A4287
S1130170FAD11F4AFF211F4B8B439360FD39902313
S11301805B001D4AD1501D48C3780324A3430222B7
S11301901343C370C3780C26B34308210B43C370C5
S11301A0174B987B3025A8430500202028439873DB
S11301B0987BB04301439973997BA1430A439A7393
S11301C0104A516880230B4353600F4B98470F4BE1
S11301D09847FEE700000020E81E000038040020D5
S11301E0E005002040040020040000204404002016
S11301F000ED00E0000000000070004100500041EC
S11302000048004100400041AD1A0000B503000061
S1130210014A024B1A60704740420F000000002060
S1130220F0B55F4656464D464446F0B483B0574B4E
S11302309847574B9847574B9847574B9847574BB6
S11302409847574B40221A60C12189005858554A93
S113025002405A50544B5C20195C012291431954BA
S11302608021490599603224195D4D3883460F2653
S113027031401020014319551334185D01210843FE
S11302801855113C185D5D46A843084318551434AD
S1130290185D084318551034185D90431855802094
S11302A04004986058613D35585D9043585580200E
S11302B0400198604D208046185C90434446185590
S11302C08020800198604F201C5C94431C541C5C6B
S11302D00227BC4667463C431C54802424025C60CD
S11302E03724A1461C5D34402027BA4657463C4378
S11302F04F46DC551C5C0C431C5419381C5C2640CE
S1130300544626431E5444461C5D0C4346469C55A5
S11303101C5C5E46B443664634431C54585D01433A
S113032059555421585C9043585480204003986098
S11303309861585C904358540639585C904358541B
S11303408020C00198609861585C904358540831EB
S1130350585C904358548022D2039A60585C4022DF
S113036002435A54042253390220104B9847002365
S1130370019300930022032102200D4CA04703B0F7
S11303803CBC90469946A246AB46F0BD1102000023
S1130390A505000075060000A5040000ED06000098
S11303A000E100E0FFFF00FF00440041B90B000042
S11303B0210C0000F0B5A5B02A4B984709A82A4B98
S11303C0984700230893294F3B6801937B68009367
S11303D0274D284E01980099A84702ABD8803220B7
S11303E0B047089B0133089309A8234B9847802200
S11303F0D203224BDA610120B047B868F968A847F4
S11304000E2302AA94466344188018881C4B9C4609
S113041060441C4B98471C4A1C4B1D4CA0471D4B69
S113042098470490079804991B4CA0470790069896
S11304301299A0470690089B642BCBD180225205C9
S11304400E4BDA610698154C1549A047069007989B
S11304501349A047079001235B42089300230793A5
S11304600693B3E72102000059090000B01C000004
S113047025050000C1060000B50900000044004144
S1130480B0F0FFFF2D180000910F7A36AB3E973F76
S113049039130000591900000D0D0000F90F000078
S11304A00000C84210B5124A136A802149020B4366
S11304B013621049E022D2008A800F480F4B588003
S11304C00F4B1B685B01134018000E4B5A68540114
S11304D01A68D30E2343FF22134003430B850223E0
S11304E04B700B700A00537E5BB2002BFBDB10BD1C
S11304F000040040004000421E400000000C004088
S113050024608000206080000222054B1A731900C9
S1130510013A0B7E1342FCD0014B588B80B27047DA
S11305200040004230B583B0030C020000900191FA
S1130530C9B2DBB2100EC2070CD54208DC01121995
S1130540144CA446624414780F252C4010252C43E7
S113055014700BE04208DC0112190E4CA4466244EC
S113056014780F25AC4301252C431470DB01C0180B
S1130570094B9C46604402780123134303701F23F4
S11305801940C0235B011943044B1961044B98477C
S113059003B030BD304400414044004100400042BB
S11305A00905000010B51C4AC223DB0093601B49F7
S11305B04868022303434B60194B938211000222C3
S11305C0CB681A42FCD0174B1C68A40E3F2C00D1F8
S11305D0203C154B18688005800D144B984200D1BF
S11305E01348144A0C4B9A8419001022CB681A42FF
S11305F0FCD0A4022043084B986219001022CB6857
S11306001A42FCD00C4A044B9A840C4B80225200B0
S11306109A600B4A5A6010BD000800400040004137
S11306200E0600002460800028608000FF030000A4
S1130630FF01000022050000A2050000000C00409C
S11306400007010010B50F2318401202074B1A408F
S11306500243074CA2600902F8235B01194080237E
S11306605B0219430843606010BDC04600FFFF00F1
S1130670000C0040044B054A1A6030225A602B3AA1
S1130680034B1A607047C0460400002080BB000082
S113069010E000E030B5084B5C68084A0025802172
S11306A0490206E0002C04D05460956013680B42A4
S11306B0FCD00138F6D230BD0400002010E000E088
S11306C030B5084B1C68084A00258021490206E021
S11306D0002C04D05460956013680B42FCD00138A0
S11306E0F6D230BD0400002010E000E070B5114DDA
S11306F0C02200212800104EB047104CC022002117
S11307002000B0470E4B596920220A435A61D96927
S113071010220A43DA610B4B1A8802218A431A8099
S1130720198801220A431A805D639C63064A1A8071
S113073070BDC04620050020F51A000060040020AA
S11307400004004000480041020F0000F0B5474695
S113075080B40E4F8024E4017C61002102200C4D02
S1130760A847FF210220A8470600FF210220A8472E
S11307708046FF210220A847BC61360443461C0280
S11307803443204304BC9046F0BDC04600440041BD
S1130790990C0000F0B54F464646C0B48BB0070034
S11307A003881E2502AA944665442B8043889383BC
S11307B083885383C38808AE338003891622624436
S11307C01380418907AB1980148824020269141B21
S11307D0E2171100188880B22B4B99462200019130
S11307E00B000021C847FA23DB009C466144796171
S11307F002AB9B8B9BB29846308880B22200019B4F
S11308000021C8474E06C2093243CB110021464697
S1130810300412184B41049205932D88ADB202AAFC
S1130820508B80B22200019B0021C8470C06020AAB
S113083022430B120021E80312184B410292039346
S1130840029A039B049C059DF8680021C847CE17B3
S1130850F602F20A002380185941CE02420D3243B7
S11308604B15121BAB41DC176404600C00211218F9
S11308704B4111005B04CA0B1A43FA610BB00CBC68
S113088090469946F0BDC046B50C000070B5040012
S1130890C26982610F4B9A4202D90F4B036218E07E
S11308A00C4B9B1A9B0A4B2B02DD0C4B036210E092
S11308B00B4D990048599E020649891B8A1A013337
S11308C09B005B591B1A5A43920A1018054B984710
S11308D0206270BDCC99010000C0E5C6E0487049B3
S11308E0C01C0000BD120000F0B55F464E464546F0
S11308F0E0B48046A224154E154F96208000B047E0
S113090096208000B047134D8023DB019B466B612A
S113091021000220B847FF210220B8478146FF2169
S11309200220B8475B46AB614B461D022843434651
S113093018800234E4B202239C46E044AE2CDCD19D
S11309401CBC90469946A346F0BDC04695060000DF
S1130950990C00000044004170B504000D4D802640
S1130960F6016E611E2102200B4B9847AE61C82030
S11309700A4B984720000A4B98470A4B23620A4BBC
S1130980A3610A4BE3600A4B2361FA23DB00636132
S113099070BDC04600440041990C0000C10600002F
S11309A0E908000000007A4510270000FEC9410054
S11309B0E4FA7F00F8B55F4656464D464446F0B427
S11309C00400694B18685968684B9847684B984706
S11309D0684B9946684A694BC847694B984698479B
S11309E0A066684D8027FF016F6150210220664E8A
S11309F0B047AF610220654B9B469847644B9A46CB
S1130A00984720616F6142210220B047AF61022004
S1130A10D847D047E06020005E4B984720005E4BEB
S1130A209847206A5D4B98475D4A5E4BC847C0476C
S1130A30606280277F036F61BA210220B047FF21E3
S1130A400220B0474C23E054FF210220B0474D233D
S1130A50E054AF61E35C5AB2002A09DA4C22A25C8A
S1130A60514810431B021843504B9847A06206E0BC
S1130A701B024C22A05C18184C4B9847A062A06A39
S1130A80464B98474A4A4B4B3A4DA8473C4B9847EC
S1130A90A0623C4E80277F037761BC2102203A4D3F
S1130AA0A847FF210220A8474E23E054FF2102203B
S1130AB0A8474F23E054B761E35C5AB2002A09DA2D
S1130AC04E22A25C384810431B021843374B984708
S1130AD0E06206E01B024E22A05C1818334B9847D4
S1130AE0E062E06A2D4B9847314A324B214DA847CA
S1130AF0234B9847E062234E80277F037761BE2112
S1130B000220214DA847FF210220A8475023E0548A
S1130B10FF210220A8475123E054B761E05C43B2AF
S1130B20002B09DA5023E35C1F4A134300021843E5
S1130B301E4B9847206306E000025023E35CC01874
S1130B401A4B98472063206B144B9847184A194B4B
S1130B50084DA8470A4B984720633CBC90469946E9
S1130B60A246AB46F8BDC046F41D000025050000B2
S1130B702D18000039130000A9A0A2EA573A5F3FDC
S1130B805919000000440041990C0000C1060000FE
S1130B904D070000950700008D080000B118000003
S1130BA03FA9F6E978CCA03F0000FFFF2D1200001A
S1130BB0EF3525D54EFF0F3F70B504000D000E48EC
S1130BC0016AA61C0123B3400B430362002D03D02A
S1130BD007212800094B98472902F0231B011940DB
S1130BE08023DB011943230014333F241C400C43AE
S1130BF0034B5C8070BDC046000400404506000005
S1130C00000C00408002054B9C46604401230360B5
S1130C10012203681A42FCD17047C0460008004212
S1130C20F8B54F464646C0B40600884617001D0076
S1130C3008AB1C7809AB1B789946154B9847B00252
S1130C40144B9C46604480239B0243604B460373D1
S1130C5043461905C0239B0319400E003904C023E1
S1130C609B0219400E230A001A436B1E9D416D0717
S1130C7031001143631E9C4122072C000C43144392
S1130C800460C3695B07FCD40CBC90469946F8BD6C
S1130C90050C0000000800428002054B9C4660449D
S1130CA08162037E5B07FCD5806AC0B27047C04690
S1130CB000080042F0B54F464646C0B41604360C50
S1130CC09946330005042C0C070C150C63437E4332
S1130CD06F4365431C0CAD1964199C46A64203D9A5
S1130CE080235B02984647446346250CEF191D0494
S1130CF04B464A4343432D0C240464199918C919DB
S1130D0020000CBC90469946F0BDC046F8B54A0296
S1130D10430244004E00C50F240E28009B09360EE2
S1130D20C90F92098D4259D0A01B002800DC8DE028
S1130D30002E1AD1002A00D079E05A0704D00F22DD
S1130D401A40042A00D004335A0138D50134FF2C48
S1130D5000D189E028009B015B0AE4B25B02E40550
S1130D605B0A2343C0071843F8BDFF2CE5D080215C
S1130D70C9040A431B2800DD89E016002021C6406F
S1130D80081A8240511E8A4132439B1A5A0114D5D3
S1130D909B019E09300000F06BFE053886408442BA
S1130DA065DC041B330020200134E340041BA6400F
S1130DB0721E964100243343BFE75A07BFD1DF08B0
S1130DC02800FF2C2FD1002F00D187E08022D203EE
S1130DD013003B435B025B0AFF24BFE7A11B00290E
S1130DE049DD002E29D0FF2CA7D08026F6043243FB
S1130DF01B2900DD8DE017002026CF40711A8A40A0
S1130E00511E8A413A439B185A01D6D50134FF2C0E
S1130E1064D0012276491A405B080B4013438CE7E7
S1130E20031ECAD100207B025B0AE4B296E70138B4
S1130E300028AAD0FF2C9DD17FE7002A00D17CE7AF
S1130E4001390029DFD0FF2CD2D176E7002820D148
S1130E50601CC0B2012853DD80279E1AFF0437406E
S1130E602FD0D61A0D0095E72800002376E7614BB2
S1130E70241A334061E700294DD1611CCEB2012E02
S1130E802FDDFF292AD09B185B080C0055E70122AF
S1130E907BE7002C1BD1002B5BD0C04300280CD077
S1130EA0FF2E7ED01B2800DD92E01D002024C540CB
S1130EB0201A8340581E83412B43D31A34000D005B
S1130EC064E7002E00D065E700200024ABE7FF2E86
S1130ED067D08024E40440422343E3E7FF24002353
S1130EE03CE7002C61D1002B7ED0002A00D124E7FE
S1130EF09B185A0100D460E73E4A0C0013401CE7DB
S1130F00002C1ED1002B2FD1002A66D013000D0017
S1130F1013E7012277E7002C1FD1002B5AD0C943D5
S1130F2000290BD0FF2E50D01B295FDC1F0020248A
S1130F30CF40611A8B40591E8B413B439B183400B0
S1130F4062E7002B1CD1002A4AD013000D00FF24B5
S1130F50F3E6130034000D00EFE6FF2E35D08024B5
S1130F60E40449422343DFE7002A00D1E5E6802771
S1130F70981AFF04074000D152E7D31A0D00DCE6AB
S1130F80FF24002A00D1D8E68020DB08C0030342F6
S1130F9004D0D208024201D113000D00DB00FF246B
S1130FA0CBE61300FF240D00C7E6002B0DD0FF2471
S1130FB0002A00D1C1E68021DB08C9030B42EDD031
S1130FC0D2080A42EAD11300E8E71300FF24B4E68A
S1130FD0012372E713003400AFE60027002022E764
S1130FE080270020FF03F1E61300A6E60123A5E70E
S1130FF0FFFFFF7DFFFFFFFBF0B5564644465F460B
S11310004D46F0B444024600C70F83B08846650AD3
S1131010360EBA463DD0FF2E22D00023EC008025A8
S113102099469B46ED0425437F3E43465C025800A7
S1131030DB0F640A000E984636D0FF2830D0802398
S11310400021E400DB041C437F38301A0190484639
S113105042460843724E800030587A401300874657
S1131060002D44D108239946063B9B46DDE7012227
S1131070FF2000241A406402C305640AD2071C43FB
S11310801443200003B03CBC90469946A246AB46AC
S1131090F0BD002D20D104239946033B9B46C4E7B1
S11310A0002C17D1022102E0002C0AD10121321AAE
S11310B001924A4643460A435A48920082587B406A
S11310C09746200000F0D4FC431F76309C404042F9
S11310D00021BAE70321B8E7280000F0C9FC431F48
S11310E09D4000237630464299469B469DE70C235B
S11310F09946093B9B4698E780240022E403FF209D
S1131100B9E70024C2468B465A465346022AAED05B
S1131110032A7DD0012A31D1012200201A40002463
S1131120A9E70122101A1B2856DD1A4000200024CA
S1131130A1E78023DB031D424BD18023DB032B4338
S11311405C02640A3A00FF2095E76D016001854264
S113115030D2019A0024013A01921B22012729006E
S113116064006D00002901DBA84201D82D1A3C431C
S1131170013A002AF3D16A1E95412C4301987F302D
S11311800028CEDD620704D00F222240042A00D0BA
S11311900434220103D5244A019814408030FE28E7
S11311A000DD64E70122A401640AC0B21A4062E7C8
S11311B02C00A9E72D1A1A220124CFE76B02BCD513
S11311C000248023DB031C436402640A4246FF209C
S11311D051E71C42B3D1F4E721002022C140101A88
S11311E08440621E94410C43620704D00F222240C3
S11311F0042A00D00434620104D5012201201A40DB
S1131200002438E70122A401640A1A40002032E7CE
S11312108023DB031C436402640A5246FF202AE74E
S1131220FC1D00003C1E0000FFFFFFF770B5002806
S113123030D0C317C5185D40C40F280000F018FC57
S11312409E231B1A962B0DDC9622D21A95406A0215
S1131250520AD8B25202C005520AE407024322439A
S1131260100070BD992B19DC9922D21A9540124AAC
S11312702A40690704D00F210D40042D00D0043208
S1131280510103D50C4B1A409F231B1A9201520A99
S1131290D8B2DFE7002400200022DBE705222E007D
S11312A0121AB921D6402A00C91A8A40551EAA41E9
S11312B035001543DBE7C046FFFFFFFB70B5041E96
S11312C028D000F0D5FB9E231B1A962B0ADC96220D
S11312D0D21A94406202520AD8B25202520AC0058B
S11312E0104370BD992B18DC9922D21A9440114AEC
S11312F02240610704D00F210C40042C00D004329A
S1131300510103D50B4B1A409F231B1A9201520A19
S1131310D8B2E2E700200022DFE705222500121AF6
S1131320B921D5402200C91A8A40541EA2412C007A
S11313301443DCE7FFFFFFFBF0B55F4656464D461E
S11313404446F0B40D0399464E002B0B87B00700BA
S1131350924680469B46760DCC0F002E69D06D4B8D
S11313609E4235D05B468022DD001204430F1343B6
S11313702B439B46C3009846674B00279C4600239B
S1131380664401934A4615035000D20F53462D0B71
S1131390400D914600D176E05E4A90426CD08022A6
S11313A05B0F120413435C4AED0094461D435346FD
S11313B00022DB00604449463618701C61400290EC
S11313C017430F2F00D9AFE05448BF00C759BF4699
S11313D05B461F4300D088E000239B4698460233B7
S11313E008270193CEE74946022A6AD0032A00D18E
S11313F009E2012A00D0BBE11140002200230025AC
S11314009046CCB200212D030A0D12052D0B154375
S1131410434A1B0515401D436D00E4076D08254331
S11314204046290007B03CBC90469946A246AB46CC
S1131430F0BD034352D05B46002B00D18AE15846ED
S113144000F016FB03000B3B1C2B00DD7BE11D228F
S1131450D31A3A0001005D46DA4008398D40130082
S11314608F402B439B46B8462E4B00279C460023B7
S113147060444642019385E752462A432CD1002515
S11314800023022297E752462A4321D0002D00D19F
S113149054E1280000F0ECFA03000B3B1C2B00DDA8
S11314A046E11D21CB1A51460200D9405346083A61
S11314B0954093400D431B4A9446604440420022A9
S11314C079E7012400220C40124B0025904699E74D
S11314D00025002301226EE703226CE700239B46CC
S11314E098460133042701934CE703230C27019307
S11314F048E700238025984600242D03054B81E707
S11315005D464346019A6FE75D4643462100019AD2
S11315106AE7C046FF07000001FCFFFF7C1E0000D5
S1131520FFFF0F80F30300004246120C91461A0C91
S11315309446424617044A461B041B0C5A43604611
S113154090464A4642431000039262461C003F0CF8
S11315507A437C4342440192220C9246019A5244BB
S1131560904506D98246802040028046C2445046B7
S11315700390100C049048462404240C12041219FD
S113158005922A0C2D042D0C68432C0082464846F3
S11315907C4350438146200C80465743574447447C
S11315A0BA4503D9802040028046C144380C3F0428
S11315B0B84648442404240C01900498A0444044B0
S11315C004905846000C814658460404200C824678
S11315D0070048465F434C464343604660436446C5
S11315E0834650464443380C8446E4186444A3427A
S11315F003D980235B029C46E34448463F04230C02
S11316003F0C2404E419574668436F4384464D460F
S1131610504655434243380C814662444A445B4435
S1131620944503D9802040028446654403983F04CE
S1131630834604983F0C8446E344C34580414042BA
S11316408246100484460198674484466744A34450
S1131650BC46A345A4419946D44464428742BF4151
S1131660D4458041E144A04699459B417F42404294
S1131670C8440743120CBA18A045A4415F423B007A
S113168064422343D71843467D19DB0D6D021D4385
S11316905B465A02059B1A43531E9A415B46DB0D77
S11316A01A4343465B021343EA0107D501225C084F
S11316B013402343EA07029E13436D08574AB218A6
S11316C0002A4BDD580709D00F201840042805D004
S11316D0181D98429B415B42ED180300E80104D5B4
S11316E04F4A15408022D200B2184E48824200DD93
S11316F0E7E60124DB08680718436D0253058046BA
S11317002D0B5B0D0C407DE68022594612031142DD
S113171008D0154206D115432D0398462D0B4C468F
S1131720414B6FE65D4615432D032D0B3E4B69E699
S113173003005546283B9D400023BCE6504600F07C
S113174097F92030A8E60300283B9F400023BB46BE
S1131750984689E600F08CF9203073E60124A61A35
S1131760382E07DD00220C4000230025904649E670
S1131770029EA3E71F2E20DC20222C001800921BBF
S1131780F040944093400443581E83411C43F54069
S1131790630709D00F232340042B05D023001C1D0D
S11317A09C4292415242AD182B021FD501240022C3
S11317B00C4001230025904624E61F202C004042C3
S11317C0821AD440202E1CD04022961BB5402B43B5
S11317D0581E83410720234318400025002809D0C0
S11317E00F2200251A401C00042AD8D123006807C0
S11317F06D022D0B0124DB08034398460C400023A3
S113180000E60025E3E780220124120315432D039B
S113181098462D0B0C40044BF4E5C046FF03000032
S1131820FFFFFFFEFE070000FF07000070B5002861
S113183030D0C317C4185C40C50F200000F018F95D
S1131840174B184A1B1AD21A1F2A18DD164AD21A25
S11318509440002224035B05240B5B0D002110003F
S113186024030A0D1205240B1443104A1B051440CB
S11318701C436400ED0764082C43210070BD210063
S113188091400A000B21081AC4405B052403240B71
S11318905B0DE3E70025002300240022DEE7C046B9
S11318A01E0400003304000013040000FFFF0F8037
S11318B04200120E511C4302C9B270B55D0AC40F36
S11318C0012915DDE02189008C466D071B0B62445C
S11318D0002128000D0D2D052B431C4D52052B40D6
S11318E0520813435B00E4075B082343190070BDEF
S11318F0002A15D1002D1FD0280000F0B9F80A28BD
S11319001DDC0B232A001B1ADA40130002001532D7
S113191095400F4A1B03121A52051B0B520DD7E7B1
S1131920002D06D080221B0B120313436D07094AB6
S1131930CEE7084A0023CBE700220023C8E70300D0
S11319400B3B9D402B000025E3E7C046FFFF0F80C3
S113195089030000FF0700004B0070B55E0D0C0307
S1131960751C640A420F6D052243C90FC4006D0D36
S1131970012D2ADD3B4BF318FE2B1ADC002B42DD34
S11319808001451EA841D2001043620F0243500754
S113199004D00F201040042800D004328020C0045A
S11319A0104021D00133FF2B03D09201520ADBB245
S11319B001E0FF2300225202520ADB0513435B00BD
S11319C0C9075B080B43180070BD002E07D01443F1
S11319D0EFD08020D20080040243FF23D7E72243C4
S11319E00023002A03D00522D208FF2B03D0520281
S11319F0520ADBB2DFE7002A32D08020C003024360
S1131A005202520AD7E71800173014DB8020000472
S1131A1002431E20C01A1F280FDC2500124BF318A6
S1131A209D406E1EB5419A402B0013432200C240D4
S1131A301A430023ABE70023D5E702256D42EB1AD6
S1131A401500DD40202809D0084BF3189A401443B0
S1131A50621E9441220000232A4398E70022F6E7FD
S1131A600022A8E780FCFFFF82FCFFFFA2FCFFFF2F
S1131A701C2101231B04984201D3000C10391B0ABA
S1131A80984201D3000A08391B09984201D300097E
S1131A90043902A2105C40187047C04604030202D5
S1131AA001010101000000000000000070B50D4EAE
S1131AB00D4D0024AD1BAD1005D0A300F358013427
S1131AC09847A542F9D100F0FDF9084E084D0024CD
S1131AD0AD1BAD1005D0A300F35801349847A542BF
S1131AE0F9D170BDD01E0000D01E0000D01E000031
S1131AF0D81E000070B583073FD0541E002A3BD087
S1131B00CEB20300032503E0621E002C34D014007F
S1131B1001335A1E16702B42F6D1032C24D9FF250B
S1131B200D402A0215432A0415430F2C11D926000F
S1131B30103E3609013636011A009B1915605560AE
S1131B409560D56010329342F8D10F221440032CD3
S1131B500AD9261FB6080136B6001A009B1920C2FE
S1131B609342FCD103221440002C05D0C9B21C19A5
S1131B70197001339C42FBD170BD14000300CCE703
S1131B80034B10B5002B02D0024800F005F810BD3D
S1131B9000000000A91B000010B501000023002272
S1131BA0002000F01BF810BD70B5094B094CE41A75
S1131BB0A41009D0084AA518AD00ED182B68013C03
S1131BC09847043D002CF9D100F086F970BDC04659
S1131BD0E41E0000E81E0000FFFFFF3FF8B5444686
S1131BE05F4656464D469B462F4BF0B41C68A423D3
S1131BF05B000500E0580E00904600284BD0436877
S1131C001F2B0DDC5C1C002D21D102339B00446092
S1131C101E5000203CBC90469946A246AB46F8BDF7
S1131C20224B002B3CD0C820400000E000BF00281D
S1131C3036D0A42200235200A15843600160A05072
S1131C4040328350043283500124002DDDD09A00A9
S1131C5091468144424688214F467A50C42252001C
S1131C609046804442468739994012688A460A431E
S1131C709446424661461160842249465F465200BA
S1131C808F50022DC1D1020055468D32FF321168AA
S1131C900D431560B9E720004D30FF30E050AEE74A
S1131CA001204042B6E7C046C01E0000000000000C
S1131CB00000000808000000000000070700000002
S1131CC0208DFFFFA1ADFFFF64CEFFFF6CEFFFFF90
S1131CD0B71000004A320000255400004976000085
S1131CE0B798000072BB000079DE0000D00101004B
S1131CF0762501006F490100BC6D01005E92010070
S1131D0058B70100AADC0100580202006228020050
S1131D10CC4E020096750200C49C020057C4020017
S1131D2052EC0200B7140300893D0300CA660300A5
S1131D307D900300A4BA030044E503005E10040090
S1131D40F63B04000E680400AC940400D1C1040006
S1131D5081EF0400C11D0500954C0500007C0500C1
S1131D6007AC0500AEDC0500FB0D0600F23F0600E3
S1131D7098720600F4A5060009DA0600E00E0700D2
S1131D807D440700E87A070028B2070044EA070008
S1131D9044230800305D080010980800EFD30800C1
S1131DA0D6100900CF4E0900E58D090023CE0900A5
S1131DB0980F0A004F520A0057960A00BFDB0A0028
S1131DC098220B00F36A0B00E2B40B007B000C00BA
S1131DD0D44D0C00039D0C0023EE0C0050410D006B
S1131DE0A9960D004EEE0D0065480E0016A50E00D6
S1131DF08E040F0000000005050000004A110000D9
S1131E006E1000002C110000041100002C110000C1
S1131E10F81000002C110000041100006E100000E6
S1131E206E100000F810000004110000B011000052
S1131E30B0110000B0110000321100006E1000005B
S1131E406E100000181100000211000018110000AB
S1131E50F810000018110000021100006E100000BC
S1131E606E100000F810000002110000B011000014
S1131E70B0110000B0110000BC11000028150000D2
S1131E80E8130000E8130000E6130000001500004A
S1131E9000150000F2140000E61300000015000015
S1131EA0F214000000150000E613000008150000FD
S1131EB00815000008150000081700004300000082
S1131EC010000020F8B5C046F8BC08BC9E46704718
S1131ED0811B0000DD000000F8B5C046F8BC08BC5A
S10B1EE09E467047B5000000A6
S1131EE840420F0080BB00003000000000000000EA
S1131EF800000000FC02002064030020CC03002042
S1131F0800000000000000000000000000000000C5
S1131F1800000000000000000000000000000000B5
S1131F2800000000BC1E00000000000000000000CB
S1131F380000000000000000000000000000000095
S1131F480000000000000000000000000000000085
S1131F580000000000000000000000000000000075
S1131F680000000000000000000000000000000065
S1131F780000000000000000000000000000000055
S1131F880000000000000000000000000000000045
S1131F980000000000000000010000000000000034
S1131FA80E33CDAB34126DE6ECDE05000B000000F9
S1131FB80000000000000000000000000000000015
S1131FC80000000000000000000000000000000005
S1131FD800000000000000000000000000000000F5
S1131FE800000000000000000000000000000000E5
S9030000FC
