S0140000446173416C74696D657465722E7372656351
S1130000E825002019010000150100001501000079
S113001000000000000000000000000000000000DC
S113002000000000000000000000000015010000B6
S11300300000000000000000150100001501000090
S11300401501000015010000150100001501000054
S11300501501000015010000150100001501000044
S11300601501000015010000150100001501000034
S11300701501000015010000150100001501000024
S11300801501000015010000150100001501000014
S11300901501000000000000000000001501000030
S11300A015010000150100001501000015010000F4
S11300B00000000010B5064C2378002B07D1054B37
S11300C0002B02D0044800E000BF0123237010BDC0
S11300D040040020000000002C1F0000084B10B555
S11300E0002B03D00749084800E000BF0748036815
S11300F0002B00D110BD064B002BFBD09847F9E72D
S113010000000000440400202C1F00002C1F0000ED
S113011000000000FEE70000F8B52A4A2A4B9A4284
S113012011D01A00294B9A420DD2294A03339B1A43
S11301309B0801339B000022234822498C58845099
S113014004329A42FAD1234A234B9A420AD2D34325
S113015021495B1803218B4304339B18002102C2FD
S11301609342FCD11D4AFF211D4B8B439360FD3903
S113017090235B001B4AD1501B4AD3780325AB4321
S113018002242343D370D3780C27BB43082633437C
S1130190D370164B987B30229043202210439873DF
S11301A0997BB943314399739A7BAA4322439A7347
S11301B00F4A536880210B4353600E4B98470E4BF4
S11301C09847FEE72C1F00000000002038040020A0
S11301D00400002040040020E405002000ED00E0BD
S11301E00000000000700041005000410048004140
S11301F000400041F51A000061030000014A024B6F
S11302001A60704740420F0000000020F0B5D64647
S11302104F464646C0B582B0474B9847474B984730
S1130220474B9847474B9847474B9847474B402283
S11302301A60C12189005A58454802405A50454B1A
S11302405C215A5C0124A2435A54802252059A60CC
S11302503220195C0F221140102529431954133000
S1130260195C0126314319544C25595DA143595554
S11302708021490199604D218C46595CA143604617
S113028019548021890199604F21585CA043585426
S1130290585C0227BA465746384358548020000217
S11302A0586037208146185C10402027B8464746DE
S11302B038434F46D855585C304358541939585C24
S11302C00240404602435A5462469A5C32436046B6
S11302D01A545A5C3E388243504602435A545A5D7B
S11302E016435E555422995CA143995480214903D5
S11302F099609961995CA1439954063A995CA14328
S113030099548021C90199609961995CA1439954D8
S11303104A3A03210220104B98470194002300938A
S11303200022032102200D4CA04702B01CBC9046C1
S11303309946A246F0BDC046FD010000210500001B
S1130340F5050000250400006D06000000E100E052
S1130350FFFF00FF00440041550B0000BD0B0000EF
S1130360F0B5A1B0204B984705A8204B984700232F
S113037004931F4E1F4F204D049B0133049305A883
S1130380B047386879681D4B98476B46D880D88841
S11303901B4B9C4660441B4B98471B4A1B4B1C4CF5
S11303A0A0471C4B98470090039800991A4CA0470B
S11303B0039002980E99A0470290049B642BDBD112
S11303C080225205154BDA610298154C291CA0476E
S11303D002900398291CA047039001235B420493D5
S11303E0002303930293C7E70D020000ED08000009
S11303F049090000001D00000000C842A1040000DB
S1130400B0F0FFFF7D180000910F7A36AB3E973FA6
S11304107D130000A51900009D0C0000004400415C
S1130420C10F0000114A116A80235B020B4313625F
S11304300F49E022D2008A800E480F4B58800F4BA0
S11304401B685B0113400E4A506840011268D20ECB
S11304500243FF20024013430B8502234B700B70B1
S11304600A00537E5BB2002BFBDB704700040040A4
S1130470004000421E400000000C00402460800048
S1130480206080000222054B1A731900013A0B7E8A
S11304901342FCD0014B588B80B27047004000429D
S11304A030B583B0030C00900191CDB2DBB2000EE5
S11304B0C2071FD44408D901621815498C46624406
S11304C011780F24A143012421431170DB01C018CA
S11304D0104B9C46604403780122134303701F2190
S11304E00D40C021490129430B4B19610B4B98471F
S11304F003B030BD4108DC010A1905498C46624449
S113050014780F212140102421431170DEE7C046E6
S11305103044004140440041004000428504000052
S113052010B51D4AC223DB0093601C494B680220AE
S113053003434B601A4B938211000222CB681A4288
S1130540FCD0184B1868800E3F2821D0164B1C682D
S1130550A405A40D154B9C421CD0154A0E4B9A843D
S113056019001022CB681A42FCD0800220430A4BA7
S1130570986219001022CB681A42FCD00D4A064B2F
S11305809A840D4B802252009A600C4A5A6010BD26
S11305902038DBE70A4CE0E7000800400040004157
S11305A00E0600002460800028608000FF03000025
S11305B022050000A2050000000C00400007010015
S11305C0FF01000010B50F23034012020748024048
S11305D01A43074CA2600902F82040010140802020
S11305E0400208431843606010BDC04600FFFF008E
S11305F0000C0040044B054A1A6030225A602B3A22
S1130600034B1A607047C0460400002080BB000002
S113061010E000E030B5084B5C68084A00258021F2
S11306204902013807D3002CFBD05460956013684D
S11306300B42FCD0F5E730BD0400002010E000E0E0
S113064030B5084B1C68084A00258021490201384E
S113065007D3002CFBD05460956013680B42FCD088
S1130660F5E730BD0400002010E000E070B5114D46
S1130670C02200212800104EB047104CC022002197
S11306802000B0470E4B5A6920210A435A61DA69A7
S113069010390A43DA610B4B1A880E398A431A80DF
S11306A01A8801210A431A805D639C63064A1A80F2
S11306B070BDC046200500203D1B000060040020E2
S11306C00004004000480041020F000010B5012062
S11306D0024B98470022024B1A7010BD41060000DD
S11306E0E0050020F0B5C64600B50E4F8024E401B5
S11306F07C61002102200C4DA847FF210220A8475D
S11307008046FF210220A8470600FF210220A847B7
S1130710BC6143461C0436023443204304BC904667
S1130720F0BDC046004400412D0C0000F0B5CE469B
S1130730474680B58BB0070003881E2502AA94465D
S113074065442B804388938383885383C38808AE8E
S113075033800389162262441380418907AB1980D0
S1130760148824020269141BE2171100188880B24D
S11307702A4B9946220001910B000021C847FA2315
S1130780DB009C466144796102AB9B8B9BB298462B
S1130790308880B22200019B0021C8474E06C2095E
S11307A03243CB1100214646300412184B410492C7
S11307B005932D88ADB202AA508B80B22200019B12
S11307C00021C8470C06020A22430B120021E80349
S11307D012184B4102920393029A039B049C059DB9
S11307E0F8680021C847CE17F602F20A00238018E1
S11307F05941CE02420D32434B15121BAB41DC175B
S11308006404600C0021801859414B04C00B184348
S1130810F8610BB00CBC90469946F0BD490C000041
S113082070B50400C26982610F4B9A4216D80E4B10
S11308309B1A9B0A4B2B14DC0C4E99008D59980281
S11308400949091A8A1A01339B009859401B5043DD
S1130850800A4019064B9847206201E0054B036269
S113086070BD054B0362FBE7CC990100081D000035
S1130870F112000000C0E5C6E0487049F0B5DE465C
S11308804F464646C0B58046A224154E154F9620C5
S11308908000B04796208000B047134D8023DB01D1
S11308A09B466B6121000220B847FF210220B84714
S11308B08146FF210220B8475B46AB614B461D02CF
S11308C02843434618800234E4B202239C46E044A1
S11308D0AE2CDCD11CBC90469946A346F0BDC04664
S11308E0150600002D0C00000044004170B5040002
S11308F00D4D8026F6016E611E2102200B4B984798
S1130900AE61C8200A4B984720000A4B98470A4B0F
S113091023620A4BA3610A4BE3600A4B2361FA2367
S1130920DB00636170BDC046004400412D0C000033
S1130930410600007D08000000007A4510270000F1
S1130940FEC94100E4FA7F00F8B5DE4657464E463C
S11309504546E0B504006A4B18685968694B9847E6
S1130960694B9847694B9946694A6A4BC8476A4B31
S113097098469847A066694D8027FF016F61502112
S11309800220674EB047AF610220664B9B469847F2
S1130990654B9A46984720616F6142210220B04717
S11309A0AF610220D847D047E060604B98472000F1
S11309B05F4B984720005F4B9847206A5E4B9847EF
S11309C05E4A5F4BC847C047606280277F036F6100
S11309D0BA210220B047FF210220B0474C23E05443
S11309E0FF210220B0474D23E054AF61E05C43B2E5
S11309F0002B66DB00024C23E35CC018514B984784
S1130A00A062A06A4C4B98474F4A504B3F4DA847B1
S1130A10414B9847A062414E80277F037761BC21F8
S1130A2002203F4DA847FF210220A8474E23E0544F
S1130A30FF210220A8474F23E054B761E05C43B292
S1130A40002B48DB00024E23E35CC0183D4B984763
S1130A50E062E06A384B98473B4A3C4B2B4DA84731
S1130A602D4B9847E0622D4E80277F037761BE218E
S1130A7002202B4DA847FF210220A8475023E05411
S1130A80FF210220A8475123E054B761E05C43B240
S1130A90002B2ADB00025023E35CC018294B984743
S1130AA02063206B244B9847274A284B174DA847AF
S1130AB0194B984720633CBC90469946A246AB46E6
S1130AC0F8BD4C23E25C224B1343000218431D4B38
S1130AD09847A06295E74E23E25C1D4B1343000246
S1130AE01843184B9847E062B3E75023E25C184B75
S1130AF0134300021843134B98472063D1E7C046C1
S1130B003C1E0000A10400007D1800007D130000BD
S1130B10A9A0A2EA573A5F3FA5190000004400418A
S1130B202D0C000041060000E5060000CD06000083
S1130B302D07000021080000011900003FA9F6E973
S1130B4078CCA03F51120000EF3525D54EFF0F3F62
S1130B500000FFFF70B505000C000E49086AAE1CCA
S1130B600123B34003430B62002C0DD12402F02374
S1130B701B011C408023DB011C4314353F231D4013
S1130B802C43054B5C8070BD07212000034B984724
S1130B90ECE7C04600040040000C0040C50500001E
S1130BA08002054B9C4660440123036001220368D4
S1130BB01A42FCD17047C04600080042F8B5CE4640
S1130BC0474680B504000E0090461D0008AB1F7810
S1130BD009AB1B789946134B9847A002124B9C46CD
S1130BE0604480239B0243604B4603733605C02355
S1130BF09B031E4043461B04C022920213400E2254
S1130C0013436A1E95416D071E437B1E9F413F0798
S1130C1035433D430560C3695B07FCD40CBC904677
S1130C209946F8BDA10B0000000800428002054B64
S1130C309C4660448162037E5B07FCD5806AC0B237
S1130C407047C04600080042F0B5CE46474615043A
S1130C502D0C2E0080B50704140C3F0C9946030C90
S1130C607E435D43674363437F19340CE4199C4618
S1130C70A54203D980235B029846C4444B465143A2
S1130C8043433604360C250C24046544A41959182E
S1130C90491920000CBC90469946F0BDF0B5C646F3
S1130CA04E024702760A7B0A4400C50FF70048004B
S1130CB0984600B5240E2A00DB00000EC90FBC467E
S1130CC08D4267D0221A002A00DCA5E000283AD120
S1130CD0002F00D193E0511E002900D0BCE0012474
S1130CE0DB1B5A0146D59B019E09300000F0E4FE4F
S1130CF005388640844200DD9DE0041B320020203C
S1130D000134E240041BA64033005E1EB3410024BC
S1130D1013435A0704D00F221A40042A00D0043384
S1130D205A0129D50134FF2C00D181E02A009B010E
S1130D305B0AE4B25B02E405580AD207204310437D
S1130D4004BC9046F0BDFF2CE3D080213800C904D8
S1130D50084384461B2A00DD82E020206146D140FE
S1130D60821A604690400200501E82410A439B1A38
S1130D705A01B8D45A07CED1DE082A00FF2C3AD142
S1130D80002E00D1AEE08023DB0333435B025B0A19
S1130D90FF24CFE7211A002952DD002831D0FF2C8F
S1130DA0B7D080203E00C0040643B4461B2900DDB2
S1130DB0AAE020266046C840711A66468E4031007B
S1130DC04E1EB14101435B185901D3D50134FF2CA8
S1130DD000D187E0012278491A405B080B40134395
S1130DE097E7002C00D0A7E0002B00D0B6E03B1E14
S1130DF062D10026002273025B0AE4B29AE714006F
S1130E0087E7002F4DD0481E002857D163440124A2
S1130E105A01AFD50224DDE7002A24D1621CD2B2E4
S1130E20012ADEDDDE1B720135D5FE1A0D005CE7FA
S1130E302A0000237EE73300604A241A134068E73F
S1130E40002963D1611CC8B201284EDDFF2949D0B5
S1130E5063445B080C005CE7FF2A41D00A0079E791
S1130E6001229B1A84E7002C1DD0FF2822D0802465
S1130E70E404524223431B2A00DD8AE01C0020259F
S1130E80D440AA1A93405A1E934123436246040055
S1130E90D31A0D0025E7002E00D026E700220024F7
S1130EA0A9E70C0035E7002B4DD0D243002AEDD042
S1130EB0FF28E0D16346FF240D002AE7FF290FD065
S1130EC0010073E7002B61D0FF24002F00D120E73D
S1130ED080224146D203114202D0164200D13B0087
S1130EE0FF2416E7FF24002324E7002CEAD1002B7B
S1130EF058D0002F00D10CE763445A0100D439E7DD
S1130F002E4A0C00134004E701215CE7002C1ED19B
S1130F10002B40D0C94300290BD0FF2836D01B2911
S1130F2047DC1C002026CC40711A8B40591E8B4193
S1130F3023436344040047E7002B18D13B1E2DD004
S1130F400D00FF24E5E63B0004000D00E1E6FF2868
S1130F501CD08024E40449422343E0E7002F00D15D
S1130F60D7E6DE1B72011FD5FB1A0D00D1E6FF2464
S1130F70002F00D1CDE680224046D2031042AFD0EC
S1130F801642ADD13B000D00FF24C2E66346FF24A8
S1130F90BFE601237AE73B000400BAE6802600227C
S1130FA0F603F0E63B00B4E6331E00D0E2E600228E
S1130FB021E70123BDE7C046FFFFFF7DFFFFFFFBE5
S1130FC0F0B557464E46DE464546E0B5440243007A
S1130FD0C60F83B00F1C640A1B0EB24653D0FF2BFE
S1130FE027D08022E400D20414437F225242904648
S1130FF09844002399469B467D027800FB0F6D0AB6
S1131000000E009324D0FF2846D080230021ED0059
S1131010DB041D437F384746381A4F460F43BF0051
S1131020B9463300009A874F53404A46BA58019351
S11310309746002C4ED108239946F7339846FD3B3A
S11310409B467D027800FB0F6D0A000E0093DAD1F7
S1131050002D26D1002001213300009A7A4F5340FD
S11310604246101A4A460A439200BA581D0097464F
S1131070009B2C009A468B465B46022B31D153468B
S1131080FF21002438E0002C17D1042399460023C3
S1131090984601339B46AFE7FF20002D0BD1022178
S11310A0DAE7280000F008FD431F9D4076235B42E9
S11310B0181A0021AFE70321ADE7200000F0FCFC83
S11310C0431F9C4076235B421B1A98460023994693
S11310D09B4691E70C239946F3339846FC3B9B4689
S11310E08AE7032B00D1A5E05546012B00D081E00F
S11310F00123002100242B406402C905600ADB0798
S11311000843184303B03CBC90469946A246AB46FC
S1131110F0BD80240023E403FF21EDE7FF21002438
S1131120EAE70123591A1B2966DD019A13400021BD
S11311300024E1E78023DB031C4238D01D4251D058
S11311401C436402640A3300FF21D5E763016C0188
S1131150A3423BD21B260021013801251F00490070
S11311605B00002F01DB9C4201D81B1B2943013E7D
S1131170002EF3D11C00631E9C410C4301007F31FF
S11311800029CEDD630704D00F232340042B00D0B5
S11311900434230103D501002C4B80311C40FE296B
S11311A00DDD0123019AFF2113400024A4E78023CD
S11311B0DB031C436402640A3300FF219CE7012320
S11311C0019AA401640AC9B2134095E71B1B1A26AD
S11311D00121C2E7009B8B469A4600244CE7630238
S11311E0E5D500258024E4032C436402640A009BB3
S11311F0FF2181E70195C1E723002020CB40411A5C
S11312008C40611E8C411C43630704D00F23234090
S1131210042B00D00434630105D50123019A012174
S11312201340002468E70123019AA401640A1340CF
S1131230002161E78023DB031C436402640A5346F4
S1131240FF2159E7441E0000841E0000FFFFFFF742
S113125070B5002830D0C317C4185C40C50F2000F7
S113126000F02AFC9E231B1A962B0DDC9622D21A20
S113127094402A006402640ADBB26402DB05600A5B
S1131280D2071843104370BD992B19DC9922D21A46
S1131290002A29DD94402200144C1440510704D044
S11312A00F210A40042A00D00434620113D4A4019B
S11312B0640ADBB22A00E0E7002200230024DCE712
S11312C005222100121AD140B922D21A9440621E7A
S11312D094410C43DAE7054B2A001C409F23A401E8
S11312E01B1A640ADBB2C8E72200D5E7FFFFFFFB45
S11312F010B5041E27D000F0DFFB9E231B1A962B8B
S11313000ADC9622D21A94406402640ADBB26402B4
S1131310DB05600A184310BD992B17DC9922D21AF9
S1131320002A27DD94402200134C1440510704D0B6
S11313300F210A40042A00D00434620112D4A4010B
S1131340640ADBB2E3E700230024E0E7B9222100CA
S1131350D21A91400A00511E8A410521091ACC4033
S11313601443DBE7044B1C409F23A4011B1A640AAB
S1131370DBB2CCE72200D7E7FFFFFFFBF0B557460F
S11313804546DE464E46E0B50C0398464E00230B18
S113139087B0070092469B46760DCD0F002E6BD08A
S11313A06D4B9E4235D080245B46420F2404DB0003
S11313B014431C43C3009946684BA3469C46002330
S11313C000276644029343461C035A00DB0F504631
S11313D0240B520D984600D176E05F4B9A426DD0B3
S11313E08023410F1B040B435C49E4008C461C43DF
S11313F0C300002062444146B6186940721C019142
S1131400944607430F2F00D9B0E0554ABF00D25984
S113141097465B460343994600D087E000239B46EA
S1131420023308270293CEE742460192022867D08E
S1131430032800D10EE2012800D062E10023002439
S11314400022994601990140CDB2002112030B0DEF
S1131450120B1B051343434A240513401C43640029
S1131460ED0764082C434846210007B03CBC904675
S11314709946A246AB46F0BD034399464FD05B461E
S1131480002B00D189E1584600F016FB03000B3B0A
S11314901C2B00DD7AE11D22D31A3A0001005C46C0
S11314A0DA4008398C4013008F4023439B46B946E9
S11314B000232D4E0027361A029384E75346234314
S11314C02AD10024022096E75346234320D0002C3F
S11314D000D157E1200000F0EFFA03000B3B1C2B76
S11314E000DD49E11D21CB1A51460200D940534683
S11314F0083A944093400C431B4A121A00207AE79E
S11315000125019B144C1D400023002299469CE7B1
S11315100024002201206EE7534603206BE70023DA
S11315209B4601330427002602934CE7032381469C
S11315300C27029347E780220023002512039946D3
S1131540054C82E75C464B4602986FE75C464B4687
S1131550019502986AE7C046FF07000001FCFFFFFF
S1131560C41E0000FFFF0F800DFCFFFF4A464946E2
S1131570170C1A0C1B041B0C08041900000C414323
S11315801500884619007D4379430395894629004F
S1131590150045434D44029545462D0CAA46029D2F
S11315A05544A94506D98A46802149028946CA4438
S11315B051460391290C0491414609042D04090C58
S11315C088462900250C24044144240C059121005B
S11315D041438846210079438A4668434146504442
S11315E08146080C48446F43824503D9802149024F
S11315F089464F44010C89463900494402914146C9
S11316000F0404993F0C88460004C01980444146E5
S1131610049159460F0C0904090C884659438A461B
S113162039005143894641464A435146090C8B4689
S11316307B43D2185A44934203D980235B029B46CE
S1131640D94451460904090C8A46414661437C4306
S1131650130C12044B445244A1468A463C004146B2
S11316606C434D4351464D440F0C7D19A94503D994
S11316708021490288464444049F0399B846414462
S11316808B468345804141428846514608042F04D5
S1131690000C3F185846029910188946904292410E
S11316A04F44BA46524299469346C244D144CB442D
S11316B08F42BF41C245894199459B41934592411F
S11316C07F4249422D0C52420F435B4213437F1920
S11316D0FF185B463C19DB0D059A64021C43430268
S11316E013435D1EAB415A46C00D034352021343DC
S11316F0E20156D501205A0803401343E20713437D
S113170064085A48604400284DDD5A0709D00F2266
S11317101A40042A05D01A1D9A429B415B42E418E0
S11317201300E20104D58020514AC00014406044F3
S1131730504A904200DDE3E60125DB0862071A43C4
S11317406402019B9146220B4405640D1D407CE616
S1131750802259461203114208D0144206D1224372
S11317601203120B45469946434C6EE65B461A43F8
S11317701203120B404C68E603005446283B9C407D
S11317800023B9E600F098F92030A6E60300283BD0
S11317909F400023BB4699468AE600F08DF920302D
S11317A074E6B446ADE701252A1A382A06DD019B02
S11317B000241D4000230022994646E61F2A21DC0E
S11317C020252000AD1A1E00AB40A840D6405D1E67
S11317D0AB4130431843D440430709D00F2303409F
S11317E0042B05D00300181D98429B415B42E4186A
S11317F0230221D50125019B01241D400023002241
S1131800994622E61F2521006D42281AC14008008E
S1131810202A1DD05F35AA1A944023435C1EA3419D
S1131820072503431D400022002D09D00F22002468
S11318301A401800042AD6D1030065076402220B5B
S1131840DB082B4301259946019B00241D40FCE540
S11318500024E2E7802201251203224301991203A6
S1131860120B0D409946044CEFE5C046FF030000FF
S1131870FFFFFFFEFE070000FF07000070B5002811
S113188030D0C317C4185C40C50F200000F014F911
S1131890174B184A1B1AD21A1F2A18DD164AD21AD5
S11318A09440002224035B05240B5B0D00211000EF
S11318B024030A0D240B12052243104C1B0522405D
S11318C013435B00ED075B082B43190070BD210037
S11318D091400A000B21081AC4405B052403240B21
S11318E05B0DE3E70025002300240022DEE7C04669
S11318F01E0400003304000013040000FFFF0F80E7
S11319004100090E4B1C70B5DBB24602750AC40FC8
S1131910012B14DDE0239B006D07360BCB1800214F
S11319200A0D280012051C4D32435B052A405B0852
S113193013435B00E4075B082343190070BD0029CF
S113194014D1002D1ED0280000F0B6F80A281CDCA3
S11319500B232A001B1ADA40030015339D400F4B5A
S113196012031B1A5B05160B5B0DD8E7002D06D07E
S1131970320B802636036D071643094BCFE7084B1D
S11319800026CCE700230026C9E703002A000B3B0E
S11319909A400025E3E7C046FFFF0F80890300005B
S11319A0FF070000F0B54C00640D0B03621C450FEB
S11319B05B0A52052B43C90FC500520D012A28DDCD
S11319C03A4AA618FE2E1BDC002E3EDD80010200E2
S11319D0501E82416D0F2A43DB0013435A0704D083
S11319E00F221A40042A00D004338022D2041A4061
S11319F05AD00136FF2E03D09B015B0AF4B201E0FA
S1131A00FF2400235802E405400AC9072043084381
S1131A10F0BD002C07D01D43F2D08020DB008004F1
S1131A200343FF26DAE72B4303D00523DB08FF2C0F
S1131A3003D05B025B0AE4B2E4E7002B32D08020DF
S1131A40C00303435B025B0ADCE73200173214DB9A
S1131A5080221E2712041343BF1B1F2F0FDC144ABE
S1131A60944664442A00A5402E00A340751EAE414E
S1131A70FA40334313430026B0E70024D5E702229B
S1131A805242961B1A00F240202F09D0094884467E
S1131A906444A3402B435D1EAB41002613439DE7E2
S1131AA00023F7E70023ADE73400BFE780FCFFFF26
S1131AB082FCFFFFA2FCFFFF1C2101231B049842B0
S1131AC001D3000C10391B0A984201D3000A0839CB
S1131AD01B09984201D30009043902A2105C401882
S1131AE07047C04604030202010101010000000026
S1131AF00000000070B50D4E0D4D0024AD1BAD105F
S1131B0005D0A300F35801349847A542F9D100F059
S1131B10FBF9084E084D0024AD1BAD1005D0A30001
S1131B20F35801349847A542F9D170BD141F000041
S1131B30141F0000141F00001C1F0000F0B58307D1
S1131B4043D0541E002A3FD0CEB20200032502E047
S1131B501A00013C38D3531C16702B42F8D1032CC5
S1131B602AD9FF220A40150215432A0415430F2CD3
S1131B7014D927001A00103F3E09013636019E1978
S1131B80156055609560D56010329642F8D10F22E9
S1131B9097431037DB191440032C0DD91A00271F63
S1131BA0BE080136B6009E1920C2B242FCD10322FF
S1131BB097430437DB191440002C05D0C9B21C1913
S1131BC0197001339C42FBD1F0BD14000300C6E739
S1131BD0034B10B5002B02D0024800F005F810BDED
S1131BE000000000F91B000010B5010000230022D2
S1131BF0002000F01BF810BD70B5094B094CE41A25
S1131C00A41009D0084AA518AD00ED182B68013CB2
S1131C109847043D002CF9D100F080F970BDC0460E
S1131C20281F00002C1F0000FFFFFF3FF8B5DE4611
S1131C309B46314B45461C68A4234E4657465B00E1
S1131C40E0B50500E0580E00904600284BD04368EC
S1131C501F2B0DDC5C1C002D21D102339B00446042
S1131C601E5000203CBC90469946A246AB46F8BDA7
S1131C70224B002B3CD0C820400000E000BF0028CD
S1131C8036D0A42200235200A15843600160A05022
S1131C9040328350043283500124002DDDD09A0059
S1131CA091468144424688214F467A50C4225200CC
S1131CB09046804442468739994012688A460A43CE
S1131CC09446424661461160842249465F4652006A
S1131CD08F50022DC1D1020055468D32FF3211685A
S1131CE00D431560B9E720004D30FF30E050AEE7FA
S1131CF001204042B6E7C046041F00000000000077
S1131D000000000707000000208DFFFFA1ADFFFFCA
S1131D1064CEFFFF6CEFFFFFB71000004A320000F3
S1131D202554000049760000B798000072BB0000FB
S1131D3079DE0000D0010100762501006F49010021
S1131D40BC6D01005E92010058B70100AADC0100DD
S1131D505802020062280200CC4E0200967502006E
S1131D60C49C020057C4020052EC0200B7140300E2
S1131D70893D0300CA6603007D900300A4BA0300F2
S1131D8044E503005E100400F63B04000E68040002
S1131D90AC940400D1C1040081EF0400C11D05000E
S1131DA0954C0500007C050007AC0500AEDC050081
S1131DB0FB0D0600F23F060098720600F4A506002B
S1131DC009DA0600E00E07007D440700E87A070000
S1131DD028B2070044EA070044230800305D0800E5
S1131DE010980800EFD30800D6100900CF4E090060
S1131DF0E58D090023CE0900980F0A004F520A000E
S1131E0057960A00BFDB0A0098220B00F36A0B0006
S1131E10E2B40B007B000C00D44D0C00039D0C00BD
S1131E2023EE0C0050410D00A9960D004EEE0D005E
S1131E3065480E0016A50E008E040F000000000574
S1131E40050000004C1100001C1100002E110000C0
S1131E50701000002E110000121100002E1100005D
S1131E60701000001C1100001C1100001211000071
S1131E707010000078100000781000007810000046
S1131E80341100001C1100001C110000F0100000AF
S1131E90D4110000F010000012110000F010000036
S1131EA0D41100001C1100001C11000012110000CC
S1131EB0D4110000781000007810000078100000A1
S1131EC0DE1100006C1500002C1400002C1400001E
S1131ED028140000441500004415000036150000C5
S1131EE028140000441500003615000044150000B5
S1131EF0281400004C1500004C1500004C1500007F
S1131F005017000010000020F8B5C046F8BC08BC0B
S1131F109E467047D11B0000DD000000F8B5C046A6
S10F1F20F8BC08BC9E467047B5000000E9
S1131F2C40420F0080BB00003000000000000000A5
S1131F3C00000000FC02002064030020CC030020FD
S1131F4C0000000000000000000000000000000081
S1131F5C0000000000000000000000000000000071
S1131F6C0000000000000000000000000000000061
S1131F7C0000000000000000000000000000000051
S1131F8C0000000000000000000000000000000041
S1131F9C0000000000000000000000000000000031
S1131FAC0000000000000000000000000000000021
S1131FBC0000000000000000000000000000000011
S1131FCC0000000000000000000000000000000001
S1131FDC00000000000000000100000000000000F0
S1131FEC0E33CDAB34126DE6ECDE05000B000000B5
S1131FFC00000000000000000000000000000000D1
S113200C00000000000000000000000000000000C0
S113201C00000000000000000000000000000000B0
S113202C00000000000000000000000000000000A0
S9030000FC
