S0140000446173416C74696D657465722E7372656351
S1130000E025002019010000150100001501000081
S113001000000000000000000000000000000000DC
S113002000000000000000000000000015010000B6
S11300300000000000000000150100001501000090
S11300401501000015010000150100001501000054
S11300501501000015010000150100001501000044
S11300601501000015010000150100001501000034
S11300701501000015010000150100001501000024
S11300801501000015010000150100001501000014
S11300901501000000000000000000001501000030
S11300A015010000150100001501000015010000F4
S11300B00000000010B5064C2378002B07D1054B37
S11300C0002B02D0044800E000BF0123237010BDC0
S11300D040040020000000004C080000084B10B54C
S11300E0002B03D00749084800E000BF0748036815
S11300F0002B00D110BD064B002BFBD09847F9E72D
S113010000000000440400204C0800004C080000DB
S113011000000000FEE7C04670B52E4B2E4A9A42FE
S113012003D02E4B2B4A9A4204D32D4B2D4A9A428C
S113013010D31EE02C4A294B03339B1A9B0801332E
S11301409B000022234824498C58845004329A424C
S1130150FAD1EAE7254A224B03339B1A9B08013361
S11301609B0000221F4800211418216004329A4287
S1130170FAD11F4AFF211F4B8B439360FD39902313
S11301805B001D4AD1501D48C3780324A3430222B7
S11301901343C370C3780C26B34308210B43C370C5
S11301A0174B987B3025A8430500202028439873DB
S11301B0987BB04301439973997BA1430A439A7393
S11301C0104A516880230B4353600F4B98470F4BE1
S11301D09847FEE7000000204C0800003804002087
S11301E0E005002040040020040000204404002016
S11301F000ED00E0000000000070004100500041EC
S113020000480041004000411D060000410200007A
S1130210014A024B1A60704740420F000000002060
S1130220064A137EDB07FCD5044B98621A00137E42
S11302305B07FCD5014B986AC0B27047000C0042C2
S1130240F0B587B0364B9847364B9847364B9847AE
S1130250364B9847364B9847364B5B20195C012246
S1130260914319548021090599603324195D4C3850
S1130270814301200143195546215C5C20435854B5
S11302805320195C91431954802109039960023861
S1130290195C914319548021890299605021585C5A
S11302A0904358545C5C02202043585480214902F6
S11302B059605420195C91431954802252039A6066
S11302C01022042153381C4B9847482301930024DF
S11302D000940023022200210120184DA847002386
S11302E005939F2212236B441A700394114C8027A8
S11302F03F05134E039B01330393E761FA2080000B
S1130300B04780256D03656112236B441878C0B231
S11303100C4B984713236B441870A561EAE7C04659
S113032011020000AD0300007D0400004903000039
S1130330C9040000004400412905000091050000A3
S11303409D0400002102000010B5124A136A8021A6
S113035049020B4313621049E022D2008A800F48FD
S11303600F4B58800F4B1B685B01134018000E4B5A
S11303705A6854011A68D30E2343FF2213400343DF
S11303800B8502234B700B700A00537E5BB2002B6B
S1130390FBDB10BD00040040004000421E40000092
S11303A0000C0040246080002060800010B51C4ACE
S11303B0C223DB0093601B494868022303434B605C
S11303C0194B938211000222CB681A42FCD0174BBE
S11303D01C68A40E3F2C00D1203C154B18688005E6
S11303E0800D144B984200D11348144A0C4B9A8444
S11303F019001022CB681A42FCD0A4022043084BF7
S1130400986219001022CB681A42FCD00C4A044BA3
S11304109A840C4B802252009A600B4A5A6010BD99
S113042000080040004000410E06000024608000E7
S113043028608000FF030000FF0100002205000087
S1130440A2050000000C00400007010010B50F23B6
S113045018401202074B1A400243074CA2600902DB
S1130460F8235B01194080235B0219430843606051
S113047010BDC04600FFFF00000C0040044B054ABD
S11304801A6030225A602B3A034B1A607047C046F8
S11304900400002080BB000010E000E030B5084BF1
S11304A01C68084A00258021490206E0002C04D07B
S11304B05460956013680B42FCD00138F6D230BD0D
S11304C00400002010E000E070B5114DC0220021AE
S11304D02800104EB047104CC02200212000B04725
S11304E00E4B596920220A435A61D96910220A43E2
S11304F0DA610B4B1A8802218A431A801988012277
S11305000A431A805D639C63064A1A8070BDC04624
S1130510200500206506000060040020000400405F
S113052000480041020F000070B504000D000E48A1
S1130530016AA61C0123B3400B430362002D03D0C0
S113054007212800094B98472902F0231B01194071
S11305508023DB011943230014333F241C400C4344
S1130560034B5C8070BDC046000400404D04000095
S1130570000C00408002054B9C466044012303604C
S1130580012203681A42FCD17047C04600080042A9
S1130590F8B54F464646C0B40600884617001D000D
S11305A008AB1C7809AB1B789946194B9847B002E5
S11305B0184B9C4660440C230360174B4360C3698B
S11305C05B07FCD44B460373C3695B07FCD4434607
S11305D01905C0239B0319400E003904C0239B0254
S11305E019400E230A001A436B1E9D416D0731000A
S11305F01143631E9C4122072C000C4314430460E6
S1130600C3695B07FCD40CBC90469946F8BDC04650
S113061075050000000800420002020070B50D4E8E
S11306200D4D0024AD1BAD1005D0A300F3580134CB
S11306309847A542F9D100F0F7F8084E084D002478
S1130640AD1BAD1005D0A300F35801349847A54263
S1130650F9D170BD340800003408000034080000EB
S11306603C08000070B583073FD0541E002A3BD0DD
S1130670CEB20300032503E0621E002C34D0140024
S113068001335A1E16702B42F6D1032C24D9FF25B0
S11306900D402A0215432A0415430F2C11D92600B4
S11306A0103E3609013636011A009B191560556053
S11306B09560D56010329342F8D10F221440032C78
S11306C00AD9261FB6080136B6001A009B1920C2A3
S11306D09342FCD103221440002C05D0C9B21C194A
S11306E0197001339C42FBD170BD14000300CCE7A8
S11306F0034B10B5002B02D0024800F005F810BDE2
S1130700000000001907000010B5010000230022BA
S1130710002000F01BF810BD70B5094B094CE41A19
S1130720A41009D0084AA518AD00ED182B68013CA7
S11307309847043D002CF9D100F080F870BDC04604
S1130740480800004C080000FFFFFF3FF8B544468E
S11307505F4656464D469B462F4BF0B41C68A42377
S11307605B000500E0580E00904600284BD043681B
S11307701F2B0DDC5C1C002D21D102339B00446037
S11307801E5000203CBC90469946A246AB46F8BD9C
S1130790224B002B3CD0C820400000E000BF0028C2
S11307A036D0A42200235200A15843600160A05017
S11307B040328350043283500124002DDDD09A004E
S11307C091468144424688214F467A50C4225200C1
S11307D09046804442468739994012688A460A43C3
S11307E09446424661461160842249465F4652005F
S11307F08F50022DC1D1020055468D32FF3211684F
S11308000D431560B9E720004D30FF30E050AEE7EE
S113081001204042B6E7C046240800000000000062
S11308204300000010000020F8B5C046F8BC08BC26
S11308309E467047F1060000DD000000F8B5C04692
S10F0840F8BC08BC9E467047B5000000E0
S113084C40420F0080BB000030000000000000009C
S113085C00000000FC02002064030020CC030020F4
S113086C0000000000000000000000000000000078
S113087C0000000000000000000000000000000068
S113088C0000000020080000000000000000000030
S113089C0000000000000000000000000000000048
S11308AC0000000000000000000000000000000038
S11308BC0000000000000000000000000000000028
S11308CC0000000000000000000000000000000018
S11308DC0000000000000000000000000000000008
S11308EC00000000000000000000000000000000F8
S11308FC00000000000000000100000000000000E7
S113090C0E33CDAB34126DE6ECDE05000B000000AB
S113091C00000000000000000000000000000000C7
S113092C00000000000000000000000000000000B7
S113093C00000000000000000000000000000000A7
S113094C0000000000000000000000000000000097
S9030000FC
