S01600004D792050726F6A656374746573742E7372656391
S113000030C00020E1020000DD020000DD0200003B
S1130010DD020000DD020000DD020000000000003F
S1130020000000000000000000000000DD020000ED
S1130030DD02000000000000DD020000DD0200001F
S1130040DD020000DD020000DD020000DD02000030
S1130050DD020000DD020000DD020000DD02000020
S1130060DD020000DD020000DD020000DD02000010
S1130070DD020000DD020000DD020000DD02000000
S1130080DD020000DD020000DD020000DD020000F0
S1130090DD020000DD020000DD020000DD020000E0
S11300A0DD020000DD020000DD020000DD020000D0
S11300B0DD020000DD020000DD020000DD020000C0
S11300C0DD020000DD020000DD020000DD020000B0
S11300D0DD020000DD020000DD020000DD020000A0
S11300E0DD020000DD02000000000000000000004E
S11300F00000000051040000DD020000DD020000E9
S1130100DD020000DD020000DD020000DD0200006F
S1130110DD020000DD020000DD020000DD0200005F
S1130120DD020000DD020000DD020000DD0200004F
S1130130DD020000DD020000DD020000DD0200003F
S1130140DD020000DD020000DD020000DD0200002F
S1130150DD020000DD0200000000000000000000DD
S1130160000000000000000000000000000000008B
S1130170000000000000000000000000000000007B
S1130180DD020000DD020000DD020000DD020000EF
S113019000000000DD020000DD020000DD020000BE
S11301A0DD020000DD020000DD020000DD020000CF
S11301B0DD020000DD020000DD020000DD020000BF
S11301C0DD020000DD020000DD020000DD020000AF
S11301D0DD020000DD020000DD020000DD0200009F
S11301E0DD020000DD020000DD020000DD0200008F
S11301F0DD020000DD020000DD020000DD0200007F
S1130200DD0200000000000000000000DD0200002C
S1130210DD020000DD020000DD020000DD0200005E
S1130220DD020000DD020000DD020000DD0200004E
S1130230DD020000DD020000DD020000DD0200003E
S1130240DD020000DD020000DD020000DD0200002E
S1130250DD020000DD020000DD020000DD0200001E
S11302600000000010B5054C237833B9044B13B1DA
S11302700448AFF300800123237010BD0000002068
S113028000000000180500000C4B43B10C480D4958
S113029010B5AFF300800C48036823B910BD0A48B9
S11302A0036833B97047094B002BF7D0BDE8104001
S11302B01847064B002BF5D0184700BF000000007C
S11302C018050000040000201805000000000000CC
S11302D008B5014B984708BD5D030000FEE7000028
S11302E008B5154B154A9A4209D0134B134A03E03B
S11302F0116819600433043211498B42F8D3114B4D
S113030002E000221A6004330F4A9342F9D30F4BE0
S11303100F4A22F07F029A60D3F8882042F47002D8
S1130320C3F88820BFF34F8FBFF36F8F094B9847F3
S1130330094B9847FEE700BF0000002018050000A5
S113034000000020000000202C00002000ED00E050
S113035000000000B10400009504000008B5014B42
S1130360984708BD6903000010B5094A13889BB279
S11303701380084B9847084B9847084B984702202E
S1130380074CA047074B984740F6FD70A04710BDA7
S113039000400041F503000009040000E9030000E7
S11303A0A90300000D04000010F0010F08D00B4A4F
S11303B00B4B1A620A4B5A6843F6FD731A42F9D181
S11303C010F0020F08D0074A054B5A62044B5A68D2
S11303D043F6FD731A42F9D1704700BF07010100CB
S11303E0001C0040040101000122014B5A717047B6
S11303F000080040034BDA6902F47C52DA610122FE
S11304001A74704700140040704700000E4A0F4BE6
S11304105A630E4BDB6B13F0060FFAD10B4B202201
S11304209A63022283F83020084BDB6B13F0020F2F
S1130430FAD1064B1B6C13F0010F04D1034B1B6C58
S113044013F0020FF5D0704788090D00001000402A
S113045000B583B00D4B9B78DBB20193019B13F085
S1130460020F06D00A4B1B681BB1084A5068984714
S113047009E0019B13F0010F05D0054B5B6813B134
S1130480024A5068984703B05DF804FB000002413B
S11304901C00002008B5044B984700230133034A8D
S11304A09342FBDDF9E700BFD1020000809698007B
S11304B070B50D4E0D4CA41BA4100025A54209D106
S11304C00B4E0C4C00F018F8A41BA4100025A542F8
S11304D005D170BD56F8253098470135EEE756F83A
S11304E0253098470135F2E70405000004050000B3
S11304F00405000008050000F8B500BFF8BC08BCFE
S11305009E46704789020000F8B500BFF8BC08BCDD
S10B05109E46704765020000DD
S9030000FC
