S0140000446173416C74696D657465722E7372656351
S1130000F025002019010000150100001501000071
S113001000000000000000000000000000000000DC
S113002000000000000000000000000015010000B6
S11300300000000000000000150100001501000090
S1130040150100001501000015010000110E00004B
S11300501501000015010000150100001501000044
S11300601501000015010000150100001501000034
S11300701501000015010000150100001501000024
S1130080150100001501000015010000B50E000067
S11300901D0F00000000000000000000150100001A
S11300A015010000150100001501000015010000F4
S11300B00000000010B5064C2378002B07D1054B37
S11300C0002B02D0044800E000BF0123237010BDC0
S11300D0400400200000000014360000084B10B556
S11300E0002B03D00749084800E000BF0748036815
S11300F0002B00D110BD064B002BFBD09847F9E72D
S113010000000000440400201436000014360000EF
S113011000000000FEE700002148224970B5884233
S113012004D00023204CCA18A24232D300211F4B12
S11301301F4A934231D3FF211E4B1F4A8B439360C6
S113014002220C25082430261C4B1D485A62C37811
S1130150FC398B431343C370C378AB432343C3704D
S1130160184B987BB0430600202030439873987B4B
S1130170A84304439C73987B884302439A73802367
S1130180114A51680B435360104B9847104B9847E2
S1130190FEE7C55804331560C5E702C3C9E7C04686
S11301A01436000000000020380400204004002021
S11301B0F00500200000000000ED00E0FC700041AC
S11301C000500041004800410040004175310000EA
S11301D049080000014A024B1A60704740420F0070
S11301E0000000208023F0B5244F1B027B61002314
S11301F0234D87B0A9796C7900936B782A7809022A
S113020021431B02EC791343AA78240421431204EA
S11302102C7A1343EA7824060C431206697A1A43AB
S113022020002B79174E0291B047EB7AAA7A1B0271
S11302301A432B7B144E1B0413436A7BAD7B1206BB
S11302401A4302992B0020000392B047039A0490AA
S11302502B0002992000B047039A05902B00200040
S11302600299B04780231B02BB61049B059A1B04BF
S113027015021D43284307B0F0BDC04600440041A9
S1130280803300005D0B0000C90B0000F0B50A24A8
S11302908BB0038802AA93804388A418D3808388F0
S11302A0951D1381C38806002380028905AB1A803B
S11302B00E22418902A8121811801B8831691B0281
S11302C01088CB1A0093DB170193009A294F80B250
S11302D00021B847FA23DB00C9182B8820889BB279
S11302E071611F00009A019B224C80B20021A0473B
S11302F04B06C4091C430023CD113A0412196B4167
S11303000692079302AB9C881889009A019B194DA9
S113031080B20021A8470D060B120021A4B2020AE4
S11303202A43E00312184B4108920993089A099B47
S1130330069C079D0F4FF068B847CB17DB029C461D
S113034067460023FA0A80185941CB029C46674647
S1130350420D3A434B15121BAB410021DC176404D8
S1130360600C12184B4111005B04CA0B1A43F26172
S11303700BB0F0BDD11500000A21C36970B5594313
S1130380040081610F48814202D90F4B236270BD82
S1130390431A9B0A4B2B01D90C4BF7E70C4D9A00DF
S11303A09E0201339B00801BEB18AA181269411AA4
S11303B01869084B801A4843800A801898472062BD
S11303C0E5E7C046CC99010000C0E5C6E0487049A5
S11303D08033000051210000F0B5A22787B00290BD
S11303E09620284C8000A04796208000A0478022B9
S11303F0254C264B12025A6163782278A1796679DA
S11304001B0213430902A2780E43E1791204134339
S1130410207AE27809043143667A1206000608431A
S11304201A43009723793100194D0390A8472200FD
S1130430D37AA47A1B022343147B957B240423439D
S1130440547B310024061C4322002B00049403989F
S1130450104CA0472B000590049A039831000D4CD2
S1130460A0478022094B12029A61059B02371D02A4
S1130470029B28431880FFB202330293AE2FAFD100
S113048007B0F0BDB90D0000803300000044004106
S11304905D0B0000C90B0000F7B580261E23040085
S11304A01849194D36026E6100934B780A781B0285
S11304B013438A784F1D12041343CA7848791206ED
S11304C01A430B79897909020143B878000401437E
S11304D0F8780006084339790C4FB847AE61C82054
S11304E00B4B984720000B4B98470B4B23620B4B4D
S11304F0A3610B4BE3600B4B2361FA23DB006361C5
S1130500F7BDC04680330000004400415D0B00008D
S1130510E50D0000D903000000007A451027000013
S1130520FEC94100E4FA7F00F0B5B74B85B09847A7
S1130530B64B9847B64B9847B64B9847B64B984737
S1130540B64B98474022C121B54B89001A605A58CE
S1130550B448012402405A50B34B190054310A786C
S11305601800A2430A70802252039A600F2233308B
S113057001781E00914321430170C17CC33621439D
S1130580C17419001020B1310D781F0015400543C6
S11305900D7035788837254335700D78154005433F
S11305A00D70357825433570357DA5433575802527
S11305B02D0403973D60FD600D783E00954325436F
S11305C00D70C225AC469C44654667462D7825438C
S11305D03D700D78954325430D701D003978D6354F
S11305E02143397029780227A14329708021039D72
S11305F0C90329601D00F160313529783F3E11405F
S113060008432870180043300178013821434170B1
S1130610C17DBC46A143C17580218904996059619B
S11306202978914321432970017821430170817D08
S1130630A14381758021490499605961E97DA143F1
S1130640E9758021490099603178A1433170802196
S11306508900996019004B310878A0430870087824
S11306603843087080200001586070481E370078B5
S1130670104038436D4F38700878202720430870A5
S113068018003430017811403943017031786746DD
S11306902143317066460178914331430170E97D0D
S11306A096302143E97501781E00A1430170802131
S11306B00398C9000160180098300160687E5136C3
S11306C0A043687699609961E97FA143E977802125
S11306D0490299603178A14331708021890299607F
S11306E01900533108781B39A043C876C87E3843B3
S11306F0C8761F0080203937000358600397387884
S1130700202710403843039F38702027C87E204399
S1130710C876087810403843087030782043307029
S1130720664608789043304308701800E97F5230D9
S11307302143E97701780638A14381718021C902F8
S11307409960996101780025A143017080214901D4
S113075099608178A14381708021C9019960190051
S11307604D310878A0430870087830430870802120
S11307701800890159604F300178A143017080212C
S1130780090299609961190055310878A0430870ED
S1130790802080039860402008704878A043487007
S11307A08020C00398603B331878904302003243A2
S11307B01A704B781E4E23434B70042203210020F1
S11307C0B0472B002A0028001A4F019500950321F9
S11307D0B847200004220321B0472B002A00200040
S11307E0019500950321B847082204210320B0474E
S11307F021002A000320104B104CA047104B9847AF
S1130800104B984705B0F0BDD50100001D0C000049
S1130810A10C0000990D00007D0A0000350F0000B6
S113082000E100E0FFFF00FF0044004135440041C7
S11308301D1400007D14000072F90000E114000092
S1130840650E0000CD0E0000F0B56B4BAFB09847BD
S113085000230BAC23700DA8684B9847C825684B40
S113086098476D00674B200098470998664E674982
S1130870B047099F664B011C381C98470990099F93
S11308806249E06AB047634B391C9847013D0990BF
S1130890614B9620ADB29847002DE3D1099B65606A
S11308A008935E4B98475E4D2B78002B1AD020009E
S11308B0544B984720005B4B9847002368212B70CA
S11308C00320594DA84765210320A8476C21032024
S11308D0A8476C210320A8476F210320A8472121A2
S11308E00320A847514B1B78002B02D063680133C7
S11308F063600898444D4E49A847089E444F011C24
S1130900301CB8470890089B49490093E06AA847FF
S1130910404E0099B04708900798079B45490093BB
S1130920A847011C0098B8470790079B41490093CA
S1130930606FA8470099B04707900498049B3E490C
S11309400093A847011C0098B8470490049B3A49B7
S11309500093E06BA8470099B04704900598059B65
S113096035490093A847011C0098B8470590059B9A
S113097031490093606CA8470099B04705900698E8
S1130980069B2D490093A847011C0098B847069080
S1130990069F2949A06CA847391CB04706900498C3
S11309A00499059B254D0093059B0193069B029397
S11309B0069B0393A8470199071C0098A847011CAC
S11309C0381CB0470399071C0298A847011C381C1F
S11309D0B0470A900A981A4B98471A4A1A4B1B4D6B
S11309E0A847002800D15CE7FA235B00013B9BB2D7
S11309F0002BFBD155E7C0462905000099040000EF
S1130A00510A00000110000049190000000048428A
S1130A10191E000025160000B90D00002D0E00005F
S1130A2062040020950F00003D15000060040020C2
S1130A300000A0410000204100004040D91B0000FC
S1130A40812F0000CDCCCCCCCCCCF43FA915000038
S1130A5070B5084C80252300ED0094331D60064ECC
S1130A600F210020B04798340C210020B0472560A6
S1130A7070BDC04600440041251500008023104A83
S1130A805B02116A0F480B43E02113620E4B0F4ABD
S1130A90C900998050800E4A10684201100011402C
S1130AA00C4A1268D20E0243D2B20A431A850222B9
S1130AB05A701A705A7E52B2002AFBDB7047C04645
S1130AC0000400401E40000000400042000C0040B2
S1130AD024608000206080000222044B1A73013AD3
S1130AE0197E1142FCD0588B80B2704700400042FE
S1130AF037B501910121020C0090D2B2000E4308D7
S1130B00D2019B1808421AD00F2410495B18197897
S1130B100C401021214319700D4B8018C01801237B
S1130B200278134303706B461F221B791A40C023BB
S1130B305B011343074A1361074B98473EBD0F25DA
S1130B40024C1B191C78AC43E4E7C0463044004116
S1130B504044004100400042D90A0000010C130C3B
S1130B60F0B5CDB2D9B201231E00120E9340000E8F
S1130B7086401A0008233000114EC90187B08F192E
S1130B80104E0CACED01AE19247801960C4EB4460F
S1130B90AC446646306066B2002E0EDA094EB446A6
S1130BA08C4466463260019E013B6400DBB23060D7
S1130BB0E4B2002BEAD107B0F0BD3A60F3E7C046D7
S1130BC01444004118440041F0B5012585B0060CD9
S1130BD00193F3B22E0003911100140C0092020E43
S1130BE0029096400020E2B20824090E8D400A4982
S1130BF0DB01D2015B1852185E61116A4000294082
S1130C004F1EB941013C0843E4B2C0B29E61002CBE
S1130C10F2D105B0F0BDC04600440041C223164ADB
S1130C20DB0010B5936002231449486803434B600A
S1130C30134B1B689B0E3F2B00D1203B11491248DC
S1130C4009688905890D814200D1104910489084B2
S1130C501020D4680442FCD09B020B4393621023FF
S1130C60D1681942FCD00B4B938480220A4B52006A
S1130C709A600A4A5A6010BD0008004000400041D2
S1130C802460800028608000FF030000FF01000052
S1130C9022050000A2050000000C0040000701002E
S1130CA010B5254B254C1A68254BD2049869520E71
S1130CB012042449204010439861996199692140A4
S1130CC00A439A61022299690A439A610422D96803
S1130CD01142FCD01C4A9A6181221C4B52009A603A
S1130CE01B4A5A605A7852B2002AFBDB194A5A80CE
S1130CF00422194B1A809A7AD209FCD1A0221988AD
S1130D00D2000A431A809A7AD209FCD1134A9A82F1
S1130D109A7AD209FCD15988114A0A435A8080220E
S1130D20DA7119887E3A0A431A809A7AD209FCD178
S1130D300C4B08321A6010BD24608000FFFF80FF56
S1130D40000800400406000006060000000C0040F5
S1130D50020023000442000000140040E6030000E7
S1130D601040000000E100E00F2303400848120295
S1130D700240F820090240010140802010B54002E1
S1130D80044C08431A431843A260606010BDC04677
S1130D9000FFFF00000C0040044B054A1A6030229B
S1130DA05A60044B2B3A1A607047C0460400002076
S1130DB080BB000010E000E030B580240021074B28
S1130DC064025A68064B013800D230BD002AFAD0BA
S1130DD05A6099601D682542FCD0F4E704000020A5
S1130DE010E000E030B580240021074B64021A684B
S1130DF0064B013800D230BD002AFAD05A609960FF
S1130E001D682542FCD0F4E70400002010E000E057
S1130E10FA21044A890013685B181360FF22024B0D
S1130E201A7270475C0400200014004030B5EFF3E0
S1130E30108172B6094B0A4C188A25681A7A80B256
S1130E40D2094019002A05D0FA221B8A2068920090
S1130E508018C01881F3108830BDC04600140040CB
S1130E605C0400200D4A0E4B5A8080230D4A5B011E
S1130E70116A0B4313620C4B0C4A1A8041221A75F7
S1130E80403A5A73FF325A811988FE3A0A431A804B
S1130E908022074B12031A607047C0461C420000B0
S1130EA0000C00400004004000300042040900002F
S1130EB000E100E0FF22034B9A73034BFE3A1A70E1
S1130EC07047C04600300042620400200D4A0E4BB9
S1130ED05A8080230D4A9B01116A0B4313620C4B09
S1130EE00C4A1A8080221A757F3A5A73FF325A814B
S1130EF01988FE3A0A431A808022074B52031A606B
S1130F007047C0461C420000000C00400004004032
S1130F1000340042040E000000E100E0FF22034B15
S1130F209A738022024B5203DA6170470034004204
S1130F3000440041F8B5C027104D3A00104E280077
S1130F400021B0470F4C3A0000212000B047202276
S1130F500D4B59690A435A611022D9690A43022187
S1130F60DA610A4B1A888A431A80012219880A43D3
S1130F701A80074A5D639C631A80F8BD300500201F
S1130F80BD3100007004002000040040004800410E
S1130F90020F0000F8B503780400002B23D1806B06
S1130FA0114B9847114D0022114BA8470E4B0600D8
S1130FB0A06C0F00984700220D4BA8470D4D02006E
S1130FC00B0030003900A8470B4B98470B4DA0632A
S1130FD0A847236BC01AFA23DB00984203D9A36BFA
S1130FE06363A8472063F8BD812F0000FD2900003A
S1130FF00000E03FDD210000253000002D0E000040
S1131000F0B5070087B0EC4B98473B00EB4C083336
S1131010D867637820781B020343A078E84D000466
S11310200343E078217900061843A847E54B984725
S1131030E54AE64BE64EB047E64EB047A379B867BB
S113104060791B020343E079617A00040343207A48
S113105000061843A8473B007C331880E37AA07A43
S11310601B020343207BA17B00040343607B000637
S11310701843A8473B007E331880237CE07B1B0287
S11310800343607CE17C00040343A07C0006184316
S1131090A8473B0080331880637D207D1B020343F7
S11310A0A07D217E00040343E07D00061843A84789
S11310B03B0082331880A37E607E1B020343E07EE4
S11310C0617F00040343207F00061843A8473B00C8
S11310D070331880C04BC018BA4B9847BF4AC04BF6
S11310E0BB4DA847B047802650222100FB6B360237
S11310F03B64BC4B78675E6123000092E27FA57F6E
S11311001E3112022A438D7823332D042A43CD78CD
S1131110FF242D0615430A79197803925A7802950B
S1131120120211439A7812040A43D9781B790906EA
S1131130114305932A0008000491039B0599AA4DC5
S1131140A847FA20A74B40009E61A84B9847A84B9C
S11311509847A44BB8615E614223029A00930498B5
S1131160039B0599A04DA84780229E4BD2009E6107
S1131170A04BA14E1A6082210020B047210000201C
S1131180B0473B0059331870210000200393B04747
S11311903B0058331870210000200293B0473B00F5
S11311A05D331870210000203D000493B0475C3586
S11311B0287021000020B0473B00613318702100E3
S11311C000200593B0473B008022603318708B4B9E
S11311D0D2001A60029B3C001B78039A9C462B7831
S11311E05A340293634611781B02194309B2049AD4
S11311F02180029B12781B021A433B0012B25E3319
S11312001A800393059B05021B783E002B43654619
S11312101BB262363380012D01D00911218002995D
S1131220012902D0039912110A80012801D01B114F
S113123033800023E05E634B9847654C704A714BE2
S1131240A047644EB0473B00F8635E330020185E4D
S11312505C4B98476A4A6B4BA047B0473B007864A5
S113126062330020185E574B9847654A654BA04788
S1131270B04780235B4ADB005F4EB8648221536130
S11312800020B047FF210020B0473B0065331870B1
S1131290FF2100201D00B0473B0064331870FF217C
S11312A000200293B0473B0069331870FF210020EF
S11312B00393B0473B0068331870FF210020049368
S11312C0B0473B006D331870FF2100200593B047F1
S11312D03B006C3318708023424ADB009361029B0D
S11312E0039A1E78049B1B780293297833021943CE
S11312F066239C46BC44634609B21980029B12785B
S11313001B021A4313B203936B469B8905352B804A
S113131003021A00059B1B7813433A001BB26E327A
S113132004921380012E02D0624609111180029AA0
S1131330012A02D0039A12112A80012802D0049AA9
S11313401B1113803B0066330020185E1D4EB0470E
S11313502B4A2C4BA0471F4DA8473B00F8646A3327
S11313600020185EB047264A264BA047A8473B00FA
S113137038656E330020185EB047214A214BA047E0
S1131380A8477865C820194B800098473E00184B41
S11313909847083678611C4B3000984730001B4B47
S11313A098471B4BB86A98471A4A1B4BA047A84753
S11313B0F86207B0F0BDC0462D0E0000C434000032
S11313C0F10A0000FD2E0000A9A0A2EA573A5F3FEF
S11313D0FD29000025300000DAF0FFFF910F7A3676
S11313E0AB3E97BF004400415D0B0000B90D000007
S11313F0E501000094440041251500009844004193
S113140093E34EE960FD7F3F8D0200007903000005
S1131410812F00003FA9F6E978CCA03F70B5050004
S11314200123AE1CB3400C000B49086A03430B6252
S1131430002C03D007212000084B9847F0232402F6
S11314401B011C408023DB011C433F2314351D403A
S1131450034B25435D8070BD00040040690D00000E
S1131460000C0040044B8002C01801230360026892
S11314701A42FCD17047C04600080042F7B5040088
S1131480009308AB1B781600019309AB1F78124B2D
S11314900D009847114BA402E41880239B0263605B
S11314A0C0232D059B031D40C02336049B021E4010
S11314B00E231E43009B35435A1E9341019A5B073A
S11314C0511E8A411D431207154327732560E369A2
S11314D05B07FCD4F7BDC046651400000008004259
S11314E0F8B507001E000C4B0D00140098470B4B79
S11314F0B802C0180423C0220360C02392032D0540
S11315001540074A9B0224042A431C40B6B22243D6
S1131510868143600260F8BD651400000008004243
S113152006000040044B8002C0188162037E5B0702
S1131530FCD5806AC0B2704700080042044B8002A8
S1131540C01889B20185037EDB07FCD57047C0460D
S1131550000800428446101C62468C46191C6346EF
S113156000E0C0461FB501F0E7F9002801D40021CE
S1131570C8421FBD10B501F041F94042013010BD11
S113158010B501F0D9F9002801DB002010BD0120BD
S113159010BDC04610B501F0CFF9002801DD0020D0
S11315A010BD012010BDC04610B501F061F900283E
S11315B001DC002010BD012010BDC04610B501F0B3
S11315C057F9002801DA002010BD012010BDC046E3
S11315D0F0B5CE46474615042D0C2E0080B5070401
S11315E0140C3F0C9946030C7E435D4367436343ED
S11315F07F19340CE4199C46A54203D980235B026D
S11316009846C4444B46514343433604360C250C98
S113161024046544A4195918491920000CBC9046A7
S11316209946F0BDF0B5C6464E024702760A7B0ADB
S11316304400C50FF7004800984600B5240E2A0060
S1131640DB00000EC90FBC468D4267D0221A002A67
S113165000DCA5E000283AD1002F00D193E0511E10
S1131660002900D0BCE00124DB1B5A0146D59B01B4
S11316709E09300001F060FD05388640844200DD9B
S11316809DE0041B320020200134E240041BA640EC
S113169033005E1EB341002413435A0704D00F22C3
S11316A01A40042A00D004335A0129D50134FF2CEE
S11316B000D181E02A009B015B0AE4B25B02E405ED
S11316C0580AD2072043104304BC9046F0BDFF2CB7
S11316D0E3D080213800C904084384461B2A00DD76
S11316E082E020206146D140821A60469040020088
S11316F0501E82410A439B1A5A01B8D45A07CED1CC
S1131700DE082A00FF2C3AD1002E00D1AEE080235F
S1131710DB0333435B025B0AFF24CFE7211A002972
S113172052DD002831D0FF2CB7D080203E00C00409
S11317300643B4461B2900DDAAE020266046C840C3
S1131740711A66468E4031004E1EB14101435B184A
S11317505901D3D50134FF2C00D187E00122784907
S11317601A405B080B40134397E7002C00D0A7E016
S1131770002B00D0B6E03B1E62D10026002273028B
S11317805B0AE4B29AE7140087E7002F4DD0481EA5
S1131790002857D1634401245A01AFD50224DDE760
S11317A0002A24D1621CD2B2012ADEDDDE1B7201C2
S11317B035D5FE1A0D005CE72A0000237EE73300CE
S11317C0604A241A134068E7002963D1611CC8B237
S11317D001284EDDFF2949D063445B080C005CE717
S11317E0FF2A41D00A0079E701229B1A84E7002CE2
S11317F01DD0FF2822D08024E404524223431B2A14
S113180000DD8AE01C002025D440AA1A93405A1E09
S11318109341234362460400D31A0D0025E7002EAA
S113182000D026E700220024A9E70C0035E7002BAE
S11318304DD0D243002AEDD0FF28E0D16346FF24E7
S11318400D002AE7FF290FD0010073E7002B61D0B8
S1131850FF24002F00D120E780224146D203114209
S113186002D0164200D13B00FF2416E7FF240023D8
S113187024E7002CEAD1002B58D0002F00D10CE72C
S113188063445A0100D439E72E4A0C00134004E79C
S113189001215CE7002C1ED1002B40D0C943002954
S11318A00BD0FF2836D01B2947DC1C002026CC4057
S11318B0711A8B40591E8B4123436344040047E74C
S11318C0002B18D13B1E2DD00D00FF24E5E63B0074
S11318D004000D00E1E6FF281CD08024E404494202
S11318E02343E0E7002F00D1D7E6DE1B72011FD5AA
S11318F0FB1A0D00D1E6FF24002F00D1CDE6802293
S11319004046D2031042AFD01642ADD13B000D0089
S1131910FF24C2E66346FF24BFE601237AE73B00C7
S11319200400BAE680260022F603F0E63B00B4E6A3
S1131930331E00D0E2E6002221E70123BDE7C046C2
S1131940FFFFFF7DFFFFFFFBF0B557464E46DE4627
S11319504546E0B544024300C60F83B00F1C640A39
S11319601B0EB24653D0FF2B27D08022E400D204B2
S113197014437F22524290469844002399469B4642
S11319807D027800FB0F6D0A000E009324D0FF281F
S113199046D080230021ED00DB041D437F384746F9
S11319A0381A4F460F43BF00B9463300009A874F99
S11319B053404A46BA5801939746002C4ED1082307
S11319C09946F7339846FD3B9B467D027800FB0F12
S11319D06D0A000E0093DAD1002D26D100200121DA
S11319E03300009A7A4F53404246101A4A460A433B
S11319F09200BA581D009746009B2C009A468B46CD
S1131A005B46022B31D15346FF21002438E0002CE1
S1131A1017D1042399460023984601339B46AFE728
S1131A20FF20002D0BD10221DAE7280001F084FB0E
S1131A30431F9D4076235B42181A0021AFE7032120
S1131A40ADE7200001F078FB431F9C4076235B4206
S1131A501B1A9846002399469B4691E70C23994606
S1131A60F3339846FC3B9B468AE7032B00D1A5E061
S1131A705546012B00D081E00123002100242B4096
S1131A806402C905600ADB070843184303B03CBC81
S1131A9090469946A246AB46F0BD80240023E40359
S1131AA0FF21EDE7FF210024EAE70123591A1B294E
S1131AB066DD019A134000210024E1E78023DB0363
S1131AC01C4238D01D4251D01C436402640A3300C6
S1131AD0FF21D5E763016C01A3423BD21B26002101
S1131AE0013801251F0049005B00002F01DB9C42E7
S1131AF001D81B1B2943013E002EF3D11C00631E99
S1131B009C410C4301007F310029CEDD630704D0E2
S1131B100F232340042B00D00434230103D50100F8
S1131B202C4B80311C40FE290DDD0123019AFF213D
S1131B3013400024A4E78023DB031C436402640AEB
S1131B403300FF219CE70123019AA401640AC9B26E
S1131B50134095E71B1B1A260121C2E7009B8B4605
S1131B609A4600244CE76302E5D500258024E4036B
S1131B702C436402640A009BFF2181E70195C1E7BD
S1131B8023002020CB40411A8C40611E8C411C4311
S1131B90630704D00F232340042B00D004346301D3
S1131BA005D50123019A01211340002468E701238C
S1131BB0019AA401640A1340002161E78023DB0336
S1131BC01C436402640A5346FF2159E7EC340000C5
S1131BD02C350000FFFFFFF7F8B557464E46454643
S1131BE0DE46E0B54702460088467F0A360EC40F3B
S1131BF0002E47D0FF2E24D0FB008027FF041F4374
S1131C00002399469A467F3E43465D025800DB0F07
S1131C106D0A000E984643D0FF283BD0EB00802588
S1131C200022ED041D437F383618731C41469B4641
S1131C304B46614013430F2B64D875489B00C3582F
S1131C409F46002F42D108239946063BFF269A4619
S1131C50DAE74146022A28D0032A00D1CEE0012A3D
S1131C6000D0ACE0114000200022CCB24002D205EA
S1131C70400AE407104320433CBC90469946A246E0
S1131C80AB46F8BD002F15D104239946033B00262B
S1131C909A46B9E7FF200222002DC5D00322C3E7EC
S1131CA0002D19D100200122BEE70124FF220C409F
S1131CB00020DBE7380001F03FFA7626431F9F40FF
S1131CC000237642361A99469A469DE70C23994694
S1131CD0093BFF269A4697E7280001F02DFA431F97
S1131CE09D4076235B42181A00229DE78020002441
S1131CF0C003FF22BAE73D005246ABE73D00210096
S1131D005246A7E73B0C9C462A04120C2B0C1400E9
S1131D10604665463F043F0C7C4342435D437B433E
S1131D20270C9B18FF18BA4203D980235B029C46F8
S1131D30654424043A04240C121993015C1EA34143
S1131D403F0C920E7D191A43AD0115432B0104D5A6
S1131D5001235E466A081D40154332007F32002A83
S1131D6025DD6B0704D00F232B40042B00D0043552
S1131D702B0103D53200274B80321D40FE2A94DC10
S1131D800124A801400AD2B20C406FE78020C003AE
S1131D90074207D0054205D128434002400A444681
S1131DA0FF2263E738434002400AFF225EE7012432
S1131DB0A31A1B2B05DD0C400022002056E75E46CB
S1131DC0CBE72A002020DA40C31A9D402B005D1E79
S1131DD0AB4113435A0704D00F221A40042A00D0FF
S1131DE004335A0104D5012401220C4000203DE7AC
S1131DF001249B01580A0C40002237E7802001246B
S1131E00C00328434002400A0C40FF222EE7C0468C
S1131E106C350000FFFFFFF7F0B54F46D646464647
S1131E204400C0B5C20F47024802400A84466646D1
S1131E307B0A4800C90F9A46240E1500DB00000EE9
S1131E408946F600FF2800D18FE001214F464F401C
S1131E503900914266D0221A002A00DC9DE0002855
S1131E603DD1002E00D18BE0511E002900D0B5E0F9
S1131E7001249B1B5A0144D59B019F09380001F0A2
S1131E805BF905388740844200DD96E0041B3A0084
S1131E9020200134E240041BA7403B005F1EBB41ED
S1131EA0002413435A0704D00F221A40042A00D0F6
S1131EB004335A0127D50134FF2C00D179E00122E3
S1131EC09B015B0AE4B22A405B02E405580AD2078C
S1131ED0204310431CBC90469946A246F0BDFF2CFB
S1131EE0E0D08021C9040E431B2A7BDC3100202072
S1131EF0D140821A9640721E96410E439B1B5A0192
S1131F00BAD45A07D0D10122DF082A40FF2C33D19A
S1131F10002F00D1A8E08023DB033B435B025B0A74
S1131F20FF24D1E7211A00294CDD00282AD0FF2CF8
S1131F30B8D08020C00406431B2900DDAFE0300088
S1131F402027C840791A8E40711E8E4106439B1982
S1131F505901D6D50134FF2C00D185E001227A49FC
S1131F601A405B080B4013439CE7002E00D070E737
S1131F706BE73B1EC5D100227B025B0AE4B2A3E7F8
S1131F8014008FE7002E4DD0481E002857D19B190E
S1131F9001245A01B5D50224E0E7002A25D1621CA8
S1131FA0D2B2012A72DD9F1B7A0135D5F71A0D00D2
S1131FB064E7012200232A4086E73B00634A241A8F
S1131FC013406FE700296CD1611CC8B201284EDDB3
S1131FD0FF2949D09B195B080C0063E7FF2A41D015
S1131FE00A0081E701269B1B89E7002C1CD0FF28EF
S1131FF021D08024E404524223431B2A00DD96E0CE
S11320001C002025D440AA1A93405A1E934123430E
S1132010F31A04000D002DE7002F00D02EE7002254
S11320200024A9E70C003DE7002B58D0D243002A36
S1132030EED0FF28E1D13300FF240D0032E7FF2961
S113204010D0010078E7002B6ED0FF24002E00D1C1
S113205028E780225146D203114203D0614611423F
S113206000D13300FF241DE7FF2400232CE7002CBC
S1132070E9D1002B63D0002E00D113E79B195A013C
S113208000D43EE7314A0C0013400BE7002C1ED16C
S1132090002B2FD1002E4FD033000D0002E7012674
S11320A055E7002C1FD1002B43D0C94300290BD086
S11320B0FF2839D01B2944DC1C002027CC40791A86
S11320C08B40591E8B4123439B19040040E7002B8E
S11320D01AD1002E24D180270022FF031BE73300EE
S11320E004000D00DEE6FF281ED08024E4044942EB
S11320F02343DFE7002E00D1D4E69F1B7A0100D4EE
S113210037E7F31A0D00CDE6FF24002E00D1C9E60F
S113211080225046D2031042A4D060461042A1D17E
S113212033000D00FF24BDE63300FF24BAE601238B
S11321306EE733000400B5E6002700221CE73300F5
S1132140B0E60123C0E7C046FFFFFF7DFFFFFFFBB2
S113215010B5041E27D000F0EFFF9E231B1A962B08
S11321600ADC9622D21A94406402640ADBB2640246
S1132170DB05600A184310BD992B17DC9922D21A8B
S1132180002A27DD94402200134C1440510704D048
S11321900F210A40042A00D00434620112D4A4019D
S11321A0640ADBB2E3E700230024E0E7B92221005C
S11321B0D21A91400A00511E8A410521091ACC40C5
S11321C01443DBE7044B1C409F23A4011B1A640A3D
S11321D0DBB2CCE72200D7E7FFFFFFFBF8B54546AB
S11321E0DE4657464E460C03E0B54E00C90F8846FE
S11321F00D00610A440F0C43C70019035800DB0F9C
S11322009B464B0A510F0B43760D400D1900D2002B
S1132210D84500D1AEE0351A002D00DCF6E00028E8
S11322200FD1134300D1DBE06B1E002B00D037E14C
S1132230BA1A9742BF41641A7F42E41B0126170071
S113224024E0C64B9E424DD080231B041943382DF5
S113225000DD07E11F2D00DD38E12020431B9A46F5
S11322600B0050468340994613004846EB40184300
S1132270030050468240501E8241E9401A43BA1A74
S1132280611A9742A441170064420C1B230262D5D1
S11322906402650A002D00D1DFE0280000F04CFF45
S11322A00300083B1F2B00DDD2E020223C00D21AA1
S11322B09D40D4409F4025439E4200DDC4E09E1BC8
S11322C0731C1F2B00DDF1E0202238002900D21AF4
S11322D0D840914097402C000143781E8741DC4050
S11322E000260F437B0709D00F233B40042B05D066
S11322F03B1DBB42BF417F42E4191F0023022CD582
S1132300964B01369E4200D19AE04546944BFF0815
S11323101C406007760564020743240B760D0021F8
S11323202403230B0C0D8F4A24051C43144033054E
S113233023435B00ED075B082B43380019003CBCCA
S113234090469946A246AB46F8BD6446044300D184
S113235011E2040067467B07C6D145466007FF08C3
S11323600743E4087D4B9E4230D024037605240BBA
S1132370760DD4E7331A9A46002B78DD002831D045
S113238076488642AED08020000401435346382B61
S113239000DCE9E00A43511E8A410021D219BA4205
S11323A0BF4109197C4217000C192302D3D56B4B8A
S11323B001369E4200D13AE10120694B1C407B0862
S11323C007401F43E007074364088BE723003B43B0
S11323D000D1CBE18022120314432403240B9EE793
S11323E02E007FE70800104300D1B4E0581E0028F7
S11323F000D0DEE0BA18BA429B4164185B42E4188C
S1132400170001262302A6D50226D5E7002D6ED19A
S1132410701C4005400D012800DCF9E0B81A844620
S113242087428041E51A40422D1A280200D489E0EF
S1132430D71BBA4292411C1B5242A51AD84629E71F
S11324404546002400276AE7454CF61A2C4049E724
S11324503D002838854000272EE7380000F06CFE48
S113246020301DE70A43511E8A41002107E7002B53
S113247000D0F3E0701C43055B0D012B00DCADE0E4
S1132480364B984200D1D1E0BA18BA42BF41641821
S11324907F42E419E707520817436408060021E75E
S11324A02E48854200D193E01D00D0E629001F3E4E
S11324B0F140202B00D18DE04022D31A9D402F43C0
S11324C07D1EAF4100240F43002644E72B00080083
S11324D0203BD8400300202D00D17DE04020451B47
S11324E0A9400A43511E8A4100211A43C7E6002E1F
S11324F050D01A4EB04257D080266B4299463604CB
S113250034434B46382B00DDD6E01F2B00DD35E18C
S11325102026F51A2600AE40B2463E00DE40AC4608
S1132520350056462E436546AF407D1EAF41DC4024
S11325303743D71BBA4292410C1B5242A41A0600DD
S1132540D846A3E6644667462C4300D0A2E600259D
S11325500026002706E71E00C4E6C046FF07000069
S1132560FFFF7FFFFFFF0F801F2B63DC2020C31AB8
S1132570080098409C46834653461000D840030008
S11325805846184363469A40531E9A4153460243A1
S1132590D94003E726003E4306D0EB439946002B7F
S11325A0C7D0944EB042ACD10C0017000600D846F8
S11325B098E6904B9A450BD08246E7E6002800D077
S11325C09EE01800104300D1E9E01C001700D84633
S11325D0884E87E6002572E7002182E723003B430B
S11325E0002E00D0ABE0002B00D1E7E00B0013433A
S11325F000D177E6BA18BA42BF4164187F42E419A1
S1132600230200D4F2E07C4B17001C40060069E66C
S113261020003843002ED1D100285BD11C00144384
S113262000D1A8E01C001700D8465BE60600002491
S1132630002797E650460B002038C340994653467E
S1132640202B00D195E0402350461B1A99400A43A1
S1132650511E8A414B4600211A439FE6002E30D179
S113266026003E4367D0DB439A46002B1CD0614EC4
S1132670B04260D05346382B00DD96E01F2B00DDBE
S11326809FE02026F31A26009E409C46B3465346FC
S11326903E00DE4033005E461E4363469F407B1E81
S11326A09F415346DC403743BF1897429241641818
S11326B05242A418060078E627437C1EA741002452
S11326C037E74C4EB04236D080265B4236049A46F9
S11326D03443CFE71800104300D103E6B81A844608
S11326E06745AD41E01A6D42401B050200D42CE65B
S11326F0D71BBA4292411C1B5242A41AD846F1E598
S11327001800104300D163E7F808670707438020E7
S1132710E4080003044208D0DD08054205D1D208CC
S1132720590711430F002C00D8467B0FE4001C43CB
S1132730FF00304ED6E50C0017000600D2E5002B52
S113274038D00B00134300D142E7F808670707436A
S11327508020E40800030442E7D0CB080342E4D11C
S1132760D208490711430F001C00DEE700270024AC
S1132770D5E500216BE700250027F3E54E4625004B
S1132780203EF5404B462E00202B2DD04025ED1A3F
S1132790AC4027437C1EA74100243743C9E680246C
S11327A000252403134E0027DCE527437C1EA741A4
S11327B0002479E70C0017000E4E93E50C00170077
S11327C090E556462300203EF34099465346202B7D
S11327D00ED0402356469B1B9C4027437C1EA7419A
S11327E04B4600241F435FE70024D2E71700B2E5FD
S11327F00024F2E7FF070000FFFF7FFFF0B54F461C
S11328004646D6465C00C0B51F03DB0F9A46174BFD
S11328100E034D0084468046360B6D0DC90F91465C
S11328203F0B640D01209D4208D09C4201D0A5427B
S11328300BD01CBC90469946A246F0BD6346334378
S1132840F7D1AC42F5D13A43F3D10120BE42F0D1E5
S1132850C845EED1514507D0002DEAD163461E4349
S11328603000461EB041E4E70020E2E7FF07000025
S1132870F0B54546DE4657464E46E0B51F033D0BD0
S11328802C4F0E034C00AB465D008446360B640DA2
S1132890C90F90466D0DDB0FBC422AD0254FBD42B7
S11328A02DD0002C0FD13043070081467842784167
S11328B0C0B2002D17D15F463A4314D14B460020D5
S11328C0002B0AD006E0002D02D15846024301D065
S11328D0994218D04842012108433CBC904699468D
S11328E0A246AB46F0BD0028F2D00120013B1843BC
S11328F0F3E737000743D1D002204042EDE75F46BB
S11329001743CED0F8E7AC42E4DC03DA481E0121D9
S11329100843E2E75E45DDD806D000205E45DCD200
S11329200123481E1843D8E7C445D3D80020C44522
S1132930F6D3D2E7FF070000F0B54E464546DE4623
S113294057465C00E0B51F03DB0F99462A4B0E0384
S11329504D00C90F8446360B6D0D8B4690463F0BD8
S1132960640D9D4220D0244B9C4222D0002D12D1D4
S1132970304343424341DBB2002C1FD0002B0CD028
S11329804B460120013B034318003CBC904699464A
S1132990A246AB46F0BD002C16D0CB4517D05B4603
S11329A0594201230B43EFE7310002230143EBD1EA
S11329B0D9E7390002231143E6D1D7E73A43DDD101
S11329C000230028E0D0EAE73A43E6D1E7E7A5424E
S11329D0E5DC05DBBE42E2D807D00023BE42D3D2F9
S11329E05946012301390B43CEE7C445D7D8002308
S11329F0C445F5D3C8E7C046FF070000F0B5574605
S1132A004546DE464E46E0B50C0398464E00230B81
S1132A1087B0070092469B46760DCD0F002E6BD0F3
S1132A206D4B9E4235D080245B46420F2404DB006C
S1132A3014431C43C3009946684BA3469C46002399
S1132A4000276644029343461C035A00DB0F50469A
S1132A50240B520D984600D176E05F4B9A426DD01C
S1132A608023410F1B040B435C49E4008C461C4348
S1132A70C300002062444146B6186940721C0191AB
S1132A80944607430F2F00D9B0E0554ABF00D259EE
S1132A9097465B460343994600D087E000239B4654
S1132AA0023308270293CEE742460192022867D0F8
S1132AB0032800D10EE2012800D062E100230024A3
S1132AC00022994601990140CDB2002112030B0D59
S1132AD0120B1B051343434A240513401C43640093
S1132AE0ED0764082C434846210007B03CBC9046DF
S1132AF09946A246AB46F0BD034399464FD05B4688
S1132B00002B00D189E1584600F016FB03000B3B73
S1132B101C2B00DD7AE11D22D31A3A0001005C4629
S1132B20DA4008398C4013008F4023439B46B94652
S1132B3000232D4E0027361A029384E7534623437D
S1132B402AD10024022096E75346234320D0002CA8
S1132B5000D157E1200000F0EFFA03000B3B1C2BDF
S1132B6000DD49E11D21CB1A51460200D9405346EC
S1132B70083A944093400C431B4A121A00207AE707
S1132B800125019B144C1D400023002299469CE71B
S1132B900024002201206EE7534603206BE7002344
S1132BA09B4601330427002602934CE70323814606
S1132BB00C27029347E7802200230025120399463D
S1132BC0054C82E75C464B4602986FE75C464B46F1
S1132BD0019502986AE7C046FF07000001FCFFFF69
S1132BE0AC350000FFFF0F800DFCFFFF4A4649464D
S1132BF0170C1A0C1B041B0C08041900000C41438D
S1132C001500884619007D437943039589462900B8
S1132C10150045434D44029545462D0CAA46029D98
S1132C205544A94506D98A46802149028946CA44A1
S1132C3051460391290C0491414609042D04090CC1
S1132C4088462900250C24044144240C05912100C4
S1132C5041438846210079438A46684341465044AB
S1132C608146080C48446F43824503D980214902B8
S1132C7089464F44010C8946390049440291414632
S1132C800F0404993F0C88460004C019804441464F
S1132C90049159460F0C0904090C884659438A4685
S1132CA039005143894641464A435146090C8B46F3
S1132CB07B43D2185A44934203D980235B029B4638
S1132CC0D94451460904090C8A46414661437C4370
S1132CD0130C12044B445244A1468A463C0041461C
S1132CE06C434D4351464D440F0C7D19A94503D9FE
S1132CF08021490288464444049F0399B8464144CC
S1132D008B468345804141428846514608042F043E
S1132D10000C3F1858460299101889469042924177
S1132D204F44BA46524299469346C244D144CB4496
S1132D308F42BF41C245894199459B419345924188
S1132D407F4249422D0C52420F435B4213437F1989
S1132D50FF185B463C19DB0D059A64021C434302D1
S1132D6013435D1EAB415A46C00D03435202134345
S1132D70E20156D501205A0803401343E2071343E6
S1132D8064085A48604400284DDD5A0709D00F22D0
S1132D901A40042A05D01A1D9A429B415B42E4184A
S1132DA01300E20104D58020514AC000144060445D
S1132DB0504A904200DDE3E60125DB0862071A432E
S1132DC06402019B9146220B4405640D1D407CE680
S1132DD0802259461203114208D0144206D12243DC
S1132DE01203120B45469946434C6EE65B461A4362
S1132DF01203120B404C68E603005446283B9C40E7
S1132E000023B9E600F098F92030A6E60300283B39
S1132E109F400023BB4699468AE600F08DF9203096
S1132E2074E6B446ADE701252A1A382A06DD019B6B
S1132E3000241D4000230022994646E61F2A21DC77
S1132E4020252000AD1A1E00AB40A840D6405D1ED0
S1132E50AB4130431843D440430709D00F23034008
S1132E60042B05D00300181D98429B415B42E418D3
S1132E70230221D50125019B01241D4000230022AA
S1132E80994622E61F2521006D42281AC1400800F8
S1132E90202A1DD05F35AA1A944023435C1EA34107
S1132EA0072503431D400022002D09D00F220024D2
S1132EB01A401800042AD6D1030065076402220BC5
S1132EC0DB082B4301259946019B00241D40FCE5AA
S1132ED00024E2E780220125120322430199120310
S1132EE0120B0D409946044CEFE5C046FF03000069
S1132EF0FFFFFFFEFE070000FF07000070B500287B
S1132F0030D0C317C4185C40C50F200000F014F97A
S1132F10174B184A1B1AD21A1F2A18DD164AD21A3E
S1132F209440002224035B05240B5B0D0021100058
S1132F3024030A0D240B12052243104C1B052240C6
S1132F4013435B00ED075B082B43190070BD2100A0
S1132F5091400A000B21081AC4405B052403240B8A
S1132F605B0DE3E70025002300240022DEE7C046D2
S1132F701E0400003304000013040000FFFF0F8050
S1132F804100090E4B1C70B5DBB24602750AC40F32
S1132F90012B14DDE0239B006D07360BCB180021B9
S1132FA00A0D280012051C4D32435B052A405B08BC
S1132FB013435B00E4075B082343190070BD002939
S1132FC014D1002D1ED0280000F0B6F80A281CDC0D
S1132FD00B232A001B1ADA40030015339D400F4BC4
S1132FE012031B1A5B05160B5B0DD8E7002D06D0E8
S1132FF0320B802636036D071643094BCFE7084B87
S11330000026CCE700230026C9E703002A000B3B77
S11330109A400025E3E7C046FFFF0F8089030000C4
S1133020FF070000F0B54C00640D0B03621C450F54
S11330305B0A52052B43C90FC500520D012A28DD36
S11330403A4AA618FE2E1BDC002E3EDD800102004B
S1133050501E82416D0F2A43DB0013435A0704D0EC
S11330600F221A40042A00D004338022D2041A40CA
S11330705AD00136FF2E03D09B015B0AF4B201E063
S1133080FF2400235802E405400AC90720430843EB
S1133090F0BD002C07D01D43F2D08020DB0080045B
S11330A00343FF26DAE72B4303D00523DB08FF2C79
S11330B003D05B025B0AE4B2E4E7002B32D0802049
S11330C0C00303435B025B0ADCE73200173214DB04
S11330D080221E2712041343BF1B1F2F0FDC144A28
S11330E0944664442A00A5402E00A340751EAE41B8
S11330F0FA40334313430026B0E70024D5E7022205
S11331005242961B1A00F240202F09D009488446E7
S11331106444A3402B435D1EAB41002613439DE74B
S11331200023F7E70023ADE73400BFE780FCFFFF8F
S113313082FCFFFFA2FCFFFF1C2101231B04984219
S113314001D3000C10391B0A984201D3000A083934
S11331501B09984201D30009043902A2105C4018EB
S11331607047C0460403020201010101000000008F
S11331700000000070B50D4E0D4D0024AD1BAD10C8
S113318005D0A300F35801349847A542F9D100F0C3
S11331902FFA084E084D0024AD1BAD1005D0A30036
S11331A0F35801349847A542F9D170BDFC350000AD
S11331B0FC350000FC35000004360000F0B5830740
S11331C043D0541E002A3FD0CEB20200032502E0B1
S11331D01A00013C38D3531C16702B42F8D1032C2F
S11331E02AD9FF220A40150215432A0415430F2C3D
S11331F014D927001A00103F3E09013636019E19E2
S1133200156055609560D56010329642F8D10F2252
S113321097431037DB191440032C0DD91A00271FCC
S1133220BE080136B6009E1920C2B242FCD1032268
S113323097430437DB191440002C05D0C9B21C197C
S1133240197001339C42FBD1F0BD14000300C6E7A2
S1133250034B10B5002B02D0024800F005F810BD56
S1133260000000007932000010B5010000230022A4
S1133270002000F01BF810BD70B5094B094CE41A8E
S1133280A41009D0084AA518AD00ED182B68013C1C
S11332909847043D002CF9D100F0B4F970BDC04644
S11332A01036000014360000FFFFFF3FF8B5DE467D
S11332B09B46314B45461C68A4234E4657465B004B
S11332C0E0B50500E0580E00904600284BD0436856
S11332D01F2B0DDC5C1C002D21D102339B004460AC
S11332E01E5000203CBC90469946A246AB46F8BD11
S11332F0224B002B3CD0C820400000E000BF002837
S113330036D0A42200235200A15843600160A0508B
S113331040328350043283500124002DDDD09A00C2
S113332091468144424688214F467A50C422520035
S11333309046804442468739994012688A460A4337
S11333409446424661461160842249465F465200D3
S11333508F50022DC1D1020055468D32FF321168C3
S11333600D431560B9E720004D30FF30E050AEE763
S113337001204042B6E7C046EC35000000000000E2
S11333800200000C000200000E000200000D00000C
S1133390208DFFFFA1ADFFFF64CEFFFF6CEFFFFFA9
S11333A0B71000004A32000025540000497600009E
S11333B0B798000072BB000079DE0000D001010064
S11333C0762501006F490100BC6D01005E92010089
S11333D058B70100AADC010058020200622802006A
S11333E0CC4E020096750200C49C020057C4020031
S11333F052EC0200B7140300893D0300CA660300BF
S11334007D900300A4BA030044E503005E100400A9
S1133410F63B04000E680400AC940400D1C104001F
S113342081EF0400C11D0500954C0500007C0500DA
S113343007AC0500AEDC0500FB0D0600F23F0600FC
S113344098720600F4A5060009DA0600E00E0700EB
S11334507D440700E87A070028B2070044EA070021
S113346044230800305D080010980800EFD30800DA
S1133470D6100900CF4E0900E58D090023CE0900BE
S1133480980F0A004F520A0057960A00BFDB0A0041
S113349098220B00F36A0B00E2B40B007B000C00D3
S11334A0D44D0C00039D0C0023EE0C0050410D0084
S11334B0A9960D004EEE0D0065480E0016A50E00EF
S11334C08E040F000000000606010001030B01003A
S11334D001020A00000003010000000200000000D5
S11334E007070200000C000200000E00D41A0000BE
S11334F0A41A0000B61A0000F8190000B61A000059
S11335009A1A0000B61A0000F8190000A41A000064
S1133510A41A00009A1A0000F8190000001A00000A
S1133520001A0000001A0000BC1A0000A41A0000CF
S1133530A41A0000781A00005C1B0000781A00002E
S11335409A1A0000781A00005C1B0000A41A0000FC
S1133550A41A00009A1A00005C1B0000001A000064
S1133560001A0000001A0000661B0000041D000081
S1133570541C0000541C0000521C0000F61C0000E7
S1133580F61C0000EC1C0000521C0000F61C00009D
S1133590EC1C0000F61C0000521C0000FC1C000087
S11335A0FC1C0000FC1C00008C1D0000EC2B000027
S11335B0AC2A0000AC2A0000A82A0000C42B00009A
S11335C0C42B0000B62B0000A82A0000C42B000066
S11335D0B62B0000C42B0000A82A0000CC2B00004E
S11335E0CC2B0000CC2B0000D02D000010000020BC
S11335F0F8B5C046F8BC08BC9E467047513200007E
S1133600DD000000F8B5C046F8BC08BC9E46704713
S1073610B5000000FD
S113361440420F0080BB00003000000000000000A6
S113362400000000FC02002064030020CC030020FE
S11336340000000000000000000000000000000082
S11336440000000000000000000000000000000072
S11336540000000000000000000000000000000062
S11336640000000000000000000000000000000052
S11336740000000000000000000000000000000042
S11336840000000000000000000000000000000032
S11336940000000000000000000000000000000022
S11336A40000000000000000000000000000000012
S11336B40000000000000000000000000000000002
S11336C400000000000000000100000000000000F1
S11336D40E33CDAB34126DE6ECDE05000B000000B6
S11336E400000000000000000000000000000000D2
S11336F400000000000000000000000000000000C2
S113370400000000000000000000000000000000B1
S113371400000000000000000000000000000000A1
S9030000FC
