S0140000446173416C74696D657465722E7372656351
S1130000D02700201901000015010000150100008F
S113001000000000000000000000000000000000DC
S113002000000000000000000000000015010000B6
S11300300000000000000000150100001501000090
S11300401501000015010000150100007D0F0000DE
S11300501501000015010000150100001501000044
S11300601501000015010000150100001501000034
S11300701501000015010000150100001501000024
S113008015010000150100001501000021100000F9
S113009089100000000000000000000015010000AD
S11300A015010000150100001501000015010000F4
S11300B00000000010B5064C2378002B07D1054B37
S11300C0002B02D0044800E000BF0123237010BDC0
S11300D0A00400200000000088640000084B10B554
S11300E0002B03D00749084800E000BF0748036815
S11300F0002B00D110BD064B002BFBD09847F9E72D
S113010000000000A404002088640000886400004B
S113011000000000FEE700002148224970B5884233
S113012004D00023204CCA18A24232D300211F4B12
S11301301F4A934231D3FF211E4B1F4A8B439360C6
S113014002220C25082430261C4B1D485A62C37811
S1130150FC398B431343C370C378AB432343C3704D
S1130160184B987BB0430600202030439873987B4B
S1130170A84304439C73987B884302439A73802367
S1130180114A51680B435360104B9847104B9847E2
S1130190FEE7C55804331560C5E702C3C9E7C04686
S11301A08864000000000020A0040020A0040020B7
S11301B0D00700200000000000ED00E0FC700041CA
S11301C0005000410048004100400041D961000056
S11301D0590A0000014A024B1A60704740420F005E
S11301E000000020F8B58023094FDB027B61052164
S11301F00120084DA8470124074E307031782000B3
S1130200A8472042FAD18023DB02BB61F8BDC04677
S11302100044004101270000C0040020F8B58025F7
S1130220084CED02084F656106210120B847074ECE
S113023060213070A56101206561B8473070A56107
S1130240F8BDC0460044004101270000C00400205E
S11302508023F7B5194CDB0201920700184D009179
S1130260012063610621A8478023164EDB0230700B
S11302700221A36101206361A847390C3070C9B21F
S11302800120A847390A3070C9B20120A847F9B241
S113029030700120A847009B019F3070FB18009329
S11302A0009B9F4203D18023DB02A361F7BD397811
S11302B00120A84701373070F2E7C04600440041EE
S11302C001270000C00400208023F7B5184CDB028E
S11302D00700184E0191012063610621B047802375
S11302E0154DDB0228700221A36101206361B04730
S11302F0390C2870C9B20120B047390A2870C9B234
S11303000120B047F9B228700120B047019F28703E
S11303107B1CFF33019339780120B047019B0137DF
S11303202870BB42F7D18023DB020020A361FEBD0D
S11303300044004101270000C00400208023F7B5D9
S1130340174FDB0201920400164D009101207B61DE
S11303500B21A847144E210C3070C9B20120A847C4
S1130360210A3070C9B20120A847E1B230700120DF
S1130370A847FF2130700120A847009B019C3070E2
S1130380E3180093009B9C4203D18023DB02BB61F2
S1130390F7BD31780120A84720700134F2E7C04648
S11303A00044004101270000C00400208023F7B569
S11303B0164FDB020600164C019101207B610B21D4
S11303C0A047144D310C2870C9B20120A047310A4E
S11303D02870C9B20120A047F1B228700120A047BB
S11303E0FF2128700120A047019E2870731CFF3351
S11303F0019329780120A047019B307001369E4269
S1130400F7D18023DB02BB61F7BDC0460044004145
S113041001270000C00400208023F0B5244F1B02F4
S11304207B610023234D87B0A9796C7900936B78A5
S11304302A78090221431B02EC791343AA78240485
S1130440214312042C7A1343EA7824060C4312063F
S1130450697A1A4320002B79174E0291B047EB7A40
S1130460AA7A1B021A432B7B144E1B0413436A7B88
S1130470AD7B12061A4302992B0020000392B04769
S1130480039A04902B0002992000B047039A059028
S11304902B0020000299B04780231B02BB61049B00
S11304A0059A1B0415021D43284307B0F0BDC0463E
S11304B00044004150630000490C0000B50C0000EA
S11304C0F0B5002689B00693254B05921A8804904E
S11304D001925A88234C0292DA889D8803921F89DC
S11304E03F02CF1BFA17079258893A00FB173100D5
S11304F0A047FA234902C00D0843DB00C018059B3E
S11305003A0018603100FB172800A0470C060B12B4
S11305103100020A2243019CE00380185941114C26
S1130520049A3300A047CB02440D3A001C430D4FFC
S1130530079B4D1503983100B8474F06CB11310086
S1130540029EC2093A43300412184B41A41A9D4139
S11305506B04E40B1C43069B1C6009B0F0BDC04651
S113056002060020093B000010B50C4B98470C4CC8
S113057000220C4BA04700220B4BA0470B4A0C4B0C
S11305800C4CA0470C4C02000B0000200B49A04768
S11305900B4A0C4B0C4CA04710BDC046CD5D00006F
S11305A0914900000000244000AA8F403CDD79E21C
S11305B0395BC83F31280000F95600000000F03FC5
S11305C09A999999B3BE0141F9510000F0B50027F9
S11305D087B09620284C8000A04796208000A04732
S11305E08022264B12025A613B00254C5E3BDBB253
S11305F0009363782278A17966791B021343090278
S1130600A2780E43E17912041343207AE2780904B4
S11306103143667A1206000608431A4331002379EF
S1130620184D0390A8472200D37AA47A1B022343CF
S1130630147B957B24042343547B310024061C4300
S113064022002B00049403980F4CA0472B00059024
S1130650049A039831000C4CA0478022074B1202E5
S11306609A61059B1D02094B2843D85302370C2F6E
S1130670AFD107B0F0BDC046250F000000440041D3
S113068050630000490C0000B50C00000206002075
S113069073B580251E231249124C2D026561009307
S11306A04B780A781B0213438A784E1D12041343B5
S11306B0CA78487912061A430B79897909020143E9
S11306C0B07800040143F078000608433179064EFF
S11306D0B047A561C820054B9847054B984773BDA3
S11306E05063000000440041490C0000510F000019
S11306F0CD0500001E21F0B5C74A85B0536801241A
S11307008B431C390B435360C44A063193690B4332
S11307109361C34B9847C34B9847C34B9847C34B0C
S11307209847C34B98474022C121C24B89001A60A5
S11307305A58C14802405A50C04B190054310A78E3
S11307401800A2430A70802252039A600F223330A9
S113075001781E00914321430170C17CC3362143BB
S1130760C17419001020B1310D781F0015400543E4
S11307700D7035788837254335700D78154005435D
S11307800D70357825433570357DA5433575802545
S11307902D0403973D609425AC4680269C44654611
S11307A036042E601E000D78C236954325430D7025
S11307B035780227254335700D78954325430D7010
S11307C01D003178D635214331702978793EA14313
S11307D029708021039DC903296080256146ED03AA
S11307E00D60190031310D78154028431D00087043
S11307F04335287820432870A87D0535A0436874C4
S113080080208004986058610878904320430870E1
S113081018004230017821430170817DA143817524
S113082080214904996059612978A1432970802164
S1130830490099603178A143317080218900996021
S113084019004B310878A0430870087838430870C1
S113085080201E37BC46000158607948007810405B
S11308603843774F3870087867462043087018007B
S11308703430017811403943017031781E3F2143EF
S11308803170022601789143314301702978963002
S11308902143297001781E00A1430170802103982F
S11308A0C9000160180098300160A8785136A0434F
S11308B0A87099609961297AA1432972802149021B
S11308C099603178A14331708021890299601900BF
S11308D053310878A04308700878384308701F0023
S11308E080203937000358600397387867461040F2
S11308F03843039F3870087867462043087018000F
S11309003830017811403943017031782143317016
S113091002260178914331430170297A143021432E
S113092029728179A14381718021C90299609961F9
S11309300178A14301708021490199608178A14324
S113094081708021C901996019004D310878A04354
S113095008700878304308708021180089015960B4
S11309604F300178A1430170802109029960996197
S1130970190055310878A0430870802080039860DE
S1130980402008704878A04348708020C0039860D5
S113099018003B3005789543354305704D78254361
S11309A04D708D78A5438D708D7835438D7080257D
S11309B02D045D6000250378224E1A403A430270EC
S11309C08B78042223438B7000200321B0472B0033
S11309D02A0028001C4F019500950321B8472000E8
S11309E004220321B0472B002A0020000195009522
S11309F00321B847082204210320B047962321008D
S1130A002A000320DB01114CA047114B9847114BDE
S1130A10984705B0F0BDC0460040004100040040C6
S1130A20D5010000BD0D0000410E0000050F0000BF
S1130A30690B000000E100E0FFFF00FF00440041FB
S1130A4035440041F525000055260000B926000074
S1130A50D10F00003910000010B50E4B98470E4B13
S1130A6098470E4B98470E4B98470E4CA047C8200A
S1130A700D4B400098470D4B98470D4B18600D4B9C
S1130A8098470028FBD0A0470B4B98470B4B98473F
S1130A90F5E7C046F506000091060000C10A000013
S1130AA0B5130000D1220000090D0000990F0000C9
S1130AB0FC040020B9220000A1100000551C000015
S1130AC070B5084C80252300ED0094331D60064E5C
S1130AD00F210020B04798340C210020B047256036
S1130AE070BDC046004400410127000010B5094B09
S1130AF01C7E6407E40F012C01D0002010BD0320EC
S1130B00054B984701004828F7D10320034B984729
S1130B102000F3E7001400423127000019270000E9
S1130B20F0B5802705000024091A090AC3B08BB266
S1130B3001937F0002A92800094B9847002602ABC5
S1130B40995D0320074B01369847BE42F7D1013423
S1130B50019B0135A4B2FF35A342EBD243B0F0BDF3
S1130B60AD030000192700008023104A5B02116ABC
S1130B700F480B43E02113620E4B0F4AC9009980C2
S1130B8050800E4A10684201100011400C4A12684D
S1130B90D20E0243D2B20A431A8502225A701A7044
S1130BA05A7E52B2002AFBDB7047C0460004004064
S1130BB01E40000000400042000C00402460800001
S1130BC0206080000222044B1A73013A197E1142FC
S1130BD0FCD0588B80B270470040004237B5019179
S1130BE00121020C0090D2B2000E4308D2019B18DE
S1130BF008421AD00F2410495B1819780C401021B0
S1130C00214319700D4B8018C01801230278134337
S1130C1003706B461F221B791A40C0235B011343E8
S1130C20074A1361074B98473EBD0F25024C1B1919
S1130C301C78AC43E4E7C0463044004140440041E2
S1130C4000400042C50B0000010C130CF0B5CDB2FE
S1130C50D9B201231E00120E9340000E86401A00E2
S1130C6008233000114EC90187B08F19104E0CAC07
S1130C70ED01AE19247801960C4EB446AC44664698
S1130C80306066B2002E0EDA094EB4468C446646D5
S1130C903260019E013B6400DBB23060E4B2002BA1
S1130CA0EAD107B0F0BD3A60F3E7C046144400410E
S1130CB018440041F0B5012585B0060C0193F3B248
S1130CC02E0003911100140C0092020E0290964023
S1130CD00020E2B20824090E8D400A49DB01D2014A
S1130CE05B1852185E61116A400029404F1EB941D9
S1130CF0013C0843E4B2C0B29E61002CF2D105B0BD
S1130D00F0BDC04600440041F8B5802380260700AA
S1130D100025094C5B03E361B603BD4204D1802383
S1130D205B036661E361F8BDE6617A20034B01353C
S1130D309847ADB2F1E7C04600440041250F0000DA
S1130D4070B5962676000A4D3000A847094C50200D
S1130D50A0473000A847FA20A0473000A8475020F9
S1130D60A0473000A847FA204000A04770BDC04605
S1130D70090D0000510F000070B596260C4C76004A
S1130D805020A0470B4D3000A8475020A04730000A
S1130D90A8475020A0473000A8475020A0478022F1
S1130DA0054B92035A61802252035A6170BDC046BA
S1130DB0510F0000090D000000440041C223164AEF
S1130DC0DB0010B5936002231449486803434B6069
S1130DD0134B1B689B0E3F2B00D1203B114912483B
S1130DE009688905890D814200D110491048908411
S1130DF01020D4680442FCD09B020B43936210235E
S1130E00D1681942FCD00B4B938480220A4B5200C8
S1130E109A600A4A5A6010BD000800400040004130
S1130E202460800028608000FF030000FF010000B0
S1130E3022050000A2050000000C0040000701008C
S1130E401B4A1C4B9A820222D9681142FCD081228F
S1130E50194B52009A60194A5A605A7852B2002AC1
S1130E60FBDB174A5A800422164B1A809A7AD2095D
S1130E70FCD1A0221988D2000A431A809A7AD20996
S1130E80FCD1114A9A829A7AD209FCD159880F4A24
S1130E900A435A808022DA7119887E3A0A431A80FA
S1130EA09A7AD209FCD10A4B08321A607047C046BC
S1130EB00E06000000080040000C00400200230061
S1130EC00442000000140040E6030000104000004B
S1130ED000E100E00F230340084812020240F8201A
S1130EE0090240010140802010B54002044C08432F
S1130EF01A431843A260606010BDC04600FFFF00A3
S1130F00000C0040044B054A1A6030225A60044B1E
S1130F102B3A1A607047C0460400002080BB0000D2
S1130F2010E000E030B580240021074B64025A68C9
S1130F30064B013800D230BD002AFAD05A609960BD
S1130F401D682542FCD0F4E70400002010E000E016
S1130F5030B580240021074B64021A68064B01381F
S1130F6000D230BD002AFAD05A6099601D6825422B
S1130F70FCD0F4E70400002010E000E0FA21044A69
S1130F80890013685B181360FF22024B1A727047C2
S1130F90BC0400200014004030B5EFF3108172B699
S1130FA0094B0A4C188A25681A7A80B2D20940196A
S1130FB0002A05D0FA221B8A206892008018C018E3
S1130FC081F3108830BDC04600140040BC040020EA
S1130FD00D4A0E4B5A8080230D4A5B01116A0B4364
S1130FE013620C4B0C4A1A8041221A75403A5A7308
S1130FF0FF325A811988FE3A0A431A808022074B2D
S113100012031A607047C0461C420000000C0040E6
S113101000040040003000420409000000E100E048
S1131020FF2210B5024B9A73024B984710BDC0467D
S113103000300042C52200000D4A0E4B5A80802326
S11310400D4A9B01116A0B4313620C4B0C4A1A8024
S113105020221A751F3A5A73FF325A811988FE3AB0
S11310600A431A808022074B52031A607047C04615
S11310701C420000000C0040000400400034004208
S1131080040D000000E100E0FF22034B9A73034BC0
S1131090FE3A1A707047C04600340042F80400203B
S11310A070B5624C20780A2819D802F0ABFC0627E8
S11310B0387018189C181818B0005D4B98475D4B91
S11310C098475D4B1B68C01A5C4B984208D95C4B2F
S11310D098475C4B98475C4B98470A23237070BD34
S11310E05A4B98475A4B5B49D8685B4B9847002842
S11310F0F5D001232370594B9847F0E7584B1B7EDA
S11311005B07ECD50320574B98475228E7D1BFF330
S11311104F8F554A554BDA60BFF34F8FFEE7444B70
S11311209847534B1A78002A05D000221A7080225F
S1131130504B5203DA615049504D514A514B0868A3
S11311404968A847002814D04F4B98694F4B9847DB
S11311500B004F490200086849684E4EB047002210
S11311604D4BA847002804D003234C2023704B4B3D
S11311709847374B3749D868374B98470028AED043
S113118001232370464B9847464B9847B3E7384BA7
S11311901A78002A15D000251D70434B9847434BFD
S11311A01A78AA420DD080221D70324B404D520352
S11311B0DA614049404B286898472B680133FF3374
S11311C02B602D4900220868496800233B4DA8473D
S11311D00028CED0062341202370304B984764204A
S11311E0374B9847C5E7314B1A78002AC1D0002203
S11311F01A7080221F4B2E4D5203DA612D492E4B5B
S1131200286898472B680133FF332B60B1E7184BEC
S11312101A78002AADD000251D70234B9847234B24
S11312201A78AA42A5D01D70E3E7C0464006002004
S1131230C5120000990F0000FC04002010270000D4
S1131240012200001D1F0000410D00004127000085
S11312508807002000006040B93A0000790D0000C2
S113126000140042312700000400FA0500ED00E0FC
S1131270F804002000440041500600206D3A0000AC
S11312809A9999999999A93FC8040020515E000040
S113129058060020F956000000001440791F000091
S11312A0E5010000C5210000DD1F000078070020D3
S11312B07C07002078060020C9020000453A00009F
S11312C0090D0000F7B52E4B2E4C9B6A2E4D2F4A6C
S11312D02069616900932E4BA8472E4B06000098A5
S11312E00F009847294A2C4BA84702000B003000F6
S11312F039002A4EB0472A4B20616161E069984762
S11313000022284BA8470F002749060008684968AF
S11313100022244BA84702000B00300039001F4E66
S1131320B047224FB847164BE061DE6B606A1C4B36
S11313309847164A164BA847194B00900191300064
S11313409847124A144BA8470B00020000980199D1
S1131350124DA847B847164D6062A8472368C01AC3
S1131360FA23DB00984209D9E369A361636A236223
S113137022696369A260E360A8472060F7BDC046A4
S113138088070020C8040020F95100009A9999990F
S11313909999E93FC15E00009999C93F71430000E2
S11313A0515E00000000E03F580600208D3B000025
S11313B0990F00000822DD4BDD48DE49F0B5986046
S11313C0D9609862D962DC48DC49CDB018615961B2
S11313D040A957183E00D648D949083E306071608C
S11313E0082149428C46D74E00249619B4446146DC
S11313F0D54DCF480C604D60D149103238607960CA
S11314002000290030607160382AE1D119685A68D7
S11314101A911B929969DA691C911D92196A5A6A88
S11314201E911F92196B5A6B20912192996BDA6B62
S113143022912392196C5A6C24912592996CDA6C3E
S11314403A913B92196D5A6DDC6D9B6D3E933F94BE
S11314500023BE4C3C913D9202930394002300244C
S11314601093119400930194049305940023B74CB2
S11314700E930F9400230024089309940C930D9465
S11314800A930B9480240023E40506930794002315
S11314903893AF4D1A9A1B9B06980799A847A44AFC
S11314A006000F0008980999A24BA847A94C02000E
S11314B00B0030003900A0479F4A06000F00009837
S11314C001999E4BA84702000B0030003900A04749
S11314D01A9A1B9B169017910A980B99A847944A3D
S11314E006000F000E980F99924BA84702000B00BC
S11314F030003900A047904A06000F001098119957
S11315008E4BA84702000B0030003900A0471A9AFE
S11315101B9B129013910C980D99A847844A0600BE
S11315200F0004980599834BA84702000B00300074
S11315303900A047804A06000F00029803997F4BA8
S1131540A84702000B0030003900A0471C9A1D9BDD
S11315501490159106980799A8471E9A1F9B060098
S11315600F0008980999A84702000B0030003900C1
S1131570A0476F4A06000F00009801996D4BA847D9
S113158002000B0030003900A0471C9A1D9B1890E4
S113159019910A980B99A8471E9A1F9B06000F00E1
S11315A00E980F99A84702000B0030003900A0479D
S11315B05F4A06000F00109811995E4BA84702007D
S11315C00B0030003900A0471C9A1D9B26902791E0
S11315D00C980D99A8471E9A1F9B06000F000498AB
S11315E00599A84702000B0030003900A047504A73
S11315F006000F00029803994E4BA84702000B0007
S113160030003900A047209A219B28902991069800
S11316100799A847229A239B06000F000898099966
S1131620A84702000B0030003900A047249A259BEC
S113163006000F0000980199A84702000B00300033
S11316403900A047209A219B2E902F910A980B993C
S1131650A847229A239B06000F000E980F99A847CB
S113166002000B0030003900A047249A259B060095
S11316700F0010981199A84702000B0030003900A0
S1131680A047209A219B069007910C980D99A84792
S1131690229A239B06000F0004980599A84702008C
S11316A00B0030003900A047249A259B06000F0048
S11316B002980399A84702000B0030003900A047A4
S11316C01B4A02900391129813991A4BA847169A31
S11316D0179BA047184A06000F0014981599174B3A
S11316E0A84702000B0030003900A04700220890F0
S11316F00991169817990023A84706000F000200C5
S11317000B0012981399A047094A0090019114986C
S11317101599084BA84702000B0000980199A047AF
S11317200022309031911298139915E01000002096
S1131730FCA9F1D24D62803F8DEDB5A0F7C6003F04
S11317404D62503F100600200000F03F0000224090
S1131750F9510000714300000023A84732003B0008
S1131760A047149A159BA047D94A12910490169148
S1131770D84B26982799A847189A199BA047D64A68
S113178006000F0028982999D44BA84702000B00A3
S113179030003900A04700222A902B9118981999FB
S11317A00023A847002232903391269827990023DA
S11317B0A847329A339BA047289A299BA047C44A3A
S11317C02C902D9106980799C24BA8472E9A2F9BCF
S11317D0A047C14A06000F0002980399BF4BA847CF
S11317E002000B0030003900A04700220090019154
S11317F02E982F990023A84706000F0002000B0023
S113180006980799A047B24A0A900B910298039947
S1131810B04BA84702000B000A980B99A04700227E
S113182010901191069807990023A84732003B00B5
S1131830A047029A039BA0473A9A3B9BA0473C9A35
S11318403D9B0290039108980999A0473E9A3F9BBB
S11318500A900B9102980399A047009A019B0C905F
S11318600D9104981699A8470C9A0D9B0E900F9110
S11318700A980B99A8470E9A0F9B994EB0470C9A59
S11318800D9B0690079108980999A8470E9A0F9BFB
S1131890B047069A079B934EB04734903591349ADB
S11318A0359B91490A604B60089809998022120679
S11318B09446129B049A63442E932E9BA8470A9A3B
S11318C00B9B06000F0004981699A84702000B0012
S11318D030003900A047069A079B824EB0470E900D
S11318E00F9181490E9A0F9B8A60CB600C9A0D9BD5
S11318F02A982B99A847009A019B06000F002C9860
S11319002D99A84702000B0030003900744EB047EF
S1131910069A079B734EB04702000B003991724937
S113192018900A614B612A982B99049A2E9BA84718
S11319300A9A0B9B06000F002C982D99A8470200C9
S11319400B0030003900A047069A079B654EB0474C
S113195012901391129A139B63498A61CB610C9A7A
S11319600D9B00980199A847029A039B06000F005B
S113197000980199A84702000B0030003900584E26
S1131980B047069A079B574EB04714901591149A86
S1131990159B55490A624B6200980199049A2E9B43
S11319A0A8470A9A0B9B06000F0002980399A847C0
S11319B002000B0030003900A047069A079B494EED
S11319C0B04736903791369A379B4749444E8A62DE
S11319D0CB62349A359B00204449B04702000B0087
S11319E00C900D9108980999A8470E9A0F9B060030
S11319F00F0000980199A84702000B00300039003D
S1131A00374EB0470C9A0D9B069007913098319948
S1131A10A8470E9A0F9B06000F0010981199A8472B
S1131A2002000B00300039002D4EB0470C9A0D9B7C
S1131A300A900B9104981699A8470E9A0F9B0600DA
S1131A400F0002980399A84702000B0030003900E8
S1131A50234EB047802212069446399B189A634459
S1131A602E932E9B0C900D9108980999A8472A9AB9
S1131A702B9BA047129A139B06000F000098019914
S1131A80A84702000B0030003900154EB047329AC7
S1131A90339B0890099126982799A0470C4A060081
S1131AA00F00289829990B4BA84702000B0030001F
S1131AB03900A047189A06000F00309831992E9BE0
S1131AC0A84702000B0030003900A04710E0C046D0
S1131AD0FCA9F1D24D62803F8DEDB5A0F7C6003F61
S1131AE0F956000091490000100600200000F03F64
S1131AF0129A139B06000F0010981199A847020030
S1131B000B00300039004C4EB047189A0E900F91DC
S1131B102E9B04981699A8472C9A2D9BA047129A9D
S1131B20139B06000F0002980399A847424C020039
S1131B300B0030003900A047369A379B049005917A
S1131B4000203E49A04702000B0012901391009818
S1131B500199A847149A159B06000F000098019953
S1131B60A84702000B0030003900A0470090019103
S1131B70129A139B10981199A847149A159B060062
S1131B800F0010981199A84702000B00300039008B
S1131B90A047129A139B1090119102980399A84799
S1131BA0149A159B0F00060002980399A8470B008E
S1131BB0020039003000A047389B102501333893C8
S1131BC00023029003911F001D4B269418932C00B0
S1131BD0103C189B269EE3181A685B6812921393B4
S1131BE01298139940AAA31816931A685B68149262
S1131BF01593B047149A159B124EB047124B134AD3
S1131C00134EB047431E984116993B1808341F00E1
S1131C10129A139B0A604B60A542DAD11035402D0D
S1131C20D5D1002F01D0FFF734FC389B632B01DCA6
S1131C30FFF72FFC4DB0F0BDF95600000000F03F57
S1131C401006002091490000B5F8E43EF168E388ED
S1131C506D3A0000F0B57E4D8FB0A86A7D4B984771
S1131C607D4B7E4C9A68DB68A0477D4A7D4B7E4E57
S1131C70B0472E6C6F6C009001917C49002208687B
S1131C80496800237A4DA847002802D0774B1E608C
S1131C905F60784B30001A685B683900A047754B69
S1131CA0069007911A695B6900980199A0476F4BE8
S1131CB06D4D5C681B68009301946F4B089009910B
S1131CC05C681B6800980199029303946B4B5C68F1
S1131CD01B68049305946A4C22686368A847A26849
S1131CE0E36806000F0002980399A84702000B005E
S1131CF030003900634EB0472269636906000F0063
S1131D0004980599A84702000B00300039005D4E85
S1131D10B0470A900B910A9A0B9B56490A604B6094
S1131D20A269E36900980199A847226A636A0600D8
S1131D300F0002980399A84702000B0030003900F5
S1131D40504EB047A26AE36A06000F000498059952
S1131D50A84702000B00300039004A4EB0470C90EF
S1131D600D910C9A0D9B43498A60CB60226B636B87
S1131D7000980199A847A26BE36B06000F00029834
S1131D800399A84702000B00300039003D4EB047CC
S1131D90226C636C06000F0004980599A847394C1F
S1131DA002000B0030003900A04703000C00314A48
S1131DB00090019113615461334C22686368069862
S1131DC00799A8470A9A0B9B2E4EB047A268E3686E
S1131DD006000F0008980999A84702000B0030007C
S1131DE03900284EB047214B186059602269636955
S1131DF006980799A8470C9A0D9BB047A269E36916
S1131E0006000F0008980999A84702000B0030004B
S1131E1039001C4EB047184B18605960226A636A37
S1131E2006980799A847009A019BB047A26AE36AFB
S1131E3006000F0008980999A847124C02000B00ED
S1131E4030003900A0470D4B186059600FB0F0BD49
S1131E5088070020C15E0000C8040020F956000075
S1131E60DFF8DA334B164040F951000058060020E1
S1131E70393A000060060020500600204806002081
S1131E80100000207143000010060020F0B51F4A26
S1131E9014780319FF2B0CDC00231D4D80B2651947
S1131EA09EB2B04222D3CE5CEE54E61816700133D3
S1131EB0F6E70023164DDEB2B4461E19FF2E16DDDA
S1131EC00023144F1370EC182678FE540026267055
S1131ED0802401336400A342F5D1634600250C4FEE
S1131EE06C1C834208D301220B4B1A70F0BDCF5CEB
S1131EF00133AF559BB2DEE766463619013E8E5D6F
S1131F0001337E55DBB214702500E9E78407002015
S1131F100105002078060020780700201FB546231D
S1131F206A4613700023694668465370104A136862
S1131F308B70190AC170190C1B0E437193690171DE
S1131F40190A8371C171190C1B0E4372136A017251
S1131F501A0A8372C2721A0C1B0E4373FE23027395
S1131F60C37369461020034B984705B000BDC046B3
S1131F70C80400208D1E0000452330B5134D85B0E4
S1131F8001AC23706B686070A3706B681B0AE3700C
S1131F906B681B0C23716B681B0E63710C4B186808
S1131FA059680C4B98470312A071E371031400168F
S1131FB0607223722B892100A3722B890C201B0AC7
S1131FC0E372054B984705B030BDC0468807002032
S1131FD058060020655D00008D1E00005323F0B5F7
S1131FE04B4C89B002AA13706368537063681B0A70
S1131FF0937063681B0CD37063681B0E1371454B9D
S113200018685968444B984702AB02AA58710312E6
S113201093710314D371414B00161E685F681072EC
S113202039003D4B3000984705B23D4B2800984796
S113203002000B00300039003A4EB0473A4B984743
S11320403A4B3B4998473B4FB84702AA83B2D372F5
S11320501B0A1373384B55722D1295721A685B68FC
S113206000920193100019002B4B984705B22C4B9A
S11320702800984702000B0000980199B0472A4BAA
S113208098472A4B2A499847B84702AA83B25573FE
S1132090D3732D121B0A95731374206C616C274D36
S11320A0A84702AB5874206C616CA84702AB000AC5
S11320B09874206C616CA84702AB000CD874206C37
S11320C0616CA84702AB000EA66A1875A36A1C4D82
S11320D0A06A0093A84702AB5875A06AA84702AB50
S11320E0000A98750098A847164B00B29847164BFB
S11320F0011C301C984787210C4BC9059847B847E9
S113210002ABD87519001820104B984709B0F0BDE0
S11321108807002058060020655D0000480600205E
S1132120CD5D0000F9560000655F0000193D000018
S113213000007A445D3B0000500600208D3B000007
S113214091420000D1420000593F00008D1E000062
S113215013B503000620584301AC0130FF302200C0
S11321600321054B98476078A37800021B041843A9
S11321702378184316BDC0463D03000013B5030081
S11321800620584301AC0430FF3022000321054BE4
S113219098476078A37800021B04184323781843F7
S11321A016BDC0463D03000010B5044B9847044BD0
S11321B0C018431E9841C0B210BDC0465121000052
S11321C0010000FF07B50A4B01AA1B681370190A26
S11321D01B0C9370074B5170187806235843043036
S11321E0FF300321044B98470A20044B984707BD4E
S11321F07C070020F904002051020000510F000068
S1132200F7B500242000244B984700283ED1234FE3
S113221001AD002C20D0601E214BC0B29847214B49
S113222006000520984706206043330A01303E60CB
S11322302E706B70360CFF302A0003211A4BAE70DF
S11322409847FA25194B6D001C70002C15D1FA2003
S1132250144B40009847F7BD102380206B702A0070
S113226003214000104B2C70AC70984780235B0115
S11322703B600F480F4B9847E3E728000D4B984706
S1132280013C2800074B9847E4B2DEE70134E4B28E
S1132290142CB7D1DFE7C046A92100007C07002039
S11322A07D210000510F000051020000F9040020BC
S11322B0DC050000090D0000014B18787047C0468A
S11322C0000500200122014B1A7070470005002010
S11322D00022F0B5AE4B87B0AE4D1A70A847AE4C95
S11322E06368C01A80B22080A847AC4D60606B78E8
S11322F028781B020343A878A94E00040343E87816
S1132300297900061843B04720812089A54B80B263
S11323109847A54AA54FA64BB847A64B9847AB7913
S1132320E06068791B020343E879697A0004034397
S1132330287A00061843B047EB7A2082A87A1B0259
S11323400343287BA97B00040343687B00061843EE
S1132350B0472B7C6082E87B1B020343687CE97CEA
S113236000040343A87C00061843B0476B7DA08299
S1132370287D1B020343A87D297E00040343E87DD6
S113238000061843B047AB7EE082687E1B0203431D
S1132390E87E697F00040343287F00061843B047A2
S11323A02083208B844BC0187E4B9847834A7F4EF2
S11323B0834BB0477F4B8026984750222900814B9E
S11323C03602E0615E612B000092EA7FA87F1E3135
S11323D0120210438A78233312040243C8781D780A
S11323E0000610430A791F7903925A7839001202C1
S11323F02A439D7802902D042A43DD78039B2D0601
S113240015430495020028006F4DA847FA206D4B30
S113241040009E616D4B98476D4B9847694B059002
S11324205E614623029A00930498039B3900664D2B
S1132430A8478022634BD2009E61664B664F1A60A8
S113244082210020B847FF210020B847FF21050062
S11324500020B847000205432BB2FF21002002935D
S1132460B847FF2105000020B847FF2106020020DD
S1132470B8472E43FF2105000020B8478022574B60
S1132480D2001A600002029B05432DB218112B11D1
S11324900293444B9847FE23444D00229B05A847D2
S11324A0444B984736B2361120623E4B3000984771
S11324B0FE2300229B05A8473E4B9847029B60627F
S11324C05842384B9847FE2300229B05A847394BB6
S11324D0984780223B4BD200A06282215A6100209F
S11324E0B847FF210020B847FF2105000020B84766
S11324F0000205432BB2FF2100200293B847FF21BD
S113250006000020B847FF2105020020B8473543E4
S1132510FF2106000020B84780222A4BD2009A618E
S1132520029B0002064318111E4B9847FE231F4FBF
S113253000229B05B8471F4B98472DB22D11E0622E
S1132540184B28009847FE2300229B05B847194BD7
S1132550984736B236112063124B30009847FE2359
S113256000229B05B847134B98471D4B6063052019
S11325709847174B98471B4A05991B4B1B4DA84777
S1132580A06B1B4B98472064616407B0F0BDC04644
S113259000050020990F0000880700205F630000F9
S11325A0DD0B0000CD5D0000C58F3177F9510000CF
S11325B02D215F3F655F0000C4F0FFFFD200DE0203
S11325C0098A8FBF00440041490C0000250F000018
S11325D0190400009444004101270000984400417C
S11325E0510F0000C4070020C0070020C1040000F0
S11325F06905000070B505000123AE1CB3400C0052
S11326000B49086A03430B62002C03D00721200006
S1132610084B9847F02324021B011C408023DB0154
S11326201C433F2314351D40034B25435D8070BD7F
S113263000040040D50E0000000C0040044B800252
S1132640C0180123036002681A42FCD17047C046D7
S113265000080042F7B50400009308AB1B7816008D
S1132660019309AB1F78124B0D009847114BA4023C
S1132670E41880239B026360C0232D059B031D4047
S1132680C02336049B021E400E231E43009B354389
S11326905A1E9341019A5B07511E8A411D4312073A
S11326A0154327732560E3695B07FCD4F7BDC04677
S11326B03D2600000008004270B506000C4B0D00DA
S11326C0140098470B4BB002C0180423C0220360C7
S11326D0094B92038381C0232D051540074A9B02B1
S11326E024042A431C4022434360026070BDC04658
S11326F03D260000000800425BB1FFFF06000040D9
S1132700044B8002C0188162037E5B07FCD5806A9B
S1132710C0B2704700080042044B8002C01889B25E
S11327200185037EDB07FCD57047C04600080042E4
S1132730024B8002C018008DC0B2704700080042EE
S1132740F8B52F4B9847002849D001222D4B1A7019
S11327502D4B1F001A7E5207FCD503202B4DA84792
S113276004004C283CD100242000294B9847002821
S113277005D021003031C9B20320264B98470134DB
S1132780E4B20B2CF0D10F210320224EB0473B7E44
S11327905B07FCD50320A8473038C4B220001E4B89
S11327A098471E4B070020009847451EFF3DEC1B31
S11327B0240AE1B20320B047A1B2090A0320B047BA
S11327C0E9B20320B047290AC9B20320B047290C53
S11327D0C9B20320B04729003800114B9847F8BD0F
S11327E04528FCD10F4B98470F4B984721000320F5
S11327F0084B9847C8200D4B40009847EFE7C04668
S1132800ED0A0000400600200014004231270000B9
S1132810A921000019270000512100007D2100009A
S1132820210B00001D020000E5010000090D00005D
S1132830F0B557464E46DE464546E0B58FB01D001E
S113284006000F00140000F09FF9C74B009001919F
S11328509A461B785BB2994601333ED022002B0086
S11328602000290003F05EFA8346002835D13200A7
S11328703B003000390003F055FA00220390002891
S113288000D0B6E000233000390001F0D5F800286C
S11328902CD0002200232000290001F0CDF883462B
S11328A0002800D177E004AB984601234246049304
S11328B0AE4B53604346039A1C615D611A629E608D
S11328C0DF604246002300249361D4614B46002B11
S11328D04DD00023A64C00930194009801990FB0A9
S11328E03CBC90469946A246AB46F0BD009801997F
S11328F000F064FF8146002800D19BE00098019914
S11329000022002301F098F80028E6D030003900B6
S113291000F054FF0028E0D02000290000F04EFF12
S11329200028DAD004AB98460423424604938F4B24
S113293014615561536000230024136200239361E2
S1132940D46153461B789660D7605BB2022B04D0E7
S1132950404600F03DFF00280ED103F037FC22234F
S1132960036009E04246002300249361D461404699
S113297000F02EFF002837D043461B6A002B04D0FA
S113298003F024FC43461B6A03604346DC699B69ED
S113299000930194A1E72000290000F00FFF002814
S11329A09BD0002200232000290001F04BF80028CE
S11329B000D192E704AB98460123424604936B4B43
S11329C0536043465A469E60DF601A621C615D6133
S11329D053461B785BB2002BC4D0002042466549A5
S11329E09061D161022BC2D103F0F0FB212303607B
S11329F0C2E700232000290001F01EF8002800D1BE
S1132A006BE704AB9846012342460493574B414677
S1132A10536043465A461A6200229E60DF601C617E
S1132A205D61534B8A61CB61009201934B46022B4B
S1132A309DD152E73000390000F0C0FE002800D1DB
S1132A405CE72000290000F0B9FE002800D155E71A
S1132A50009801990B00020003F064F904AB984656
S1132A60002861D1032342460493404B1062536013
S1132A7053461B789660D7605BB2146155619946E2
S1132A80002B2FD1E02241463B4B12068A61CB61D9
S1132A90300000220023390000F0D4FF002800D1C8
S1132AA056E70022354B2000290002F0A5FB040064
S1132AB00D0000F095FE02000B002000290000F03C
S1132AC0BBFF002805D1E0222D4B120641468A6146
S1132AD0CB6153461B785BB299464B46022B00D020
S1132AE036E73AE700224146264B30008A61CB6143
S1132AF000220023390000F0A5FF0028EDD00022B9
S1132B001E4B2000290002F077FB04000D0000F0AA
S1132B1067FE02000B002000290000F08DFF002852
S1132B20D7D10022134BD1E70123424604930F4B24
S1132B30536043464A461C615D611A629E60DF60D1
S1132B40002453461C57002C00D10BE7002300221D
S1132B501900100001F01CFF43469861D961022C52
S1132B6000D141E703E7C0467000002088630000FD
S1132B700000F03F0000F0FFFFFFEF470000E03FE0
S1132B80FFFFEFC70000F07FF0B557464E464546BD
S1132B90DE461C001300E0B5650091B06D0800939B
S1132BA0019407000E0080468946A2462B4331D08B
S1132BB0674B740064089C4227DC24D09D4224DCCB
S1132BC0634B9D4200D181E000239B464B46002B82
S1132BD000DA7FE0002A2CD15D4B9D4200D197E0C2
S1132BE05C4B9D4266D08023DB059A4500D1B9E356
S1132BF0594B9A451DD14B46002B1ADB3800310046
S1132C0000F0F8FC08E000280DD0544B9C466444C6
S1132C1027430AD100204F4911B03CBC9046994645
S1132C20A246AB46F0BDA542CADD4D4800F0D2FD38
S1132C30F2E73800310000F0BDFD4346002B1DD102
S1132C40002C04D0434AB3009B08934216D1534648
S1132C50002B00DAC5E34B46002BDDDA3F4B9C46E4
S1132C605B4664441C4301D100F053FC5B46012BDA
S1132C70D2D1802424060B191900CDE7F30F013BB0
S1132C8098465B464246134357D0364B9D4277DD08
S1132C90354B9D4200DCB1E3344B9C4200DCA8E39D
S1132CA05346002B43DD324A324B1000190002F028
S1132CB0A3FAB1E7534638003100002BACDA3A00EE
S1132CC033000020234901F063FEA5E7002A00D168
S1132CD07AE79AE7284B9D422CDC244B9D4200DC8A
S1132CE078E726492B158C466344142B01DC00F04D
S1132CF0F3FB3421CB1A0099D94008009840824252
S1132D0000D067E70123194001335B1A9B4661E752
S1132D10124BE3181F4300D17CE7144B9C4200DCA8
S1132D2027E3009801995346002B00DB74E7002049
S1132D30002171E702239B464CE73A003300380038
S1132D40310002F0D9FC02000B0001F021FE63E720
S1132D500000F07F0000F03F0000E03F000010C0E2
S1132D608C6300000000E0410000F043FFFFEF3FF0
S1132D709C7500883CE4377EFFFF3F4301FCFFFF66
S1132D80E94B00229C4206DC0022E84B02F034FAB4
S1132D9035220C005242E64D2315AC466344994655
S1132DA02403E44DE44B240B914425439C4209DD68
S1132DB0E24B9C4200DCB6E301239C46E04BE14439
S1132DC09C466544002300240022089309940C9334
S1132DD00D940024D74B06920793069A079B29006B
S1132DE00A900B9102F088FC069A079B06000F00DC
S1132DF00A980B9901F0BCFA02000B000020CD499F
S1132E0001F0C6FD0A00010013000E910F920200AA
S1132E103900300002F0F0F90A000100802004912A
S1132E200592130000226910802500038446029253
S1132E3003930022AD050D4365442B1902980399B1
S1132E4014001D0002F0D8F902000B003000390014
S1132E5002F052FC069A079B06000F00200029008E
S1132E6002F04AFC02000B000A980B9902F044FCA1
S1132E70029A039B02F0C0F902000B0030003900F3
S1132E8002F03AFC0E9A0F9B02F0B6F9049D059EDF
S1132E90069007912A0033002800310002F0ACF9B3
S1132EA006000F00A74AA84B02F0A6F9A74AA84BB0
S1132EB001F05EFA32003B0002F09EF9A54AA64BEF
S1132EC001F056FA32003B0002F096F9A34AA44BF3
S1132ED001F04EFA32003B0002F08EF9A14AA24BF7
S1132EE001F046FA32003B0002F086F99F4AA04BFB
S1132EF001F03EFA320004000D003B0030003900BE
S1132F0002F07AF902000B002000290002F074F9A3
S1132F10029E039F04000D000498059932003B00B3
S1132F2001F026FA069A079B02F066F922002B00AC
S1132F3001F01EFA32000A900B913B003000390078
S1132F400296039702F058F900228A4B04000D0000
S1132F5001F00EFA0A9A0B9B01F00AFA00260F0000
S1132F6032000B000298039902F046F90022029005
S1132F700391804B3000390002F0BEFB22002B008D
S1132F8002F0BAFB02000B000A980B9902F0B4FBA2
S1132F90049A059B02F030F9320004000D000698F3
S1132FA007993B0002F028F902000B0020002900D9
S1132FB001F0DEF904000D0002000B0002980399F1
S1132FC001F0D6F90026E0226B4B120630000F0008
S1132FD002F012F9029A039B049005913000390023
S1132FE002F08AFB02000B002000290002F084FB9F
S1132FF0624A614B02F000F9614A04000D00614B22
S11330003000390002F0F8F802000B00200029001B
S113301001F0AEF90C9A0D9B01F0AAF9060048469E
S11330200F0002F0D3FE04000D000498059932004D
S11330303B0001F09DF9089A099B01F099F92200DF
S11330402B0001F095F9002022002B00029003913F
S113305002F052FB089A099B02F04EFB049A059B6E
S113306002F04AFB02000B003000390002F044FB7E
S1133070049005915B464246013B134300D1ABE10A
S113308000232C4C069307940098019900260B000A
S113309032000F0002F030FB029A039B02F0ACF8FE
S11330A0009A019B04000D000498059902F0A4F80D
S11330B002000B002000290001F05AF904000D0061
S11330C00298039932003B000094019502F094F8B1
S11330D002000B0006000F002000290001F048F94F
S11330E0294B04000D0002008B46994200DC4FE19D
S11330F0264BCB18034300D0E2E100980199244AFF
S1133100244B01F035F93200029003913B0020007A
S1133110290002F0F1FA02000B000298039900F072
S1133120A5FCAA4638E0C046FFFF0F00000040435C
S113313001FCFFFF0000F03F8E98030079B60B00FE
S11331400000F0FFEF4E454A287ECA3F65DBC99375
S11331504A86CD3F01411DA96074D13F4D268F5150
S11331605555D53FFFAB6FDBB66DDB3F03333333D0
S11331703333E33F0000084009C7EE3FFD033ADC68
S1133180F5015B14E02F3EBEFFFF8F40000070BFCF
S1133190FE822B654715973C002800D090E1EC4A4D
S11331A0534694468022520311001B15634419416F
S11331B00B009046E74A5B4494465C00640DE64D80
S11331C0644425411A00AA43110042461B031B0B09
S11331D013431422141B234199465B460020002B01
S11331E000DAB0E102000B003000390002F084FA8A
S11331F00B00020006000F000098019901F0B8F8D6
S11332004B461B050D00984600240022D34B20009A
S1133210290001F0F1FF3200029003913B002000ED
S1133220290002F069FA02000B000098019902F0EB
S113323063FACB4ACB4B01F0DFFFCB4A06000F0009
S1133240CA4B2000290001F0D7FF02000B00300018
S1133250390001F08DF804000D0002000B00029803
S1133260039901F085F8029A039B06000F0002F00F
S113327043FA02000B002000290002F03DFA32005C
S1133280009001913B003000390001F0B5FF0400CB
S11332900D00B74AB74B01F0AFFFB74AB74B02F086
S11332A02BFA22002B0001F0A7FFB54AB54B01F021
S11332B05FF822002B0001F09FFFB34AB34B02F0EA
S11332C01BFA22002B0001F097FFB14AB14B01F029
S11332D04FF822002B0001F08FFF02000B0030009A
S11332E0390002F009FA04000D0002000B0030005E
S11332F0390001F081FF8023029003910022DB0555
S11333002000290002F0F8F902000B00029803994A
S113331001F03EFB009A019B04000D0030003900CF
S113332001F06AFF009A019B01F022F802000B00F1
S11333302000290002F0E0F932003B0002F0DCF941
S113334002000B000020944902F0D6F943465B18B2
S11333501A15002A00DC49E11900069A079B01F0BE
S11333604BFF59E43A0033003800310001F044FFC8
S113337052E45346002B00DBD9E4009C019D8022DB
S113338012062B009446634420001900FFF744FC06
S11333904B005B089A46814B9A4500DCB1E0804BB8
S11333A05B441A430CD132003B0002F0A5F9020041
S11333B00B000098019900F04FFB002800D1EEE6C5
S11333C006980799774A784B01F016FF754A764BB1
S11333D001F012FFFFF720FC0023744C06930794BE
S11333E052E602000B0000206B4901F0D1FAFFF70E
S11333F032FC5346002B00DB99E454E46C4B9C42B2
S1133400F7DD654B9C4200DD4AE40022624B02F08A
S113341073F9C022674BD20504000D0001F0ECFEE5
S1133420654A06000F00654B2000290001F0E4FE08
S1133430002202900391624B2000290001F0DCFE7F
S113344002000B005F48604902F056F922002B008D
S113345001F0D2FE02000B0000205C4902F04CF99E
S11334602200049005912B002000290001F0C4FEE5
S113347002000B000498059901F0BEFE544A4D4B1E
S113348001F0BAFE02000B000298039902F034F92D
S113349002000B0004000D003000390000F068FF4A
S11334A0002032003B000290039102F025F9020053
S11334B00B002000290002F01FF904900591D9E5C2
S11334C0444A454B0698079901F096FE414A424BFF
S11334D001F092FEFFF7A0FB002A01D0FFF7A9FB41
S11334E01432D31A2A001A41110099408D4201D096
S11334F0FFF776FB01231A40DB189B1A9B46FFF764
S11335006FFB0022314B904691469A4500DC7BE6E6
S113351045E602000B0002F0EFF802000B0001F098
S113352037FAFFF779FB80232C4CDB0508930994C9
S11335302B4B2C4C00220C930D9480242A4BE40238
S11335400692079349E44B465B4299464AE6C046D5
S113355002FCFFFF01FCFFFFFFFF0F00432EE63FCD
S1133560EF39FAFE422EE63F396CA80C615C20BEAE
S1133570D0A4BE726937663EF16BD2C541BDBB3E75
S11335802CDE25AF6A56113F93BDBE166CC1663F53
S11335903E5555555555C53F0000F03FFFCB904073
S11335A000346F3F59F3F8C21F6EA5010000F0BF4D
S11335B0FEFFEF3F4715F73F44DF5DF80BAE543E87
S11335C00000D03F555555555555D53F0000E03FB7
S11335D0FE822B659C7500883CE4377E03B8E23F8D
S11335E006D0CF43EBFD4C3E0000F83F4A4600F0C6
S11335F099F9B2E66C4BF0B50A0046460D00D64682
S11336004F461900C0B5040006002940994200D174
S1133610A7E0002D00DC81E02F1500D18EE0634B84
S113362012039C468023120B5B0367441A43FB0777
S113363068D47B109C46E30F9B189B1880221621AC
S11336400026002564009203A818984202DC85181D
S11336501B1AB618E00F5B0001391B1864005208EE
S11336600029F1D1002292469046802220201206A1
S113367009E0AB4238D0E10FC9180138CB18640017
S11336805208002818D041465118AB42F1DD8F187A
S1133690B846A946002930DB5B1B8C42AD416D4224
S11336A05B1B641AE10FC918013892444D46CB18CC
S11336B0640052080028E6D1234328D153465B080E
S11336C03B49721088464244F10702D5802109061D
S11336D00B4361461E000F05BD18300029001CBCB9
S11336E090469946A246F0BDA142C4D88F18B84668
S11336F0002942DB99460023D3E7002F2FDB6F1C00
S1133700B946C9E7E10F52008A18640091E75346AD
S1133710013335D0534601335B08D1E76B005B08B6
S11337200343DAD00027002D32D1E20A153F6405A5
S1133730002AFAD080235B031A4224D1802000237C
S1133740400300E00B005200591C0242FAD0202032
S1133750401AFF1A2300C3408C401A435FE7A9466E
S11337609AE72B000200290001F046FD32002B00ED
S113377000F0FEFD06000D00AFE7002FBFDAB9E749
S1133780013600239CE70123002120205B42E0E76F
S11337902B000200290001F0AFFF02000B0001F032
S11337A0F7F806000D0098E70000F07F01FCFFFF2A
S11337B00000E03F49004B0819007047034B4800E4
S11337C09C4640086044C00F7047C046000010800B
S11337D000207047002001497047C0460000F87F70
S11337E0F0B5C64600B5CB0F98464A4C4B005B0D6E
S11337F01E1982B007000A00132E35DC002E57DB99
S1133800454B040033411F000F4007430D00002FB8
S113381024D05B081C000C4020430027002807D05C
S1133820132E00D173E08022D202324199430A431D
S11338304346DE00394B11009E1934687568380020
S113384022002B0000F094FD009001910098019952
S113385022002B0001F050FF04000D00200029007D
S113386002B004BC9046F0BD332E0CDD802304006E
S1133870DB000D009E42F1D102000B0000F078FD48
S113388004000D00EAE7264C0D00A446012463441D
S11338906442DC40A446614604000142DED049088B
S11338A00142C5D08027FF051F4188430743BFE776
S11338B04B005B08034304000D00002BCED00B0328
S11338C01B0B03431A005B42134380221B0B12039E
S11338D013404A0C5204134319004346DA000F4BB9
S11338E09B181C685D6822002B0000F041FD0090CD
S11338F001910098019922002B0001F0FDFE42463F
S11339004B005B08D607334304001D00A6E780275D
S11339103F0688E701FCFFFFFFFF0F0090630000F4
S1133920EDFBFFFF4B0070B55B0D14000A00002B8C
S11339301AD14B005B08034315D00022224B01F03F
S11339405BFC224B0A009C4222DB4B005B0D363BA6
S11339501F4DE318AB4220DC002B0DDD1D4C1B0575
S113396022401A43110070BD1B4DAB42F0D102003E
S11339700B0000F0FDFCF6E71D00353518DA174B97
S113398002009C420ADC0B001548164900F032F88C
S1133990134A144B01F030FCE5E702000B00124817
S11339A0124900F027F8104A104B01F025FCDAE721
S11339B0084C363322401B051343190000220C4BDC
S11339C001F01AFCCFE7C04600005043B03CFFFFB3
S11339D0FE070000FFFF0F80FF07000050C3000038
S11339E059F3F8C21F6EA5019C7500883CE4377E2C
S11339F00000903C30B54A00DB0FDB0752081A4345
S1133A00110030BD02B4714649084900095C4900FF
S1133A108E4402BC7047C0468446101C62468C46E5
S1133A20191C634600E0C0461FB501F083FB002863
S1133A3001D40021C8421FBD10B501F0DDFA404297
S1133A40013010BD10B501F075FB002801DB00202A
S1133A5010BD012010BDC04610B501F06BFB00285D
S1133A6001DD002010BD012010BDC04610B501F0DD
S1133A70FDFA002801DC002010BD012010BDC04665
S1133A8010B501F0F3FA002801DA002010BD01207E
S1133A9010BDC0468446081C6146FFE71FB500F010
S1133AA0F9F8002801D40021C8421FBD10B500F068
S1133AB08BF84042013010BD10B500F0EBF800283F
S1133AC001DB002010BD012010BDC04610B500F080
S1133AD0E1F8002801DD002010BD012010BDC04622
S1133AE010B500F097F8002801DC002010BD01207B
S1133AF010BDC04610B500F08DF8002801DA002092
S1133B0010BD012010BDC046F0B5CE464746150491
S1133B102D0C2E0080B50704140C3F0C9946030CA1
S1133B207E435D43674363437F19340CE4199C4629
S1133B30A54203D980235B029846C4444B465143B3
S1133B4043433604360C250C24046544A41959183F
S1133B50491920000CBC90469946F0BD9E2110B531
S1133B60C905041CFFF7C6FF002803D1201C00F080
S1133B708FFB10BD9E21201CC90500F0EDF900F05B
S1133B8087FB80231B069C466044F2E770B5002245
S1133B900C4B04000D00FFF773FF002804D1200034
S1133BA0290002F0DFF870BD064B00222000290036
S1133BB001F0A2FD02F0D6F880231B069C46604467
S1133BC0F1E7C0460000E04170B5420045024E02F4
S1133BD04C00C30F6D0A120E760A240EC90F012081
S1133BE0FF2A06D0FF2C03D0A24201D1B54206D051
S1133BF070BD002DFCD1FF2CFAD1002EF8D18B42E0
S1133C0006D00120002AF3D12800451EA841EFE781
S1133C100020EDE7F0B5420045024C02C30F480016
S1133C206D0A120E640A000EC90FFF2A1ED0FF2867
S1133C3021D0002A0AD16E426E41F6B200280FD17B
S1133C40002C0DD10020002D09D005E0002801D161
S1133C50002C01D08B4211D0012158420843F0BD01
S1133C60002EF7D0012001390843F8E7002DDED0FB
S1133C7002204042F3E7002CDBD0F9E78242EBDC80
S1133C8004DBA542E8D80020A542E8D20121581E51
S1133C900843E4E7F0B542004D024C004602760AC0
S1133CA0120EC30F6D0A240EC90FFF2A16D0FF2C63
S1133CB018D0002A0AD170427041C0B2002C15D02D
S1133CC0002805D0012001390843F0BD002C13D091
S1133CD0994214D001205B421843F6E70220002EDB
S1133CE0F3D1E4E70220002DEFD1E2E7002DE7D184
S1133CF00020002EE9D0EDE7002DE9D1EAE7A24249
S1133D0006DCDFDBAE4203D80020AE42DAD3DCE7C8
S1133D10012049420843D8E7F8B557464E46454680
S1133D20DE46E0B54702460088467F0A360EC40FD9
S1133D30002E47D0FF2E24D0FB008027FF041F4312
S1133D40002399469A467F3E43465D025800DB0FA6
S1133D506D0A000E984643D0FF283BD0EB00802527
S1133D600022ED041D437F383618731C41469B46E0
S1133D704B46614013430F2B64D875489B00C358CE
S1133D809F46002F42D108239946063BFF269A46B8
S1133D90DAE74146022A28D0032A00D1CEE0012ADC
S1133DA000D0ACE0114000200022CCB24002D20589
S1133DB0400AE407104320433CBC90469946A2467F
S1133DC0AB46F8BD002F15D104239946033B0026CA
S1133DD09A46B9E7FF200222002DC5D00322C3E78B
S1133DE0002D19D100200122BEE70124FF220C403E
S1133DF00020DBE7380002F0CBF97626431F9F4012
S1133E0000237642361A99469A469DE70C23994632
S1133E10093BFF269A4697E7280002F0B9F9431FA9
S1133E209D4076235B42181A00229DE780200024DF
S1133E30C003FF22BAE73D005246ABE73D00210034
S1133E405246A7E73B0C9C462A04120C2B0C140088
S1133E50604665463F043F0C7C4342435D437B43DD
S1133E60270C9B18FF18BA4203D980235B029C4697
S1133E70654424043A04240C121993015C1EA341E2
S1133E803F0C920E7D191A43AD0115432B0104D545
S1133E9001235E466A081D40154332007F32002A22
S1133EA025DD6B0704D00F232B40042B00D00435F1
S1133EB02B0103D53200274B80321D40FE2A94DCAF
S1133EC00124A801400AD2B20C406FE78020C0034D
S1133ED0074207D0054205D128434002400A444620
S1133EE0FF2263E738434002400AFF225EE70124D1
S1133EF0A31A1B2B05DD0C400022002056E75E466A
S1133F00CBE72A002020DA40C31A9D402B005D1E17
S1133F10AB4113435A0704D00F221A40042A00D09D
S1133F2004335A0104D5012401220C4000203DE74A
S1133F3001249B01580A0C40002237E78020012409
S1133F40C00328434002400A0C40FF222EE7C0462B
S1133F50A0630000FFFFFFF7F0B54F46D646464684
S1133F604400C0B5C20F47024802400A8446664670
S1133F707B0A4800C90F9A46240E1500DB00000E88
S1133F808946F600FF2800D18FE001214F464F40BB
S1133F903900914266D0221A002A00DC9DE00028F4
S1133FA03DD1002E00D18BE0511E002900D0B5E098
S1133FB001249B1B5A0144D59B019F09380002F040
S1133FC0E7F805388740844200DD96E0041B3A0098
S1133FD020200134E240041BA7403B005F1EBB418C
S1133FE0002413435A0704D00F221A40042A00D095
S1133FF004335A0127D50134FF2C00D179E0012282
S11340009B015B0AE4B22A405B02E405580AD2072A
S1134010204310431CBC90469946A246F0BDFF2C99
S1134020E0D08021C9040E431B2A7BDC3100202010
S1134030D140821A9640721E96410E439B1B5A0130
S1134040BAD45A07D0D10122DF082A40FF2C33D139
S1134050002F00D1A8E08023DB033B435B025B0A13
S1134060FF24D1E7211A00294CDD00282AD0FF2C97
S1134070B8D08020C00406431B2900DDAFE0300027
S11340802027C840791A8E40711E8E4106439B1921
S11340905901D6D50134FF2C00D185E001227A499B
S11340A01A405B080B4013439CE7002E00D070E7D6
S11340B06BE73B1EC5D100227B025B0AE4B2A3E797
S11340C014008FE7002E4DD0481E002857D19B19AD
S11340D001245A01B5D50224E0E7002A25D1621C47
S11340E0D2B2012A72DD9F1B7A0135D5F71A0D0071
S11340F064E7012200232A4086E73B00634A241A2E
S113410013406FE700296CD1611CC8B201284EDD51
S1134110FF2949D09B195B080C0063E7FF2A41D0B3
S11341200A0081E701269B1B89E7002C1CD0FF288D
S113413021D08024E404524223431B2A00DD96E06C
S11341401C002025D440AA1A93405A1E93412343AD
S1134150F31A04000D002DE7002F00D02EE70022F3
S11341600024A9E70C003DE7002B58D0D243002AD5
S1134170EED0FF28E1D13300FF240D0032E7FF2900
S113418010D0010078E7002B6ED0FF24002E00D160
S113419028E780225146D203114203D061461142DE
S11341A000D13300FF241DE7FF2400232CE7002C5B
S11341B0E9D1002B63D0002E00D113E79B195A01DB
S11341C000D43EE7314A0C0013400BE7002C1ED10B
S11341D0002B2FD1002E4FD033000D0002E7012613
S11341E055E7002C1FD1002B43D0C94300290BD025
S11341F0FF2839D01B2944DC1C002027CC40791A25
S11342008B40591E8B4123439B19040040E7002B2C
S11342101AD1002E24D180270022FF031BE733008C
S113422004000D00DEE6FF281ED08024E404494289
S11342302343DFE7002E00D1D4E69F1B7A0100D48C
S113424037E7F31A0D00CDE6FF24002E00D1C9E6AE
S113425080225046D2031042A4D060461042A1D11D
S113426033000D00FF24BDE63300FF24BAE601232A
S11342706EE733000400B5E6002700221CE7330094
S1134280B0E60123C0E7C046FFFFFF7DFFFFFFFB51
S113429041024300C20F490A1B0E00207E2B0DDD94
S11342A09D2B0CDC802000040143952B0ADC962016
S11342B0C31AD9404842002A00D108007047034B72
S11342C0D018FBE7963B9940F4E7C046FFFFFF7F19
S11342D070B5002830D0C317C4185C40C50F200047
S11342E001F056FF9E231B1A962B0DDC9622D21A40
S11342F094402A006402640ADBB26402DB05600AAB
S1134300D2071843104370BD992B19DC9922D21A95
S1134310002A29DD94402200144C1440510704D093
S11343200F210A40042A00D00434620113D4A401EA
S1134330640ADBB22A00E0E7002200230024DCE761
S113434005222100121AD140B922D21A9440621EC9
S113435094410C43DAE7054B2A001C409F23A40137
S11343601B1A640ADBB2C8E72200D5E7FFFFFFFB94
S1134370F8B54546DE4657464E460C03E0B54E00BA
S1134380C90F88460D00610A440F0C43C700190386
S11343905800DB0F9B464B0A510F0B43760D400D23
S11343A01900D200D84500D1AEE0351A002D00DC4A
S11343B0F6E000280FD1134300D1DBE06B1E002B85
S11343C000D037E1BA1A9742BF41641A7F42E41B16
S11343D00126170024E0C64B9E424DD080231B04C7
S11343E01943382D00DD07E11F2D00DD38E12020C1
S11343F0431B9A460B005046834099461300484697
S1134400EB401843030050468240501E8241E9406D
S11344101A43BA1A611A9742A441170064420C1B4A
S1134420230262D56402650A002D00D1DFE0280072
S113443001F0AEFE0300083B1F2B00DDD2E020227A
S11344403C00D21A9D40D4409F4025439E4200DD4B
S1134450C4E09E1B731C1F2B00DDF1E020223800FA
S11344602900D21AD840914097402C000143781E6D
S11344708741DC4000260F437B0709D00F233B40D4
S1134480042B05D03B1DBB42BF417F42E4191F00F2
S113449023022CD5964B01369E4200D19AE0454624
S11344A0944BFF081C406007760564020743240B05
S11344B0760D00212403230B0C0D8F4A24051C4385
S11344C01440330523435B00ED075B082B4338009E
S11344D019003CBC90469946A246AB46F8BD6446DA
S11344E0044300D111E2040067467B07C6D1454668
S11344F06007FF080743E4087D4B9E4230D0240345
S11345007605240B760DD4E7331A9A46002B78DD12
S1134510002831D076488642AED080200004014382
S11345205346382B00DCE9E00A43511E8A4100213E
S1134530D219BA42BF4109197C4217000C1923024F
S1134540D3D56B4B01369E4200D13AE10120694B31
S11345501C407B0807401F43E007074364088BE7C0
S113456023003B4300D1CBE18022120314432403F4
S1134570240B9EE72E007FE70800104300D1B4E02F
S1134580581E002800D0DEE0BA18BA429B416418D5
S11345905B42E418170001262302A6D50226D5E7BC
S11345A0002D6ED1701C4005400D012800DCF9E09F
S11345B0B81A844687428041E51A40422D1A2802DF
S11345C000D489E0D71BBA4292411C1B5242A51A5F
S11345D0D84629E74546002400276AE7454CF61AE1
S11345E02C4049E73D002838854000272EE7380055
S11345F001F0CEFD20301DE70A43511E8A410021FF
S113460007E7002B00D0F3E0701C43055B0D012B82
S113461000DCADE0364B984200D1D1E0BA18BA4282
S1134620BF4164187F42E419E7075208174364083E
S1134630060021E72E48854200D193E01D00D0E614
S113464029001F3EF140202B00D18DE04022D31AD7
S11346509D402F437D1EAF4100240F43002644E7B5
S11346602B000800203BD8400300202D00D17DE022
S11346704020451BA9400A43511E8A4100211A4388
S1134680C7E6002E50D01A4EB04257D080266B4257
S11346909946360434434B46382B00DDD6E01F2BB5
S11346A000DD35E12026F51A2600AE40B2463E0074
S11346B0DE40AC46350056462E436546AF407D1E6F
S11346C0AF41DC403743D71BBA4292410C1B5242E4
S11346D0A41A0600D846A3E6644667462C4300D0D5
S11346E0A2E600250026002706E71E00C4E6C04611
S11346F0FF070000FFFF7FFFFFFF0F801F2B63DC1E
S11347002020C31A080098409C4683465346100054
S1134710D84003005846184363469A40531E9A41B2
S113472053460243D94003E726003E4306D0EB43F9
S11347309946002BC7D0944EB042ACD10C00170060
S11347400600D84698E6904B9A450BD08246E7E699
S1134750002800D09EE01800104300D1E9E01C00BE
S11347601700D846884E87E6002572E7002182E7C5
S113477023003B43002E00D0ABE0002B00D1E7E048
S11347800B00134300D177E6BA18BA42BF4164184C
S11347907F42E419230200D4F2E07C4B17001C4052
S11347A0060069E620003843002ED1D100285BD1F1
S11347B01C00144300D1A8E01C001700D8465BE697
S11347C006000024002797E650460B002038C3401B
S11347D099465346202B00D195E0402350461B1A9E
S11347E099400A43511E8A414B4600211A439FE6D1
S11347F0002E30D126003E4367D0DB439A46002B7F
S11348001CD0614EB04260D05346382B00DD96E098
S11348101F2B00DD9FE02026F31A26009E409C46B5
S1134820B34653463E00DE4033005E461E436346B5
S11348309F407B1E9F415346DC403743BF1897423D
S1134840924164185242A418060078E627437C1E5D
S1134850A741002437E74C4EB04236D080265B4255
S113486036049A463443CFE71800104300D103E6D8
S1134870B81A84466745AD41E01A6D42401B0502F3
S113488000D42CE6D71BBA4292411C1B5242A41AF4
S1134890D846F1E51800104300D163E7F80867072C
S11348A007438020E4080003044208D0DD080542E1
S11348B005D1D208590711430F002C00D8467B0FAD
S11348C0E4001C43FF00304ED6E50C001700060040
S11348D0D2E5002B38D00B00134300D142E7F8088F
S11348E0670707438020E40800030442E7D0CB08AD
S11348F00342E4D1D208490711430F001C00DEE74C
S113490000270024D5E500216BE700250027F3E507
S11349104E462500203EF5404B462E00202B2DD040
S11349204025ED1AAC4027437C1EA74100243743A1
S1134930C9E6802400252403134E0027DCE5274321
S11349407C1EA741002479E70C0017000E4E93E566
S11349500C00170090E556462300203EF34099468C
S11349605346202B0ED0402356469B1B9C40274386
S11349707C1EA7414B4600241F435FE70024D2E777
S11349801700B2E50024F2E7FF070000FFFF7FFFF6
S1134990F0B557464546DE464E46E0B54C000E039C
S11349A087B0834692461D008046360B640DCF0FB8
S11349B0002C4FD06F4B9C4235D08023420F1B04F8
S11349C0F600134333439946C30098466A4B0026C6
S11349D09C460023644403932B031B0B9B466B00F0
S11349E0ED0F50465B0D01955ED0624A934253D061
S11349F05A46D1008022400F120402430A439346D0
S1134A005246D1005C4A9446002263443800684010
S1134A1084460290E41A16430F2E00D9B4E0574B93
S1134A20B6009B599F460300334399466CD100233B
S1134A309846023308260393CEE7CB464146039AB1
S1134A400197022A65D1019B4A4C9C46002300220F
S1134A5098466BE00300334399464ED0002E00D1B4
S1134A60BCE1300001F094FB03000B3B1C2B00DD88
S1134A70ACE11D22D31A5A460100DA4008398E40AF
S1134A801300334399465B468B40984600233C4CC5
S1134A900026241A03939FE751465A46114329D10D
S1134AA0002293460232B1E7594601431ED05B46C9
S1134AB0002B00D19EE1584601F06AFB03000B3B3A
S1134AC01C2B00DD8FE102005946083A91408B46C9
S1134AD01D21CB1A5146D9400B0059460B43514670
S1134AE09B469140264B00221B1A8FE7002301228C
S1134AF09B468BE75146032288E7002398460133FF
S1134B0004260024039367E70323B14603930C268A
S1134B1062E7032A00D15CE2019B012A00D0E4E1B0
S1134B2013409C46002300240022984600211203CF
S1134B30130B0A0D12051A432305124C404622405A
S1134B40134362465B00D2075B081343190007B0A6
S1134B503CBC90469946A246AB46F0BD0023802259
S1134B609C4612039846034CE0E70023014C0022C4
S1134B709846DBE7FF07000001FCFFFFE06300004D
S1134B800DFCFFFFFFFF0F80D94500D939E100D1AB
S1134B9034E1002346464D469A46013C5B460A0EE4
S1134BA01B021A430B02170C039313041B0C39004A
S1134BB028009046019301F05FFA0200019B8346AE
S1134BC05A4328003900914601F0DCFA350C0904F7
S1134BD00D43A9450DD95B464544013BA84500D981
S1134BE03AE1A94500D837E102235B429C4645449B
S1134BF0E3444B46EB1A39001800049301F03CFAE5
S1134C00019B0500434339000498994601F0BAFA20
S1134C10330409041B0C0B43994509D943446A1E08
S1134C20984500D91AE1994500D817E1023D43445B
S1134C304A469B1A5A4612042A4303999346100C77
S1134C400A0C914609045A46090C4E460D001204FA
S1134C50120C4543059151437243704352190E0C93
S1134C60B218954203D980256D02AC466044150CF8
S1134C7009041204090C28185218834200D2CEE009
S1134C8000D1C8E01D1A53469E1AB24592415242C1
S1134C90AB1A9A46984500D117E13900180001F083
S1134CA0EBF9019B0500434339005046049301F09E
S1134CB069FA04980B04310C1943884209D9414418
S1134CC06B1E884500D907E1884200D804E1023D03
S1134CD04144049BCB1A18003900049301F0CCF929
S1134CE0019B8246434339000498019301F04AFA38
S1134CF001980B043104090C194388420DD9534619
S1134D004144013B884500D9E8E0884200D8E5E009
S1134D1002235B429C464144E244019B2D04CE1A8B
S1134D2051462943059D4F462A000B04080C1B0CD1
S1134D305A4345437B4378435B19170CFB189D4248
S1134D4003D980256D02AC4660441D0C12041B047B
S1134D50120C28189B18864200D293E000D18EE0F2
S1134D6001231943A04BE318002B00DC99E04A0708
S1134D7000D09EE05A46D20106D55A469B4B1A40B3
S1134D8080239346DB00E318994A934268DD0123AC
S1134D90029A984C1A400023944698460022C5E68D
S1134DA080224B46120313420AD05B46134206D1BB
S1134DB01A431203120BAC4688468E4CB6E64B4699
S1134DC01A431203120BBC468A4CAFE603005A4640
S1134DD0283B9A4000239146984657E6584601F0EE
S1134DE0D7F9203040E603005246283B9A40002180
S1134DF0934677E601F0CCF920305FE6884500D28F
S1134E00C7E64B46DE075D0843465B081E43434640
S1134E10DB079A46C2E60025924500D333E7039E9A
S1134E205946B446E244B245AD416D424544EB189F
S1134E300139984507D2984200D97FE000D1BCE0FF
S1134E401D1A8B461FE79845FAD1039D5545F2D9A3
S1134E5043468B461D1A16E79B46CAE61500E7E64D
S1134E605A46C90852070A435B0590465C0D5A46E8
S1134E700123029952021940120B8C4656E6002B6C
S1134E8000D16FE746444A1EB04529D91100864235
S1134E9000D065E7039A934200D061E762E70121FD
S1134EA049420120C21A382A21DD029B03409C4654
S1134EB038E60F220A40042A00D15BE70A00111DDC
S1134EC0914292415242934454E7474BE318002BDA
S1134ED0E5DD01225242F2E71D00FAE69A461CE79C
S1134EE0B04239D86ED011003AE702933AE71F2A4C
S1134EF03CDC20239B1A0C005846994098404B1EDA
S1134F0099415B46D440D340204308431A004307E9
S1134F1009D00F230340042B05D00100081D88424B
S1134F209B415B42D21813023AD50123029A012411
S1134F301A400023944698460022F7E5022149428C
S1134F408C46039DE344AC46E244AA45AD416D4220
S1134F504544ED182D1A96E68A1E03994D008D429C
S1134F60894149424144761803958FE71F20404206
S1134F70C31A5846D8400300202A28D040205D4652
S1134F80821A954029434A1E91411943072300225E
S1134F900B4009D00F2300220B400800042BBDD185
S1134FA0010053075202120BC90819430123884612
S1134FB00299002419408C46B8E55245BED88B4668
S1134FC0002560E6039D9D42C6D3110062E70025DB
S1134FD0D8E780225B4612031A43019B1203120B8B
S1134FE09C468846034CA1E5FF030000FFFFFFFE3B
S1134FF0FE070000FF070000F0B54F464646D646C0
S11350005C00C0B51F03DB0F9A46174B0E034D001F
S113501084468046360B6D0DC90F91463F0B640DD7
S113502001209D4208D09C4201D0A5420BD01CBC5B
S113503090469946A246F0BD63463343F7D1AC424D
S1135040F5D13A43F3D10120BE42F0D1C845EED1A7
S1135050514507D0002DEAD163461E433000461E59
S1135060B041E4E70020E2E7FF070000F0B5454661
S1135070DE4657464E46E0B51F033D0B2C4F0E034C
S11350804C00AB465D008446360B640DC90F904658
S11350906D0DDB0FBC422AD0254FBD422DD0002C14
S11350A00FD130430700814678427841C0B2002DC9
S11350B017D15F463A4314D14B460020002B0AD047
S11350C006E0002D02D15846024301D0994218D07F
S11350D04842012108433CBC90469946A246AB464F
S11350E0F0BD0028F2D00120013B1843F3E737005C
S11350F00743D1D002204042EDE75F461743CED0AC
S1135100F8E7AC42E4DC03DA481E01210843E2E795
S11351105E45DDD806D000205E45DCD20123481E62
S11351201843D8E7C445D3D80020C445F6D3D2E702
S1135130FF070000F0B54E464546DE4657465C0084
S1135140E0B51F03DB0F99462A4B0E034D00C90F30
S11351508446360B6D0D8B4690463F0B640D9D4285
S113516020D0244B9C4222D0002D12D13043434204
S11351704341DBB2002C1FD0002B0CD04B46012046
S1135180013B034318003CBC90469946A246AB46FB
S1135190F0BD002C16D0CB4517D05B4659420123F5
S11351A00B43EFE7310002230143EBD1D9E7390088
S11351B002231143E6D1D7E73A43DDD10023002887
S11351C0E0D0EAE73A43E6D1E7E7A542E5DC05DBD0
S11351D0BE42E2D807D00023BE42D3D259460123AF
S11351E001390B43CEE7C445D7D80023C445F5D3D2
S11351F0C8E7C046FF070000F0B557464546DE46FF
S11352004E46E0B50C0398464E00230B87B00700CA
S113521092469B46760DCD0F002E6BD06D4B9E4271
S113522035D080245B46420F2404DB0014431C4326
S1135230C3009946684BA3469C4600230027664456
S1135240029343461C035A00DB0F5046240B520DB5
S1135250984600D176E05F4B9A426DD08023410F8F
S11352601B040B435C49E4008C461C43C300002030
S113527062444146B6186940721C01919446074342
S11352800F2F00D9B0E0554ABF00D25997465B466C
S11352900343994600D087E000239B460233082746
S11352A00293CEE742460192022867D0032800D138
S11352B00EE2012800D062E1002300240022994676
S11352C001990140CDB2002112030B0D120B1B05F5
S11352D01343434A240513401C436400ED07640848
S11352E02C434846210007B03CBC90469946A24650
S11352F0AB46F0BD034399464FD05B46002B00D12B
S113530089E1584600F044FF03000B3B1C2B00DDF1
S11353107AE11D22D31A3A0001005C46DA400839CA
S11353208C4013008F4023439B46B94600232D4EE7
S11353300027361A029384E7534623432AD10024D4
S1135340022096E75346234320D0002C00D157E196
S1135350200000F01DFF03000B3B1C2B00DD49E186
S11353601D21CB1A51460200D9405346083A9440B5
S113537093400C431B4A121A00207AE70125019B33
S1135380144C1D400023002299469CE7002400226F
S113539001206EE7534603206BE700239B4601334D
S11353A00427002602934CE7032381460C2702932B
S11353B047E780220023002512039946054C82E723
S11353C05C464B4602986FE75C464B460195029853
S11353D06AE7C046FF07000001FCFFFF20640000ED
S11353E0FFFF0F800DFCFFFF4A464946170C1A0CBD
S11353F01B041B0C08041900000C414315008846CB
S113540019007D43794303958946290015004543D6
S11354104D44029545462D0CAA46029D5544A94586
S113542006D98A46802149028946CA4451460391D5
S1135430290C0491414609042D04090C88462900CD
S1135440250C24044144240C059121004143884641
S1135450210079438A466843414650448146080CFA
S113546048446F43824503D98021490289464F4409
S1135470010C894639004944029141460F040499BC
S11354803F0C88460004C0198044414604915946A3
S11354900F0C0904090C884659438A4639005143C4
S11354A0894641464A435146090C8B467B43D218F0
S11354B05A44934203D980235B029B46D944514604
S11354C00904090C8A46414661437C43130C1204C7
S11354D04B445244A1468A463C0041466C434D43EA
S11354E051464D440F0C7D19A94503D98021490229
S11354F088464444049F0399B84641448B468345F7
S1135500804141428846514608042F04000C3F184C
S11355105846029910188946904292414F44BA461F
S1135520524299469346C244D144CB448F42BF4130
S1135530C245894199459B41934592417F424942E5
S11355402D0C52420F435B4213437F19FF185B46F5
S11355503C19DB0D059A64021C43430213435D1E90
S1135560AB415A46C00D034352021343E20156D5E0
S113557001205A0803401343E207134364085A48BE
S1135580604400284DDD5A0709D00F221A40042A2E
S113559005D01A1D9A429B415B42E4181300E201B4
S11355A004D58020514AC00014406044504A9042BF
S11355B000DDE3E60125DB0862071A436402019B70
S11355C09146220B4405640D1D407CE68022594619
S11355D01203114208D0144206D122431203120BC3
S11355E045469946434C6EE65B461A431203120B3A
S11355F0404C68E603005446283B9C400023B9E62F
S113560000F0C6FD2030A6E60300283B9F4000239F
S1135610BB4699468AE600F0BBFD203074E6B446EA
S1135620ADE701252A1A382A06DD019B00241D4016
S113563000230022994646E61F2A21DC202520006B
S1135640AD1A1E00AB40A840D6405D1EAB413043AE
S11356501843D440430709D00F230340042B05D03B
S11356600300181D98429B415B42E418230221D594
S11356700125019B01241D4000230022994622E6B6
S11356801F2521006D42281AC1400800202A1DD080
S11356905F35AA1A944023435C1EA34107250343A4
S11356A01D400022002D09D00F2200241A401800AA
S11356B0042AD6D1030065076402220BDB082B43BE
S11356C001259946019B00241D40FCE50024E2E7E6
S11356D0802201251203224301991203120B0D406B
S11356E09946044CEFE5C046FF030000FFFFFFFEB0
S11356F0FE070000FF070000F0B54646D6464F46B9
S11357000C03C0B5CD0F4E00610A440F0C43C10019
S11357105800400D84468A460F001903500F490A69
S11357200143C648760DA846DB0FD200844500D15C
S1135730D8E001204340AB4200D1A6E06046351AD0
S1135740002D00DC05E1002810D10B00134300D12B
S1135750D7E06B1E002B00D04BE153469F1ABA458D
S11357608041641A4042241A01261EE0B34B9E4233
S113577048D080231B041943382D00DD19E11F2D67
S113578000DD4CE120230F005B1B10009A409F407A
S1135790E840531E9A41E940074317435346DF1B31
S11357A0611ABA45A44164420C1B230200D4C5E02B
S11357B06402650A002D00D1F6E0280000F0E8FC40
S11357C00300083B1F2B00DDE9E020223C00D21A35
S11357D09D40D4409F4025439E4200DDDBE09E1B5C
S11357E0731C1F2B00DD0AE120223800D21A290085
S11357F097402C009140D8407A1E9741DC40002607
S113580001430F437B0709D00F233B40042B05D0F2
S11358103B1DBB42BF417F42E4191F00230225D533
S1135820864B01369E4200D1AFE0854B01251C40DA
S113583043466207FF08640276051743240B760D7E
S11358401D4000212403230B0C0D7E4A24051C4318
S11358501440330523435B00ED075B082B433800FA
S113586019001CBC90469946A246F0BD012543464A
S11358706207FF081743E4081D40704B9E4236D070
S113588024037605240B760DDBE76346F31A002B1D
S113589000DC94E06046002835D068488642B1D0E8
S11358A080273F043943382B00DCFDE00A4317000E
S11358B000217A1E974157445745804109194442B3
S11358C00C1923023AD55D4B01369E4200D14BE1BF
S11358D001225B4B1C407B0817401F43E207174320
S11358E064088FE70800104300D024E721E7230071
S11358F03B4300D1B9E18022120314432403240B57
S11359009FE72E007EE70800104300D1CAE0581E2E
S11359108446002800D0E7E0524452458041641890
S11359204042241817000126230207D50226CFE798
S113593064462C4300D1B3E12C0067467B0700D0BA
S113594062E76307FF081F4301254346E4081D403F
S113595093E7002D78D1751C6D056D0D012D00DCCC
S1135960F2E05046801A8245BF41651A7F42ED1B22
S11359708446280200D48CE05046171ABA42924159
S11359800C1B5542651B984614E701254346002429
S11359901D40002755E72A4CF61A2C4032E73D00FB
S11359A028388540002717E7380000F0F1FB203045
S11359B006E70A43170000217A1E9741EEE6002B02
S11359C000D0E5E0731C9C465B055B0D012B00DCFD
S11359D09FE01A4B9C4500D1C5E05244524580419A
S11359E0641840422418E7075208174364086646BF
S11359F008E71248854200D185E01D00BCE6290075
S1135A001F3EF140202B00D17FE04022D31A9D405D
S1135A102F437D1EAF4100240F4300268EE72B0049
S1135A200F00203BDF40202D71D040235D1BA94097
S1135A300A43511E8A4100211743AFE6FF070000C5
S1135A40FFFF7FFFFFFF0F80002E3ED0B34EB44513
S1135A5045D0802636046D423443382D00DDA8E05D
S1135A601F2D00DD1FE1202627005046761BB7407E
S1135A70E84007435046B040461EB041EC4038432E
S1135A80171ABA4292410C1B5242A41A664698460F
S1135A908BE6644667462C4300D08BE6002500263F
S1135AA00027EAE61E00ADE61F2B60DC2027F81A6B
S1135AB00F00844687401000D84007436046824068
S1135AC0501E8241D9401743F5E62600504606434E
S1135AD005D0ED43002DD3D0904EB445BDD10C007C
S1135AE01700664698468DE68C4883420BD0634681
S1135AF0D9E6002D00D096E00800104300D1E2E082
S1135B000C0017009846854E7CE6002580E70021AE
S1135B108EE7230050460343002E00D0A8E0002B5C
S1135B2000D1DEE00B00134300D16BE65244524532
S1135B3080416418404224181700230200D4FDE673
S1135B40774B66461C405DE6250050460543002E13
S1135B50CFD1002D4FD10C00144300D1A0E00C0094
S1135B60170098464EE666460024002785E61F0087
S1135B700800203FF8400700202B00D18EE0402091
S1135B80C31A99400A43511E8A410021174392E6E1
S1135B90002E14D126005046064362D0DB43002B6E
S1135BA05CD187189742924164185242A418664601
S1135BB087E650462043441EA041002460E7574E28
S1135BC0B4454ED0802636045B423443382B00DD86
S1135BD07FE01F2B00DD8BE0202627005046F61ABD
S1135BE0B740D84007435046B040461EB041074333
S1135BF0DC40BF18D6E70D00154300D102E650463D
S1135C00801A8245BF41651A7F42ED1B84462802F3
S1135C1000D48DE65046171ABA4292410C1B5242E8
S1135C20A41A9846EEE50D00154300D16BE75046E3
S1135C306707C00807438020E4080003044207D034
S1135C40CD08054204D12C009846D70849070F43D4
S1135C507B0FE4001C43FF00304ED3E52F4EB445C8
S1135C60B4D10C0017006646CCE500270024E8E513
S1135C70002B39D00B00134300D144E7C008670759
S1135C8007438020E40800030442E1D0CB08034228
S1135C90DED1D70849070F431C00D9E7002171E77B
S1135CA000250027E9E52E002700203EF740202D9F
S1135CB02FD04026751BAC4050462043441EA041C3
S1135CC000243843DCE6802400252403134E0027F7
S1135CD0D3E5504620430700781E87410024BF18AF
S1135CE060E70C0017008DE50C0017000B4E89E5EA
